{
  "contractName": "Nft",
  "abi": [
    {
      "inputs": [],
      "stateMutability": "nonpayable",
      "type": "constructor"
    },
    {
      "anonymous": false,
      "inputs": [
        {
          "indexed": true,
          "internalType": "address",
          "name": "owner",
          "type": "address"
        },
        {
          "indexed": true,
          "internalType": "address",
          "name": "approved",
          "type": "address"
        },
        {
          "indexed": true,
          "internalType": "uint256",
          "name": "tokenId",
          "type": "uint256"
        }
      ],
      "name": "Approval",
      "type": "event"
    },
    {
      "anonymous": false,
      "inputs": [
        {
          "indexed": true,
          "internalType": "address",
          "name": "owner",
          "type": "address"
        },
        {
          "indexed": true,
          "internalType": "address",
          "name": "operator",
          "type": "address"
        },
        {
          "indexed": false,
          "internalType": "bool",
          "name": "approved",
          "type": "bool"
        }
      ],
      "name": "ApprovalForAll",
      "type": "event"
    },
    {
      "anonymous": false,
      "inputs": [
        {
          "indexed": true,
          "internalType": "address",
          "name": "from",
          "type": "address"
        },
        {
          "indexed": true,
          "internalType": "address",
          "name": "to",
          "type": "address"
        },
        {
          "indexed": true,
          "internalType": "uint256",
          "name": "tokenId",
          "type": "uint256"
        }
      ],
      "name": "Transfer",
      "type": "event"
    },
    {
      "inputs": [
        {
          "internalType": "address",
          "name": "to",
          "type": "address"
        },
        {
          "internalType": "uint256",
          "name": "tokenId",
          "type": "uint256"
        }
      ],
      "name": "approve",
      "outputs": [],
      "stateMutability": "nonpayable",
      "type": "function"
    },
    {
      "inputs": [
        {
          "internalType": "address",
          "name": "owner",
          "type": "address"
        }
      ],
      "name": "balanceOf",
      "outputs": [
        {
          "internalType": "uint256",
          "name": "",
          "type": "uint256"
        }
      ],
      "stateMutability": "view",
      "type": "function"
    },
    {
      "inputs": [],
      "name": "baseURI",
      "outputs": [
        {
          "internalType": "string",
          "name": "",
          "type": "string"
        }
      ],
      "stateMutability": "view",
      "type": "function"
    },
    {
      "inputs": [
        {
          "internalType": "uint256",
          "name": "tokenId",
          "type": "uint256"
        }
      ],
      "name": "getApproved",
      "outputs": [
        {
          "internalType": "address",
          "name": "",
          "type": "address"
        }
      ],
      "stateMutability": "view",
      "type": "function"
    },
    {
      "inputs": [
        {
          "internalType": "address",
          "name": "owner",
          "type": "address"
        },
        {
          "internalType": "address",
          "name": "operator",
          "type": "address"
        }
      ],
      "name": "isApprovedForAll",
      "outputs": [
        {
          "internalType": "bool",
          "name": "",
          "type": "bool"
        }
      ],
      "stateMutability": "view",
      "type": "function"
    },
    {
      "inputs": [],
      "name": "name",
      "outputs": [
        {
          "internalType": "string",
          "name": "",
          "type": "string"
        }
      ],
      "stateMutability": "view",
      "type": "function"
    },
    {
      "inputs": [
        {
          "internalType": "uint256",
          "name": "tokenId",
          "type": "uint256"
        }
      ],
      "name": "ownerOf",
      "outputs": [
        {
          "internalType": "address",
          "name": "",
          "type": "address"
        }
      ],
      "stateMutability": "view",
      "type": "function"
    },
    {
      "inputs": [
        {
          "internalType": "address",
          "name": "from",
          "type": "address"
        },
        {
          "internalType": "address",
          "name": "to",
          "type": "address"
        },
        {
          "internalType": "uint256",
          "name": "tokenId",
          "type": "uint256"
        }
      ],
      "name": "safeTransferFrom",
      "outputs": [],
      "stateMutability": "nonpayable",
      "type": "function"
    },
    {
      "inputs": [
        {
          "internalType": "address",
          "name": "from",
          "type": "address"
        },
        {
          "internalType": "address",
          "name": "to",
          "type": "address"
        },
        {
          "internalType": "uint256",
          "name": "tokenId",
          "type": "uint256"
        },
        {
          "internalType": "bytes",
          "name": "_data",
          "type": "bytes"
        }
      ],
      "name": "safeTransferFrom",
      "outputs": [],
      "stateMutability": "nonpayable",
      "type": "function"
    },
    {
      "inputs": [
        {
          "internalType": "address",
          "name": "operator",
          "type": "address"
        },
        {
          "internalType": "bool",
          "name": "approved",
          "type": "bool"
        }
      ],
      "name": "setApprovalForAll",
      "outputs": [],
      "stateMutability": "nonpayable",
      "type": "function"
    },
    {
      "inputs": [
        {
          "internalType": "bytes4",
          "name": "interfaceId",
          "type": "bytes4"
        }
      ],
      "name": "supportsInterface",
      "outputs": [
        {
          "internalType": "bool",
          "name": "",
          "type": "bool"
        }
      ],
      "stateMutability": "view",
      "type": "function"
    },
    {
      "inputs": [],
      "name": "symbol",
      "outputs": [
        {
          "internalType": "string",
          "name": "",
          "type": "string"
        }
      ],
      "stateMutability": "view",
      "type": "function"
    },
    {
      "inputs": [
        {
          "internalType": "address",
          "name": "from",
          "type": "address"
        },
        {
          "internalType": "address",
          "name": "to",
          "type": "address"
        },
        {
          "internalType": "uint256",
          "name": "tokenId",
          "type": "uint256"
        }
      ],
      "name": "transferFrom",
      "outputs": [],
      "stateMutability": "nonpayable",
      "type": "function"
    },
    {
      "inputs": [
        {
          "internalType": "address",
          "name": "_owner",
          "type": "address"
        },
        {
          "internalType": "string",
          "name": "_tokenURI",
          "type": "string"
        }
      ],
      "name": "mintNft",
      "outputs": [
        {
          "internalType": "uint256",
          "name": "",
          "type": "uint256"
        }
      ],
      "stateMutability": "nonpayable",
      "type": "function"
    },
    {
      "inputs": [
        {
          "internalType": "uint256",
          "name": "_tokenURI",
          "type": "uint256"
        }
      ],
      "name": "tokenURI",
      "outputs": [
        {
          "internalType": "string",
          "name": "",
          "type": "string"
        }
      ],
      "stateMutability": "pure",
      "type": "function"
    },
    {
      "inputs": [
        {
          "internalType": "bool",
          "name": "actif",
          "type": "bool"
        },
        {
          "internalType": "uint256",
          "name": "price",
          "type": "uint256"
        },
        {
          "internalType": "address",
          "name": "collection",
          "type": "address"
        }
      ],
      "name": "setDetail",
      "outputs": [],
      "stateMutability": "nonpayable",
      "type": "function"
    },
    {
      "inputs": [
        {
          "internalType": "contract NftCollection",
          "name": "collection",
          "type": "address"
        }
      ],
      "name": "setCollection",
      "outputs": [],
      "stateMutability": "nonpayable",
      "type": "function"
    },
    {
      "inputs": [],
      "name": "getDetail",
      "outputs": [
        {
          "components": [
            {
              "internalType": "bool",
              "name": "actif",
              "type": "bool"
            },
            {
              "internalType": "uint256",
              "name": "price",
              "type": "uint256"
            },
            {
              "internalType": "contract NftCollection",
              "name": "collection",
              "type": "address"
            }
          ],
          "internalType": "struct Nft.NftDetail",
          "name": "",
          "type": "tuple"
        }
      ],
      "stateMutability": "view",
      "type": "function"
    }
  ],
  "bytecode": "0x60806040523480156200001157600080fd5b506040518060400160405280600381526020017f4e467400000000000000000000000000000000000000000000000000000000008152506040518060400160405280600781526020017f4e46545f46504d00000000000000000000000000000000000000000000000000815250816000908051906020019062000096929190620000b8565b508060019080519060200190620000af929190620000b8565b505050620001cc565b828054620000c69062000197565b90600052602060002090601f016020900481019282620000ea576000855562000136565b82601f106200010557805160ff191683800117855562000136565b8280016001018555821562000136579182015b828111156200013557825182559160200191906001019062000118565b5b50905062000145919062000149565b5090565b5b80821115620001645760008160009055506001016200014a565b5090565b7f4e487b7100000000000000000000000000000000000000000000000000000000600052602260045260246000fd5b60006002820490506001821680620001b057607f821691505b602082108103620001c657620001c562000168565b5b50919050565b612a7e80620001dc6000396000f3fe608060405234801561001057600080fd5b50600436106101165760003560e01c80636c0360eb116100a257806395d89b411161007157806395d89b41146102f1578063a22cb4651461030f578063b88d4fde1461032b578063c87b56dd14610347578063e985e9c51461037757610116565b80636c0360eb1461026b57806370a082311461028957806374992677146102b9578063768b5fd5146102d557610116565b806311f87b19116100e957806311f87b19146101b557806323b872dd146101e557806342842e0e146102015780635b2a4cff1461021d5780636352211e1461023b57610116565b806301ffc9a71461011b57806306fdde031461014b578063081812fc14610169578063095ea7b314610199575b600080fd5b61013560048036038101906101309190611830565b6103a7565b6040516101429190611878565b60405180910390f35b610153610489565b604051610160919061192c565b60405180910390f35b610183600480360381019061017e9190611984565b61051b565b60405161019091906119f2565b60405180910390f35b6101b360048036038101906101ae9190611a39565b6105a0565b005b6101cf60048036038101906101ca9190611bae565b6106b7565b6040516101dc9190611c19565b60405180910390f35b6101ff60048036038101906101fa9190611c34565b6106ef565b005b61021b60048036038101906102169190611c34565b61074f565b005b61022561076f565b6040516102329190611d46565b60405180910390f35b61025560048036038101906102509190611984565b610804565b60405161026291906119f2565b60405180910390f35b6102736108b5565b604051610280919061192c565b60405180910390f35b6102a3600480360381019061029e9190611d61565b6108d1565b6040516102b09190611c19565b60405180910390f35b6102d360048036038101906102ce9190611dba565b610988565b005b6102ef60048036038101906102ea9190611e4b565b6109f8565b005b6102f9610a3f565b604051610306919061192c565b60405180910390f35b61032960048036038101906103249190611e78565b610ad1565b005b61034560048036038101906103409190611f59565b610ae7565b005b610361600480360381019061035c9190611984565b610b49565b60405161036e919061192c565b60405180910390f35b610391600480360381019061038c9190611fdc565b610b8c565b60405161039e9190611878565b60405180910390f35b60007f80ac58cd000000000000000000000000000000000000000000000000000000007bffffffffffffffffffffffffffffffffffffffffffffffffffffffff1916827bffffffffffffffffffffffffffffffffffffffffffffffffffffffff1916148061047257507f5b5e139f000000000000000000000000000000000000000000000000000000007bffffffffffffffffffffffffffffffffffffffffffffffffffffffff1916827bffffffffffffffffffffffffffffffffffffffffffffffffffffffff1916145b80610482575061048182610c20565b5b9050919050565b6060600080546104989061204b565b80601f01602080910402602001604051908101604052809291908181526020018280546104c49061204b565b80156105115780601f106104e657610100808354040283529160200191610511565b820191906000526020600020905b8154815290600101906020018083116104f457829003601f168201915b5050505050905090565b600061052682610c8a565b610565576040517f08c379a000000000000000000000000000000000000000000000000000000000815260040161055c906120ee565b60405180910390fd5b6004600083815260200190815260200160002060009054906101000a900473ffffffffffffffffffffffffffffffffffffffff169050919050565b60006105ab82610804565b90508073ffffffffffffffffffffffffffffffffffffffff168373ffffffffffffffffffffffffffffffffffffffff160361061b576040517f08c379a000000000000000000000000000000000000000000000000000000000815260040161061290612180565b60405180910390fd5b8073ffffffffffffffffffffffffffffffffffffffff1661063a610cf6565b73ffffffffffffffffffffffffffffffffffffffff161480610669575061066881610663610cf6565b610b8c565b5b6106a8576040517f08c379a000000000000000000000000000000000000000000000000000000000815260040161069f90612212565b60405180910390fd5b6106b28383610cfe565b505050565b60006106c3600a610db7565b60006106cf600a610dcd565b90506106db8482610ddb565b6106e58184610fb4565b8091505092915050565b6107006106fa610cf6565b82611028565b61073f576040517f08c379a0000000000000000000000000000000000000000000000000000000008152600401610736906122a4565b60405180910390fd5b61074a838383611106565b505050565b61076a83838360405180602001604052806000815250610ae7565b505050565b6107776116e8565b60076040518060600160405290816000820160009054906101000a900460ff16151515158152602001600182015481526020016002820160009054906101000a900473ffffffffffffffffffffffffffffffffffffffff1673ffffffffffffffffffffffffffffffffffffffff1673ffffffffffffffffffffffffffffffffffffffff1681525050905090565b6000806002600084815260200190815260200160002060009054906101000a900473ffffffffffffffffffffffffffffffffffffffff169050600073ffffffffffffffffffffffffffffffffffffffff168173ffffffffffffffffffffffffffffffffffffffff16036108ac576040517f08c379a00000000000000000000000000000000000000000000000000000000081526004016108a390612336565b60405180910390fd5b80915050919050565b604051806060016040528060218152602001612a286021913981565b60008073ffffffffffffffffffffffffffffffffffffffff168273ffffffffffffffffffffffffffffffffffffffff1603610941576040517f08c379a0000000000000000000000000000000000000000000000000000000008152600401610938906123c8565b60405180910390fd5b600360008373ffffffffffffffffffffffffffffffffffffffff1673ffffffffffffffffffffffffffffffffffffffff168152602001908152602001600020549050919050565b82600760000160006101000a81548160ff0219169083151502179055508160076001018190555080600760020160006101000a81548173ffffffffffffffffffffffffffffffffffffffff021916908373ffffffffffffffffffffffffffffffffffffffff160217905550505050565b80600760020160006101000a81548173ffffffffffffffffffffffffffffffffffffffff021916908373ffffffffffffffffffffffffffffffffffffffff16021790555050565b606060018054610a4e9061204b565b80601f0160208091040260200160405190810160405280929190818152602001828054610a7a9061204b565b8015610ac75780601f10610a9c57610100808354040283529160200191610ac7565b820191906000526020600020905b815481529060010190602001808311610aaa57829003601f168201915b5050505050905090565b610ae3610adc610cf6565b838361136c565b5050565b610af8610af2610cf6565b83611028565b610b37576040517f08c379a0000000000000000000000000000000000000000000000000000000008152600401610b2e906122a4565b60405180910390fd5b610b43848484846114d8565b50505050565b6060604051806060016040528060218152602001612a286021913982604051602001610b76929190612445565b6040516020818303038152906040529050919050565b6000600560008473ffffffffffffffffffffffffffffffffffffffff1673ffffffffffffffffffffffffffffffffffffffff16815260200190815260200160002060008373ffffffffffffffffffffffffffffffffffffffff1673ffffffffffffffffffffffffffffffffffffffff16815260200190815260200160002060009054906101000a900460ff16905092915050565b60007f01ffc9a7000000000000000000000000000000000000000000000000000000007bffffffffffffffffffffffffffffffffffffffffffffffffffffffff1916827bffffffffffffffffffffffffffffffffffffffffffffffffffffffff1916149050919050565b60008073ffffffffffffffffffffffffffffffffffffffff166002600084815260200190815260200160002060009054906101000a900473ffffffffffffffffffffffffffffffffffffffff1673ffffffffffffffffffffffffffffffffffffffff1614159050919050565b600033905090565b816004600083815260200190815260200160002060006101000a81548173ffffffffffffffffffffffffffffffffffffffff021916908373ffffffffffffffffffffffffffffffffffffffff160217905550808273ffffffffffffffffffffffffffffffffffffffff16610d7183610804565b73ffffffffffffffffffffffffffffffffffffffff167f8c5be1e5ebec7d5bd14f71427d1e84f3dd0314c0f7b2291e5b200ac8c7c3b92560405160405180910390a45050565b6001816000016000828254019250508190555050565b600081600001549050919050565b600073ffffffffffffffffffffffffffffffffffffffff168273ffffffffffffffffffffffffffffffffffffffff1603610e4a576040517f08c379a0000000000000000000000000000000000000000000000000000000008152600401610e41906124b9565b60405180910390fd5b610e5381610c8a565b15610e93576040517f08c379a0000000000000000000000000000000000000000000000000000000008152600401610e8a90612525565b60405180910390fd5b610e9f60008383611534565b6001600360008473ffffffffffffffffffffffffffffffffffffffff1673ffffffffffffffffffffffffffffffffffffffff1681526020019081526020016000206000828254610eef9190612574565b92505081905550816002600083815260200190815260200160002060006101000a81548173ffffffffffffffffffffffffffffffffffffffff021916908373ffffffffffffffffffffffffffffffffffffffff160217905550808273ffffffffffffffffffffffffffffffffffffffff16600073ffffffffffffffffffffffffffffffffffffffff167fddf252ad1be2c89b69c2b068fc378daa952ba7f163c4a11628f55a4df523b3ef60405160405180910390a4610fb060008383611539565b5050565b610fbd82610c8a565b610ffc576040517f08c379a0000000000000000000000000000000000000000000000000000000008152600401610ff39061263c565b60405180910390fd5b80600660008481526020019081526020016000209080519060200190611023929190611721565b505050565b600061103382610c8a565b611072576040517f08c379a0000000000000000000000000000000000000000000000000000000008152600401611069906126ce565b60405180910390fd5b600061107d83610804565b90508073ffffffffffffffffffffffffffffffffffffffff168473ffffffffffffffffffffffffffffffffffffffff1614806110bf57506110be8185610b8c565b5b806110fd57508373ffffffffffffffffffffffffffffffffffffffff166110e58461051b565b73ffffffffffffffffffffffffffffffffffffffff16145b91505092915050565b8273ffffffffffffffffffffffffffffffffffffffff1661112682610804565b73ffffffffffffffffffffffffffffffffffffffff161461117c576040517f08c379a000000000000000000000000000000000000000000000000000000000815260040161117390612760565b60405180910390fd5b600073ffffffffffffffffffffffffffffffffffffffff168273ffffffffffffffffffffffffffffffffffffffff16036111eb576040517f08c379a00000000000000000000000000000000000000000000000000000000081526004016111e2906127f2565b60405180910390fd5b6111f6838383611534565b611201600082610cfe565b6001600360008573ffffffffffffffffffffffffffffffffffffffff1673ffffffffffffffffffffffffffffffffffffffff16815260200190815260200160002060008282546112519190612812565b925050819055506001600360008473ffffffffffffffffffffffffffffffffffffffff1673ffffffffffffffffffffffffffffffffffffffff16815260200190815260200160002060008282546112a89190612574565b92505081905550816002600083815260200190815260200160002060006101000a81548173ffffffffffffffffffffffffffffffffffffffff021916908373ffffffffffffffffffffffffffffffffffffffff160217905550808273ffffffffffffffffffffffffffffffffffffffff168473ffffffffffffffffffffffffffffffffffffffff167fddf252ad1be2c89b69c2b068fc378daa952ba7f163c4a11628f55a4df523b3ef60405160405180910390a4611367838383611539565b505050565b8173ffffffffffffffffffffffffffffffffffffffff168373ffffffffffffffffffffffffffffffffffffffff16036113da576040517f08c379a00000000000000000000000000000000000000000000000000000000081526004016113d190612892565b60405180910390fd5b80600560008573ffffffffffffffffffffffffffffffffffffffff1673ffffffffffffffffffffffffffffffffffffffff16815260200190815260200160002060008473ffffffffffffffffffffffffffffffffffffffff1673ffffffffffffffffffffffffffffffffffffffff16815260200190815260200160002060006101000a81548160ff0219169083151502179055508173ffffffffffffffffffffffffffffffffffffffff168373ffffffffffffffffffffffffffffffffffffffff167f17307eab39ab6107e8899845ad3d59bd9653f200f220920489ca2b5937696c31836040516114cb9190611878565b60405180910390a3505050565b6114e3848484611106565b6114ef8484848461153e565b61152e576040517f08c379a000000000000000000000000000000000000000000000000000000000815260040161152590612924565b60405180910390fd5b50505050565b505050565b505050565b600061155f8473ffffffffffffffffffffffffffffffffffffffff166116c5565b156116b8578373ffffffffffffffffffffffffffffffffffffffff1663150b7a02611588610cf6565b8786866040518563ffffffff1660e01b81526004016115aa9493929190612999565b6020604051808303816000875af19250505080156115e657506040513d601f19601f820116820180604052508101906115e391906129fa565b60015b611668573d8060008114611616576040519150601f19603f3d011682016040523d82523d6000602084013e61161b565b606091505b506000815103611660576040517f08c379a000000000000000000000000000000000000000000000000000000000815260040161165790612924565b60405180910390fd5b805181602001fd5b63150b7a0260e01b7bffffffffffffffffffffffffffffffffffffffffffffffffffffffff1916817bffffffffffffffffffffffffffffffffffffffffffffffffffffffff1916149150506116bd565b600190505b949350505050565b6000808273ffffffffffffffffffffffffffffffffffffffff163b119050919050565b604051806060016040528060001515815260200160008152602001600073ffffffffffffffffffffffffffffffffffffffff1681525090565b82805461172d9061204b565b90600052602060002090601f01602090048101928261174f5760008555611796565b82601f1061176857805160ff1916838001178555611796565b82800160010185558215611796579182015b8281111561179557825182559160200191906001019061177a565b5b5090506117a391906117a7565b5090565b5b808211156117c05760008160009055506001016117a8565b5090565b6000604051905090565b600080fd5b600080fd5b60007fffffffff0000000000000000000000000000000000000000000000000000000082169050919050565b61180d816117d8565b811461181857600080fd5b50565b60008135905061182a81611804565b92915050565b600060208284031215611846576118456117ce565b5b60006118548482850161181b565b91505092915050565b60008115159050919050565b6118728161185d565b82525050565b600060208201905061188d6000830184611869565b92915050565b600081519050919050565b600082825260208201905092915050565b60005b838110156118cd5780820151818401526020810190506118b2565b838111156118dc576000848401525b50505050565b6000601f19601f8301169050919050565b60006118fe82611893565b611908818561189e565b93506119188185602086016118af565b611921816118e2565b840191505092915050565b6000602082019050818103600083015261194681846118f3565b905092915050565b6000819050919050565b6119618161194e565b811461196c57600080fd5b50565b60008135905061197e81611958565b92915050565b60006020828403121561199a576119996117ce565b5b60006119a88482850161196f565b91505092915050565b600073ffffffffffffffffffffffffffffffffffffffff82169050919050565b60006119dc826119b1565b9050919050565b6119ec816119d1565b82525050565b6000602082019050611a0760008301846119e3565b92915050565b611a16816119d1565b8114611a2157600080fd5b50565b600081359050611a3381611a0d565b92915050565b60008060408385031215611a5057611a4f6117ce565b5b6000611a5e85828601611a24565b9250506020611a6f8582860161196f565b9150509250929050565b600080fd5b600080fd5b7f4e487b7100000000000000000000000000000000000000000000000000000000600052604160045260246000fd5b611abb826118e2565b810181811067ffffffffffffffff82111715611ada57611ad9611a83565b5b80604052505050565b6000611aed6117c4565b9050611af98282611ab2565b919050565b600067ffffffffffffffff821115611b1957611b18611a83565b5b611b22826118e2565b9050602081019050919050565b82818337600083830152505050565b6000611b51611b4c84611afe565b611ae3565b905082815260208101848484011115611b6d57611b6c611a7e565b5b611b78848285611b2f565b509392505050565b600082601f830112611b9557611b94611a79565b5b8135611ba5848260208601611b3e565b91505092915050565b60008060408385031215611bc557611bc46117ce565b5b6000611bd385828601611a24565b925050602083013567ffffffffffffffff811115611bf457611bf36117d3565b5b611c0085828601611b80565b9150509250929050565b611c138161194e565b82525050565b6000602082019050611c2e6000830184611c0a565b92915050565b600080600060608486031215611c4d57611c4c6117ce565b5b6000611c5b86828701611a24565b9350506020611c6c86828701611a24565b9250506040611c7d8682870161196f565b9150509250925092565b611c908161185d565b82525050565b611c9f8161194e565b82525050565b6000819050919050565b6000611cca611cc5611cc0846119b1565b611ca5565b6119b1565b9050919050565b6000611cdc82611caf565b9050919050565b6000611cee82611cd1565b9050919050565b611cfe81611ce3565b82525050565b606082016000820151611d1a6000850182611c87565b506020820151611d2d6020850182611c96565b506040820151611d406040850182611cf5565b50505050565b6000606082019050611d5b6000830184611d04565b92915050565b600060208284031215611d7757611d766117ce565b5b6000611d8584828501611a24565b91505092915050565b611d978161185d565b8114611da257600080fd5b50565b600081359050611db481611d8e565b92915050565b600080600060608486031215611dd357611dd26117ce565b5b6000611de186828701611da5565b9350506020611df28682870161196f565b9250506040611e0386828701611a24565b9150509250925092565b6000611e18826119d1565b9050919050565b611e2881611e0d565b8114611e3357600080fd5b50565b600081359050611e4581611e1f565b92915050565b600060208284031215611e6157611e606117ce565b5b6000611e6f84828501611e36565b91505092915050565b60008060408385031215611e8f57611e8e6117ce565b5b6000611e9d85828601611a24565b9250506020611eae85828601611da5565b9150509250929050565b600067ffffffffffffffff821115611ed357611ed2611a83565b5b611edc826118e2565b9050602081019050919050565b6000611efc611ef784611eb8565b611ae3565b905082815260208101848484011115611f1857611f17611a7e565b5b611f23848285611b2f565b509392505050565b600082601f830112611f4057611f3f611a79565b5b8135611f50848260208601611ee9565b91505092915050565b60008060008060808587031215611f7357611f726117ce565b5b6000611f8187828801611a24565b9450506020611f9287828801611a24565b9350506040611fa38782880161196f565b925050606085013567ffffffffffffffff811115611fc457611fc36117d3565b5b611fd087828801611f2b565b91505092959194509250565b60008060408385031215611ff357611ff26117ce565b5b600061200185828601611a24565b925050602061201285828601611a24565b9150509250929050565b7f4e487b7100000000000000000000000000000000000000000000000000000000600052602260045260246000fd5b6000600282049050600182168061206357607f821691505b6020821081036120765761207561201c565b5b50919050565b7f4552433732313a20617070726f76656420717565727920666f72206e6f6e657860008201527f697374656e7420746f6b656e0000000000000000000000000000000000000000602082015250565b60006120d8602c8361189e565b91506120e38261207c565b604082019050919050565b60006020820190508181036000830152612107816120cb565b9050919050565b7f4552433732313a20617070726f76616c20746f2063757272656e74206f776e6560008201527f7200000000000000000000000000000000000000000000000000000000000000602082015250565b600061216a60218361189e565b91506121758261210e565b604082019050919050565b600060208201905081810360008301526121998161215d565b9050919050565b7f4552433732313a20617070726f76652063616c6c6572206973206e6f74206f7760008201527f6e6572206e6f7220617070726f76656420666f7220616c6c0000000000000000602082015250565b60006121fc60388361189e565b9150612207826121a0565b604082019050919050565b6000602082019050818103600083015261222b816121ef565b9050919050565b7f4552433732313a207472616e736665722063616c6c6572206973206e6f74206f60008201527f776e6572206e6f7220617070726f766564000000000000000000000000000000602082015250565b600061228e60318361189e565b915061229982612232565b604082019050919050565b600060208201905081810360008301526122bd81612281565b9050919050565b7f4552433732313a206f776e657220717565727920666f72206e6f6e657869737460008201527f656e7420746f6b656e0000000000000000000000000000000000000000000000602082015250565b600061232060298361189e565b915061232b826122c4565b604082019050919050565b6000602082019050818103600083015261234f81612313565b9050919050565b7f4552433732313a2062616c616e636520717565727920666f7220746865207a6560008201527f726f206164647265737300000000000000000000000000000000000000000000602082015250565b60006123b2602a8361189e565b91506123bd82612356565b604082019050919050565b600060208201905081810360008301526123e1816123a5565b9050919050565b600081905092915050565b60006123fe82611893565b61240881856123e8565b93506124188185602086016118af565b80840191505092915050565b6000819050919050565b61243f61243a8261194e565b612424565b82525050565b600061245182856123f3565b915061245d828461242e565b6020820191508190509392505050565b7f4552433732313a206d696e7420746f20746865207a65726f2061646472657373600082015250565b60006124a360208361189e565b91506124ae8261246d565b602082019050919050565b600060208201905081810360008301526124d281612496565b9050919050565b7f4552433732313a20746f6b656e20616c7265616479206d696e74656400000000600082015250565b600061250f601c8361189e565b915061251a826124d9565b602082019050919050565b6000602082019050818103600083015261253e81612502565b9050919050565b7f4e487b7100000000000000000000000000000000000000000000000000000000600052601160045260246000fd5b600061257f8261194e565b915061258a8361194e565b9250827fffffffffffffffffffffffffffffffffffffffffffffffffffffffffffffffff038211156125bf576125be612545565b5b828201905092915050565b7f45524337323155524953746f726167653a2055524920736574206f66206e6f6e60008201527f6578697374656e7420746f6b656e000000000000000000000000000000000000602082015250565b6000612626602e8361189e565b9150612631826125ca565b604082019050919050565b6000602082019050818103600083015261265581612619565b9050919050565b7f4552433732313a206f70657261746f7220717565727920666f72206e6f6e657860008201527f697374656e7420746f6b656e0000000000000000000000000000000000000000602082015250565b60006126b8602c8361189e565b91506126c38261265c565b604082019050919050565b600060208201905081810360008301526126e7816126ab565b9050919050565b7f4552433732313a207472616e736665722066726f6d20696e636f72726563742060008201527f6f776e6572000000000000000000000000000000000000000000000000000000602082015250565b600061274a60258361189e565b9150612755826126ee565b604082019050919050565b600060208201905081810360008301526127798161273d565b9050919050565b7f4552433732313a207472616e7366657220746f20746865207a65726f2061646460008201527f7265737300000000000000000000000000000000000000000000000000000000602082015250565b60006127dc60248361189e565b91506127e782612780565b604082019050919050565b6000602082019050818103600083015261280b816127cf565b9050919050565b600061281d8261194e565b91506128288361194e565b92508282101561283b5761283a612545565b5b828203905092915050565b7f4552433732313a20617070726f766520746f2063616c6c657200000000000000600082015250565b600061287c60198361189e565b915061288782612846565b602082019050919050565b600060208201905081810360008301526128ab8161286f565b9050919050565b7f4552433732313a207472616e7366657220746f206e6f6e20455243373231526560008201527f63656976657220696d706c656d656e7465720000000000000000000000000000602082015250565b600061290e60328361189e565b9150612919826128b2565b604082019050919050565b6000602082019050818103600083015261293d81612901565b9050919050565b600081519050919050565b600082825260208201905092915050565b600061296b82612944565b612975818561294f565b93506129858185602086016118af565b61298e816118e2565b840191505092915050565b60006080820190506129ae60008301876119e3565b6129bb60208301866119e3565b6129c86040830185611c0a565b81810360608301526129da8184612960565b905095945050505050565b6000815190506129f481611804565b92915050565b600060208284031215612a1057612a0f6117ce565b5b6000612a1e848285016129e5565b9150509291505056fe68747470733a2f2f676174657761792e70696e6174612e636c6f75642f69706673a2646970667358221220fdc04d9d705466a0c785a50b40f064ba11b4d0921b65982ca67033c5c4d0da8a64736f6c634300080d0033",
  "immutableReferences": {},
  "source": "// SPDX-License-Identifier: MIT\npragma solidity 0.8.13;\n\nimport \"@openzeppelin/contracts/token/ERC721/ERC721.sol\";\nimport \"@openzeppelin/contracts/token/ERC721/extensions/ERC721URIStorage.sol\";\nimport \"@openzeppelin/contracts/utils/Counters.sol\";\nimport \"./NftCollection.sol\";\n\ncontract Nft is ERC721URIStorage {\n\n    struct NftDetail{\n        bool actif;\n        uint price;\n        NftCollection collection;\n    }\n\n    NftDetail detail;\n    string public constant baseURI = \"https://gateway.pinata.cloud/ipfs\";\n    using Counters for Counters.Counter;\n    Counters.Counter private _tokenIds;\n\n    constructor() ERC721 (\"NFt\", \"NFT_FPM\") {}\n\n    function mintNft(address _owner, string memory _tokenURI) public returns (uint256)\n    {\n        _tokenIds.increment();\n        uint256 newItemId = _tokenIds.current();\n        _mint(_owner, newItemId);\n        _setTokenURI(newItemId, _tokenURI);\n \n        return newItemId;\n    }\n\n    function tokenURI( uint256 _tokenURI) public pure override returns (string memory) {\n        return string(abi.encodePacked(baseURI, _tokenURI));\n    }\n\n    function setDetail(bool actif, uint price, address collection) public {\n        detail.actif = actif;\n        detail.price = price;\n        detail.collection = NftCollection(collection);\n    }\n\n    function setCollection(NftCollection collection) public {\n        detail.collection = collection;\n    }\n\n    function getDetail() public view returns (NftDetail memory) {\n        return detail;\n    }\n}",
  "sourcePath": "/Users/fabien/alyra/formation/Projects/alyra-projet4-nft/contracts/Nft.sol",
  "compiler": {
    "name": "solc",
    "version": "0.8.13+commit.abaa5c0e.Emscripten.clang"
  },
  "schemaVersion": "3.4.6",
  "updatedAt": "2022-05-11T17:37:39.028Z",
  "devdoc": {
    "kind": "dev",
    "methods": {
      "approve(address,uint256)": {
        "details": "See {IERC721-approve}."
      },
      "balanceOf(address)": {
        "details": "See {IERC721-balanceOf}."
      },
      "getApproved(uint256)": {
        "details": "See {IERC721-getApproved}."
      },
      "isApprovedForAll(address,address)": {
        "details": "See {IERC721-isApprovedForAll}."
      },
      "name()": {
        "details": "See {IERC721Metadata-name}."
      },
      "ownerOf(uint256)": {
        "details": "See {IERC721-ownerOf}."
      },
      "safeTransferFrom(address,address,uint256)": {
        "details": "See {IERC721-safeTransferFrom}."
      },
      "safeTransferFrom(address,address,uint256,bytes)": {
        "details": "See {IERC721-safeTransferFrom}."
      },
      "setApprovalForAll(address,bool)": {
        "details": "See {IERC721-setApprovalForAll}."
      },
      "supportsInterface(bytes4)": {
        "details": "See {IERC165-supportsInterface}."
      },
      "symbol()": {
        "details": "See {IERC721Metadata-symbol}."
      },
      "transferFrom(address,address,uint256)": {
        "details": "See {IERC721-transferFrom}."
      }
    },
    "version": 1
  },
  "userdoc": {
    "kind": "user",
    "methods": {},
    "version": 1
  }
}