{
  "contractName": "Nft",
  "abi": [
    {
      "inputs": [],
      "stateMutability": "nonpayable",
      "type": "constructor"
    },
    {
      "anonymous": false,
      "inputs": [
        {
          "indexed": true,
          "internalType": "address",
          "name": "owner",
          "type": "address"
        },
        {
          "indexed": true,
          "internalType": "address",
          "name": "approved",
          "type": "address"
        },
        {
          "indexed": true,
          "internalType": "uint256",
          "name": "tokenId",
          "type": "uint256"
        }
      ],
      "name": "Approval",
      "type": "event"
    },
    {
      "anonymous": false,
      "inputs": [
        {
          "indexed": true,
          "internalType": "address",
          "name": "owner",
          "type": "address"
        },
        {
          "indexed": true,
          "internalType": "address",
          "name": "operator",
          "type": "address"
        },
        {
          "indexed": false,
          "internalType": "bool",
          "name": "approved",
          "type": "bool"
        }
      ],
      "name": "ApprovalForAll",
      "type": "event"
    },
    {
      "anonymous": false,
      "inputs": [
        {
          "indexed": true,
          "internalType": "address",
          "name": "from",
          "type": "address"
        },
        {
          "indexed": true,
          "internalType": "address",
          "name": "to",
          "type": "address"
        },
        {
          "indexed": true,
          "internalType": "uint256",
          "name": "tokenId",
          "type": "uint256"
        }
      ],
      "name": "Transfer",
      "type": "event"
    },
    {
      "inputs": [
        {
          "internalType": "address",
          "name": "to",
          "type": "address"
        },
        {
          "internalType": "uint256",
          "name": "tokenId",
          "type": "uint256"
        }
      ],
      "name": "approve",
      "outputs": [],
      "stateMutability": "nonpayable",
      "type": "function"
    },
    {
      "inputs": [
        {
          "internalType": "address",
          "name": "owner",
          "type": "address"
        }
      ],
      "name": "balanceOf",
      "outputs": [
        {
          "internalType": "uint256",
          "name": "",
          "type": "uint256"
        }
      ],
      "stateMutability": "view",
      "type": "function"
    },
    {
      "inputs": [],
      "name": "baseURI",
      "outputs": [
        {
          "internalType": "string",
          "name": "",
          "type": "string"
        }
      ],
      "stateMutability": "view",
      "type": "function"
    },
    {
      "inputs": [
        {
          "internalType": "uint256",
          "name": "tokenId",
          "type": "uint256"
        }
      ],
      "name": "getApproved",
      "outputs": [
        {
          "internalType": "address",
          "name": "",
          "type": "address"
        }
      ],
      "stateMutability": "view",
      "type": "function"
    },
    {
      "inputs": [
        {
          "internalType": "address",
          "name": "owner",
          "type": "address"
        },
        {
          "internalType": "address",
          "name": "operator",
          "type": "address"
        }
      ],
      "name": "isApprovedForAll",
      "outputs": [
        {
          "internalType": "bool",
          "name": "",
          "type": "bool"
        }
      ],
      "stateMutability": "view",
      "type": "function"
    },
    {
      "inputs": [],
      "name": "name",
      "outputs": [
        {
          "internalType": "string",
          "name": "",
          "type": "string"
        }
      ],
      "stateMutability": "view",
      "type": "function"
    },
    {
      "inputs": [
        {
          "internalType": "uint256",
          "name": "tokenId",
          "type": "uint256"
        }
      ],
      "name": "ownerOf",
      "outputs": [
        {
          "internalType": "address",
          "name": "",
          "type": "address"
        }
      ],
      "stateMutability": "view",
      "type": "function"
    },
    {
      "inputs": [
        {
          "internalType": "address",
          "name": "from",
          "type": "address"
        },
        {
          "internalType": "address",
          "name": "to",
          "type": "address"
        },
        {
          "internalType": "uint256",
          "name": "tokenId",
          "type": "uint256"
        }
      ],
      "name": "safeTransferFrom",
      "outputs": [],
      "stateMutability": "nonpayable",
      "type": "function"
    },
    {
      "inputs": [
        {
          "internalType": "address",
          "name": "from",
          "type": "address"
        },
        {
          "internalType": "address",
          "name": "to",
          "type": "address"
        },
        {
          "internalType": "uint256",
          "name": "tokenId",
          "type": "uint256"
        },
        {
          "internalType": "bytes",
          "name": "_data",
          "type": "bytes"
        }
      ],
      "name": "safeTransferFrom",
      "outputs": [],
      "stateMutability": "nonpayable",
      "type": "function"
    },
    {
      "inputs": [
        {
          "internalType": "address",
          "name": "operator",
          "type": "address"
        },
        {
          "internalType": "bool",
          "name": "approved",
          "type": "bool"
        }
      ],
      "name": "setApprovalForAll",
      "outputs": [],
      "stateMutability": "nonpayable",
      "type": "function"
    },
    {
      "inputs": [
        {
          "internalType": "bytes4",
          "name": "interfaceId",
          "type": "bytes4"
        }
      ],
      "name": "supportsInterface",
      "outputs": [
        {
          "internalType": "bool",
          "name": "",
          "type": "bool"
        }
      ],
      "stateMutability": "view",
      "type": "function"
    },
    {
      "inputs": [],
      "name": "symbol",
      "outputs": [
        {
          "internalType": "string",
          "name": "",
          "type": "string"
        }
      ],
      "stateMutability": "view",
      "type": "function"
    },
    {
      "inputs": [
        {
          "internalType": "address",
          "name": "from",
          "type": "address"
        },
        {
          "internalType": "address",
          "name": "to",
          "type": "address"
        },
        {
          "internalType": "uint256",
          "name": "tokenId",
          "type": "uint256"
        }
      ],
      "name": "transferFrom",
      "outputs": [],
      "stateMutability": "nonpayable",
      "type": "function"
    },
    {
      "inputs": [
        {
          "internalType": "address",
          "name": "_owner",
          "type": "address"
        },
        {
          "internalType": "string",
          "name": "_tokenURI",
          "type": "string"
        },
        {
          "internalType": "string",
          "name": "_nftName",
          "type": "string"
        }
      ],
      "name": "mintNft",
      "outputs": [
        {
          "internalType": "uint256",
          "name": "",
          "type": "uint256"
        }
      ],
      "stateMutability": "nonpayable",
      "type": "function"
    },
    {
      "inputs": [
        {
          "internalType": "uint256",
          "name": "_tokenURI",
          "type": "uint256"
        }
      ],
      "name": "tokenURI",
      "outputs": [
        {
          "internalType": "string",
          "name": "",
          "type": "string"
        }
      ],
      "stateMutability": "pure",
      "type": "function"
    },
    {
      "inputs": [
        {
          "internalType": "bool",
          "name": "actif",
          "type": "bool"
        },
        {
          "internalType": "uint256",
          "name": "price",
          "type": "uint256"
        },
        {
          "internalType": "address",
          "name": "collection",
          "type": "address"
        },
        {
          "internalType": "string",
          "name": "nftName",
          "type": "string"
        }
      ],
      "name": "setDetail",
      "outputs": [],
      "stateMutability": "nonpayable",
      "type": "function"
    },
    {
      "inputs": [
        {
          "internalType": "contract NftCollection",
          "name": "collection",
          "type": "address"
        }
      ],
      "name": "setCollection",
      "outputs": [],
      "stateMutability": "nonpayable",
      "type": "function"
    },
    {
      "inputs": [],
      "name": "getDetail",
      "outputs": [
        {
          "components": [
            {
              "internalType": "bool",
              "name": "actif",
              "type": "bool"
            },
            {
              "internalType": "uint256",
              "name": "price",
              "type": "uint256"
            },
            {
              "internalType": "string",
              "name": "nftName",
              "type": "string"
            },
            {
              "internalType": "contract NftCollection",
              "name": "collection",
              "type": "address"
            }
          ],
          "internalType": "struct Nft.NftDetail",
          "name": "",
          "type": "tuple"
        }
      ],
      "stateMutability": "view",
      "type": "function"
    }
  ],
  "bytecode": "0x60806040523480156200001157600080fd5b506040518060400160405280600381526020017f4e467400000000000000000000000000000000000000000000000000000000008152506040518060400160405280600781526020017f4e46545f46504d00000000000000000000000000000000000000000000000000815250816000908051906020019062000096929190620000b8565b508060019080519060200190620000af929190620000b8565b505050620001cc565b828054620000c69062000197565b90600052602060002090601f016020900481019282620000ea576000855562000136565b82601f106200010557805160ff191683800117855562000136565b8280016001018555821562000136579182015b828111156200013557825182559160200191906001019062000118565b5b50905062000145919062000149565b5090565b5b80821115620001645760008160009055506001016200014a565b5090565b7f4e487b7100000000000000000000000000000000000000000000000000000000600052602260045260246000fd5b60006002820490506001821680620001b057607f821691505b602082108103620001c657620001c562000168565b5b50919050565b612c4880620001dc6000396000f3fe608060405234801561001057600080fd5b50600436106101165760003560e01c80636c0360eb116100a2578063a22cb46511610071578063a22cb465146102f3578063b88d4fde1461030f578063c87b56dd1461032b578063e1346cea1461035b578063e985e9c51461037757610116565b80636c0360eb1461026b57806370a0823114610289578063768b5fd5146102b957806395d89b41146102d557610116565b806323b872dd116100e957806323b872dd146101b557806342842e0e146101d157806353867d69146101ed5780635b2a4cff1461021d5780636352211e1461023b57610116565b806301ffc9a71461011b57806306fdde031461014b578063081812fc14610169578063095ea7b314610199575b600080fd5b61013560048036038101906101309190611929565b6103a7565b6040516101429190611971565b60405180910390f35b610153610489565b6040516101609190611a25565b60405180910390f35b610183600480360381019061017e9190611a7d565b61051b565b6040516101909190611aeb565b60405180910390f35b6101b360048036038101906101ae9190611b32565b6105a0565b005b6101cf60048036038101906101ca9190611b72565b6106b7565b005b6101eb60048036038101906101e69190611b72565b610717565b005b61020760048036038101906102029190611cfa565b610737565b6040516102149190611d94565b60405180910390f35b6102256107b4565b6040516102329190611ed9565b60405180910390f35b61025560048036038101906102509190611a7d565b6108db565b6040516102629190611aeb565b60405180910390f35b61027361098c565b6040516102809190611a25565b60405180910390f35b6102a3600480360381019061029e9190611efb565b6109a8565b6040516102b09190611d94565b60405180910390f35b6102d360048036038101906102ce9190611f66565b610a5f565b005b6102dd610aa6565b6040516102ea9190611a25565b60405180910390f35b61030d60048036038101906103089190611fbf565b610b38565b005b610329600480360381019061032491906120a0565b610b4e565b005b61034560048036038101906103409190611a7d565b610bb0565b6040516103529190611a25565b60405180910390f35b61037560048036038101906103709190612123565b610bf3565b005b610391600480360381019061038c91906121a6565b610c7e565b60405161039e9190611971565b60405180910390f35b60007f80ac58cd000000000000000000000000000000000000000000000000000000007bffffffffffffffffffffffffffffffffffffffffffffffffffffffff1916827bffffffffffffffffffffffffffffffffffffffffffffffffffffffff1916148061047257507f5b5e139f000000000000000000000000000000000000000000000000000000007bffffffffffffffffffffffffffffffffffffffffffffffffffffffff1916827bffffffffffffffffffffffffffffffffffffffffffffffffffffffff1916145b80610482575061048182610d12565b5b9050919050565b60606000805461049890612215565b80601f01602080910402602001604051908101604052809291908181526020018280546104c490612215565b80156105115780601f106104e657610100808354040283529160200191610511565b820191906000526020600020905b8154815290600101906020018083116104f457829003601f168201915b5050505050905090565b600061052682610d7c565b610565576040517f08c379a000000000000000000000000000000000000000000000000000000000815260040161055c906122b8565b60405180910390fd5b6004600083815260200190815260200160002060009054906101000a900473ffffffffffffffffffffffffffffffffffffffff169050919050565b60006105ab826108db565b90508073ffffffffffffffffffffffffffffffffffffffff168373ffffffffffffffffffffffffffffffffffffffff160361061b576040517f08c379a00000000000000000000000000000000000000000000000000000000081526004016106129061234a565b60405180910390fd5b8073ffffffffffffffffffffffffffffffffffffffff1661063a610de8565b73ffffffffffffffffffffffffffffffffffffffff161480610669575061066881610663610de8565b610c7e565b5b6106a8576040517f08c379a000000000000000000000000000000000000000000000000000000000815260040161069f906123dc565b60405180910390fd5b6106b28383610df0565b505050565b6106c86106c2610de8565b82610ea9565b610707576040517f08c379a00000000000000000000000000000000000000000000000000000000081526004016106fe9061246e565b60405180910390fd5b610712838383610f87565b505050565b61073283838360405180602001604052806000815250610b4e565b505050565b6000610743600b6111ed565b600061074f600b611203565b905061075b8582611211565b61076581856113ea565b6107716000868361145e565b6001600760000160006101000a81548160ff02191690831515021790555082600760020190805190602001906107a89291906117da565b50809150509392505050565b6107bc611860565b60076040518060800160405290816000820160009054906101000a900460ff16151515158152602001600182015481526020016002820180546107fe90612215565b80601f016020809104026020016040519081016040528092919081815260200182805461082a90612215565b80156108775780601f1061084c57610100808354040283529160200191610877565b820191906000526020600020905b81548152906001019060200180831161085a57829003601f168201915b505050505081526020016003820160009054906101000a900473ffffffffffffffffffffffffffffffffffffffff1673ffffffffffffffffffffffffffffffffffffffff1673ffffffffffffffffffffffffffffffffffffffff1681525050905090565b6000806002600084815260200190815260200160002060009054906101000a900473ffffffffffffffffffffffffffffffffffffffff169050600073ffffffffffffffffffffffffffffffffffffffff168173ffffffffffffffffffffffffffffffffffffffff1603610983576040517f08c379a000000000000000000000000000000000000000000000000000000000815260040161097a90612500565b60405180910390fd5b80915050919050565b604051806060016040528060218152602001612bf26021913981565b60008073ffffffffffffffffffffffffffffffffffffffff168273ffffffffffffffffffffffffffffffffffffffff1603610a18576040517f08c379a0000000000000000000000000000000000000000000000000000000008152600401610a0f90612592565b60405180910390fd5b600360008373ffffffffffffffffffffffffffffffffffffffff1673ffffffffffffffffffffffffffffffffffffffff168152602001908152602001600020549050919050565b80600760030160006101000a81548173ffffffffffffffffffffffffffffffffffffffff021916908373ffffffffffffffffffffffffffffffffffffffff16021790555050565b606060018054610ab590612215565b80601f0160208091040260200160405190810160405280929190818152602001828054610ae190612215565b8015610b2e5780601f10610b0357610100808354040283529160200191610b2e565b820191906000526020600020905b815481529060010190602001808311610b1157829003601f168201915b5050505050905090565b610b4a610b43610de8565b8383611463565b5050565b610b5f610b59610de8565b83610ea9565b610b9e576040517f08c379a0000000000000000000000000000000000000000000000000000000008152600401610b959061246e565b60405180910390fd5b610baa848484846115cf565b50505050565b6060604051806060016040528060218152602001612bf26021913982604051602001610bdd92919061260f565b6040516020818303038152906040529050919050565b83600760000160006101000a81548160ff021916908315150217905550826007600101819055508060076002019080519060200190610c339291906117da565b5081600760030160006101000a81548173ffffffffffffffffffffffffffffffffffffffff021916908373ffffffffffffffffffffffffffffffffffffffff16021790555050505050565b6000600560008473ffffffffffffffffffffffffffffffffffffffff1673ffffffffffffffffffffffffffffffffffffffff16815260200190815260200160002060008373ffffffffffffffffffffffffffffffffffffffff1673ffffffffffffffffffffffffffffffffffffffff16815260200190815260200160002060009054906101000a900460ff16905092915050565b60007f01ffc9a7000000000000000000000000000000000000000000000000000000007bffffffffffffffffffffffffffffffffffffffffffffffffffffffff1916827bffffffffffffffffffffffffffffffffffffffffffffffffffffffff1916149050919050565b60008073ffffffffffffffffffffffffffffffffffffffff166002600084815260200190815260200160002060009054906101000a900473ffffffffffffffffffffffffffffffffffffffff1673ffffffffffffffffffffffffffffffffffffffff1614159050919050565b600033905090565b816004600083815260200190815260200160002060006101000a81548173ffffffffffffffffffffffffffffffffffffffff021916908373ffffffffffffffffffffffffffffffffffffffff160217905550808273ffffffffffffffffffffffffffffffffffffffff16610e63836108db565b73ffffffffffffffffffffffffffffffffffffffff167f8c5be1e5ebec7d5bd14f71427d1e84f3dd0314c0f7b2291e5b200ac8c7c3b92560405160405180910390a45050565b6000610eb482610d7c565b610ef3576040517f08c379a0000000000000000000000000000000000000000000000000000000008152600401610eea906126a9565b60405180910390fd5b6000610efe836108db565b90508073ffffffffffffffffffffffffffffffffffffffff168473ffffffffffffffffffffffffffffffffffffffff161480610f405750610f3f8185610c7e565b5b80610f7e57508373ffffffffffffffffffffffffffffffffffffffff16610f668461051b565b73ffffffffffffffffffffffffffffffffffffffff16145b91505092915050565b8273ffffffffffffffffffffffffffffffffffffffff16610fa7826108db565b73ffffffffffffffffffffffffffffffffffffffff1614610ffd576040517f08c379a0000000000000000000000000000000000000000000000000000000008152600401610ff49061273b565b60405180910390fd5b600073ffffffffffffffffffffffffffffffffffffffff168273ffffffffffffffffffffffffffffffffffffffff160361106c576040517f08c379a0000000000000000000000000000000000000000000000000000000008152600401611063906127cd565b60405180910390fd5b61107783838361145e565b611082600082610df0565b6001600360008573ffffffffffffffffffffffffffffffffffffffff1673ffffffffffffffffffffffffffffffffffffffff16815260200190815260200160002060008282546110d2919061281c565b925050819055506001600360008473ffffffffffffffffffffffffffffffffffffffff1673ffffffffffffffffffffffffffffffffffffffff16815260200190815260200160002060008282546111299190612850565b92505081905550816002600083815260200190815260200160002060006101000a81548173ffffffffffffffffffffffffffffffffffffffff021916908373ffffffffffffffffffffffffffffffffffffffff160217905550808273ffffffffffffffffffffffffffffffffffffffff168473ffffffffffffffffffffffffffffffffffffffff167fddf252ad1be2c89b69c2b068fc378daa952ba7f163c4a11628f55a4df523b3ef60405160405180910390a46111e883838361162b565b505050565b6001816000016000828254019250508190555050565b600081600001549050919050565b600073ffffffffffffffffffffffffffffffffffffffff168273ffffffffffffffffffffffffffffffffffffffff1603611280576040517f08c379a0000000000000000000000000000000000000000000000000000000008152600401611277906128f2565b60405180910390fd5b61128981610d7c565b156112c9576040517f08c379a00000000000000000000000000000000000000000000000000000000081526004016112c09061295e565b60405180910390fd5b6112d56000838361145e565b6001600360008473ffffffffffffffffffffffffffffffffffffffff1673ffffffffffffffffffffffffffffffffffffffff16815260200190815260200160002060008282546113259190612850565b92505081905550816002600083815260200190815260200160002060006101000a81548173ffffffffffffffffffffffffffffffffffffffff021916908373ffffffffffffffffffffffffffffffffffffffff160217905550808273ffffffffffffffffffffffffffffffffffffffff16600073ffffffffffffffffffffffffffffffffffffffff167fddf252ad1be2c89b69c2b068fc378daa952ba7f163c4a11628f55a4df523b3ef60405160405180910390a46113e66000838361162b565b5050565b6113f382610d7c565b611432576040517f08c379a0000000000000000000000000000000000000000000000000000000008152600401611429906129f0565b60405180910390fd5b806006600084815260200190815260200160002090805190602001906114599291906117da565b505050565b505050565b8173ffffffffffffffffffffffffffffffffffffffff168373ffffffffffffffffffffffffffffffffffffffff16036114d1576040517f08c379a00000000000000000000000000000000000000000000000000000000081526004016114c890612a5c565b60405180910390fd5b80600560008573ffffffffffffffffffffffffffffffffffffffff1673ffffffffffffffffffffffffffffffffffffffff16815260200190815260200160002060008473ffffffffffffffffffffffffffffffffffffffff1673ffffffffffffffffffffffffffffffffffffffff16815260200190815260200160002060006101000a81548160ff0219169083151502179055508173ffffffffffffffffffffffffffffffffffffffff168373ffffffffffffffffffffffffffffffffffffffff167f17307eab39ab6107e8899845ad3d59bd9653f200f220920489ca2b5937696c31836040516115c29190611971565b60405180910390a3505050565b6115da848484610f87565b6115e684848484611630565b611625576040517f08c379a000000000000000000000000000000000000000000000000000000000815260040161161c90612aee565b60405180910390fd5b50505050565b505050565b60006116518473ffffffffffffffffffffffffffffffffffffffff166117b7565b156117aa578373ffffffffffffffffffffffffffffffffffffffff1663150b7a0261167a610de8565b8786866040518563ffffffff1660e01b815260040161169c9493929190612b63565b6020604051808303816000875af19250505080156116d857506040513d601f19601f820116820180604052508101906116d59190612bc4565b60015b61175a573d8060008114611708576040519150601f19603f3d011682016040523d82523d6000602084013e61170d565b606091505b506000815103611752576040517f08c379a000000000000000000000000000000000000000000000000000000000815260040161174990612aee565b60405180910390fd5b805181602001fd5b63150b7a0260e01b7bffffffffffffffffffffffffffffffffffffffffffffffffffffffff1916817bffffffffffffffffffffffffffffffffffffffffffffffffffffffff1916149150506117af565b600190505b949350505050565b6000808273ffffffffffffffffffffffffffffffffffffffff163b119050919050565b8280546117e690612215565b90600052602060002090601f016020900481019282611808576000855561184f565b82601f1061182157805160ff191683800117855561184f565b8280016001018555821561184f579182015b8281111561184e578251825591602001919060010190611833565b5b50905061185c91906118a0565b5090565b60405180608001604052806000151581526020016000815260200160608152602001600073ffffffffffffffffffffffffffffffffffffffff1681525090565b5b808211156118b95760008160009055506001016118a1565b5090565b6000604051905090565b600080fd5b600080fd5b60007fffffffff0000000000000000000000000000000000000000000000000000000082169050919050565b611906816118d1565b811461191157600080fd5b50565b600081359050611923816118fd565b92915050565b60006020828403121561193f5761193e6118c7565b5b600061194d84828501611914565b91505092915050565b60008115159050919050565b61196b81611956565b82525050565b60006020820190506119866000830184611962565b92915050565b600081519050919050565b600082825260208201905092915050565b60005b838110156119c65780820151818401526020810190506119ab565b838111156119d5576000848401525b50505050565b6000601f19601f8301169050919050565b60006119f78261198c565b611a018185611997565b9350611a118185602086016119a8565b611a1a816119db565b840191505092915050565b60006020820190508181036000830152611a3f81846119ec565b905092915050565b6000819050919050565b611a5a81611a47565b8114611a6557600080fd5b50565b600081359050611a7781611a51565b92915050565b600060208284031215611a9357611a926118c7565b5b6000611aa184828501611a68565b91505092915050565b600073ffffffffffffffffffffffffffffffffffffffff82169050919050565b6000611ad582611aaa565b9050919050565b611ae581611aca565b82525050565b6000602082019050611b006000830184611adc565b92915050565b611b0f81611aca565b8114611b1a57600080fd5b50565b600081359050611b2c81611b06565b92915050565b60008060408385031215611b4957611b486118c7565b5b6000611b5785828601611b1d565b9250506020611b6885828601611a68565b9150509250929050565b600080600060608486031215611b8b57611b8a6118c7565b5b6000611b9986828701611b1d565b9350506020611baa86828701611b1d565b9250506040611bbb86828701611a68565b9150509250925092565b600080fd5b600080fd5b7f4e487b7100000000000000000000000000000000000000000000000000000000600052604160045260246000fd5b611c07826119db565b810181811067ffffffffffffffff82111715611c2657611c25611bcf565b5b80604052505050565b6000611c396118bd565b9050611c458282611bfe565b919050565b600067ffffffffffffffff821115611c6557611c64611bcf565b5b611c6e826119db565b9050602081019050919050565b82818337600083830152505050565b6000611c9d611c9884611c4a565b611c2f565b905082815260208101848484011115611cb957611cb8611bca565b5b611cc4848285611c7b565b509392505050565b600082601f830112611ce157611ce0611bc5565b5b8135611cf1848260208601611c8a565b91505092915050565b600080600060608486031215611d1357611d126118c7565b5b6000611d2186828701611b1d565b935050602084013567ffffffffffffffff811115611d4257611d416118cc565b5b611d4e86828701611ccc565b925050604084013567ffffffffffffffff811115611d6f57611d6e6118cc565b5b611d7b86828701611ccc565b9150509250925092565b611d8e81611a47565b82525050565b6000602082019050611da96000830184611d85565b92915050565b611db881611956565b82525050565b611dc781611a47565b82525050565b600082825260208201905092915050565b6000611de98261198c565b611df38185611dcd565b9350611e038185602086016119a8565b611e0c816119db565b840191505092915050565b6000819050919050565b6000611e3c611e37611e3284611aaa565b611e17565b611aaa565b9050919050565b6000611e4e82611e21565b9050919050565b6000611e6082611e43565b9050919050565b611e7081611e55565b82525050565b6000608083016000830151611e8e6000860182611daf565b506020830151611ea16020860182611dbe565b5060408301518482036040860152611eb98282611dde565b9150506060830151611ece6060860182611e67565b508091505092915050565b60006020820190508181036000830152611ef38184611e76565b905092915050565b600060208284031215611f1157611f106118c7565b5b6000611f1f84828501611b1d565b91505092915050565b6000611f3382611aca565b9050919050565b611f4381611f28565b8114611f4e57600080fd5b50565b600081359050611f6081611f3a565b92915050565b600060208284031215611f7c57611f7b6118c7565b5b6000611f8a84828501611f51565b91505092915050565b611f9c81611956565b8114611fa757600080fd5b50565b600081359050611fb981611f93565b92915050565b60008060408385031215611fd657611fd56118c7565b5b6000611fe485828601611b1d565b9250506020611ff585828601611faa565b9150509250929050565b600067ffffffffffffffff82111561201a57612019611bcf565b5b612023826119db565b9050602081019050919050565b600061204361203e84611fff565b611c2f565b90508281526020810184848401111561205f5761205e611bca565b5b61206a848285611c7b565b509392505050565b600082601f83011261208757612086611bc5565b5b8135612097848260208601612030565b91505092915050565b600080600080608085870312156120ba576120b96118c7565b5b60006120c887828801611b1d565b94505060206120d987828801611b1d565b93505060406120ea87828801611a68565b925050606085013567ffffffffffffffff81111561210b5761210a6118cc565b5b61211787828801612072565b91505092959194509250565b6000806000806080858703121561213d5761213c6118c7565b5b600061214b87828801611faa565b945050602061215c87828801611a68565b935050604061216d87828801611b1d565b925050606085013567ffffffffffffffff81111561218e5761218d6118cc565b5b61219a87828801611ccc565b91505092959194509250565b600080604083850312156121bd576121bc6118c7565b5b60006121cb85828601611b1d565b92505060206121dc85828601611b1d565b9150509250929050565b7f4e487b7100000000000000000000000000000000000000000000000000000000600052602260045260246000fd5b6000600282049050600182168061222d57607f821691505b6020821081036122405761223f6121e6565b5b50919050565b7f4552433732313a20617070726f76656420717565727920666f72206e6f6e657860008201527f697374656e7420746f6b656e0000000000000000000000000000000000000000602082015250565b60006122a2602c83611997565b91506122ad82612246565b604082019050919050565b600060208201905081810360008301526122d181612295565b9050919050565b7f4552433732313a20617070726f76616c20746f2063757272656e74206f776e6560008201527f7200000000000000000000000000000000000000000000000000000000000000602082015250565b6000612334602183611997565b915061233f826122d8565b604082019050919050565b6000602082019050818103600083015261236381612327565b9050919050565b7f4552433732313a20617070726f76652063616c6c6572206973206e6f74206f7760008201527f6e6572206e6f7220617070726f76656420666f7220616c6c0000000000000000602082015250565b60006123c6603883611997565b91506123d18261236a565b604082019050919050565b600060208201905081810360008301526123f5816123b9565b9050919050565b7f4552433732313a207472616e736665722063616c6c6572206973206e6f74206f60008201527f776e6572206e6f7220617070726f766564000000000000000000000000000000602082015250565b6000612458603183611997565b9150612463826123fc565b604082019050919050565b600060208201905081810360008301526124878161244b565b9050919050565b7f4552433732313a206f776e657220717565727920666f72206e6f6e657869737460008201527f656e7420746f6b656e0000000000000000000000000000000000000000000000602082015250565b60006124ea602983611997565b91506124f58261248e565b604082019050919050565b60006020820190508181036000830152612519816124dd565b9050919050565b7f4552433732313a2062616c616e636520717565727920666f7220746865207a6560008201527f726f206164647265737300000000000000000000000000000000000000000000602082015250565b600061257c602a83611997565b915061258782612520565b604082019050919050565b600060208201905081810360008301526125ab8161256f565b9050919050565b600081905092915050565b60006125c88261198c565b6125d281856125b2565b93506125e28185602086016119a8565b80840191505092915050565b6000819050919050565b61260961260482611a47565b6125ee565b82525050565b600061261b82856125bd565b915061262782846125f8565b6020820191508190509392505050565b7f4552433732313a206f70657261746f7220717565727920666f72206e6f6e657860008201527f697374656e7420746f6b656e0000000000000000000000000000000000000000602082015250565b6000612693602c83611997565b915061269e82612637565b604082019050919050565b600060208201905081810360008301526126c281612686565b9050919050565b7f4552433732313a207472616e736665722066726f6d20696e636f72726563742060008201527f6f776e6572000000000000000000000000000000000000000000000000000000602082015250565b6000612725602583611997565b9150612730826126c9565b604082019050919050565b6000602082019050818103600083015261275481612718565b9050919050565b7f4552433732313a207472616e7366657220746f20746865207a65726f2061646460008201527f7265737300000000000000000000000000000000000000000000000000000000602082015250565b60006127b7602483611997565b91506127c28261275b565b604082019050919050565b600060208201905081810360008301526127e6816127aa565b9050919050565b7f4e487b7100000000000000000000000000000000000000000000000000000000600052601160045260246000fd5b600061282782611a47565b915061283283611a47565b925082821015612845576128446127ed565b5b828203905092915050565b600061285b82611a47565b915061286683611a47565b9250827fffffffffffffffffffffffffffffffffffffffffffffffffffffffffffffffff0382111561289b5761289a6127ed565b5b828201905092915050565b7f4552433732313a206d696e7420746f20746865207a65726f2061646472657373600082015250565b60006128dc602083611997565b91506128e7826128a6565b602082019050919050565b6000602082019050818103600083015261290b816128cf565b9050919050565b7f4552433732313a20746f6b656e20616c7265616479206d696e74656400000000600082015250565b6000612948601c83611997565b915061295382612912565b602082019050919050565b600060208201905081810360008301526129778161293b565b9050919050565b7f45524337323155524953746f726167653a2055524920736574206f66206e6f6e60008201527f6578697374656e7420746f6b656e000000000000000000000000000000000000602082015250565b60006129da602e83611997565b91506129e58261297e565b604082019050919050565b60006020820190508181036000830152612a09816129cd565b9050919050565b7f4552433732313a20617070726f766520746f2063616c6c657200000000000000600082015250565b6000612a46601983611997565b9150612a5182612a10565b602082019050919050565b60006020820190508181036000830152612a7581612a39565b9050919050565b7f4552433732313a207472616e7366657220746f206e6f6e20455243373231526560008201527f63656976657220696d706c656d656e7465720000000000000000000000000000602082015250565b6000612ad8603283611997565b9150612ae382612a7c565b604082019050919050565b60006020820190508181036000830152612b0781612acb565b9050919050565b600081519050919050565b600082825260208201905092915050565b6000612b3582612b0e565b612b3f8185612b19565b9350612b4f8185602086016119a8565b612b58816119db565b840191505092915050565b6000608082019050612b786000830187611adc565b612b856020830186611adc565b612b926040830185611d85565b8181036060830152612ba48184612b2a565b905095945050505050565b600081519050612bbe816118fd565b92915050565b600060208284031215612bda57612bd96118c7565b5b6000612be884828501612baf565b9150509291505056fe68747470733a2f2f676174657761792e70696e6174612e636c6f75642f69706673a2646970667358221220ad24e0963f890d6234cef510ea21940d346687cce6b3a7cce5dde6e62ec74c5d64736f6c634300080d0033",
  "immutableReferences": {},
  "source": "// SPDX-License-Identifier: MIT\npragma solidity 0.8.13;\n\nimport \"@openzeppelin/contracts/token/ERC721/ERC721.sol\";\nimport \"@openzeppelin/contracts/token/ERC721/extensions/ERC721URIStorage.sol\";\nimport \"@openzeppelin/contracts/token/ERC721/extensions/ERC721Enumerable.sol\";\nimport \"@openzeppelin/contracts/utils/Counters.sol\";\nimport \"./NftCollection.sol\";\n\ncontract Nft is ERC721URIStorage {\n\n    struct NftDetail{\n        bool actif;\n        uint price;\n        string nftName;\n        NftCollection collection;\n    }\n\n    NftDetail detail;\n    string public constant baseURI = \"https://gateway.pinata.cloud/ipfs\";\n    using Counters for Counters.Counter;\n    Counters.Counter private _tokenIds;\n\n    constructor() ERC721 (\"NFt\", \"NFT_FPM\") {}\n\n    function mintNft(address _owner, string memory _tokenURI, string memory _nftName) public returns (uint256)\n    {\n        _tokenIds.increment();\n        uint256 newItemId = _tokenIds.current();\n        _mint(_owner, newItemId);\n        _setTokenURI(newItemId, _tokenURI);\n        _beforeTokenTransfer(address(0), _owner, newItemId);\n        detail.actif = true;\n        detail.nftName = _nftName;\n        return newItemId;\n    }\n\n    function tokenURI( uint256 _tokenURI) public pure override returns (string memory) {\n        return string(abi.encodePacked(baseURI, _tokenURI));\n    }\n\n    function setDetail(bool actif, uint price, address collection, string memory nftName) public {\n        detail.actif = actif;\n        detail.price = price;\n        detail.nftName = nftName;\n        detail.collection = NftCollection(collection);\n    }\n\n    function setCollection(NftCollection collection) public {\n        detail.collection = collection;\n    }\n\n    function getDetail() public view returns (NftDetail memory) {\n        return detail;\n    }\n}",
  "sourcePath": "/Users/fabien/alyra/formation/Projects/alyra-projet4-nft/contracts/Nft.sol",
  "compiler": {
    "name": "solc",
    "version": "0.8.13+commit.abaa5c0e.Emscripten.clang"
  },
  "schemaVersion": "3.4.6",
  "updatedAt": "2022-05-14T15:05:22.054Z",
  "devdoc": {
    "kind": "dev",
    "methods": {
      "approve(address,uint256)": {
        "details": "See {IERC721-approve}."
      },
      "balanceOf(address)": {
        "details": "See {IERC721-balanceOf}."
      },
      "getApproved(uint256)": {
        "details": "See {IERC721-getApproved}."
      },
      "isApprovedForAll(address,address)": {
        "details": "See {IERC721-isApprovedForAll}."
      },
      "name()": {
        "details": "See {IERC721Metadata-name}."
      },
      "ownerOf(uint256)": {
        "details": "See {IERC721-ownerOf}."
      },
      "safeTransferFrom(address,address,uint256)": {
        "details": "See {IERC721-safeTransferFrom}."
      },
      "safeTransferFrom(address,address,uint256,bytes)": {
        "details": "See {IERC721-safeTransferFrom}."
      },
      "setApprovalForAll(address,bool)": {
        "details": "See {IERC721-setApprovalForAll}."
      },
      "supportsInterface(bytes4)": {
        "details": "See {IERC165-supportsInterface}."
      },
      "symbol()": {
        "details": "See {IERC721Metadata-symbol}."
      },
      "transferFrom(address,address,uint256)": {
        "details": "See {IERC721-transferFrom}."
      }
    },
    "version": 1
  },
  "userdoc": {
    "kind": "user",
    "methods": {},
    "version": 1
  }
}