{
  "contractName": "Nft",
  "abi": [
    {
      "inputs": [],
      "stateMutability": "nonpayable",
      "type": "constructor"
    },
    {
      "anonymous": false,
      "inputs": [
        {
          "indexed": true,
          "internalType": "address",
          "name": "owner",
          "type": "address"
        },
        {
          "indexed": true,
          "internalType": "address",
          "name": "approved",
          "type": "address"
        },
        {
          "indexed": true,
          "internalType": "uint256",
          "name": "tokenId",
          "type": "uint256"
        }
      ],
      "name": "Approval",
      "type": "event"
    },
    {
      "anonymous": false,
      "inputs": [
        {
          "indexed": true,
          "internalType": "address",
          "name": "owner",
          "type": "address"
        },
        {
          "indexed": true,
          "internalType": "address",
          "name": "operator",
          "type": "address"
        },
        {
          "indexed": false,
          "internalType": "bool",
          "name": "approved",
          "type": "bool"
        }
      ],
      "name": "ApprovalForAll",
      "type": "event"
    },
    {
      "anonymous": false,
      "inputs": [
        {
          "indexed": true,
          "internalType": "address",
          "name": "from",
          "type": "address"
        },
        {
          "indexed": true,
          "internalType": "address",
          "name": "to",
          "type": "address"
        },
        {
          "indexed": true,
          "internalType": "uint256",
          "name": "tokenId",
          "type": "uint256"
        }
      ],
      "name": "Transfer",
      "type": "event"
    },
    {
      "inputs": [
        {
          "internalType": "address",
          "name": "to",
          "type": "address"
        },
        {
          "internalType": "uint256",
          "name": "tokenId",
          "type": "uint256"
        }
      ],
      "name": "approve",
      "outputs": [],
      "stateMutability": "nonpayable",
      "type": "function"
    },
    {
      "inputs": [
        {
          "internalType": "address",
          "name": "owner",
          "type": "address"
        }
      ],
      "name": "balanceOf",
      "outputs": [
        {
          "internalType": "uint256",
          "name": "",
          "type": "uint256"
        }
      ],
      "stateMutability": "view",
      "type": "function"
    },
    {
      "inputs": [],
      "name": "baseURI",
      "outputs": [
        {
          "internalType": "string",
          "name": "",
          "type": "string"
        }
      ],
      "stateMutability": "view",
      "type": "function"
    },
    {
      "inputs": [
        {
          "internalType": "uint256",
          "name": "tokenId",
          "type": "uint256"
        }
      ],
      "name": "getApproved",
      "outputs": [
        {
          "internalType": "address",
          "name": "",
          "type": "address"
        }
      ],
      "stateMutability": "view",
      "type": "function"
    },
    {
      "inputs": [
        {
          "internalType": "address",
          "name": "owner",
          "type": "address"
        },
        {
          "internalType": "address",
          "name": "operator",
          "type": "address"
        }
      ],
      "name": "isApprovedForAll",
      "outputs": [
        {
          "internalType": "bool",
          "name": "",
          "type": "bool"
        }
      ],
      "stateMutability": "view",
      "type": "function"
    },
    {
      "inputs": [],
      "name": "name",
      "outputs": [
        {
          "internalType": "string",
          "name": "",
          "type": "string"
        }
      ],
      "stateMutability": "view",
      "type": "function"
    },
    {
      "inputs": [
        {
          "internalType": "uint256",
          "name": "tokenId",
          "type": "uint256"
        }
      ],
      "name": "ownerOf",
      "outputs": [
        {
          "internalType": "address",
          "name": "",
          "type": "address"
        }
      ],
      "stateMutability": "view",
      "type": "function"
    },
    {
      "inputs": [
        {
          "internalType": "address",
          "name": "from",
          "type": "address"
        },
        {
          "internalType": "address",
          "name": "to",
          "type": "address"
        },
        {
          "internalType": "uint256",
          "name": "tokenId",
          "type": "uint256"
        }
      ],
      "name": "safeTransferFrom",
      "outputs": [],
      "stateMutability": "nonpayable",
      "type": "function"
    },
    {
      "inputs": [
        {
          "internalType": "address",
          "name": "from",
          "type": "address"
        },
        {
          "internalType": "address",
          "name": "to",
          "type": "address"
        },
        {
          "internalType": "uint256",
          "name": "tokenId",
          "type": "uint256"
        },
        {
          "internalType": "bytes",
          "name": "_data",
          "type": "bytes"
        }
      ],
      "name": "safeTransferFrom",
      "outputs": [],
      "stateMutability": "nonpayable",
      "type": "function"
    },
    {
      "inputs": [
        {
          "internalType": "address",
          "name": "operator",
          "type": "address"
        },
        {
          "internalType": "bool",
          "name": "approved",
          "type": "bool"
        }
      ],
      "name": "setApprovalForAll",
      "outputs": [],
      "stateMutability": "nonpayable",
      "type": "function"
    },
    {
      "inputs": [],
      "name": "symbol",
      "outputs": [
        {
          "internalType": "string",
          "name": "",
          "type": "string"
        }
      ],
      "stateMutability": "view",
      "type": "function"
    },
    {
      "inputs": [
        {
          "internalType": "uint256",
          "name": "index",
          "type": "uint256"
        }
      ],
      "name": "tokenByIndex",
      "outputs": [
        {
          "internalType": "uint256",
          "name": "",
          "type": "uint256"
        }
      ],
      "stateMutability": "view",
      "type": "function"
    },
    {
      "inputs": [
        {
          "internalType": "address",
          "name": "owner",
          "type": "address"
        },
        {
          "internalType": "uint256",
          "name": "index",
          "type": "uint256"
        }
      ],
      "name": "tokenOfOwnerByIndex",
      "outputs": [
        {
          "internalType": "uint256",
          "name": "",
          "type": "uint256"
        }
      ],
      "stateMutability": "view",
      "type": "function"
    },
    {
      "inputs": [],
      "name": "totalSupply",
      "outputs": [
        {
          "internalType": "uint256",
          "name": "",
          "type": "uint256"
        }
      ],
      "stateMutability": "view",
      "type": "function"
    },
    {
      "inputs": [
        {
          "internalType": "address",
          "name": "from",
          "type": "address"
        },
        {
          "internalType": "address",
          "name": "to",
          "type": "address"
        },
        {
          "internalType": "uint256",
          "name": "tokenId",
          "type": "uint256"
        }
      ],
      "name": "transferFrom",
      "outputs": [],
      "stateMutability": "nonpayable",
      "type": "function"
    },
    {
      "inputs": [
        {
          "internalType": "address",
          "name": "_owner",
          "type": "address"
        },
        {
          "internalType": "string",
          "name": "_tokenURI",
          "type": "string"
        }
      ],
      "name": "mintNft",
      "outputs": [
        {
          "internalType": "uint256",
          "name": "",
          "type": "uint256"
        }
      ],
      "stateMutability": "nonpayable",
      "type": "function"
    },
    {
      "inputs": [
        {
          "internalType": "uint256",
          "name": "_tokenURI",
          "type": "uint256"
        }
      ],
      "name": "tokenURI",
      "outputs": [
        {
          "internalType": "string",
          "name": "",
          "type": "string"
        }
      ],
      "stateMutability": "pure",
      "type": "function"
    },
    {
      "inputs": [
        {
          "internalType": "bool",
          "name": "actif",
          "type": "bool"
        },
        {
          "internalType": "uint256",
          "name": "price",
          "type": "uint256"
        },
        {
          "internalType": "address",
          "name": "collection",
          "type": "address"
        }
      ],
      "name": "setDetail",
      "outputs": [],
      "stateMutability": "nonpayable",
      "type": "function"
    },
    {
      "inputs": [
        {
          "internalType": "contract NftCollection",
          "name": "collection",
          "type": "address"
        }
      ],
      "name": "setCollection",
      "outputs": [],
      "stateMutability": "nonpayable",
      "type": "function"
    },
    {
      "inputs": [],
      "name": "getDetail",
      "outputs": [
        {
          "components": [
            {
              "internalType": "bool",
              "name": "actif",
              "type": "bool"
            },
            {
              "internalType": "uint256",
              "name": "price",
              "type": "uint256"
            },
            {
              "internalType": "contract NftCollection",
              "name": "collection",
              "type": "address"
            }
          ],
          "internalType": "struct Nft.NftDetail",
          "name": "",
          "type": "tuple"
        }
      ],
      "stateMutability": "view",
      "type": "function"
    },
    {
      "inputs": [
        {
          "internalType": "bytes4",
          "name": "interfaceId",
          "type": "bytes4"
        }
      ],
      "name": "supportsInterface",
      "outputs": [
        {
          "internalType": "bool",
          "name": "",
          "type": "bool"
        }
      ],
      "stateMutability": "view",
      "type": "function"
    }
  ],
  "bytecode": "0x60806040523480156200001157600080fd5b506040518060400160405280600381526020017f4e467400000000000000000000000000000000000000000000000000000000008152506040518060400160405280600781526020017f4e46545f46504d00000000000000000000000000000000000000000000000000815250816000908051906020019062000096929190620000b8565b508060019080519060200190620000af929190620000b8565b505050620001cc565b828054620000c69062000197565b90600052602060002090601f016020900481019282620000ea576000855562000136565b82601f106200010557805160ff191683800117855562000136565b8280016001018555821562000136579182015b828111156200013557825182559160200191906001019062000118565b5b50905062000145919062000149565b5090565b5b80821115620001645760008160009055506001016200014a565b5090565b7f4e487b7100000000000000000000000000000000000000000000000000000000600052602260045260246000fd5b60006002820490506001821680620001b057607f821691505b602082108103620001c657620001c562000168565b5b50919050565b61328280620001dc6000396000f3fe608060405234801561001057600080fd5b50600436106101375760003560e01c80635b2a4cff116100b8578063768b5fd51161007c578063768b5fd51461037457806395d89b4114610390578063a22cb465146103ae578063b88d4fde146103ca578063c87b56dd146103e6578063e985e9c51461041657610137565b80635b2a4cff146102bc5780636352211e146102da5780636c0360eb1461030a57806370a0823114610328578063749926771461035857610137565b806318160ddd116100ff57806318160ddd1461020657806323b872dd146102245780632f745c591461024057806342842e0e146102705780634f6ccce71461028c57610137565b806301ffc9a71461013c57806306fdde031461016c578063081812fc1461018a578063095ea7b3146101ba57806311f87b19146101d6575b600080fd5b61015660048036038101906101519190611eb2565b610446565b6040516101639190611efa565b60405180910390f35b610174610458565b6040516101819190611fae565b60405180910390f35b6101a4600480360381019061019f9190612006565b6104ea565b6040516101b19190612074565b60405180910390f35b6101d460048036038101906101cf91906120bb565b61056f565b005b6101f060048036038101906101eb9190612230565b610686565b6040516101fd919061229b565b60405180910390f35b61020e6106ca565b60405161021b919061229b565b60405180910390f35b61023e600480360381019061023991906122b6565b6106d7565b005b61025a600480360381019061025591906120bb565b610737565b604051610267919061229b565b60405180910390f35b61028a600480360381019061028591906122b6565b6107dc565b005b6102a660048036038101906102a19190612006565b6107fc565b6040516102b3919061229b565b60405180910390f35b6102c461086d565b6040516102d191906123c8565b60405180910390f35b6102f460048036038101906102ef9190612006565b610902565b6040516103019190612074565b60405180910390f35b6103126109b3565b60405161031f9190611fae565b60405180910390f35b610342600480360381019061033d91906123e3565b6109cf565b60405161034f919061229b565b60405180910390f35b610372600480360381019061036d919061243c565b610a86565b005b61038e600480360381019061038991906124cd565b610af6565b005b610398610b3d565b6040516103a59190611fae565b60405180910390f35b6103c860048036038101906103c391906124fa565b610bcf565b005b6103e460048036038101906103df91906125db565b610be5565b005b61040060048036038101906103fb9190612006565b610c47565b60405161040d9190611fae565b60405180910390f35b610430600480360381019061042b919061265e565b610c8a565b60405161043d9190611efa565b60405180910390f35b600061045182610d1e565b9050919050565b606060008054610467906126cd565b80601f0160208091040260200160405190810160405280929190818152602001828054610493906126cd565b80156104e05780601f106104b5576101008083540402835291602001916104e0565b820191906000526020600020905b8154815290600101906020018083116104c357829003601f168201915b5050505050905090565b60006104f582610d98565b610534576040517f08c379a000000000000000000000000000000000000000000000000000000000815260040161052b90612770565b60405180910390fd5b6004600083815260200190815260200160002060009054906101000a900473ffffffffffffffffffffffffffffffffffffffff169050919050565b600061057a82610902565b90508073ffffffffffffffffffffffffffffffffffffffff168373ffffffffffffffffffffffffffffffffffffffff16036105ea576040517f08c379a00000000000000000000000000000000000000000000000000000000081526004016105e190612802565b60405180910390fd5b8073ffffffffffffffffffffffffffffffffffffffff16610609610e04565b73ffffffffffffffffffffffffffffffffffffffff161480610638575061063781610632610e04565b610c8a565b5b610677576040517f08c379a000000000000000000000000000000000000000000000000000000000815260040161066e90612894565b60405180910390fd5b6106818383610e0c565b505050565b6000610692600e610ec5565b600061069e600e610edb565b90506106aa8482610ee9565b6106b481846110c2565b6106c060008583611136565b8091505092915050565b6000600980549050905090565b6106e86106e2610e04565b82611146565b610727576040517f08c379a000000000000000000000000000000000000000000000000000000000815260040161071e90612926565b60405180910390fd5b610732838383611224565b505050565b6000610742836109cf565b8210610783576040517f08c379a000000000000000000000000000000000000000000000000000000000815260040161077a906129b8565b60405180910390fd5b600760008473ffffffffffffffffffffffffffffffffffffffff1673ffffffffffffffffffffffffffffffffffffffff168152602001908152602001600020600083815260200190815260200160002054905092915050565b6107f783838360405180602001604052806000815250610be5565b505050565b60006108066106ca565b8210610847576040517f08c379a000000000000000000000000000000000000000000000000000000000815260040161083e90612a4a565b60405180910390fd5b6009828154811061085b5761085a612a6a565b5b90600052602060002001549050919050565b610875611d6a565b600b6040518060600160405290816000820160009054906101000a900460ff16151515158152602001600182015481526020016002820160009054906101000a900473ffffffffffffffffffffffffffffffffffffffff1673ffffffffffffffffffffffffffffffffffffffff1673ffffffffffffffffffffffffffffffffffffffff1681525050905090565b6000806002600084815260200190815260200160002060009054906101000a900473ffffffffffffffffffffffffffffffffffffffff169050600073ffffffffffffffffffffffffffffffffffffffff168173ffffffffffffffffffffffffffffffffffffffff16036109aa576040517f08c379a00000000000000000000000000000000000000000000000000000000081526004016109a190612b0b565b60405180910390fd5b80915050919050565b60405180606001604052806021815260200161322c6021913981565b60008073ffffffffffffffffffffffffffffffffffffffff168273ffffffffffffffffffffffffffffffffffffffff1603610a3f576040517f08c379a0000000000000000000000000000000000000000000000000000000008152600401610a3690612b9d565b60405180910390fd5b600360008373ffffffffffffffffffffffffffffffffffffffff1673ffffffffffffffffffffffffffffffffffffffff168152602001908152602001600020549050919050565b82600b60000160006101000a81548160ff02191690831515021790555081600b6001018190555080600b60020160006101000a81548173ffffffffffffffffffffffffffffffffffffffff021916908373ffffffffffffffffffffffffffffffffffffffff160217905550505050565b80600b60020160006101000a81548173ffffffffffffffffffffffffffffffffffffffff021916908373ffffffffffffffffffffffffffffffffffffffff16021790555050565b606060018054610b4c906126cd565b80601f0160208091040260200160405190810160405280929190818152602001828054610b78906126cd565b8015610bc55780601f10610b9a57610100808354040283529160200191610bc5565b820191906000526020600020905b815481529060010190602001808311610ba857829003601f168201915b5050505050905090565b610be1610bda610e04565b838361148a565b5050565b610bf6610bf0610e04565b83611146565b610c35576040517f08c379a0000000000000000000000000000000000000000000000000000000008152600401610c2c90612926565b60405180910390fd5b610c41848484846115f6565b50505050565b606060405180606001604052806021815260200161322c6021913982604051602001610c74929190612c1a565b6040516020818303038152906040529050919050565b6000600560008473ffffffffffffffffffffffffffffffffffffffff1673ffffffffffffffffffffffffffffffffffffffff16815260200190815260200160002060008373ffffffffffffffffffffffffffffffffffffffff1673ffffffffffffffffffffffffffffffffffffffff16815260200190815260200160002060009054906101000a900460ff16905092915050565b60007f780e9d63000000000000000000000000000000000000000000000000000000007bffffffffffffffffffffffffffffffffffffffffffffffffffffffff1916827bffffffffffffffffffffffffffffffffffffffffffffffffffffffff19161480610d915750610d9082611652565b5b9050919050565b60008073ffffffffffffffffffffffffffffffffffffffff166002600084815260200190815260200160002060009054906101000a900473ffffffffffffffffffffffffffffffffffffffff1673ffffffffffffffffffffffffffffffffffffffff1614159050919050565b600033905090565b816004600083815260200190815260200160002060006101000a81548173ffffffffffffffffffffffffffffffffffffffff021916908373ffffffffffffffffffffffffffffffffffffffff160217905550808273ffffffffffffffffffffffffffffffffffffffff16610e7f83610902565b73ffffffffffffffffffffffffffffffffffffffff167f8c5be1e5ebec7d5bd14f71427d1e84f3dd0314c0f7b2291e5b200ac8c7c3b92560405160405180910390a45050565b6001816000016000828254019250508190555050565b600081600001549050919050565b600073ffffffffffffffffffffffffffffffffffffffff168273ffffffffffffffffffffffffffffffffffffffff1603610f58576040517f08c379a0000000000000000000000000000000000000000000000000000000008152600401610f4f90612c8e565b60405180910390fd5b610f6181610d98565b15610fa1576040517f08c379a0000000000000000000000000000000000000000000000000000000008152600401610f9890612cfa565b60405180910390fd5b610fad60008383611136565b6001600360008473ffffffffffffffffffffffffffffffffffffffff1673ffffffffffffffffffffffffffffffffffffffff1681526020019081526020016000206000828254610ffd9190612d49565b92505081905550816002600083815260200190815260200160002060006101000a81548173ffffffffffffffffffffffffffffffffffffffff021916908373ffffffffffffffffffffffffffffffffffffffff160217905550808273ffffffffffffffffffffffffffffffffffffffff16600073ffffffffffffffffffffffffffffffffffffffff167fddf252ad1be2c89b69c2b068fc378daa952ba7f163c4a11628f55a4df523b3ef60405160405180910390a46110be60008383611734565b5050565b6110cb82610d98565b61110a576040517f08c379a000000000000000000000000000000000000000000000000000000000815260040161110190612e11565b60405180910390fd5b80600660008481526020019081526020016000209080519060200190611131929190611da3565b505050565b611141838383611739565b505050565b600061115182610d98565b611190576040517f08c379a000000000000000000000000000000000000000000000000000000000815260040161118790612ea3565b60405180910390fd5b600061119b83610902565b90508073ffffffffffffffffffffffffffffffffffffffff168473ffffffffffffffffffffffffffffffffffffffff1614806111dd57506111dc8185610c8a565b5b8061121b57508373ffffffffffffffffffffffffffffffffffffffff16611203846104ea565b73ffffffffffffffffffffffffffffffffffffffff16145b91505092915050565b8273ffffffffffffffffffffffffffffffffffffffff1661124482610902565b73ffffffffffffffffffffffffffffffffffffffff161461129a576040517f08c379a000000000000000000000000000000000000000000000000000000000815260040161129190612f35565b60405180910390fd5b600073ffffffffffffffffffffffffffffffffffffffff168273ffffffffffffffffffffffffffffffffffffffff1603611309576040517f08c379a000000000000000000000000000000000000000000000000000000000815260040161130090612fc7565b60405180910390fd5b611314838383611136565b61131f600082610e0c565b6001600360008573ffffffffffffffffffffffffffffffffffffffff1673ffffffffffffffffffffffffffffffffffffffff168152602001908152602001600020600082825461136f9190612fe7565b925050819055506001600360008473ffffffffffffffffffffffffffffffffffffffff1673ffffffffffffffffffffffffffffffffffffffff16815260200190815260200160002060008282546113c69190612d49565b92505081905550816002600083815260200190815260200160002060006101000a81548173ffffffffffffffffffffffffffffffffffffffff021916908373ffffffffffffffffffffffffffffffffffffffff160217905550808273ffffffffffffffffffffffffffffffffffffffff168473ffffffffffffffffffffffffffffffffffffffff167fddf252ad1be2c89b69c2b068fc378daa952ba7f163c4a11628f55a4df523b3ef60405160405180910390a4611485838383611734565b505050565b8173ffffffffffffffffffffffffffffffffffffffff168373ffffffffffffffffffffffffffffffffffffffff16036114f8576040517f08c379a00000000000000000000000000000000000000000000000000000000081526004016114ef90613067565b60405180910390fd5b80600560008573ffffffffffffffffffffffffffffffffffffffff1673ffffffffffffffffffffffffffffffffffffffff16815260200190815260200160002060008473ffffffffffffffffffffffffffffffffffffffff1673ffffffffffffffffffffffffffffffffffffffff16815260200190815260200160002060006101000a81548160ff0219169083151502179055508173ffffffffffffffffffffffffffffffffffffffff168373ffffffffffffffffffffffffffffffffffffffff167f17307eab39ab6107e8899845ad3d59bd9653f200f220920489ca2b5937696c31836040516115e99190611efa565b60405180910390a3505050565b611601848484611224565b61160d8484848461184b565b61164c576040517f08c379a0000000000000000000000000000000000000000000000000000000008152600401611643906130f9565b60405180910390fd5b50505050565b60007f80ac58cd000000000000000000000000000000000000000000000000000000007bffffffffffffffffffffffffffffffffffffffffffffffffffffffff1916827bffffffffffffffffffffffffffffffffffffffffffffffffffffffff1916148061171d57507f5b5e139f000000000000000000000000000000000000000000000000000000007bffffffffffffffffffffffffffffffffffffffffffffffffffffffff1916827bffffffffffffffffffffffffffffffffffffffffffffffffffffffff1916145b8061172d575061172c826119d2565b5b9050919050565b505050565b611744838383611a3c565b600073ffffffffffffffffffffffffffffffffffffffff168373ffffffffffffffffffffffffffffffffffffffff16036117865761178181611a41565b6117c5565b8173ffffffffffffffffffffffffffffffffffffffff168373ffffffffffffffffffffffffffffffffffffffff16146117c4576117c38382611a8a565b5b5b600073ffffffffffffffffffffffffffffffffffffffff168273ffffffffffffffffffffffffffffffffffffffff16036118075761180281611bf7565b611846565b8273ffffffffffffffffffffffffffffffffffffffff168273ffffffffffffffffffffffffffffffffffffffff1614611845576118448282611cc8565b5b5b505050565b600061186c8473ffffffffffffffffffffffffffffffffffffffff16611d47565b156119c5578373ffffffffffffffffffffffffffffffffffffffff1663150b7a02611895610e04565b8786866040518563ffffffff1660e01b81526004016118b7949392919061316e565b6020604051808303816000875af19250505080156118f357506040513d601f19601f820116820180604052508101906118f091906131cf565b60015b611975573d8060008114611923576040519150601f19603f3d011682016040523d82523d6000602084013e611928565b606091505b50600081510361196d576040517f08c379a0000000000000000000000000000000000000000000000000000000008152600401611964906130f9565b60405180910390fd5b805181602001fd5b63150b7a0260e01b7bffffffffffffffffffffffffffffffffffffffffffffffffffffffff1916817bffffffffffffffffffffffffffffffffffffffffffffffffffffffff1916149150506119ca565b600190505b949350505050565b60007f01ffc9a7000000000000000000000000000000000000000000000000000000007bffffffffffffffffffffffffffffffffffffffffffffffffffffffff1916827bffffffffffffffffffffffffffffffffffffffffffffffffffffffff1916149050919050565b505050565b600980549050600a600083815260200190815260200160002081905550600981908060018154018082558091505060019003906000526020600020016000909190919091505550565b60006001611a97846109cf565b611aa19190612fe7565b9050600060086000848152602001908152602001600020549050818114611b86576000600760008673ffffffffffffffffffffffffffffffffffffffff1673ffffffffffffffffffffffffffffffffffffffff168152602001908152602001600020600084815260200190815260200160002054905080600760008773ffffffffffffffffffffffffffffffffffffffff1673ffffffffffffffffffffffffffffffffffffffff168152602001908152602001600020600084815260200190815260200160002081905550816008600083815260200190815260200160002081905550505b6008600084815260200190815260200160002060009055600760008573ffffffffffffffffffffffffffffffffffffffff1673ffffffffffffffffffffffffffffffffffffffff16815260200190815260200160002060008381526020019081526020016000206000905550505050565b60006001600980549050611c0b9190612fe7565b90506000600a6000848152602001908152602001600020549050600060098381548110611c3b57611c3a612a6a565b5b906000526020600020015490508060098381548110611c5d57611c5c612a6a565b5b906000526020600020018190555081600a600083815260200190815260200160002081905550600a6000858152602001908152602001600020600090556009805480611cac57611cab6131fc565b5b6001900381819060005260206000200160009055905550505050565b6000611cd3836109cf565b905081600760008573ffffffffffffffffffffffffffffffffffffffff1673ffffffffffffffffffffffffffffffffffffffff168152602001908152602001600020600083815260200190815260200160002081905550806008600084815260200190815260200160002081905550505050565b6000808273ffffffffffffffffffffffffffffffffffffffff163b119050919050565b604051806060016040528060001515815260200160008152602001600073ffffffffffffffffffffffffffffffffffffffff1681525090565b828054611daf906126cd565b90600052602060002090601f016020900481019282611dd15760008555611e18565b82601f10611dea57805160ff1916838001178555611e18565b82800160010185558215611e18579182015b82811115611e17578251825591602001919060010190611dfc565b5b509050611e259190611e29565b5090565b5b80821115611e42576000816000905550600101611e2a565b5090565b6000604051905090565b600080fd5b600080fd5b60007fffffffff0000000000000000000000000000000000000000000000000000000082169050919050565b611e8f81611e5a565b8114611e9a57600080fd5b50565b600081359050611eac81611e86565b92915050565b600060208284031215611ec857611ec7611e50565b5b6000611ed684828501611e9d565b91505092915050565b60008115159050919050565b611ef481611edf565b82525050565b6000602082019050611f0f6000830184611eeb565b92915050565b600081519050919050565b600082825260208201905092915050565b60005b83811015611f4f578082015181840152602081019050611f34565b83811115611f5e576000848401525b50505050565b6000601f19601f8301169050919050565b6000611f8082611f15565b611f8a8185611f20565b9350611f9a818560208601611f31565b611fa381611f64565b840191505092915050565b60006020820190508181036000830152611fc88184611f75565b905092915050565b6000819050919050565b611fe381611fd0565b8114611fee57600080fd5b50565b60008135905061200081611fda565b92915050565b60006020828403121561201c5761201b611e50565b5b600061202a84828501611ff1565b91505092915050565b600073ffffffffffffffffffffffffffffffffffffffff82169050919050565b600061205e82612033565b9050919050565b61206e81612053565b82525050565b60006020820190506120896000830184612065565b92915050565b61209881612053565b81146120a357600080fd5b50565b6000813590506120b58161208f565b92915050565b600080604083850312156120d2576120d1611e50565b5b60006120e0858286016120a6565b92505060206120f185828601611ff1565b9150509250929050565b600080fd5b600080fd5b7f4e487b7100000000000000000000000000000000000000000000000000000000600052604160045260246000fd5b61213d82611f64565b810181811067ffffffffffffffff8211171561215c5761215b612105565b5b80604052505050565b600061216f611e46565b905061217b8282612134565b919050565b600067ffffffffffffffff82111561219b5761219a612105565b5b6121a482611f64565b9050602081019050919050565b82818337600083830152505050565b60006121d36121ce84612180565b612165565b9050828152602081018484840111156121ef576121ee612100565b5b6121fa8482856121b1565b509392505050565b600082601f830112612217576122166120fb565b5b81356122278482602086016121c0565b91505092915050565b6000806040838503121561224757612246611e50565b5b6000612255858286016120a6565b925050602083013567ffffffffffffffff81111561227657612275611e55565b5b61228285828601612202565b9150509250929050565b61229581611fd0565b82525050565b60006020820190506122b0600083018461228c565b92915050565b6000806000606084860312156122cf576122ce611e50565b5b60006122dd868287016120a6565b93505060206122ee868287016120a6565b92505060406122ff86828701611ff1565b9150509250925092565b61231281611edf565b82525050565b61232181611fd0565b82525050565b6000819050919050565b600061234c61234761234284612033565b612327565b612033565b9050919050565b600061235e82612331565b9050919050565b600061237082612353565b9050919050565b61238081612365565b82525050565b60608201600082015161239c6000850182612309565b5060208201516123af6020850182612318565b5060408201516123c26040850182612377565b50505050565b60006060820190506123dd6000830184612386565b92915050565b6000602082840312156123f9576123f8611e50565b5b6000612407848285016120a6565b91505092915050565b61241981611edf565b811461242457600080fd5b50565b60008135905061243681612410565b92915050565b60008060006060848603121561245557612454611e50565b5b600061246386828701612427565b935050602061247486828701611ff1565b9250506040612485868287016120a6565b9150509250925092565b600061249a82612053565b9050919050565b6124aa8161248f565b81146124b557600080fd5b50565b6000813590506124c7816124a1565b92915050565b6000602082840312156124e3576124e2611e50565b5b60006124f1848285016124b8565b91505092915050565b6000806040838503121561251157612510611e50565b5b600061251f858286016120a6565b925050602061253085828601612427565b9150509250929050565b600067ffffffffffffffff82111561255557612554612105565b5b61255e82611f64565b9050602081019050919050565b600061257e6125798461253a565b612165565b90508281526020810184848401111561259a57612599612100565b5b6125a58482856121b1565b509392505050565b600082601f8301126125c2576125c16120fb565b5b81356125d284826020860161256b565b91505092915050565b600080600080608085870312156125f5576125f4611e50565b5b6000612603878288016120a6565b9450506020612614878288016120a6565b935050604061262587828801611ff1565b925050606085013567ffffffffffffffff81111561264657612645611e55565b5b612652878288016125ad565b91505092959194509250565b6000806040838503121561267557612674611e50565b5b6000612683858286016120a6565b9250506020612694858286016120a6565b9150509250929050565b7f4e487b7100000000000000000000000000000000000000000000000000000000600052602260045260246000fd5b600060028204905060018216806126e557607f821691505b6020821081036126f8576126f761269e565b5b50919050565b7f4552433732313a20617070726f76656420717565727920666f72206e6f6e657860008201527f697374656e7420746f6b656e0000000000000000000000000000000000000000602082015250565b600061275a602c83611f20565b9150612765826126fe565b604082019050919050565b600060208201905081810360008301526127898161274d565b9050919050565b7f4552433732313a20617070726f76616c20746f2063757272656e74206f776e6560008201527f7200000000000000000000000000000000000000000000000000000000000000602082015250565b60006127ec602183611f20565b91506127f782612790565b604082019050919050565b6000602082019050818103600083015261281b816127df565b9050919050565b7f4552433732313a20617070726f76652063616c6c6572206973206e6f74206f7760008201527f6e6572206e6f7220617070726f76656420666f7220616c6c0000000000000000602082015250565b600061287e603883611f20565b915061288982612822565b604082019050919050565b600060208201905081810360008301526128ad81612871565b9050919050565b7f4552433732313a207472616e736665722063616c6c6572206973206e6f74206f60008201527f776e6572206e6f7220617070726f766564000000000000000000000000000000602082015250565b6000612910603183611f20565b915061291b826128b4565b604082019050919050565b6000602082019050818103600083015261293f81612903565b9050919050565b7f455243373231456e756d657261626c653a206f776e657220696e646578206f7560008201527f74206f6620626f756e6473000000000000000000000000000000000000000000602082015250565b60006129a2602b83611f20565b91506129ad82612946565b604082019050919050565b600060208201905081810360008301526129d181612995565b9050919050565b7f455243373231456e756d657261626c653a20676c6f62616c20696e646578206f60008201527f7574206f6620626f756e64730000000000000000000000000000000000000000602082015250565b6000612a34602c83611f20565b9150612a3f826129d8565b604082019050919050565b60006020820190508181036000830152612a6381612a27565b9050919050565b7f4e487b7100000000000000000000000000000000000000000000000000000000600052603260045260246000fd5b7f4552433732313a206f776e657220717565727920666f72206e6f6e657869737460008201527f656e7420746f6b656e0000000000000000000000000000000000000000000000602082015250565b6000612af5602983611f20565b9150612b0082612a99565b604082019050919050565b60006020820190508181036000830152612b2481612ae8565b9050919050565b7f4552433732313a2062616c616e636520717565727920666f7220746865207a6560008201527f726f206164647265737300000000000000000000000000000000000000000000602082015250565b6000612b87602a83611f20565b9150612b9282612b2b565b604082019050919050565b60006020820190508181036000830152612bb681612b7a565b9050919050565b600081905092915050565b6000612bd382611f15565b612bdd8185612bbd565b9350612bed818560208601611f31565b80840191505092915050565b6000819050919050565b612c14612c0f82611fd0565b612bf9565b82525050565b6000612c268285612bc8565b9150612c328284612c03565b6020820191508190509392505050565b7f4552433732313a206d696e7420746f20746865207a65726f2061646472657373600082015250565b6000612c78602083611f20565b9150612c8382612c42565b602082019050919050565b60006020820190508181036000830152612ca781612c6b565b9050919050565b7f4552433732313a20746f6b656e20616c7265616479206d696e74656400000000600082015250565b6000612ce4601c83611f20565b9150612cef82612cae565b602082019050919050565b60006020820190508181036000830152612d1381612cd7565b9050919050565b7f4e487b7100000000000000000000000000000000000000000000000000000000600052601160045260246000fd5b6000612d5482611fd0565b9150612d5f83611fd0565b9250827fffffffffffffffffffffffffffffffffffffffffffffffffffffffffffffffff03821115612d9457612d93612d1a565b5b828201905092915050565b7f45524337323155524953746f726167653a2055524920736574206f66206e6f6e60008201527f6578697374656e7420746f6b656e000000000000000000000000000000000000602082015250565b6000612dfb602e83611f20565b9150612e0682612d9f565b604082019050919050565b60006020820190508181036000830152612e2a81612dee565b9050919050565b7f4552433732313a206f70657261746f7220717565727920666f72206e6f6e657860008201527f697374656e7420746f6b656e0000000000000000000000000000000000000000602082015250565b6000612e8d602c83611f20565b9150612e9882612e31565b604082019050919050565b60006020820190508181036000830152612ebc81612e80565b9050919050565b7f4552433732313a207472616e736665722066726f6d20696e636f72726563742060008201527f6f776e6572000000000000000000000000000000000000000000000000000000602082015250565b6000612f1f602583611f20565b9150612f2a82612ec3565b604082019050919050565b60006020820190508181036000830152612f4e81612f12565b9050919050565b7f4552433732313a207472616e7366657220746f20746865207a65726f2061646460008201527f7265737300000000000000000000000000000000000000000000000000000000602082015250565b6000612fb1602483611f20565b9150612fbc82612f55565b604082019050919050565b60006020820190508181036000830152612fe081612fa4565b9050919050565b6000612ff282611fd0565b9150612ffd83611fd0565b9250828210156130105761300f612d1a565b5b828203905092915050565b7f4552433732313a20617070726f766520746f2063616c6c657200000000000000600082015250565b6000613051601983611f20565b915061305c8261301b565b602082019050919050565b6000602082019050818103600083015261308081613044565b9050919050565b7f4552433732313a207472616e7366657220746f206e6f6e20455243373231526560008201527f63656976657220696d706c656d656e7465720000000000000000000000000000602082015250565b60006130e3603283611f20565b91506130ee82613087565b604082019050919050565b60006020820190508181036000830152613112816130d6565b9050919050565b600081519050919050565b600082825260208201905092915050565b600061314082613119565b61314a8185613124565b935061315a818560208601611f31565b61316381611f64565b840191505092915050565b60006080820190506131836000830187612065565b6131906020830186612065565b61319d604083018561228c565b81810360608301526131af8184613135565b905095945050505050565b6000815190506131c981611e86565b92915050565b6000602082840312156131e5576131e4611e50565b5b60006131f3848285016131ba565b91505092915050565b7f4e487b7100000000000000000000000000000000000000000000000000000000600052603160045260246000fdfe68747470733a2f2f676174657761792e70696e6174612e636c6f75642f69706673a26469706673582212208cb4e2f321a7e9716eae1fb45c03f259b528621d4d30ce8f5480c566b281462464736f6c634300080d0033",
  "immutableReferences": {},
  "source": "// SPDX-License-Identifier: MIT\npragma solidity 0.8.13;\n\nimport \"@openzeppelin/contracts/token/ERC721/ERC721.sol\";\nimport \"@openzeppelin/contracts/token/ERC721/extensions/ERC721URIStorage.sol\";\nimport \"@openzeppelin/contracts/token/ERC721/extensions/ERC721Enumerable.sol\";\nimport \"@openzeppelin/contracts/utils/Counters.sol\";\nimport \"./NftCollection.sol\";\n\ncontract Nft is ERC721URIStorage, ERC721Enumerable {\n\n    struct NftDetail{\n        bool actif;\n        uint price;\n        NftCollection collection;\n    }\n\n    NftDetail detail;\n    string public constant baseURI = \"https://gateway.pinata.cloud/ipfs\";\n    using Counters for Counters.Counter;\n    Counters.Counter private _tokenIds;\n\n    constructor() ERC721 (\"NFt\", \"NFT_FPM\") {}\n\n    function mintNft(address _owner, string memory _tokenURI) public returns (uint256)\n    {\n        _tokenIds.increment();\n        uint256 newItemId = _tokenIds.current();\n        _mint(_owner, newItemId);\n        _setTokenURI(newItemId, _tokenURI);\n        _beforeTokenTransfer(address(0), _owner, newItemId);\n        return newItemId;\n    }\n\n    function tokenURI( uint256 _tokenURI) public pure override(ERC721, ERC721URIStorage) returns (string memory) {\n        return string(abi.encodePacked(baseURI, _tokenURI));\n    }\n\n    function setDetail(bool actif, uint price, address collection) public {\n        detail.actif = actif;\n        detail.price = price;\n        detail.collection = NftCollection(collection);\n    }\n\n    function setCollection(NftCollection collection) public {\n        detail.collection = collection;\n    }\n\n    function getDetail() public view returns (NftDetail memory) {\n        return detail;\n    }\n\n    function _beforeTokenTransfer(\n        address from,\n        address to,\n        uint256 tokenId\n    ) internal virtual override(ERC721Enumerable, ERC721) {\n\n        super._beforeTokenTransfer(from, to, tokenId);\n    }\n    \n\n    function _burn(uint256 tokenId) internal virtual override(ERC721URIStorage, ERC721) {\n      super._burn(tokenId);\n    }\n\n    /**\n     * @dev See {IERC165-supportsInterface}.\n     */\n    function supportsInterface(bytes4 interfaceId) public view virtual override(ERC721Enumerable, ERC721) returns (bool) {\n        return super.supportsInterface(interfaceId);\n\n    }\n}",
  "sourcePath": "/Users/fabien/alyra/formation/Projects/alyra-projet4-nft/contracts/Nft.sol",
  "compiler": {
    "name": "solc",
    "version": "0.8.13+commit.abaa5c0e.Emscripten.clang"
  },
  "schemaVersion": "3.4.6",
  "updatedAt": "2022-05-11T21:12:57.544Z",
  "devdoc": {
    "kind": "dev",
    "methods": {
      "approve(address,uint256)": {
        "details": "See {IERC721-approve}."
      },
      "balanceOf(address)": {
        "details": "See {IERC721-balanceOf}."
      },
      "getApproved(uint256)": {
        "details": "See {IERC721-getApproved}."
      },
      "isApprovedForAll(address,address)": {
        "details": "See {IERC721-isApprovedForAll}."
      },
      "name()": {
        "details": "See {IERC721Metadata-name}."
      },
      "ownerOf(uint256)": {
        "details": "See {IERC721-ownerOf}."
      },
      "safeTransferFrom(address,address,uint256)": {
        "details": "See {IERC721-safeTransferFrom}."
      },
      "safeTransferFrom(address,address,uint256,bytes)": {
        "details": "See {IERC721-safeTransferFrom}."
      },
      "setApprovalForAll(address,bool)": {
        "details": "See {IERC721-setApprovalForAll}."
      },
      "supportsInterface(bytes4)": {
        "details": "See {IERC165-supportsInterface}."
      },
      "symbol()": {
        "details": "See {IERC721Metadata-symbol}."
      },
      "tokenByIndex(uint256)": {
        "details": "See {IERC721Enumerable-tokenByIndex}."
      },
      "tokenOfOwnerByIndex(address,uint256)": {
        "details": "See {IERC721Enumerable-tokenOfOwnerByIndex}."
      },
      "totalSupply()": {
        "details": "See {IERC721Enumerable-totalSupply}."
      },
      "transferFrom(address,address,uint256)": {
        "details": "See {IERC721-transferFrom}."
      }
    },
    "version": 1
  },
  "userdoc": {
    "kind": "user",
    "methods": {},
    "version": 1
  }
}