{
  "contractName": "NftCollection",
  "abi": [
    {
      "inputs": [],
      "stateMutability": "nonpayable",
      "type": "constructor"
    },
    {
      "anonymous": false,
      "inputs": [
        {
          "indexed": true,
          "internalType": "address",
          "name": "owner",
          "type": "address"
        },
        {
          "indexed": true,
          "internalType": "address",
          "name": "approved",
          "type": "address"
        },
        {
          "indexed": true,
          "internalType": "uint256",
          "name": "tokenId",
          "type": "uint256"
        }
      ],
      "name": "Approval",
      "type": "event"
    },
    {
      "anonymous": false,
      "inputs": [
        {
          "indexed": true,
          "internalType": "address",
          "name": "owner",
          "type": "address"
        },
        {
          "indexed": true,
          "internalType": "address",
          "name": "operator",
          "type": "address"
        },
        {
          "indexed": false,
          "internalType": "bool",
          "name": "approved",
          "type": "bool"
        }
      ],
      "name": "ApprovalForAll",
      "type": "event"
    },
    {
      "anonymous": false,
      "inputs": [
        {
          "indexed": false,
          "internalType": "address",
          "name": "_collectionAddress",
          "type": "address"
        },
        {
          "indexed": false,
          "internalType": "address",
          "name": "_nftAddress",
          "type": "address"
        },
        {
          "indexed": false,
          "internalType": "address",
          "name": "_creator",
          "type": "address"
        }
      ],
      "name": "NftAddedToCollection",
      "type": "event"
    },
    {
      "anonymous": false,
      "inputs": [
        {
          "indexed": true,
          "internalType": "address",
          "name": "previousOwner",
          "type": "address"
        },
        {
          "indexed": true,
          "internalType": "address",
          "name": "newOwner",
          "type": "address"
        }
      ],
      "name": "OwnershipTransferred",
      "type": "event"
    },
    {
      "anonymous": false,
      "inputs": [
        {
          "indexed": true,
          "internalType": "address",
          "name": "from",
          "type": "address"
        },
        {
          "indexed": true,
          "internalType": "address",
          "name": "to",
          "type": "address"
        },
        {
          "indexed": true,
          "internalType": "uint256",
          "name": "tokenId",
          "type": "uint256"
        }
      ],
      "name": "Transfer",
      "type": "event"
    },
    {
      "inputs": [
        {
          "internalType": "address",
          "name": "to",
          "type": "address"
        },
        {
          "internalType": "uint256",
          "name": "tokenId",
          "type": "uint256"
        }
      ],
      "name": "approve",
      "outputs": [],
      "stateMutability": "nonpayable",
      "type": "function"
    },
    {
      "inputs": [
        {
          "internalType": "address",
          "name": "owner",
          "type": "address"
        }
      ],
      "name": "balanceOf",
      "outputs": [
        {
          "internalType": "uint256",
          "name": "",
          "type": "uint256"
        }
      ],
      "stateMutability": "view",
      "type": "function"
    },
    {
      "inputs": [],
      "name": "baseURI",
      "outputs": [
        {
          "internalType": "string",
          "name": "",
          "type": "string"
        }
      ],
      "stateMutability": "view",
      "type": "function"
    },
    {
      "inputs": [
        {
          "internalType": "uint256",
          "name": "tokenId",
          "type": "uint256"
        }
      ],
      "name": "getApproved",
      "outputs": [
        {
          "internalType": "address",
          "name": "",
          "type": "address"
        }
      ],
      "stateMutability": "view",
      "type": "function"
    },
    {
      "inputs": [
        {
          "internalType": "address",
          "name": "owner",
          "type": "address"
        },
        {
          "internalType": "address",
          "name": "operator",
          "type": "address"
        }
      ],
      "name": "isApprovedForAll",
      "outputs": [
        {
          "internalType": "bool",
          "name": "",
          "type": "bool"
        }
      ],
      "stateMutability": "view",
      "type": "function"
    },
    {
      "inputs": [],
      "name": "name",
      "outputs": [
        {
          "internalType": "string",
          "name": "",
          "type": "string"
        }
      ],
      "stateMutability": "view",
      "type": "function"
    },
    {
      "inputs": [],
      "name": "owner",
      "outputs": [
        {
          "internalType": "address",
          "name": "",
          "type": "address"
        }
      ],
      "stateMutability": "view",
      "type": "function"
    },
    {
      "inputs": [
        {
          "internalType": "uint256",
          "name": "tokenId",
          "type": "uint256"
        }
      ],
      "name": "ownerOf",
      "outputs": [
        {
          "internalType": "address",
          "name": "",
          "type": "address"
        }
      ],
      "stateMutability": "view",
      "type": "function"
    },
    {
      "inputs": [],
      "name": "renounceOwnership",
      "outputs": [],
      "stateMutability": "nonpayable",
      "type": "function"
    },
    {
      "inputs": [
        {
          "internalType": "address",
          "name": "from",
          "type": "address"
        },
        {
          "internalType": "address",
          "name": "to",
          "type": "address"
        },
        {
          "internalType": "uint256",
          "name": "tokenId",
          "type": "uint256"
        }
      ],
      "name": "safeTransferFrom",
      "outputs": [],
      "stateMutability": "nonpayable",
      "type": "function"
    },
    {
      "inputs": [
        {
          "internalType": "address",
          "name": "from",
          "type": "address"
        },
        {
          "internalType": "address",
          "name": "to",
          "type": "address"
        },
        {
          "internalType": "uint256",
          "name": "tokenId",
          "type": "uint256"
        },
        {
          "internalType": "bytes",
          "name": "_data",
          "type": "bytes"
        }
      ],
      "name": "safeTransferFrom",
      "outputs": [],
      "stateMutability": "nonpayable",
      "type": "function"
    },
    {
      "inputs": [
        {
          "internalType": "address",
          "name": "operator",
          "type": "address"
        },
        {
          "internalType": "bool",
          "name": "approved",
          "type": "bool"
        }
      ],
      "name": "setApprovalForAll",
      "outputs": [],
      "stateMutability": "nonpayable",
      "type": "function"
    },
    {
      "inputs": [],
      "name": "symbol",
      "outputs": [
        {
          "internalType": "string",
          "name": "",
          "type": "string"
        }
      ],
      "stateMutability": "view",
      "type": "function"
    },
    {
      "inputs": [
        {
          "internalType": "uint256",
          "name": "index",
          "type": "uint256"
        }
      ],
      "name": "tokenByIndex",
      "outputs": [
        {
          "internalType": "uint256",
          "name": "",
          "type": "uint256"
        }
      ],
      "stateMutability": "view",
      "type": "function"
    },
    {
      "inputs": [
        {
          "internalType": "address",
          "name": "owner",
          "type": "address"
        },
        {
          "internalType": "uint256",
          "name": "index",
          "type": "uint256"
        }
      ],
      "name": "tokenOfOwnerByIndex",
      "outputs": [
        {
          "internalType": "uint256",
          "name": "",
          "type": "uint256"
        }
      ],
      "stateMutability": "view",
      "type": "function"
    },
    {
      "inputs": [],
      "name": "totalSupply",
      "outputs": [
        {
          "internalType": "uint256",
          "name": "",
          "type": "uint256"
        }
      ],
      "stateMutability": "view",
      "type": "function"
    },
    {
      "inputs": [
        {
          "internalType": "address",
          "name": "from",
          "type": "address"
        },
        {
          "internalType": "address",
          "name": "to",
          "type": "address"
        },
        {
          "internalType": "uint256",
          "name": "tokenId",
          "type": "uint256"
        }
      ],
      "name": "transferFrom",
      "outputs": [],
      "stateMutability": "nonpayable",
      "type": "function"
    },
    {
      "inputs": [
        {
          "internalType": "address",
          "name": "newOwner",
          "type": "address"
        }
      ],
      "name": "transferOwnership",
      "outputs": [],
      "stateMutability": "nonpayable",
      "type": "function"
    },
    {
      "inputs": [
        {
          "internalType": "address",
          "name": "_owner",
          "type": "address"
        },
        {
          "internalType": "string",
          "name": "_tokenURI",
          "type": "string"
        }
      ],
      "name": "mintCollection",
      "outputs": [
        {
          "internalType": "uint256",
          "name": "",
          "type": "uint256"
        }
      ],
      "stateMutability": "nonpayable",
      "type": "function"
    },
    {
      "inputs": [
        {
          "internalType": "uint256",
          "name": "_tokenURI",
          "type": "uint256"
        }
      ],
      "name": "tokenURI",
      "outputs": [
        {
          "internalType": "string",
          "name": "",
          "type": "string"
        }
      ],
      "stateMutability": "pure",
      "type": "function"
    },
    {
      "inputs": [
        {
          "internalType": "bytes4",
          "name": "interfaceId",
          "type": "bytes4"
        }
      ],
      "name": "supportsInterface",
      "outputs": [
        {
          "internalType": "bool",
          "name": "",
          "type": "bool"
        }
      ],
      "stateMutability": "view",
      "type": "function"
    },
    {
      "inputs": [
        {
          "internalType": "contract Nft",
          "name": "nft",
          "type": "address"
        }
      ],
      "name": "addNft",
      "outputs": [],
      "stateMutability": "nonpayable",
      "type": "function"
    },
    {
      "inputs": [
        {
          "internalType": "contract Nft",
          "name": "nft",
          "type": "address"
        }
      ],
      "name": "removeNft",
      "outputs": [],
      "stateMutability": "nonpayable",
      "type": "function"
    },
    {
      "inputs": [
        {
          "internalType": "uint256",
          "name": "_nftId",
          "type": "uint256"
        }
      ],
      "name": "getOneNft",
      "outputs": [
        {
          "internalType": "contract Nft",
          "name": "",
          "type": "address"
        }
      ],
      "stateMutability": "view",
      "type": "function"
    }
  ],
  "bytecode": "0x60806040523480156200001157600080fd5b506040518060400160405280600381526020017f4e467400000000000000000000000000000000000000000000000000000000008152506040518060400160405280600781526020017f4e46545f46504d00000000000000000000000000000000000000000000000000815250816000908051906020019062000096929190620001a6565b508060019080519060200190620000af929190620001a6565b505050620000d2620000c6620000d860201b60201c565b620000e060201b60201c565b620002ba565b600033905090565b6000600b60009054906101000a900473ffffffffffffffffffffffffffffffffffffffff16905081600b60006101000a81548173ffffffffffffffffffffffffffffffffffffffff021916908373ffffffffffffffffffffffffffffffffffffffff1602179055508173ffffffffffffffffffffffffffffffffffffffff168173ffffffffffffffffffffffffffffffffffffffff167f8be0079c531659141344cd1fd0a4f28419497f9722a3daafe3b4186f6b6457e060405160405180910390a35050565b828054620001b49062000285565b90600052602060002090601f016020900481019282620001d8576000855562000224565b82601f10620001f357805160ff191683800117855562000224565b8280016001018555821562000224579182015b828111156200022357825182559160200191906001019062000206565b5b50905062000233919062000237565b5090565b5b808211156200025257600081600090555060010162000238565b5090565b7f4e487b7100000000000000000000000000000000000000000000000000000000600052602260045260246000fd5b600060028204905060018216806200029e57607f821691505b602082108103620002b457620002b362000256565b5b50919050565b61381c80620002ca6000396000f3fe608060405234801561001057600080fd5b50600436106101585760003560e01c806354d95d5d116100c357806395d89b411161007c57806395d89b41146103eb578063a22cb46514610409578063b88d4fde14610425578063c87b56dd14610441578063e985e9c514610471578063f2fde38b146104a157610158565b806354d95d5d146103155780636352211e146103455780636c0360eb1461037557806370a0823114610393578063715018a6146103c35780638da5cb5b146103cd57610158565b806318160ddd1161011557806318160ddd1461024357806323b872dd146102615780632f745c591461027d57806342842e0e146102ad578063447a91fd146102c95780634f6ccce7146102e557610158565b806301ffc9a71461015d57806306fdde031461018d578063081812fc146101ab57806308e4c25f146101db578063095ea7b31461020b57806312d98f2414610227575b600080fd5b61017760048036038101906101729190612346565b6104bd565b604051610184919061238e565b60405180910390f35b6101956104cf565b6040516101a29190612442565b60405180910390f35b6101c560048036038101906101c0919061249a565b610561565b6040516101d29190612508565b60405180910390f35b6101f560048036038101906101f0919061249a565b6105e6565b6040516102029190612582565b60405180910390f35b610225600480360381019061022091906125c9565b61062e565b005b610241600480360381019061023c9190612647565b610745565b005b61024b61089f565b6040516102589190612683565b60405180910390f35b61027b6004803603810190610276919061269e565b6108ac565b005b610297600480360381019061029291906125c9565b61090c565b6040516102a49190612683565b60405180910390f35b6102c760048036038101906102c2919061269e565b6109b1565b005b6102e360048036038101906102de9190612647565b6109d1565b005b6102ff60048036038101906102fa919061249a565b610b6e565b60405161030c9190612683565b60405180910390f35b61032f600480360381019061032a9190612826565b610bdf565b60405161033c9190612683565b60405180910390f35b61035f600480360381019061035a919061249a565b610c17565b60405161036c9190612508565b60405180910390f35b61037d610cc8565b60405161038a9190612442565b60405180910390f35b6103ad60048036038101906103a89190612882565b610ce4565b6040516103ba9190612683565b60405180910390f35b6103cb610d9b565b005b6103d5610e23565b6040516103e29190612508565b60405180910390f35b6103f3610e4d565b6040516104009190612442565b60405180910390f35b610423600480360381019061041e91906128db565b610edf565b005b61043f600480360381019061043a91906129bc565b610ef5565b005b61045b6004803603810190610456919061249a565b610f57565b6040516104689190612442565b60405180910390f35b61048b60048036038101906104869190612a3f565b610f9a565b604051610498919061238e565b60405180910390f35b6104bb60048036038101906104b69190612882565b61102e565b005b60006104c882611125565b9050919050565b6060600080546104de90612aae565b80601f016020809104026020016040519081016040528092919081815260200182805461050a90612aae565b80156105575780601f1061052c57610100808354040283529160200191610557565b820191906000526020600020905b81548152906001019060200180831161053a57829003601f168201915b5050505050905090565b600061056c8261119f565b6105ab576040517f08c379a00000000000000000000000000000000000000000000000000000000081526004016105a290612b51565b60405180910390fd5b6004600083815260200190815260200160002060009054906101000a900473ffffffffffffffffffffffffffffffffffffffff169050919050565b6000600d82815481106105fc576105fb612b71565b5b9060005260206000200160009054906101000a900473ffffffffffffffffffffffffffffffffffffffff169050919050565b600061063982610c17565b90508073ffffffffffffffffffffffffffffffffffffffff168373ffffffffffffffffffffffffffffffffffffffff16036106a9576040517f08c379a00000000000000000000000000000000000000000000000000000000081526004016106a090612c12565b60405180910390fd5b8073ffffffffffffffffffffffffffffffffffffffff166106c861120b565b73ffffffffffffffffffffffffffffffffffffffff1614806106f757506106f6816106f161120b565b610f9a565b5b610736576040517f08c379a000000000000000000000000000000000000000000000000000000000815260040161072d90612ca4565b60405180910390fd5b6107408383611213565b505050565b61074d61120b565b73ffffffffffffffffffffffffffffffffffffffff1661076b610e23565b73ffffffffffffffffffffffffffffffffffffffff16146107c1576040517f08c379a00000000000000000000000000000000000000000000000000000000081526004016107b890612d10565b60405180910390fd5b60005b600d8054905081101561089b578173ffffffffffffffffffffffffffffffffffffffff16600d82815481106107fc576107fb612b71565b5b9060005260206000200160009054906101000a900473ffffffffffffffffffffffffffffffffffffffff1673ffffffffffffffffffffffffffffffffffffffff160361088857600d818154811061085657610855612b71565b5b9060005260206000200160006101000a81549073ffffffffffffffffffffffffffffffffffffffff021916905561089b565b808061089390612d5f565b9150506107c4565b5050565b6000600880549050905090565b6108bd6108b761120b565b826112cc565b6108fc576040517f08c379a00000000000000000000000000000000000000000000000000000000081526004016108f390612e19565b60405180910390fd5b6109078383836113aa565b505050565b600061091783610ce4565b8210610958576040517f08c379a000000000000000000000000000000000000000000000000000000000815260040161094f90612eab565b60405180910390fd5b600660008473ffffffffffffffffffffffffffffffffffffffff1673ffffffffffffffffffffffffffffffffffffffff168152602001908152602001600020600083815260200190815260200160002054905092915050565b6109cc83838360405180602001604052806000815250610ef5565b505050565b6109d961120b565b73ffffffffffffffffffffffffffffffffffffffff166109f7610e23565b73ffffffffffffffffffffffffffffffffffffffff1614610a4d576040517f08c379a0000000000000000000000000000000000000000000000000000000008152600401610a4490612d10565b60405180910390fd5b8073ffffffffffffffffffffffffffffffffffffffff1663768b5fd5306040518263ffffffff1660e01b8152600401610a869190612eec565b600060405180830381600087803b158015610aa057600080fd5b505af1158015610ab4573d6000803e3d6000fd5b50505050600d819080600181540180825580915050600190039060005260206000200160009091909190916101000a81548173ffffffffffffffffffffffffffffffffffffffff021916908373ffffffffffffffffffffffffffffffffffffffff160217905550610b30600030610b2b600c611610565b61161e565b7f5d137593b632191bec47558da3f4693ada12132b1681bd94833db8f1cd89a83d308233604051610b6393929190612f07565b60405180910390a150565b6000610b7861089f565b8210610bb9576040517f08c379a0000000000000000000000000000000000000000000000000000000008152600401610bb090612fb0565b60405180910390fd5b60088281548110610bcd57610bcc612b71565b5b90600052602060002001549050919050565b6000610beb600c611730565b6000610bf7600c611610565b9050610c038482611746565b610c0d818461191f565b8091505092915050565b6000806002600084815260200190815260200160002060009054906101000a900473ffffffffffffffffffffffffffffffffffffffff169050600073ffffffffffffffffffffffffffffffffffffffff168173ffffffffffffffffffffffffffffffffffffffff1603610cbf576040517f08c379a0000000000000000000000000000000000000000000000000000000008152600401610cb690613042565b60405180910390fd5b80915050919050565b6040518060600160405280602181526020016137c66021913981565b60008073ffffffffffffffffffffffffffffffffffffffff168273ffffffffffffffffffffffffffffffffffffffff1603610d54576040517f08c379a0000000000000000000000000000000000000000000000000000000008152600401610d4b906130d4565b60405180910390fd5b600360008373ffffffffffffffffffffffffffffffffffffffff1673ffffffffffffffffffffffffffffffffffffffff168152602001908152602001600020549050919050565b610da361120b565b73ffffffffffffffffffffffffffffffffffffffff16610dc1610e23565b73ffffffffffffffffffffffffffffffffffffffff1614610e17576040517f08c379a0000000000000000000000000000000000000000000000000000000008152600401610e0e90612d10565b60405180910390fd5b610e216000611993565b565b6000600b60009054906101000a900473ffffffffffffffffffffffffffffffffffffffff16905090565b606060018054610e5c90612aae565b80601f0160208091040260200160405190810160405280929190818152602001828054610e8890612aae565b8015610ed55780601f10610eaa57610100808354040283529160200191610ed5565b820191906000526020600020905b815481529060010190602001808311610eb857829003601f168201915b5050505050905090565b610ef1610eea61120b565b8383611a59565b5050565b610f06610f0061120b565b836112cc565b610f45576040517f08c379a0000000000000000000000000000000000000000000000000000000008152600401610f3c90612e19565b60405180910390fd5b610f5184848484611bc5565b50505050565b60606040518060600160405280602181526020016137c66021913982604051602001610f84929190613151565b6040516020818303038152906040529050919050565b6000600560008473ffffffffffffffffffffffffffffffffffffffff1673ffffffffffffffffffffffffffffffffffffffff16815260200190815260200160002060008373ffffffffffffffffffffffffffffffffffffffff1673ffffffffffffffffffffffffffffffffffffffff16815260200190815260200160002060009054906101000a900460ff16905092915050565b61103661120b565b73ffffffffffffffffffffffffffffffffffffffff16611054610e23565b73ffffffffffffffffffffffffffffffffffffffff16146110aa576040517f08c379a00000000000000000000000000000000000000000000000000000000081526004016110a190612d10565b60405180910390fd5b600073ffffffffffffffffffffffffffffffffffffffff168173ffffffffffffffffffffffffffffffffffffffff1603611119576040517f08c379a0000000000000000000000000000000000000000000000000000000008152600401611110906131eb565b60405180910390fd5b61112281611993565b50565b60007f780e9d63000000000000000000000000000000000000000000000000000000007bffffffffffffffffffffffffffffffffffffffffffffffffffffffff1916827bffffffffffffffffffffffffffffffffffffffffffffffffffffffff19161480611198575061119782611c21565b5b9050919050565b60008073ffffffffffffffffffffffffffffffffffffffff166002600084815260200190815260200160002060009054906101000a900473ffffffffffffffffffffffffffffffffffffffff1673ffffffffffffffffffffffffffffffffffffffff1614159050919050565b600033905090565b816004600083815260200190815260200160002060006101000a81548173ffffffffffffffffffffffffffffffffffffffff021916908373ffffffffffffffffffffffffffffffffffffffff160217905550808273ffffffffffffffffffffffffffffffffffffffff1661128683610c17565b73ffffffffffffffffffffffffffffffffffffffff167f8c5be1e5ebec7d5bd14f71427d1e84f3dd0314c0f7b2291e5b200ac8c7c3b92560405160405180910390a45050565b60006112d78261119f565b611316576040517f08c379a000000000000000000000000000000000000000000000000000000000815260040161130d9061327d565b60405180910390fd5b600061132183610c17565b90508073ffffffffffffffffffffffffffffffffffffffff168473ffffffffffffffffffffffffffffffffffffffff16148061136357506113628185610f9a565b5b806113a157508373ffffffffffffffffffffffffffffffffffffffff1661138984610561565b73ffffffffffffffffffffffffffffffffffffffff16145b91505092915050565b8273ffffffffffffffffffffffffffffffffffffffff166113ca82610c17565b73ffffffffffffffffffffffffffffffffffffffff1614611420576040517f08c379a00000000000000000000000000000000000000000000000000000000081526004016114179061330f565b60405180910390fd5b600073ffffffffffffffffffffffffffffffffffffffff168273ffffffffffffffffffffffffffffffffffffffff160361148f576040517f08c379a0000000000000000000000000000000000000000000000000000000008152600401611486906133a1565b60405180910390fd5b61149a838383611d03565b6114a5600082611213565b6001600360008573ffffffffffffffffffffffffffffffffffffffff1673ffffffffffffffffffffffffffffffffffffffff16815260200190815260200160002060008282546114f591906133c1565b925050819055506001600360008473ffffffffffffffffffffffffffffffffffffffff1673ffffffffffffffffffffffffffffffffffffffff168152602001908152602001600020600082825461154c91906133f5565b92505081905550816002600083815260200190815260200160002060006101000a81548173ffffffffffffffffffffffffffffffffffffffff021916908373ffffffffffffffffffffffffffffffffffffffff160217905550808273ffffffffffffffffffffffffffffffffffffffff168473ffffffffffffffffffffffffffffffffffffffff167fddf252ad1be2c89b69c2b068fc378daa952ba7f163c4a11628f55a4df523b3ef60405160405180910390a461160b838383611d13565b505050565b600081600001549050919050565b611629838383611d18565b600073ffffffffffffffffffffffffffffffffffffffff168373ffffffffffffffffffffffffffffffffffffffff160361166b5761166681611d1d565b6116aa565b8173ffffffffffffffffffffffffffffffffffffffff168373ffffffffffffffffffffffffffffffffffffffff16146116a9576116a88382611d66565b5b5b600073ffffffffffffffffffffffffffffffffffffffff168273ffffffffffffffffffffffffffffffffffffffff16036116ec576116e781611ed3565b61172b565b8273ffffffffffffffffffffffffffffffffffffffff168273ffffffffffffffffffffffffffffffffffffffff161461172a576117298282611fa4565b5b5b505050565b6001816000016000828254019250508190555050565b600073ffffffffffffffffffffffffffffffffffffffff168273ffffffffffffffffffffffffffffffffffffffff16036117b5576040517f08c379a00000000000000000000000000000000000000000000000000000000081526004016117ac90613497565b60405180910390fd5b6117be8161119f565b156117fe576040517f08c379a00000000000000000000000000000000000000000000000000000000081526004016117f590613503565b60405180910390fd5b61180a60008383611d03565b6001600360008473ffffffffffffffffffffffffffffffffffffffff1673ffffffffffffffffffffffffffffffffffffffff168152602001908152602001600020600082825461185a91906133f5565b92505081905550816002600083815260200190815260200160002060006101000a81548173ffffffffffffffffffffffffffffffffffffffff021916908373ffffffffffffffffffffffffffffffffffffffff160217905550808273ffffffffffffffffffffffffffffffffffffffff16600073ffffffffffffffffffffffffffffffffffffffff167fddf252ad1be2c89b69c2b068fc378daa952ba7f163c4a11628f55a4df523b3ef60405160405180910390a461191b60008383611d13565b5050565b6119288261119f565b611967576040517f08c379a000000000000000000000000000000000000000000000000000000000815260040161195e90613595565b60405180910390fd5b80600a6000848152602001908152602001600020908051906020019061198e929190612237565b505050565b6000600b60009054906101000a900473ffffffffffffffffffffffffffffffffffffffff16905081600b60006101000a81548173ffffffffffffffffffffffffffffffffffffffff021916908373ffffffffffffffffffffffffffffffffffffffff1602179055508173ffffffffffffffffffffffffffffffffffffffff168173ffffffffffffffffffffffffffffffffffffffff167f8be0079c531659141344cd1fd0a4f28419497f9722a3daafe3b4186f6b6457e060405160405180910390a35050565b8173ffffffffffffffffffffffffffffffffffffffff168373ffffffffffffffffffffffffffffffffffffffff1603611ac7576040517f08c379a0000000000000000000000000000000000000000000000000000000008152600401611abe90613601565b60405180910390fd5b80600560008573ffffffffffffffffffffffffffffffffffffffff1673ffffffffffffffffffffffffffffffffffffffff16815260200190815260200160002060008473ffffffffffffffffffffffffffffffffffffffff1673ffffffffffffffffffffffffffffffffffffffff16815260200190815260200160002060006101000a81548160ff0219169083151502179055508173ffffffffffffffffffffffffffffffffffffffff168373ffffffffffffffffffffffffffffffffffffffff167f17307eab39ab6107e8899845ad3d59bd9653f200f220920489ca2b5937696c3183604051611bb8919061238e565b60405180910390a3505050565b611bd08484846113aa565b611bdc84848484612023565b611c1b576040517f08c379a0000000000000000000000000000000000000000000000000000000008152600401611c1290613693565b60405180910390fd5b50505050565b60007f80ac58cd000000000000000000000000000000000000000000000000000000007bffffffffffffffffffffffffffffffffffffffffffffffffffffffff1916827bffffffffffffffffffffffffffffffffffffffffffffffffffffffff19161480611cec57507f5b5e139f000000000000000000000000000000000000000000000000000000007bffffffffffffffffffffffffffffffffffffffffffffffffffffffff1916827bffffffffffffffffffffffffffffffffffffffffffffffffffffffff1916145b80611cfc5750611cfb826121aa565b5b9050919050565b611d0e83838361161e565b505050565b505050565b505050565b6008805490506009600083815260200190815260200160002081905550600881908060018154018082558091505060019003906000526020600020016000909190919091505550565b60006001611d7384610ce4565b611d7d91906133c1565b9050600060076000848152602001908152602001600020549050818114611e62576000600660008673ffffffffffffffffffffffffffffffffffffffff1673ffffffffffffffffffffffffffffffffffffffff168152602001908152602001600020600084815260200190815260200160002054905080600660008773ffffffffffffffffffffffffffffffffffffffff1673ffffffffffffffffffffffffffffffffffffffff168152602001908152602001600020600084815260200190815260200160002081905550816007600083815260200190815260200160002081905550505b6007600084815260200190815260200160002060009055600660008573ffffffffffffffffffffffffffffffffffffffff1673ffffffffffffffffffffffffffffffffffffffff16815260200190815260200160002060008381526020019081526020016000206000905550505050565b60006001600880549050611ee791906133c1565b9050600060096000848152602001908152602001600020549050600060088381548110611f1757611f16612b71565b5b906000526020600020015490508060088381548110611f3957611f38612b71565b5b906000526020600020018190555081600960008381526020019081526020016000208190555060096000858152602001908152602001600020600090556008805480611f8857611f876136b3565b5b6001900381819060005260206000200160009055905550505050565b6000611faf83610ce4565b905081600660008573ffffffffffffffffffffffffffffffffffffffff1673ffffffffffffffffffffffffffffffffffffffff168152602001908152602001600020600083815260200190815260200160002081905550806007600084815260200190815260200160002081905550505050565b60006120448473ffffffffffffffffffffffffffffffffffffffff16612214565b1561219d578373ffffffffffffffffffffffffffffffffffffffff1663150b7a0261206d61120b565b8786866040518563ffffffff1660e01b815260040161208f9493929190613737565b6020604051808303816000875af19250505080156120cb57506040513d601f19601f820116820180604052508101906120c89190613798565b60015b61214d573d80600081146120fb576040519150601f19603f3d011682016040523d82523d6000602084013e612100565b606091505b506000815103612145576040517f08c379a000000000000000000000000000000000000000000000000000000000815260040161213c90613693565b60405180910390fd5b805181602001fd5b63150b7a0260e01b7bffffffffffffffffffffffffffffffffffffffffffffffffffffffff1916817bffffffffffffffffffffffffffffffffffffffffffffffffffffffff1916149150506121a2565b600190505b949350505050565b60007f01ffc9a7000000000000000000000000000000000000000000000000000000007bffffffffffffffffffffffffffffffffffffffffffffffffffffffff1916827bffffffffffffffffffffffffffffffffffffffffffffffffffffffff1916149050919050565b6000808273ffffffffffffffffffffffffffffffffffffffff163b119050919050565b82805461224390612aae565b90600052602060002090601f01602090048101928261226557600085556122ac565b82601f1061227e57805160ff19168380011785556122ac565b828001600101855582156122ac579182015b828111156122ab578251825591602001919060010190612290565b5b5090506122b991906122bd565b5090565b5b808211156122d65760008160009055506001016122be565b5090565b6000604051905090565b600080fd5b600080fd5b60007fffffffff0000000000000000000000000000000000000000000000000000000082169050919050565b612323816122ee565b811461232e57600080fd5b50565b6000813590506123408161231a565b92915050565b60006020828403121561235c5761235b6122e4565b5b600061236a84828501612331565b91505092915050565b60008115159050919050565b61238881612373565b82525050565b60006020820190506123a3600083018461237f565b92915050565b600081519050919050565b600082825260208201905092915050565b60005b838110156123e35780820151818401526020810190506123c8565b838111156123f2576000848401525b50505050565b6000601f19601f8301169050919050565b6000612414826123a9565b61241e81856123b4565b935061242e8185602086016123c5565b612437816123f8565b840191505092915050565b6000602082019050818103600083015261245c8184612409565b905092915050565b6000819050919050565b61247781612464565b811461248257600080fd5b50565b6000813590506124948161246e565b92915050565b6000602082840312156124b0576124af6122e4565b5b60006124be84828501612485565b91505092915050565b600073ffffffffffffffffffffffffffffffffffffffff82169050919050565b60006124f2826124c7565b9050919050565b612502816124e7565b82525050565b600060208201905061251d60008301846124f9565b92915050565b6000819050919050565b600061254861254361253e846124c7565b612523565b6124c7565b9050919050565b600061255a8261252d565b9050919050565b600061256c8261254f565b9050919050565b61257c81612561565b82525050565b60006020820190506125976000830184612573565b92915050565b6125a6816124e7565b81146125b157600080fd5b50565b6000813590506125c38161259d565b92915050565b600080604083850312156125e0576125df6122e4565b5b60006125ee858286016125b4565b92505060206125ff85828601612485565b9150509250929050565b6000612614826124e7565b9050919050565b61262481612609565b811461262f57600080fd5b50565b6000813590506126418161261b565b92915050565b60006020828403121561265d5761265c6122e4565b5b600061266b84828501612632565b91505092915050565b61267d81612464565b82525050565b60006020820190506126986000830184612674565b92915050565b6000806000606084860312156126b7576126b66122e4565b5b60006126c5868287016125b4565b93505060206126d6868287016125b4565b92505060406126e786828701612485565b9150509250925092565b600080fd5b600080fd5b7f4e487b7100000000000000000000000000000000000000000000000000000000600052604160045260246000fd5b612733826123f8565b810181811067ffffffffffffffff82111715612752576127516126fb565b5b80604052505050565b60006127656122da565b9050612771828261272a565b919050565b600067ffffffffffffffff821115612791576127906126fb565b5b61279a826123f8565b9050602081019050919050565b82818337600083830152505050565b60006127c96127c484612776565b61275b565b9050828152602081018484840111156127e5576127e46126f6565b5b6127f08482856127a7565b509392505050565b600082601f83011261280d5761280c6126f1565b5b813561281d8482602086016127b6565b91505092915050565b6000806040838503121561283d5761283c6122e4565b5b600061284b858286016125b4565b925050602083013567ffffffffffffffff81111561286c5761286b6122e9565b5b612878858286016127f8565b9150509250929050565b600060208284031215612898576128976122e4565b5b60006128a6848285016125b4565b91505092915050565b6128b881612373565b81146128c357600080fd5b50565b6000813590506128d5816128af565b92915050565b600080604083850312156128f2576128f16122e4565b5b6000612900858286016125b4565b9250506020612911858286016128c6565b9150509250929050565b600067ffffffffffffffff821115612936576129356126fb565b5b61293f826123f8565b9050602081019050919050565b600061295f61295a8461291b565b61275b565b90508281526020810184848401111561297b5761297a6126f6565b5b6129868482856127a7565b509392505050565b600082601f8301126129a3576129a26126f1565b5b81356129b384826020860161294c565b91505092915050565b600080600080608085870312156129d6576129d56122e4565b5b60006129e4878288016125b4565b94505060206129f5878288016125b4565b9350506040612a0687828801612485565b925050606085013567ffffffffffffffff811115612a2757612a266122e9565b5b612a338782880161298e565b91505092959194509250565b60008060408385031215612a5657612a556122e4565b5b6000612a64858286016125b4565b9250506020612a75858286016125b4565b9150509250929050565b7f4e487b7100000000000000000000000000000000000000000000000000000000600052602260045260246000fd5b60006002820490506001821680612ac657607f821691505b602082108103612ad957612ad8612a7f565b5b50919050565b7f4552433732313a20617070726f76656420717565727920666f72206e6f6e657860008201527f697374656e7420746f6b656e0000000000000000000000000000000000000000602082015250565b6000612b3b602c836123b4565b9150612b4682612adf565b604082019050919050565b60006020820190508181036000830152612b6a81612b2e565b9050919050565b7f4e487b7100000000000000000000000000000000000000000000000000000000600052603260045260246000fd5b7f4552433732313a20617070726f76616c20746f2063757272656e74206f776e6560008201527f7200000000000000000000000000000000000000000000000000000000000000602082015250565b6000612bfc6021836123b4565b9150612c0782612ba0565b604082019050919050565b60006020820190508181036000830152612c2b81612bef565b9050919050565b7f4552433732313a20617070726f76652063616c6c6572206973206e6f74206f7760008201527f6e6572206e6f7220617070726f76656420666f7220616c6c0000000000000000602082015250565b6000612c8e6038836123b4565b9150612c9982612c32565b604082019050919050565b60006020820190508181036000830152612cbd81612c81565b9050919050565b7f4f776e61626c653a2063616c6c6572206973206e6f7420746865206f776e6572600082015250565b6000612cfa6020836123b4565b9150612d0582612cc4565b602082019050919050565b60006020820190508181036000830152612d2981612ced565b9050919050565b7f4e487b7100000000000000000000000000000000000000000000000000000000600052601160045260246000fd5b6000612d6a82612464565b91507fffffffffffffffffffffffffffffffffffffffffffffffffffffffffffffffff8203612d9c57612d9b612d30565b5b600182019050919050565b7f4552433732313a207472616e736665722063616c6c6572206973206e6f74206f60008201527f776e6572206e6f7220617070726f766564000000000000000000000000000000602082015250565b6000612e036031836123b4565b9150612e0e82612da7565b604082019050919050565b60006020820190508181036000830152612e3281612df6565b9050919050565b7f455243373231456e756d657261626c653a206f776e657220696e646578206f7560008201527f74206f6620626f756e6473000000000000000000000000000000000000000000602082015250565b6000612e95602b836123b4565b9150612ea082612e39565b604082019050919050565b60006020820190508181036000830152612ec481612e88565b9050919050565b6000612ed68261254f565b9050919050565b612ee681612ecb565b82525050565b6000602082019050612f016000830184612edd565b92915050565b6000606082019050612f1c60008301866124f9565b612f2960208301856124f9565b612f3660408301846124f9565b949350505050565b7f455243373231456e756d657261626c653a20676c6f62616c20696e646578206f60008201527f7574206f6620626f756e64730000000000000000000000000000000000000000602082015250565b6000612f9a602c836123b4565b9150612fa582612f3e565b604082019050919050565b60006020820190508181036000830152612fc981612f8d565b9050919050565b7f4552433732313a206f776e657220717565727920666f72206e6f6e657869737460008201527f656e7420746f6b656e0000000000000000000000000000000000000000000000602082015250565b600061302c6029836123b4565b915061303782612fd0565b604082019050919050565b6000602082019050818103600083015261305b8161301f565b9050919050565b7f4552433732313a2062616c616e636520717565727920666f7220746865207a6560008201527f726f206164647265737300000000000000000000000000000000000000000000602082015250565b60006130be602a836123b4565b91506130c982613062565b604082019050919050565b600060208201905081810360008301526130ed816130b1565b9050919050565b600081905092915050565b600061310a826123a9565b61311481856130f4565b93506131248185602086016123c5565b80840191505092915050565b6000819050919050565b61314b61314682612464565b613130565b82525050565b600061315d82856130ff565b9150613169828461313a565b6020820191508190509392505050565b7f4f776e61626c653a206e6577206f776e657220697320746865207a65726f206160008201527f6464726573730000000000000000000000000000000000000000000000000000602082015250565b60006131d56026836123b4565b91506131e082613179565b604082019050919050565b60006020820190508181036000830152613204816131c8565b9050919050565b7f4552433732313a206f70657261746f7220717565727920666f72206e6f6e657860008201527f697374656e7420746f6b656e0000000000000000000000000000000000000000602082015250565b6000613267602c836123b4565b91506132728261320b565b604082019050919050565b600060208201905081810360008301526132968161325a565b9050919050565b7f4552433732313a207472616e736665722066726f6d20696e636f72726563742060008201527f6f776e6572000000000000000000000000000000000000000000000000000000602082015250565b60006132f96025836123b4565b91506133048261329d565b604082019050919050565b60006020820190508181036000830152613328816132ec565b9050919050565b7f4552433732313a207472616e7366657220746f20746865207a65726f2061646460008201527f7265737300000000000000000000000000000000000000000000000000000000602082015250565b600061338b6024836123b4565b91506133968261332f565b604082019050919050565b600060208201905081810360008301526133ba8161337e565b9050919050565b60006133cc82612464565b91506133d783612464565b9250828210156133ea576133e9612d30565b5b828203905092915050565b600061340082612464565b915061340b83612464565b9250827fffffffffffffffffffffffffffffffffffffffffffffffffffffffffffffffff038211156134405761343f612d30565b5b828201905092915050565b7f4552433732313a206d696e7420746f20746865207a65726f2061646472657373600082015250565b60006134816020836123b4565b915061348c8261344b565b602082019050919050565b600060208201905081810360008301526134b081613474565b9050919050565b7f4552433732313a20746f6b656e20616c7265616479206d696e74656400000000600082015250565b60006134ed601c836123b4565b91506134f8826134b7565b602082019050919050565b6000602082019050818103600083015261351c816134e0565b9050919050565b7f45524337323155524953746f726167653a2055524920736574206f66206e6f6e60008201527f6578697374656e7420746f6b656e000000000000000000000000000000000000602082015250565b600061357f602e836123b4565b915061358a82613523565b604082019050919050565b600060208201905081810360008301526135ae81613572565b9050919050565b7f4552433732313a20617070726f766520746f2063616c6c657200000000000000600082015250565b60006135eb6019836123b4565b91506135f6826135b5565b602082019050919050565b6000602082019050818103600083015261361a816135de565b9050919050565b7f4552433732313a207472616e7366657220746f206e6f6e20455243373231526560008201527f63656976657220696d706c656d656e7465720000000000000000000000000000602082015250565b600061367d6032836123b4565b915061368882613621565b604082019050919050565b600060208201905081810360008301526136ac81613670565b9050919050565b7f4e487b7100000000000000000000000000000000000000000000000000000000600052603160045260246000fd5b600081519050919050565b600082825260208201905092915050565b6000613709826136e2565b61371381856136ed565b93506137238185602086016123c5565b61372c816123f8565b840191505092915050565b600060808201905061374c60008301876124f9565b61375960208301866124f9565b6137666040830185612674565b818103606083015261377881846136fe565b905095945050505050565b6000815190506137928161231a565b92915050565b6000602082840312156137ae576137ad6122e4565b5b60006137bc84828501613783565b9150509291505056fe68747470733a2f2f676174657761792e70696e6174612e636c6f75642f69706673a26469706673582212201600f9ffadee7098c847d545be4b9289f7ce14f102e05fa8b8f6efed3f46a7d364736f6c634300080d0033",
  "immutableReferences": {},
  "source": "// SPDX-License-Identifier: MIT\npragma solidity 0.8.13;\n\nimport \"@openzeppelin/contracts/token/ERC721/ERC721.sol\";\nimport \"@openzeppelin/contracts/token/ERC721/extensions/ERC721URIStorage.sol\";\nimport \"@openzeppelin/contracts/token/ERC721/extensions/ERC721Enumerable.sol\";\nimport \"@openzeppelin/contracts/utils/Counters.sol\";\nimport \"./Nft.sol\";\nimport \"@openzeppelin/contracts/access/Ownable.sol\";\n\ncontract NftCollection is ERC721Enumerable, ERC721URIStorage, Ownable {\n    event NftAddedToCollection(address _collectionAddress, address _nftAddress, address _creator);\n\n\n    string public constant baseURI = \"https://gateway.pinata.cloud/ipfs\";\n    using Counters for Counters.Counter;\n    Counters.Counter private _tokenIds;\n\n    constructor() ERC721 (\"NFt\", \"NFT_FPM\") {}\n\n    Nft[] nftsInCollections;\n\n    function mintCollection(address _owner, string memory _tokenURI) public returns (uint256)\n    {\n        _tokenIds.increment();\n        uint256 newItemId = _tokenIds.current();\n        _mint(_owner, newItemId);\n        _setTokenURI(newItemId, _tokenURI);\n \n        return newItemId;\n    }\n\n    function tokenURI( uint256 _tokenURI) public pure override(ERC721URIStorage, ERC721) returns (string memory) {\n        return string(abi.encodePacked(baseURI, _tokenURI));\n    }\n    \n    function _beforeTokenTransfer(\n        address from,\n        address to,\n        uint256 tokenId\n    ) internal virtual override(ERC721Enumerable, ERC721) {\n\n        super._beforeTokenTransfer(from, to, tokenId);\n    }\n    \n\n    function _burn(uint256 tokenId) internal virtual override(ERC721URIStorage, ERC721) {\n      super._burn(tokenId);\n    }\n\n    /**\n     * @dev See {IERC165-supportsInterface}.\n     */\n    function supportsInterface(bytes4 interfaceId) public view virtual override(ERC721Enumerable, ERC721) returns (bool) {\n        return super.supportsInterface(interfaceId);\n\n    }\n\n\n    function addNft(Nft nft) external onlyOwner{\n        nft.setCollection(this);\n        nftsInCollections.push(nft);\n        super._beforeTokenTransfer(address(0), address(this), _tokenIds.current());\n        emit NftAddedToCollection(address(this), address(nft), msg.sender);\n    }\n\n    function removeNft(Nft nft) external onlyOwner{\n        for (uint i = 0 ; i < nftsInCollections.length; i++) {\n            if(nftsInCollections[i] == nft) {\n                delete nftsInCollections[i];\n                break;\n            }\n        }\n    }\n\n    /** \n        getOneNft method\n        @param _nftId index of a nft\n        @return the nft specified by an _nftId index\n    */\n    function getOneNft(uint _nftId) external view returns (Nft) {\n        return nftsInCollections[_nftId];\n    }\n}\n",
  "sourcePath": "/home/pierre/Projets/Alyra/Projet_5/contracts/NftCollection.sol",
  "compiler": {
    "name": "solc",
    "version": "0.8.13+commit.abaa5c0e.Emscripten.clang"
  },
  "schemaVersion": "3.4.6",
  "updatedAt": "2022-05-13T17:50:04.326Z",
  "devdoc": {
    "kind": "dev",
    "methods": {
      "approve(address,uint256)": {
        "details": "See {IERC721-approve}."
      },
      "balanceOf(address)": {
        "details": "See {IERC721-balanceOf}."
      },
      "getApproved(uint256)": {
        "details": "See {IERC721-getApproved}."
      },
      "getOneNft(uint256)": {
        "params": {
          "_nftId": "index of a nft"
        },
        "returns": {
          "_0": "the nft specified by an _nftId index"
        }
      },
      "isApprovedForAll(address,address)": {
        "details": "See {IERC721-isApprovedForAll}."
      },
      "name()": {
        "details": "See {IERC721Metadata-name}."
      },
      "owner()": {
        "details": "Returns the address of the current owner."
      },
      "ownerOf(uint256)": {
        "details": "See {IERC721-ownerOf}."
      },
      "renounceOwnership()": {
        "details": "Leaves the contract without owner. It will not be possible to call `onlyOwner` functions anymore. Can only be called by the current owner. NOTE: Renouncing ownership will leave the contract without an owner, thereby removing any functionality that is only available to the owner."
      },
      "safeTransferFrom(address,address,uint256)": {
        "details": "See {IERC721-safeTransferFrom}."
      },
      "safeTransferFrom(address,address,uint256,bytes)": {
        "details": "See {IERC721-safeTransferFrom}."
      },
      "setApprovalForAll(address,bool)": {
        "details": "See {IERC721-setApprovalForAll}."
      },
      "supportsInterface(bytes4)": {
        "details": "See {IERC165-supportsInterface}."
      },
      "symbol()": {
        "details": "See {IERC721Metadata-symbol}."
      },
      "tokenByIndex(uint256)": {
        "details": "See {IERC721Enumerable-tokenByIndex}."
      },
      "tokenOfOwnerByIndex(address,uint256)": {
        "details": "See {IERC721Enumerable-tokenOfOwnerByIndex}."
      },
      "totalSupply()": {
        "details": "See {IERC721Enumerable-totalSupply}."
      },
      "transferFrom(address,address,uint256)": {
        "details": "See {IERC721-transferFrom}."
      },
      "transferOwnership(address)": {
        "details": "Transfers ownership of the contract to a new account (`newOwner`). Can only be called by the current owner."
      }
    },
    "version": 1
  },
  "userdoc": {
    "kind": "user",
    "methods": {
      "getOneNft(uint256)": {
        "notice": "getOneNft method"
      }
    },
    "version": 1
  }
}