{
  "contractName": "NftCollectionFactory",
  "abi": [
    {
      "anonymous": false,
      "inputs": [
        {
          "indexed": false,
          "internalType": "string",
          "name": "_collectionName",
          "type": "string"
        },
        {
          "indexed": true,
          "internalType": "address",
          "name": "_collectionAddress",
          "type": "address"
        },
        {
          "indexed": false,
          "internalType": "uint256",
          "name": "_timestamp",
          "type": "uint256"
        },
        {
          "indexed": true,
          "internalType": "address",
          "name": "_creator",
          "type": "address"
        },
        {
          "indexed": true,
          "internalType": "string",
          "name": "_tokenURI",
          "type": "string"
        }
      ],
      "name": "NftCollectionCreated",
      "type": "event"
    },
    {
      "inputs": [
        {
          "internalType": "string",
          "name": "_collectionName",
          "type": "string"
        },
        {
          "internalType": "string",
          "name": "_tokenURI",
          "type": "string"
        }
      ],
      "name": "createNFTCollection",
      "outputs": [
        {
          "internalType": "address",
          "name": "collectionAddress",
          "type": "address"
        }
      ],
      "stateMutability": "nonpayable",
      "type": "function"
    }
  ],
  "bytecode": "0x608060405234801561001057600080fd5b50614268806100206000396000f3fe60806040523480156200001157600080fd5b50600436106200002e5760003560e01c806366223a181462000033575b600080fd5b6200005160048036038101906200004b91906200036c565b62000069565b60405162000060919062000436565b60405180910390f35b600080604051806020016200007e90620001e8565b6020820181038252601f19601f820116604052509050600084604051602001620000a99190620004d6565b604051602081830303815290604052805190602001209050808251602084016000f59250823b620000d957600080fd5b8273ffffffffffffffffffffffffffffffffffffffff1663e1517cc43386886040518463ffffffff1660e01b8152600401620001189392919062000541565b6020604051808303816000875af115801562000138573d6000803e3d6000fd5b505050506040513d601f19601f820116820180604052508101906200015e9190620005c7565b50836040516200016f9190620004d6565b60405180910390203373ffffffffffffffffffffffffffffffffffffffff168473ffffffffffffffffffffffffffffffffffffffff167f6dccd9ba6616e6ed7860e431437392b6d6eb8a85d8156f970a03a6be239f5f188842604051620001d89291906200060a565b60405180910390a4505092915050565b613bf4806200063f83390190565b6000604051905090565b600080fd5b600080fd5b600080fd5b600080fd5b6000601f19601f8301169050919050565b7f4e487b7100000000000000000000000000000000000000000000000000000000600052604160045260246000fd5b6200025f8262000214565b810181811067ffffffffffffffff8211171562000281576200028062000225565b5b80604052505050565b600062000296620001f6565b9050620002a4828262000254565b919050565b600067ffffffffffffffff821115620002c757620002c662000225565b5b620002d28262000214565b9050602081019050919050565b82818337600083830152505050565b600062000305620002ff84620002a9565b6200028a565b9050828152602081018484840111156200032457620003236200020f565b5b62000331848285620002df565b509392505050565b600082601f8301126200035157620003506200020a565b5b813562000363848260208601620002ee565b91505092915050565b6000806040838503121562000386576200038562000200565b5b600083013567ffffffffffffffff811115620003a757620003a662000205565b5b620003b58582860162000339565b925050602083013567ffffffffffffffff811115620003d957620003d862000205565b5b620003e78582860162000339565b9150509250929050565b600073ffffffffffffffffffffffffffffffffffffffff82169050919050565b60006200041e82620003f1565b9050919050565b620004308162000411565b82525050565b60006020820190506200044d600083018462000425565b92915050565b600081519050919050565b600081905092915050565b60005b83811015620004895780820151818401526020810190506200046c565b8381111562000499576000848401525b50505050565b6000620004ac8262000453565b620004b881856200045e565b9350620004ca81856020860162000469565b80840191505092915050565b6000620004e482846200049f565b915081905092915050565b600082825260208201905092915050565b60006200050d8262000453565b620005198185620004ef565b93506200052b81856020860162000469565b620005368162000214565b840191505092915050565b600060608201905062000558600083018662000425565b81810360208301526200056c818562000500565b9050818103604083015262000582818462000500565b9050949350505050565b6000819050919050565b620005a1816200058c565b8114620005ad57600080fd5b50565b600081519050620005c18162000596565b92915050565b600060208284031215620005e057620005df62000200565b5b6000620005f084828501620005b0565b91505092915050565b62000604816200058c565b82525050565b6000604082019050818103600083015262000626818562000500565b9050620006376020830184620005f9565b939250505056fe60806040523480156200001157600080fd5b506040518060400160405280600381526020017f4e467400000000000000000000000000000000000000000000000000000000008152506040518060400160405280600781526020017f4e46545f46504d00000000000000000000000000000000000000000000000000815250816000908051906020019062000096929190620001a6565b508060019080519060200190620000af929190620001a6565b505050620000d2620000c6620000d860201b60201c565b620000e060201b60201c565b620002ba565b600033905090565b6000600b60009054906101000a900473ffffffffffffffffffffffffffffffffffffffff16905081600b60006101000a81548173ffffffffffffffffffffffffffffffffffffffff021916908373ffffffffffffffffffffffffffffffffffffffff1602179055508173ffffffffffffffffffffffffffffffffffffffff168173ffffffffffffffffffffffffffffffffffffffff167f8be0079c531659141344cd1fd0a4f28419497f9722a3daafe3b4186f6b6457e060405160405180910390a35050565b828054620001b49062000285565b90600052602060002090601f016020900481019282620001d8576000855562000224565b82601f10620001f357805160ff191683800117855562000224565b8280016001018555821562000224579182015b828111156200022357825182559160200191906001019062000206565b5b50905062000233919062000237565b5090565b5b808211156200025257600081600090555060010162000238565b5090565b7f4e487b7100000000000000000000000000000000000000000000000000000000600052602260045260246000fd5b600060028204905060018216806200029e57607f821691505b602082108103620002b457620002b362000256565b5b50919050565b61392a80620002ca6000396000f3fe608060405234801561001057600080fd5b50600436106101735760003560e01c80636352211e116100de578063a22cb46511610097578063e1517cc411610071578063e1517cc41461045c578063e5326ab11461048c578063e985e9c5146104aa578063f2fde38b146104da57610173565b8063a22cb465146103f4578063b88d4fde14610410578063c87b56dd1461042c57610173565b80636352211e146103305780636c0360eb1461036057806370a082311461037e578063715018a6146103ae5780638da5cb5b146103b857806395d89b41146103d657610173565b806318160ddd1161013057806318160ddd1461025e57806323b872dd1461027c5780632f745c591461029857806342842e0e146102c8578063447a91fd146102e45780634f6ccce71461030057610173565b806301ffc9a71461017857806306fdde03146101a8578063081812fc146101c657806308e4c25f146101f6578063095ea7b31461022657806312d98f2414610242575b600080fd5b610192600480360381019061018d9190612425565b6104f6565b60405161019f919061246d565b60405180910390f35b6101b0610508565b6040516101bd9190612521565b60405180910390f35b6101e060048036038101906101db9190612579565b61059a565b6040516101ed91906125e7565b60405180910390f35b610210600480360381019061020b9190612579565b61061f565b60405161021d9190612661565b60405180910390f35b610240600480360381019061023b91906126a8565b610667565b005b61025c60048036038101906102579190612726565b61077e565b005b6102666108d8565b6040516102739190612762565b60405180910390f35b6102966004803603810190610291919061277d565b6108e5565b005b6102b260048036038101906102ad91906126a8565b610945565b6040516102bf9190612762565b60405180910390f35b6102e260048036038101906102dd919061277d565b6109ea565b005b6102fe60048036038101906102f99190612726565b610a0a565b005b61031a60048036038101906103159190612579565b610ba7565b6040516103279190612762565b60405180910390f35b61034a60048036038101906103459190612579565b610c18565b60405161035791906125e7565b60405180910390f35b610368610cc9565b6040516103759190612521565b60405180910390f35b610398600480360381019061039391906127d0565b610ce5565b6040516103a59190612762565b60405180910390f35b6103b6610d9c565b005b6103c0610e24565b6040516103cd91906125e7565b60405180910390f35b6103de610e4e565b6040516103eb9190612521565b60405180910390f35b61040e60048036038101906104099190612829565b610ee0565b005b61042a6004803603810190610425919061299e565b610ef6565b005b61044660048036038101906104419190612579565b610f58565b6040516104539190612521565b60405180910390f35b61047660048036038101906104719190612ac2565b610f9b565b6040516104839190612762565b60405180910390f35b610494610feb565b6040516104a19190612521565b60405180910390f35b6104c460048036038101906104bf9190612b4d565b611079565b6040516104d1919061246d565b60405180910390f35b6104f460048036038101906104ef91906127d0565b61110d565b005b600061050182611204565b9050919050565b60606000805461051790612bbc565b80601f016020809104026020016040519081016040528092919081815260200182805461054390612bbc565b80156105905780601f1061056557610100808354040283529160200191610590565b820191906000526020600020905b81548152906001019060200180831161057357829003601f168201915b5050505050905090565b60006105a58261127e565b6105e4576040517f08c379a00000000000000000000000000000000000000000000000000000000081526004016105db90612c5f565b60405180910390fd5b6004600083815260200190815260200160002060009054906101000a900473ffffffffffffffffffffffffffffffffffffffff169050919050565b6000600e828154811061063557610634612c7f565b5b9060005260206000200160009054906101000a900473ffffffffffffffffffffffffffffffffffffffff169050919050565b600061067282610c18565b90508073ffffffffffffffffffffffffffffffffffffffff168373ffffffffffffffffffffffffffffffffffffffff16036106e2576040517f08c379a00000000000000000000000000000000000000000000000000000000081526004016106d990612d20565b60405180910390fd5b8073ffffffffffffffffffffffffffffffffffffffff166107016112ea565b73ffffffffffffffffffffffffffffffffffffffff161480610730575061072f8161072a6112ea565b611079565b5b61076f576040517f08c379a000000000000000000000000000000000000000000000000000000000815260040161076690612db2565b60405180910390fd5b61077983836112f2565b505050565b6107866112ea565b73ffffffffffffffffffffffffffffffffffffffff166107a4610e24565b73ffffffffffffffffffffffffffffffffffffffff16146107fa576040517f08c379a00000000000000000000000000000000000000000000000000000000081526004016107f190612e1e565b60405180910390fd5b60005b600e805490508110156108d4578173ffffffffffffffffffffffffffffffffffffffff16600e828154811061083557610834612c7f565b5b9060005260206000200160009054906101000a900473ffffffffffffffffffffffffffffffffffffffff1673ffffffffffffffffffffffffffffffffffffffff16036108c157600e818154811061088f5761088e612c7f565b5b9060005260206000200160006101000a81549073ffffffffffffffffffffffffffffffffffffffff02191690556108d4565b80806108cc90612e6d565b9150506107fd565b5050565b6000600880549050905090565b6108f66108f06112ea565b826113ab565b610935576040517f08c379a000000000000000000000000000000000000000000000000000000000815260040161092c90612f27565b60405180910390fd5b610940838383611489565b505050565b600061095083610ce5565b8210610991576040517f08c379a000000000000000000000000000000000000000000000000000000000815260040161098890612fb9565b60405180910390fd5b600660008473ffffffffffffffffffffffffffffffffffffffff1673ffffffffffffffffffffffffffffffffffffffff168152602001908152602001600020600083815260200190815260200160002054905092915050565b610a0583838360405180602001604052806000815250610ef6565b505050565b610a126112ea565b73ffffffffffffffffffffffffffffffffffffffff16610a30610e24565b73ffffffffffffffffffffffffffffffffffffffff1614610a86576040517f08c379a0000000000000000000000000000000000000000000000000000000008152600401610a7d90612e1e565b60405180910390fd5b8073ffffffffffffffffffffffffffffffffffffffff1663768b5fd5306040518263ffffffff1660e01b8152600401610abf9190612ffa565b600060405180830381600087803b158015610ad957600080fd5b505af1158015610aed573d6000803e3d6000fd5b50505050600e819080600181540180825580915050600190039060005260206000200160009091909190916101000a81548173ffffffffffffffffffffffffffffffffffffffff021916908373ffffffffffffffffffffffffffffffffffffffff160217905550610b69600030610b64600d6116ef565b6116fd565b7f5d137593b632191bec47558da3f4693ada12132b1681bd94833db8f1cd89a83d308233604051610b9c93929190613015565b60405180910390a150565b6000610bb16108d8565b8210610bf2576040517f08c379a0000000000000000000000000000000000000000000000000000000008152600401610be9906130be565b60405180910390fd5b60088281548110610c0657610c05612c7f565b5b90600052602060002001549050919050565b6000806002600084815260200190815260200160002060009054906101000a900473ffffffffffffffffffffffffffffffffffffffff169050600073ffffffffffffffffffffffffffffffffffffffff168173ffffffffffffffffffffffffffffffffffffffff1603610cc0576040517f08c379a0000000000000000000000000000000000000000000000000000000008152600401610cb790613150565b60405180910390fd5b80915050919050565b6040518060600160405280602181526020016138d46021913981565b60008073ffffffffffffffffffffffffffffffffffffffff168273ffffffffffffffffffffffffffffffffffffffff1603610d55576040517f08c379a0000000000000000000000000000000000000000000000000000000008152600401610d4c906131e2565b60405180910390fd5b600360008373ffffffffffffffffffffffffffffffffffffffff1673ffffffffffffffffffffffffffffffffffffffff168152602001908152602001600020549050919050565b610da46112ea565b73ffffffffffffffffffffffffffffffffffffffff16610dc2610e24565b73ffffffffffffffffffffffffffffffffffffffff1614610e18576040517f08c379a0000000000000000000000000000000000000000000000000000000008152600401610e0f90612e1e565b60405180910390fd5b610e22600061180f565b565b6000600b60009054906101000a900473ffffffffffffffffffffffffffffffffffffffff16905090565b606060018054610e5d90612bbc565b80601f0160208091040260200160405190810160405280929190818152602001828054610e8990612bbc565b8015610ed65780601f10610eab57610100808354040283529160200191610ed6565b820191906000526020600020905b815481529060010190602001808311610eb957829003601f168201915b5050505050905090565b610ef2610eeb6112ea565b83836118d5565b5050565b610f07610f016112ea565b836113ab565b610f46576040517f08c379a0000000000000000000000000000000000000000000000000000000008152600401610f3d90612f27565b60405180910390fd5b610f5284848484611a41565b50505050565b60606040518060600160405280602181526020016138d46021913982604051602001610f8592919061325f565b6040516020818303038152906040529050919050565b6000610fa7600d611a9d565b6000610fb3600d6116ef565b9050610fbf8582611ab3565b610fc98185611c8c565b82600c9080519060200190610fdf929190612316565b50809150509392505050565b600c8054610ff890612bbc565b80601f016020809104026020016040519081016040528092919081815260200182805461102490612bbc565b80156110715780601f1061104657610100808354040283529160200191611071565b820191906000526020600020905b81548152906001019060200180831161105457829003601f168201915b505050505081565b6000600560008473ffffffffffffffffffffffffffffffffffffffff1673ffffffffffffffffffffffffffffffffffffffff16815260200190815260200160002060008373ffffffffffffffffffffffffffffffffffffffff1673ffffffffffffffffffffffffffffffffffffffff16815260200190815260200160002060009054906101000a900460ff16905092915050565b6111156112ea565b73ffffffffffffffffffffffffffffffffffffffff16611133610e24565b73ffffffffffffffffffffffffffffffffffffffff1614611189576040517f08c379a000000000000000000000000000000000000000000000000000000000815260040161118090612e1e565b60405180910390fd5b600073ffffffffffffffffffffffffffffffffffffffff168173ffffffffffffffffffffffffffffffffffffffff16036111f8576040517f08c379a00000000000000000000000000000000000000000000000000000000081526004016111ef906132f9565b60405180910390fd5b6112018161180f565b50565b60007f780e9d63000000000000000000000000000000000000000000000000000000007bffffffffffffffffffffffffffffffffffffffffffffffffffffffff1916827bffffffffffffffffffffffffffffffffffffffffffffffffffffffff19161480611277575061127682611d00565b5b9050919050565b60008073ffffffffffffffffffffffffffffffffffffffff166002600084815260200190815260200160002060009054906101000a900473ffffffffffffffffffffffffffffffffffffffff1673ffffffffffffffffffffffffffffffffffffffff1614159050919050565b600033905090565b816004600083815260200190815260200160002060006101000a81548173ffffffffffffffffffffffffffffffffffffffff021916908373ffffffffffffffffffffffffffffffffffffffff160217905550808273ffffffffffffffffffffffffffffffffffffffff1661136583610c18565b73ffffffffffffffffffffffffffffffffffffffff167f8c5be1e5ebec7d5bd14f71427d1e84f3dd0314c0f7b2291e5b200ac8c7c3b92560405160405180910390a45050565b60006113b68261127e565b6113f5576040517f08c379a00000000000000000000000000000000000000000000000000000000081526004016113ec9061338b565b60405180910390fd5b600061140083610c18565b90508073ffffffffffffffffffffffffffffffffffffffff168473ffffffffffffffffffffffffffffffffffffffff16148061144257506114418185611079565b5b8061148057508373ffffffffffffffffffffffffffffffffffffffff166114688461059a565b73ffffffffffffffffffffffffffffffffffffffff16145b91505092915050565b8273ffffffffffffffffffffffffffffffffffffffff166114a982610c18565b73ffffffffffffffffffffffffffffffffffffffff16146114ff576040517f08c379a00000000000000000000000000000000000000000000000000000000081526004016114f69061341d565b60405180910390fd5b600073ffffffffffffffffffffffffffffffffffffffff168273ffffffffffffffffffffffffffffffffffffffff160361156e576040517f08c379a0000000000000000000000000000000000000000000000000000000008152600401611565906134af565b60405180910390fd5b611579838383611de2565b6115846000826112f2565b6001600360008573ffffffffffffffffffffffffffffffffffffffff1673ffffffffffffffffffffffffffffffffffffffff16815260200190815260200160002060008282546115d491906134cf565b925050819055506001600360008473ffffffffffffffffffffffffffffffffffffffff1673ffffffffffffffffffffffffffffffffffffffff168152602001908152602001600020600082825461162b9190613503565b92505081905550816002600083815260200190815260200160002060006101000a81548173ffffffffffffffffffffffffffffffffffffffff021916908373ffffffffffffffffffffffffffffffffffffffff160217905550808273ffffffffffffffffffffffffffffffffffffffff168473ffffffffffffffffffffffffffffffffffffffff167fddf252ad1be2c89b69c2b068fc378daa952ba7f163c4a11628f55a4df523b3ef60405160405180910390a46116ea838383611df2565b505050565b600081600001549050919050565b611708838383611df7565b600073ffffffffffffffffffffffffffffffffffffffff168373ffffffffffffffffffffffffffffffffffffffff160361174a5761174581611dfc565b611789565b8173ffffffffffffffffffffffffffffffffffffffff168373ffffffffffffffffffffffffffffffffffffffff1614611788576117878382611e45565b5b5b600073ffffffffffffffffffffffffffffffffffffffff168273ffffffffffffffffffffffffffffffffffffffff16036117cb576117c681611fb2565b61180a565b8273ffffffffffffffffffffffffffffffffffffffff168273ffffffffffffffffffffffffffffffffffffffff1614611809576118088282612083565b5b5b505050565b6000600b60009054906101000a900473ffffffffffffffffffffffffffffffffffffffff16905081600b60006101000a81548173ffffffffffffffffffffffffffffffffffffffff021916908373ffffffffffffffffffffffffffffffffffffffff1602179055508173ffffffffffffffffffffffffffffffffffffffff168173ffffffffffffffffffffffffffffffffffffffff167f8be0079c531659141344cd1fd0a4f28419497f9722a3daafe3b4186f6b6457e060405160405180910390a35050565b8173ffffffffffffffffffffffffffffffffffffffff168373ffffffffffffffffffffffffffffffffffffffff1603611943576040517f08c379a000000000000000000000000000000000000000000000000000000000815260040161193a906135a5565b60405180910390fd5b80600560008573ffffffffffffffffffffffffffffffffffffffff1673ffffffffffffffffffffffffffffffffffffffff16815260200190815260200160002060008473ffffffffffffffffffffffffffffffffffffffff1673ffffffffffffffffffffffffffffffffffffffff16815260200190815260200160002060006101000a81548160ff0219169083151502179055508173ffffffffffffffffffffffffffffffffffffffff168373ffffffffffffffffffffffffffffffffffffffff167f17307eab39ab6107e8899845ad3d59bd9653f200f220920489ca2b5937696c3183604051611a34919061246d565b60405180910390a3505050565b611a4c848484611489565b611a5884848484612102565b611a97576040517f08c379a0000000000000000000000000000000000000000000000000000000008152600401611a8e90613637565b60405180910390fd5b50505050565b6001816000016000828254019250508190555050565b600073ffffffffffffffffffffffffffffffffffffffff168273ffffffffffffffffffffffffffffffffffffffff1603611b22576040517f08c379a0000000000000000000000000000000000000000000000000000000008152600401611b19906136a3565b60405180910390fd5b611b2b8161127e565b15611b6b576040517f08c379a0000000000000000000000000000000000000000000000000000000008152600401611b629061370f565b60405180910390fd5b611b7760008383611de2565b6001600360008473ffffffffffffffffffffffffffffffffffffffff1673ffffffffffffffffffffffffffffffffffffffff1681526020019081526020016000206000828254611bc79190613503565b92505081905550816002600083815260200190815260200160002060006101000a81548173ffffffffffffffffffffffffffffffffffffffff021916908373ffffffffffffffffffffffffffffffffffffffff160217905550808273ffffffffffffffffffffffffffffffffffffffff16600073ffffffffffffffffffffffffffffffffffffffff167fddf252ad1be2c89b69c2b068fc378daa952ba7f163c4a11628f55a4df523b3ef60405160405180910390a4611c8860008383611df2565b5050565b611c958261127e565b611cd4576040517f08c379a0000000000000000000000000000000000000000000000000000000008152600401611ccb906137a1565b60405180910390fd5b80600a60008481526020019081526020016000209080519060200190611cfb929190612316565b505050565b60007f80ac58cd000000000000000000000000000000000000000000000000000000007bffffffffffffffffffffffffffffffffffffffffffffffffffffffff1916827bffffffffffffffffffffffffffffffffffffffffffffffffffffffff19161480611dcb57507f5b5e139f000000000000000000000000000000000000000000000000000000007bffffffffffffffffffffffffffffffffffffffffffffffffffffffff1916827bffffffffffffffffffffffffffffffffffffffffffffffffffffffff1916145b80611ddb5750611dda82612289565b5b9050919050565b611ded8383836116fd565b505050565b505050565b505050565b6008805490506009600083815260200190815260200160002081905550600881908060018154018082558091505060019003906000526020600020016000909190919091505550565b60006001611e5284610ce5565b611e5c91906134cf565b9050600060076000848152602001908152602001600020549050818114611f41576000600660008673ffffffffffffffffffffffffffffffffffffffff1673ffffffffffffffffffffffffffffffffffffffff168152602001908152602001600020600084815260200190815260200160002054905080600660008773ffffffffffffffffffffffffffffffffffffffff1673ffffffffffffffffffffffffffffffffffffffff168152602001908152602001600020600084815260200190815260200160002081905550816007600083815260200190815260200160002081905550505b6007600084815260200190815260200160002060009055600660008573ffffffffffffffffffffffffffffffffffffffff1673ffffffffffffffffffffffffffffffffffffffff16815260200190815260200160002060008381526020019081526020016000206000905550505050565b60006001600880549050611fc691906134cf565b9050600060096000848152602001908152602001600020549050600060088381548110611ff657611ff5612c7f565b5b90600052602060002001549050806008838154811061201857612017612c7f565b5b906000526020600020018190555081600960008381526020019081526020016000208190555060096000858152602001908152602001600020600090556008805480612067576120666137c1565b5b6001900381819060005260206000200160009055905550505050565b600061208e83610ce5565b905081600660008573ffffffffffffffffffffffffffffffffffffffff1673ffffffffffffffffffffffffffffffffffffffff168152602001908152602001600020600083815260200190815260200160002081905550806007600084815260200190815260200160002081905550505050565b60006121238473ffffffffffffffffffffffffffffffffffffffff166122f3565b1561227c578373ffffffffffffffffffffffffffffffffffffffff1663150b7a0261214c6112ea565b8786866040518563ffffffff1660e01b815260040161216e9493929190613845565b6020604051808303816000875af19250505080156121aa57506040513d601f19601f820116820180604052508101906121a791906138a6565b60015b61222c573d80600081146121da576040519150601f19603f3d011682016040523d82523d6000602084013e6121df565b606091505b506000815103612224576040517f08c379a000000000000000000000000000000000000000000000000000000000815260040161221b90613637565b60405180910390fd5b805181602001fd5b63150b7a0260e01b7bffffffffffffffffffffffffffffffffffffffffffffffffffffffff1916817bffffffffffffffffffffffffffffffffffffffffffffffffffffffff191614915050612281565b600190505b949350505050565b60007f01ffc9a7000000000000000000000000000000000000000000000000000000007bffffffffffffffffffffffffffffffffffffffffffffffffffffffff1916827bffffffffffffffffffffffffffffffffffffffffffffffffffffffff1916149050919050565b6000808273ffffffffffffffffffffffffffffffffffffffff163b119050919050565b82805461232290612bbc565b90600052602060002090601f016020900481019282612344576000855561238b565b82601f1061235d57805160ff191683800117855561238b565b8280016001018555821561238b579182015b8281111561238a57825182559160200191906001019061236f565b5b509050612398919061239c565b5090565b5b808211156123b557600081600090555060010161239d565b5090565b6000604051905090565b600080fd5b600080fd5b60007fffffffff0000000000000000000000000000000000000000000000000000000082169050919050565b612402816123cd565b811461240d57600080fd5b50565b60008135905061241f816123f9565b92915050565b60006020828403121561243b5761243a6123c3565b5b600061244984828501612410565b91505092915050565b60008115159050919050565b61246781612452565b82525050565b6000602082019050612482600083018461245e565b92915050565b600081519050919050565b600082825260208201905092915050565b60005b838110156124c25780820151818401526020810190506124a7565b838111156124d1576000848401525b50505050565b6000601f19601f8301169050919050565b60006124f382612488565b6124fd8185612493565b935061250d8185602086016124a4565b612516816124d7565b840191505092915050565b6000602082019050818103600083015261253b81846124e8565b905092915050565b6000819050919050565b61255681612543565b811461256157600080fd5b50565b6000813590506125738161254d565b92915050565b60006020828403121561258f5761258e6123c3565b5b600061259d84828501612564565b91505092915050565b600073ffffffffffffffffffffffffffffffffffffffff82169050919050565b60006125d1826125a6565b9050919050565b6125e1816125c6565b82525050565b60006020820190506125fc60008301846125d8565b92915050565b6000819050919050565b600061262761262261261d846125a6565b612602565b6125a6565b9050919050565b60006126398261260c565b9050919050565b600061264b8261262e565b9050919050565b61265b81612640565b82525050565b60006020820190506126766000830184612652565b92915050565b612685816125c6565b811461269057600080fd5b50565b6000813590506126a28161267c565b92915050565b600080604083850312156126bf576126be6123c3565b5b60006126cd85828601612693565b92505060206126de85828601612564565b9150509250929050565b60006126f3826125c6565b9050919050565b612703816126e8565b811461270e57600080fd5b50565b600081359050612720816126fa565b92915050565b60006020828403121561273c5761273b6123c3565b5b600061274a84828501612711565b91505092915050565b61275c81612543565b82525050565b60006020820190506127776000830184612753565b92915050565b600080600060608486031215612796576127956123c3565b5b60006127a486828701612693565b93505060206127b586828701612693565b92505060406127c686828701612564565b9150509250925092565b6000602082840312156127e6576127e56123c3565b5b60006127f484828501612693565b91505092915050565b61280681612452565b811461281157600080fd5b50565b600081359050612823816127fd565b92915050565b600080604083850312156128405761283f6123c3565b5b600061284e85828601612693565b925050602061285f85828601612814565b9150509250929050565b600080fd5b600080fd5b7f4e487b7100000000000000000000000000000000000000000000000000000000600052604160045260246000fd5b6128ab826124d7565b810181811067ffffffffffffffff821117156128ca576128c9612873565b5b80604052505050565b60006128dd6123b9565b90506128e982826128a2565b919050565b600067ffffffffffffffff82111561290957612908612873565b5b612912826124d7565b9050602081019050919050565b82818337600083830152505050565b600061294161293c846128ee565b6128d3565b90508281526020810184848401111561295d5761295c61286e565b5b61296884828561291f565b509392505050565b600082601f83011261298557612984612869565b5b813561299584826020860161292e565b91505092915050565b600080600080608085870312156129b8576129b76123c3565b5b60006129c687828801612693565b94505060206129d787828801612693565b93505060406129e887828801612564565b925050606085013567ffffffffffffffff811115612a0957612a086123c8565b5b612a1587828801612970565b91505092959194509250565b600067ffffffffffffffff821115612a3c57612a3b612873565b5b612a45826124d7565b9050602081019050919050565b6000612a65612a6084612a21565b6128d3565b905082815260208101848484011115612a8157612a8061286e565b5b612a8c84828561291f565b509392505050565b600082601f830112612aa957612aa8612869565b5b8135612ab9848260208601612a52565b91505092915050565b600080600060608486031215612adb57612ada6123c3565b5b6000612ae986828701612693565b935050602084013567ffffffffffffffff811115612b0a57612b096123c8565b5b612b1686828701612a94565b925050604084013567ffffffffffffffff811115612b3757612b366123c8565b5b612b4386828701612a94565b9150509250925092565b60008060408385031215612b6457612b636123c3565b5b6000612b7285828601612693565b9250506020612b8385828601612693565b9150509250929050565b7f4e487b7100000000000000000000000000000000000000000000000000000000600052602260045260246000fd5b60006002820490506001821680612bd457607f821691505b602082108103612be757612be6612b8d565b5b50919050565b7f4552433732313a20617070726f76656420717565727920666f72206e6f6e657860008201527f697374656e7420746f6b656e0000000000000000000000000000000000000000602082015250565b6000612c49602c83612493565b9150612c5482612bed565b604082019050919050565b60006020820190508181036000830152612c7881612c3c565b9050919050565b7f4e487b7100000000000000000000000000000000000000000000000000000000600052603260045260246000fd5b7f4552433732313a20617070726f76616c20746f2063757272656e74206f776e6560008201527f7200000000000000000000000000000000000000000000000000000000000000602082015250565b6000612d0a602183612493565b9150612d1582612cae565b604082019050919050565b60006020820190508181036000830152612d3981612cfd565b9050919050565b7f4552433732313a20617070726f76652063616c6c6572206973206e6f74206f7760008201527f6e6572206e6f7220617070726f76656420666f7220616c6c0000000000000000602082015250565b6000612d9c603883612493565b9150612da782612d40565b604082019050919050565b60006020820190508181036000830152612dcb81612d8f565b9050919050565b7f4f776e61626c653a2063616c6c6572206973206e6f7420746865206f776e6572600082015250565b6000612e08602083612493565b9150612e1382612dd2565b602082019050919050565b60006020820190508181036000830152612e3781612dfb565b9050919050565b7f4e487b7100000000000000000000000000000000000000000000000000000000600052601160045260246000fd5b6000612e7882612543565b91507fffffffffffffffffffffffffffffffffffffffffffffffffffffffffffffffff8203612eaa57612ea9612e3e565b5b600182019050919050565b7f4552433732313a207472616e736665722063616c6c6572206973206e6f74206f60008201527f776e6572206e6f7220617070726f766564000000000000000000000000000000602082015250565b6000612f11603183612493565b9150612f1c82612eb5565b604082019050919050565b60006020820190508181036000830152612f4081612f04565b9050919050565b7f455243373231456e756d657261626c653a206f776e657220696e646578206f7560008201527f74206f6620626f756e6473000000000000000000000000000000000000000000602082015250565b6000612fa3602b83612493565b9150612fae82612f47565b604082019050919050565b60006020820190508181036000830152612fd281612f96565b9050919050565b6000612fe48261262e565b9050919050565b612ff481612fd9565b82525050565b600060208201905061300f6000830184612feb565b92915050565b600060608201905061302a60008301866125d8565b61303760208301856125d8565b61304460408301846125d8565b949350505050565b7f455243373231456e756d657261626c653a20676c6f62616c20696e646578206f60008201527f7574206f6620626f756e64730000000000000000000000000000000000000000602082015250565b60006130a8602c83612493565b91506130b38261304c565b604082019050919050565b600060208201905081810360008301526130d78161309b565b9050919050565b7f4552433732313a206f776e657220717565727920666f72206e6f6e657869737460008201527f656e7420746f6b656e0000000000000000000000000000000000000000000000602082015250565b600061313a602983612493565b9150613145826130de565b604082019050919050565b600060208201905081810360008301526131698161312d565b9050919050565b7f4552433732313a2062616c616e636520717565727920666f7220746865207a6560008201527f726f206164647265737300000000000000000000000000000000000000000000602082015250565b60006131cc602a83612493565b91506131d782613170565b604082019050919050565b600060208201905081810360008301526131fb816131bf565b9050919050565b600081905092915050565b600061321882612488565b6132228185613202565b93506132328185602086016124a4565b80840191505092915050565b6000819050919050565b61325961325482612543565b61323e565b82525050565b600061326b828561320d565b91506132778284613248565b6020820191508190509392505050565b7f4f776e61626c653a206e6577206f776e657220697320746865207a65726f206160008201527f6464726573730000000000000000000000000000000000000000000000000000602082015250565b60006132e3602683612493565b91506132ee82613287565b604082019050919050565b60006020820190508181036000830152613312816132d6565b9050919050565b7f4552433732313a206f70657261746f7220717565727920666f72206e6f6e657860008201527f697374656e7420746f6b656e0000000000000000000000000000000000000000602082015250565b6000613375602c83612493565b915061338082613319565b604082019050919050565b600060208201905081810360008301526133a481613368565b9050919050565b7f4552433732313a207472616e736665722066726f6d20696e636f72726563742060008201527f6f776e6572000000000000000000000000000000000000000000000000000000602082015250565b6000613407602583612493565b9150613412826133ab565b604082019050919050565b60006020820190508181036000830152613436816133fa565b9050919050565b7f4552433732313a207472616e7366657220746f20746865207a65726f2061646460008201527f7265737300000000000000000000000000000000000000000000000000000000602082015250565b6000613499602483612493565b91506134a48261343d565b604082019050919050565b600060208201905081810360008301526134c88161348c565b9050919050565b60006134da82612543565b91506134e583612543565b9250828210156134f8576134f7612e3e565b5b828203905092915050565b600061350e82612543565b915061351983612543565b9250827fffffffffffffffffffffffffffffffffffffffffffffffffffffffffffffffff0382111561354e5761354d612e3e565b5b828201905092915050565b7f4552433732313a20617070726f766520746f2063616c6c657200000000000000600082015250565b600061358f601983612493565b915061359a82613559565b602082019050919050565b600060208201905081810360008301526135be81613582565b9050919050565b7f4552433732313a207472616e7366657220746f206e6f6e20455243373231526560008201527f63656976657220696d706c656d656e7465720000000000000000000000000000602082015250565b6000613621603283612493565b915061362c826135c5565b604082019050919050565b6000602082019050818103600083015261365081613614565b9050919050565b7f4552433732313a206d696e7420746f20746865207a65726f2061646472657373600082015250565b600061368d602083612493565b915061369882613657565b602082019050919050565b600060208201905081810360008301526136bc81613680565b9050919050565b7f4552433732313a20746f6b656e20616c7265616479206d696e74656400000000600082015250565b60006136f9601c83612493565b9150613704826136c3565b602082019050919050565b60006020820190508181036000830152613728816136ec565b9050919050565b7f45524337323155524953746f726167653a2055524920736574206f66206e6f6e60008201527f6578697374656e7420746f6b656e000000000000000000000000000000000000602082015250565b600061378b602e83612493565b91506137968261372f565b604082019050919050565b600060208201905081810360008301526137ba8161377e565b9050919050565b7f4e487b7100000000000000000000000000000000000000000000000000000000600052603160045260246000fd5b600081519050919050565b600082825260208201905092915050565b6000613817826137f0565b61382181856137fb565b93506138318185602086016124a4565b61383a816124d7565b840191505092915050565b600060808201905061385a60008301876125d8565b61386760208301866125d8565b6138746040830185612753565b8181036060830152613886818461380c565b905095945050505050565b6000815190506138a0816123f9565b92915050565b6000602082840312156138bc576138bb6123c3565b5b60006138ca84828501613891565b9150509291505056fe68747470733a2f2f676174657761792e70696e6174612e636c6f75642f69706673a2646970667358221220617c301ce527622ad9e6d127b067fcba4450b0495e55bf119e3b82a134ee6c0564736f6c634300080d0033a26469706673582212201041d0409a95a02bf3c2263c24e6efe0a9f8add12902173543a16fa3c4cc231f64736f6c634300080d0033",
  "immutableReferences": {},
  "source": "// SPDX-License-Identifier: MIT\npragma solidity 0.8.13;\n\n// importing the ERC-721 contract to deploy for an artist\nimport \"./NftCollection.sol\";\n\n/** \n  * @notice Give the ability to deploy a contract to manage ERC-721 tokens for an Artist. S/O @Snow\n  * @dev    If the contract is already deployed for an _artistName, it will revert.\n  */\ncontract NftCollectionFactory{\n\n    event NftCollectionCreated(string _collectionName, address indexed _collectionAddress, uint _timestamp, address indexed _creator, string indexed _tokenURI);\n    /**\n      * @notice Deploy the ERC-721 Collection contract of the artist caller to be able to create NFTs later\n      *\n      * @return collectionAddress the address of the created collection contract\n      */\n    function createNFTCollection(string memory _collectionName, string memory _tokenURI) external returns (address collectionAddress) {\n        // Import the bytecode of the contract to deploy\n        bytes memory collectionBytecode = type(NftCollection).creationCode;\n\t\t\t\t// Make a random salt based on the artist name\n        bytes32 salt = keccak256(abi.encodePacked(_collectionName));\n\n        assembly {\n            collectionAddress := create2(0, add(collectionBytecode, 0x20), mload(collectionBytecode), salt)\n            if iszero(extcodesize(collectionAddress)) {\n                // revert if something gone wrong (collectionAddress doesn't contain an address)\n                revert(0, 0)\n            }\n        }\n        // Initialize the collection contract with the artist settings\n        NftCollection(collectionAddress).mintCollection(msg.sender, _tokenURI, _collectionName);\n\n        emit NftCollectionCreated(_collectionName, collectionAddress, block.timestamp, msg.sender, _tokenURI);\n    }\n}\n",
  "sourcePath": "/Users/fabien/alyra/formation/Projects/alyra-projet4-nft/contracts/NftCollectionFactory.sol",
  "compiler": {
    "name": "solc",
    "version": "0.8.13+commit.abaa5c0e.Emscripten.clang"
  },
  "schemaVersion": "3.4.6",
  "updatedAt": "2022-05-14T15:18:50.221Z",
  "networkType": "ethereum",
  "devdoc": {
    "details": "If the contract is already deployed for an _artistName, it will revert.",
    "kind": "dev",
    "methods": {
      "createNFTCollection(string,string)": {
        "returns": {
          "collectionAddress": "the address of the created collection contract"
        }
      }
    },
    "version": 1
  },
  "userdoc": {
    "kind": "user",
    "methods": {
      "createNFTCollection(string,string)": {
        "notice": "Deploy the ERC-721 Collection contract of the artist caller to be able to create NFTs later"
      }
    },
    "notice": "Give the ability to deploy a contract to manage ERC-721 tokens for an Artist. S/O @Snow",
    "version": 1
  }
}