{
  "contractName": "NftCollectionFactory",
  "abi": [
    {
      "anonymous": false,
      "inputs": [
        {
          "indexed": true,
          "internalType": "bytes32",
          "name": "_collectionName",
          "type": "bytes32"
        },
        {
          "indexed": true,
          "internalType": "address",
          "name": "_collectionAddress",
          "type": "address"
        },
        {
          "indexed": false,
          "internalType": "uint256",
          "name": "_timestamp",
          "type": "uint256"
        },
        {
          "indexed": true,
          "internalType": "address",
          "name": "_creator",
          "type": "address"
        },
        {
          "indexed": false,
          "internalType": "string",
          "name": "_tokenURI",
          "type": "string"
        }
      ],
      "name": "NftCollectionCreated",
      "type": "event"
    },
    {
      "inputs": [
        {
          "internalType": "uint256",
          "name": "",
          "type": "uint256"
        }
      ],
      "name": "collections",
      "outputs": [
        {
          "internalType": "address",
          "name": "",
          "type": "address"
        }
      ],
      "stateMutability": "view",
      "type": "function",
      "constant": true
    },
    {
      "inputs": [
        {
          "internalType": "string",
          "name": "_collectionName",
          "type": "string"
        },
        {
          "internalType": "string",
          "name": "_collectionSymbol",
          "type": "string"
        },
        {
          "internalType": "string",
          "name": "_tokenURI",
          "type": "string"
        }
      ],
      "name": "createNFTCollection",
      "outputs": [
        {
          "internalType": "address",
          "name": "collectionAddress",
          "type": "address"
        }
      ],
      "stateMutability": "nonpayable",
      "type": "function"
    },
    {
      "inputs": [
        {
          "internalType": "string",
          "name": "_collectionName",
          "type": "string"
        },
        {
          "internalType": "string",
          "name": "_collectionSymbol",
          "type": "string"
        }
      ],
      "name": "getCreationBytecode",
      "outputs": [
        {
          "internalType": "bytes",
          "name": "",
          "type": "bytes"
        }
      ],
      "stateMutability": "pure",
      "type": "function",
      "constant": true
    },
    {
      "inputs": [
        {
          "internalType": "uint256",
          "name": "_index",
          "type": "uint256"
        }
      ],
      "name": "deleteCollection",
      "outputs": [],
      "stateMutability": "nonpayable",
      "type": "function"
    }
  ],
  "bytecode": "0x608060405234801561001057600080fd5b50615412806100206000396000f3fe60806040523480156200001157600080fd5b5060043610620000525760003560e01c8063844af6581462000057578063930c59e6146200008d578063a42c587a14620000c3578063fdbda0ec14620000e3575b600080fd5b6200007560048036038101906200006f91906200064b565b62000119565b60405162000084919062000749565b60405180910390f35b620000ab6004803603810190620000a5919062000766565b620002c5565b604051620000ba91906200087e565b60405180910390f35b620000e16004803603810190620000db9190620008dd565b62000341565b005b620001016004803603810190620000fb9190620008dd565b62000487565b60405162000110919062000749565b60405180910390f35b600080620001288585620002c5565b90506000856040516020016200013f91906200095c565b604051602081830303815290604052805190602001209050808251602084016000f59250823b6200016f57600080fd5b6000839080600181540180825580915050600190039060005260206000200160009091909190916101000a81548173ffffffffffffffffffffffffffffffffffffffff021916908373ffffffffffffffffffffffffffffffffffffffff1602179055508273ffffffffffffffffffffffffffffffffffffffff1663f2fde38b336040518263ffffffff1660e01b81526004016200020d919062000749565b600060405180830381600087803b1580156200022857600080fd5b505af11580156200023d573d6000803e3d6000fd5b505050506000866200024f90620009b3565b90503373ffffffffffffffffffffffffffffffffffffffff168473ffffffffffffffffffffffffffffffffffffffff16827f4479e9d1841d3aae014ddf87448cc7d6561582665f7e521f936810b8362b3a504289604051620002b392919062000a86565b60405180910390a45050509392505050565b6060600060405180602001620002db90620004c7565b6020820181038252601f19601f8201166040525090508084846040516020016200030792919062000aba565b6040516020818303038152906040526040516020016200032992919062000b37565b60405160208183030381529060405291505092915050565b60008054905081106200038b576040517f08c379a0000000000000000000000000000000000000000000000000000000008152600401620003829062000bd5565b60405180910390fd5b6000808281548110620003a357620003a262000bf7565b5b9060005260206000200160009054906101000a900473ffffffffffffffffffffffffffffffffffffffff1690508073ffffffffffffffffffffffffffffffffffffffff166339df43ff336040518263ffffffff1660e01b81526004016200040b919062000c4b565b600060405180830381600087803b1580156200042657600080fd5b505af11580156200043b573d6000803e3d6000fd5b505050506000828154811062000456576200045562000bf7565b5b9060005260206000200160006101000a81549073ffffffffffffffffffffffffffffffffffffffff02191690555050565b600081815481106200049857600080fd5b906000526020600020016000915054906101000a900473ffffffffffffffffffffffffffffffffffffffff1681565b6147748062000c6983390190565b6000604051905090565b600080fd5b600080fd5b600080fd5b600080fd5b6000601f19601f8301169050919050565b7f4e487b7100000000000000000000000000000000000000000000000000000000600052604160045260246000fd5b6200053e82620004f3565b810181811067ffffffffffffffff8211171562000560576200055f62000504565b5b80604052505050565b600062000575620004d5565b905062000583828262000533565b919050565b600067ffffffffffffffff821115620005a657620005a562000504565b5b620005b182620004f3565b9050602081019050919050565b82818337600083830152505050565b6000620005e4620005de8462000588565b62000569565b905082815260208101848484011115620006035762000602620004ee565b5b62000610848285620005be565b509392505050565b600082601f83011262000630576200062f620004e9565b5b813562000642848260208601620005cd565b91505092915050565b600080600060608486031215620006675762000666620004df565b5b600084013567ffffffffffffffff811115620006885762000687620004e4565b5b620006968682870162000618565b935050602084013567ffffffffffffffff811115620006ba57620006b9620004e4565b5b620006c88682870162000618565b925050604084013567ffffffffffffffff811115620006ec57620006eb620004e4565b5b620006fa8682870162000618565b9150509250925092565b600073ffffffffffffffffffffffffffffffffffffffff82169050919050565b6000620007318262000704565b9050919050565b620007438162000724565b82525050565b600060208201905062000760600083018462000738565b92915050565b6000806040838503121562000780576200077f620004df565b5b600083013567ffffffffffffffff811115620007a157620007a0620004e4565b5b620007af8582860162000618565b925050602083013567ffffffffffffffff811115620007d357620007d2620004e4565b5b620007e18582860162000618565b9150509250929050565b600081519050919050565b600082825260208201905092915050565b60005b83811015620008275780820151818401526020810190506200080a565b8381111562000837576000848401525b50505050565b60006200084a82620007eb565b620008568185620007f6565b93506200086881856020860162000807565b6200087381620004f3565b840191505092915050565b600060208201905081810360008301526200089a81846200083d565b905092915050565b6000819050919050565b620008b781620008a2565b8114620008c357600080fd5b50565b600081359050620008d781620008ac565b92915050565b600060208284031215620008f657620008f5620004df565b5b60006200090684828501620008c6565b91505092915050565b600081519050919050565b600081905092915050565b600062000932826200090f565b6200093e81856200091a565b93506200095081856020860162000807565b80840191505092915050565b60006200096a828462000925565b915081905092915050565b6000819050602082019050919050565b6000819050919050565b60006200099d825162000985565b80915050919050565b600082821b905092915050565b6000620009c082620007eb565b82620009cc8462000975565b9050620009d9816200098f565b9250602082101562000a1c5762000a177fffffffffffffffffffffffffffffffffffffffffffffffffffffffffffffffff83602003600802620009a6565b831692505b5050919050565b62000a2e81620008a2565b82525050565b600082825260208201905092915050565b600062000a52826200090f565b62000a5e818562000a34565b935062000a7081856020860162000807565b62000a7b81620004f3565b840191505092915050565b600060408201905062000a9d600083018562000a23565b818103602083015262000ab1818462000a45565b90509392505050565b6000604082019050818103600083015262000ad6818562000a45565b9050818103602083015262000aec818462000a45565b90509392505050565b600081905092915050565b600062000b0d82620007eb565b62000b19818562000af5565b935062000b2b81856020860162000807565b80840191505092915050565b600062000b45828562000b00565b915062000b53828462000b00565b91508190509392505050565b7f496c206e207920612070617320646520636f6c6c656374696f6e20706f75722060008201527f63657420696e6465780000000000000000000000000000000000000000000000602082015250565b600062000bbd60298362000a34565b915062000bca8262000b5f565b604082019050919050565b6000602082019050818103600083015262000bf08162000bae565b9050919050565b7f4e487b7100000000000000000000000000000000000000000000000000000000600052603260045260246000fd5b600062000c338262000704565b9050919050565b62000c458162000c26565b82525050565b600060208201905062000c62600083018462000c3a565b9291505056fe60806040523480156200001157600080fd5b5060405162004774380380620047748339818101604052810190620000379190620003b0565b818181600090805190602001906200005192919062000163565b5080600190805190602001906200006a92919062000163565b5050506200008d620000816200009560201b60201c565b6200009d60201b60201c565b505062000499565b600033905090565b6000600b60009054906101000a900473ffffffffffffffffffffffffffffffffffffffff16905081600b60006101000a81548173ffffffffffffffffffffffffffffffffffffffff021916908373ffffffffffffffffffffffffffffffffffffffff1602179055508173ffffffffffffffffffffffffffffffffffffffff168173ffffffffffffffffffffffffffffffffffffffff167f8be0079c531659141344cd1fd0a4f28419497f9722a3daafe3b4186f6b6457e060405160405180910390a35050565b828054620001719062000464565b90600052602060002090601f016020900481019282620001955760008555620001e1565b82601f10620001b057805160ff1916838001178555620001e1565b82800160010185558215620001e1579182015b82811115620001e0578251825591602001919060010190620001c3565b5b509050620001f09190620001f4565b5090565b5b808211156200020f576000816000905550600101620001f5565b5090565b6000604051905090565b600080fd5b600080fd5b600080fd5b600080fd5b6000601f19601f8301169050919050565b7f4e487b7100000000000000000000000000000000000000000000000000000000600052604160045260246000fd5b6200027c8262000231565b810181811067ffffffffffffffff821117156200029e576200029d62000242565b5b80604052505050565b6000620002b362000213565b9050620002c1828262000271565b919050565b600067ffffffffffffffff821115620002e457620002e362000242565b5b620002ef8262000231565b9050602081019050919050565b60005b838110156200031c578082015181840152602081019050620002ff565b838111156200032c576000848401525b50505050565b6000620003496200034384620002c6565b620002a7565b9050828152602081018484840111156200036857620003676200022c565b5b62000375848285620002fc565b509392505050565b600082601f83011262000395576200039462000227565b5b8151620003a784826020860162000332565b91505092915050565b60008060408385031215620003ca57620003c96200021d565b5b600083015167ffffffffffffffff811115620003eb57620003ea62000222565b5b620003f9858286016200037d565b925050602083015167ffffffffffffffff8111156200041d576200041c62000222565b5b6200042b858286016200037d565b9150509250929050565b7f4e487b7100000000000000000000000000000000000000000000000000000000600052602260045260246000fd5b600060028204905060018216806200047d57607f821691505b60208210810362000493576200049262000435565b5b50919050565b6142cb80620004a96000396000f3fe608060405234801561001057600080fd5b506004361061018e5760003560e01c8063620d5936116100de5780638fba3f7c11610097578063b88d4fde11610071578063b88d4fde146104a7578063c87b56dd146104c3578063e985e9c5146104f3578063f2fde38b146105235761018e565b80638fba3f7c1461045157806395d89b411461046d578063a22cb4651461048b5761018e565b8063620d5936146103675780636352211e1461039757806370a08231146103c7578063715018a6146103f75780637d4cd847146104015780638da5cb5b146104335761018e565b806323b872dd1161014b57806339df43ff1161012557806339df43ff146102e35780633e159aef146102ff57806342842e0e1461031b5780634f6ccce7146103375761018e565b806323b872dd1461027b5780632f745c59146102975780633580bf27146102c75761018e565b806301ffc9a71461019357806306fdde03146101c3578063081812fc146101e157806308e4c25f14610211578063095ea7b31461024157806318160ddd1461025d575b600080fd5b6101ad60048036038101906101a89190612aed565b61053f565b6040516101ba9190612b35565b60405180910390f35b6101cb610551565b6040516101d89190612be9565b60405180910390f35b6101fb60048036038101906101f69190612c41565b6105e3565b6040516102089190612caf565b60405180910390f35b61022b60048036038101906102269190612c41565b610668565b6040516102389190612d82565b60405180910390f35b61025b60048036038101906102569190612dd0565b61075b565b005b610265610872565b6040516102729190612e1f565b60405180910390f35b61029560048036038101906102909190612e3a565b61087f565b005b6102b160048036038101906102ac9190612dd0565b6108df565b6040516102be9190612e1f565b60405180910390f35b6102e160048036038101906102dc9190612c41565b610984565b005b6102fd60048036038101906102f89190612ecb565b6109e1565b005b61031960048036038101906103149190613059565b610ac0565b005b61033560048036038101906103309190612e3a565b610ba6565b005b610351600480360381019061034c9190612c41565b610bc6565b60405161035e9190612e1f565b60405180910390f35b610381600480360381019061037c91906130dc565b610c37565b60405161038e9190612e1f565b60405180910390f35b6103b160048036038101906103ac9190612c41565b610ddf565b6040516103be9190612caf565b60405180910390f35b6103e160048036038101906103dc9190613125565b610e90565b6040516103ee9190612e1f565b60405180910390f35b6103ff610f47565b005b61041b60048036038101906104169190612c41565b610fcf565b60405161042a93929190613152565b60405180910390f35b61043b61109e565b6040516104489190612caf565b60405180910390f35b61046b60048036038101906104669190612dd0565b6110c8565b005b6104756110d7565b6040516104829190612be9565b60405180910390f35b6104a560048036038101906104a09190613190565b611169565b005b6104c160048036038101906104bc9190613271565b61117f565b005b6104dd60048036038101906104d89190612c41565b6111e1565b6040516104ea9190612be9565b60405180910390f35b61050d600480360381019061050891906132f4565b6111f3565b60405161051a9190612b35565b60405180910390f35b61053d60048036038101906105389190613125565b611287565b005b600061054a8261137e565b9050919050565b60606000805461056090613363565b80601f016020809104026020016040519081016040528092919081815260200182805461058c90613363565b80156105d95780601f106105ae576101008083540402835291602001916105d9565b820191906000526020600020905b8154815290600101906020018083116105bc57829003601f168201915b5050505050905090565b60006105ee826113f8565b61062d576040517f08c379a000000000000000000000000000000000000000000000000000000000815260040161062490613406565b60405180910390fd5b6004600083815260200190815260200160002060009054906101000a900473ffffffffffffffffffffffffffffffffffffffff169050919050565b61067061297b565b600d828154811061068457610683613426565b5b90600052602060002090600302016040518060600160405290816000820160009054906101000a900460ff16151515158152602001600182015481526020016002820180546106d290613363565b80601f01602080910402602001604051908101604052809291908181526020018280546106fe90613363565b801561074b5780601f106107205761010080835404028352916020019161074b565b820191906000526020600020905b81548152906001019060200180831161072e57829003601f168201915b5050505050815250509050919050565b600061076682610ddf565b90508073ffffffffffffffffffffffffffffffffffffffff168373ffffffffffffffffffffffffffffffffffffffff16036107d6576040517f08c379a00000000000000000000000000000000000000000000000000000000081526004016107cd906134c7565b60405180910390fd5b8073ffffffffffffffffffffffffffffffffffffffff166107f5611464565b73ffffffffffffffffffffffffffffffffffffffff16148061082457506108238161081e611464565b6111f3565b5b610863576040517f08c379a000000000000000000000000000000000000000000000000000000000815260040161085a90613559565b60405180910390fd5b61086d838361146c565b505050565b6000600880549050905090565b61089061088a611464565b82611525565b6108cf576040517f08c379a00000000000000000000000000000000000000000000000000000000081526004016108c6906135eb565b60405180910390fd5b6108da838383611603565b505050565b60006108ea83610e90565b821061092b576040517f08c379a00000000000000000000000000000000000000000000000000000000081526004016109229061367d565b60405180910390fd5b600660008473ffffffffffffffffffffffffffffffffffffffff1673ffffffffffffffffffffffffffffffffffffffff168152602001908152602001600020600083815260200190815260200160002054905092915050565b61098d81611869565b600d81815481106109a1576109a0613426565b5b9060005260206000209060030201600080820160006101000a81549060ff021916905560018201600090556002820160006109dc919061299e565b505050565b6109e9611464565b73ffffffffffffffffffffffffffffffffffffffff16610a0761109e565b73ffffffffffffffffffffffffffffffffffffffff1614610a5d576040517f08c379a0000000000000000000000000000000000000000000000000000000008152600401610a54906136e9565b60405180910390fd5b6000610a67610872565b14610aa7576040517f08c379a0000000000000000000000000000000000000000000000000000000008152600401610a9e9061377b565b60405180910390fd5b8073ffffffffffffffffffffffffffffffffffffffff16ff5b600d805490508410610b07576040517f08c379a0000000000000000000000000000000000000000000000000000000008152600401610afe906137e7565b60405180910390fd5b610b0f61297b565b838160000190151590811515815250508281602001818152505081816040018190525080600d8681548110610b4757610b46613426565b5b906000526020600020906003020160008201518160000160006101000a81548160ff021916908315150217905550602082015181600101556040820151816002019080519060200190610b9b9291906129de565b509050505050505050565b610bc18383836040518060200160405280600081525061117f565b505050565b6000610bd0610872565b8210610c11576040517f08c379a0000000000000000000000000000000000000000000000000000000008152600401610c0890613879565b60405180910390fd5b60088281548110610c2557610c24613426565b5b90600052602060002001549050919050565b6000610c41611464565b73ffffffffffffffffffffffffffffffffffffffff16610c5f61109e565b73ffffffffffffffffffffffffffffffffffffffff1614610cb5576040517f08c379a0000000000000000000000000000000000000000000000000000000008152600401610cac906136e9565b60405180910390fd5b610cbf600c611875565b6000610ccb600c61188b565b9050610cd73382611899565b610ce18184611a72565b3373ffffffffffffffffffffffffffffffffffffffff16813073ffffffffffffffffffffffffffffffffffffffff167f2bb92fc08be1e3ce7d1860ee6655fd34ef217471bf9e7931440919f2f28fd8b860405160405180910390a4610d4461297b565b60018160000190151590811515815250506000816020018181525050600d81908060018154018082558091505060019003906000526020600020906003020160009091909190915060008201518160000160006101000a81548160ff021916908315150217905550602082015181600101556040820151816002019080519060200190610dd29291906129de565b5050508192505050919050565b6000806002600084815260200190815260200160002060009054906101000a900473ffffffffffffffffffffffffffffffffffffffff169050600073ffffffffffffffffffffffffffffffffffffffff168173ffffffffffffffffffffffffffffffffffffffff1603610e87576040517f08c379a0000000000000000000000000000000000000000000000000000000008152600401610e7e9061390b565b60405180910390fd5b80915050919050565b60008073ffffffffffffffffffffffffffffffffffffffff168273ffffffffffffffffffffffffffffffffffffffff1603610f00576040517f08c379a0000000000000000000000000000000000000000000000000000000008152600401610ef79061399d565b60405180910390fd5b600360008373ffffffffffffffffffffffffffffffffffffffff1673ffffffffffffffffffffffffffffffffffffffff168152602001908152602001600020549050919050565b610f4f611464565b73ffffffffffffffffffffffffffffffffffffffff16610f6d61109e565b73ffffffffffffffffffffffffffffffffffffffff1614610fc3576040517f08c379a0000000000000000000000000000000000000000000000000000000008152600401610fba906136e9565b60405180910390fd5b610fcd6000611ae6565b565b600d8181548110610fdf57600080fd5b90600052602060002090600302016000915090508060000160009054906101000a900460ff169080600101549080600201805461101b90613363565b80601f016020809104026020016040519081016040528092919081815260200182805461104790613363565b80156110945780601f1061106957610100808354040283529160200191611094565b820191906000526020600020905b81548152906001019060200180831161107757829003601f168201915b5050505050905083565b6000600b60009054906101000a900473ffffffffffffffffffffffffffffffffffffffff16905090565b6110d3328383611603565b5050565b6060600180546110e690613363565b80601f016020809104026020016040519081016040528092919081815260200182805461111290613363565b801561115f5780601f106111345761010080835404028352916020019161115f565b820191906000526020600020905b81548152906001019060200180831161114257829003601f168201915b5050505050905090565b61117b611174611464565b8383611bac565b5050565b61119061118a611464565b83611525565b6111cf576040517f08c379a00000000000000000000000000000000000000000000000000000000081526004016111c6906135eb565b60405180910390fd5b6111db84848484611d18565b50505050565b60606111ec82611d74565b9050919050565b6000600560008473ffffffffffffffffffffffffffffffffffffffff1673ffffffffffffffffffffffffffffffffffffffff16815260200190815260200160002060008373ffffffffffffffffffffffffffffffffffffffff1673ffffffffffffffffffffffffffffffffffffffff16815260200190815260200160002060009054906101000a900460ff16905092915050565b61128f611464565b73ffffffffffffffffffffffffffffffffffffffff166112ad61109e565b73ffffffffffffffffffffffffffffffffffffffff1614611303576040517f08c379a00000000000000000000000000000000000000000000000000000000081526004016112fa906136e9565b60405180910390fd5b600073ffffffffffffffffffffffffffffffffffffffff168173ffffffffffffffffffffffffffffffffffffffff1603611372576040517f08c379a000000000000000000000000000000000000000000000000000000000815260040161136990613a2f565b60405180910390fd5b61137b81611ae6565b50565b60007f780e9d63000000000000000000000000000000000000000000000000000000007bffffffffffffffffffffffffffffffffffffffffffffffffffffffff1916827bffffffffffffffffffffffffffffffffffffffffffffffffffffffff191614806113f157506113f082611ec5565b5b9050919050565b60008073ffffffffffffffffffffffffffffffffffffffff166002600084815260200190815260200160002060009054906101000a900473ffffffffffffffffffffffffffffffffffffffff1673ffffffffffffffffffffffffffffffffffffffff1614159050919050565b600033905090565b816004600083815260200190815260200160002060006101000a81548173ffffffffffffffffffffffffffffffffffffffff021916908373ffffffffffffffffffffffffffffffffffffffff160217905550808273ffffffffffffffffffffffffffffffffffffffff166114df83610ddf565b73ffffffffffffffffffffffffffffffffffffffff167f8c5be1e5ebec7d5bd14f71427d1e84f3dd0314c0f7b2291e5b200ac8c7c3b92560405160405180910390a45050565b6000611530826113f8565b61156f576040517f08c379a000000000000000000000000000000000000000000000000000000000815260040161156690613ac1565b60405180910390fd5b600061157a83610ddf565b90508073ffffffffffffffffffffffffffffffffffffffff168473ffffffffffffffffffffffffffffffffffffffff1614806115bc57506115bb81856111f3565b5b806115fa57508373ffffffffffffffffffffffffffffffffffffffff166115e2846105e3565b73ffffffffffffffffffffffffffffffffffffffff16145b91505092915050565b8273ffffffffffffffffffffffffffffffffffffffff1661162382610ddf565b73ffffffffffffffffffffffffffffffffffffffff1614611679576040517f08c379a000000000000000000000000000000000000000000000000000000000815260040161167090613b53565b60405180910390fd5b600073ffffffffffffffffffffffffffffffffffffffff168273ffffffffffffffffffffffffffffffffffffffff16036116e8576040517f08c379a00000000000000000000000000000000000000000000000000000000081526004016116df90613be5565b60405180910390fd5b6116f3838383611fa7565b6116fe60008261146c565b6001600360008573ffffffffffffffffffffffffffffffffffffffff1673ffffffffffffffffffffffffffffffffffffffff168152602001908152602001600020600082825461174e9190613c34565b925050819055506001600360008473ffffffffffffffffffffffffffffffffffffffff1673ffffffffffffffffffffffffffffffffffffffff16815260200190815260200160002060008282546117a59190613c68565b92505081905550816002600083815260200190815260200160002060006101000a81548173ffffffffffffffffffffffffffffffffffffffff021916908373ffffffffffffffffffffffffffffffffffffffff160217905550808273ffffffffffffffffffffffffffffffffffffffff168473ffffffffffffffffffffffffffffffffffffffff167fddf252ad1be2c89b69c2b068fc378daa952ba7f163c4a11628f55a4df523b3ef60405160405180910390a4611864838383611fb7565b505050565b61187281611fbc565b50565b6001816000016000828254019250508190555050565b600081600001549050919050565b600073ffffffffffffffffffffffffffffffffffffffff168273ffffffffffffffffffffffffffffffffffffffff1603611908576040517f08c379a00000000000000000000000000000000000000000000000000000000081526004016118ff90613d0a565b60405180910390fd5b611911816113f8565b15611951576040517f08c379a000000000000000000000000000000000000000000000000000000000815260040161194890613d76565b60405180910390fd5b61195d60008383611fa7565b6001600360008473ffffffffffffffffffffffffffffffffffffffff1673ffffffffffffffffffffffffffffffffffffffff16815260200190815260200160002060008282546119ad9190613c68565b92505081905550816002600083815260200190815260200160002060006101000a81548173ffffffffffffffffffffffffffffffffffffffff021916908373ffffffffffffffffffffffffffffffffffffffff160217905550808273ffffffffffffffffffffffffffffffffffffffff16600073ffffffffffffffffffffffffffffffffffffffff167fddf252ad1be2c89b69c2b068fc378daa952ba7f163c4a11628f55a4df523b3ef60405160405180910390a4611a6e60008383611fb7565b5050565b611a7b826113f8565b611aba576040517f08c379a0000000000000000000000000000000000000000000000000000000008152600401611ab190613e08565b60405180910390fd5b80600a60008481526020019081526020016000209080519060200190611ae19291906129de565b505050565b6000600b60009054906101000a900473ffffffffffffffffffffffffffffffffffffffff16905081600b60006101000a81548173ffffffffffffffffffffffffffffffffffffffff021916908373ffffffffffffffffffffffffffffffffffffffff1602179055508173ffffffffffffffffffffffffffffffffffffffff168173ffffffffffffffffffffffffffffffffffffffff167f8be0079c531659141344cd1fd0a4f28419497f9722a3daafe3b4186f6b6457e060405160405180910390a35050565b8173ffffffffffffffffffffffffffffffffffffffff168373ffffffffffffffffffffffffffffffffffffffff1603611c1a576040517f08c379a0000000000000000000000000000000000000000000000000000000008152600401611c1190613e74565b60405180910390fd5b80600560008573ffffffffffffffffffffffffffffffffffffffff1673ffffffffffffffffffffffffffffffffffffffff16815260200190815260200160002060008473ffffffffffffffffffffffffffffffffffffffff1673ffffffffffffffffffffffffffffffffffffffff16815260200190815260200160002060006101000a81548160ff0219169083151502179055508173ffffffffffffffffffffffffffffffffffffffff168373ffffffffffffffffffffffffffffffffffffffff167f17307eab39ab6107e8899845ad3d59bd9653f200f220920489ca2b5937696c3183604051611d0b9190612b35565b60405180910390a3505050565b611d23848484611603565b611d2f8484848461200f565b611d6e576040517f08c379a0000000000000000000000000000000000000000000000000000000008152600401611d6590613f06565b60405180910390fd5b50505050565b6060611d7f826113f8565b611dbe576040517f08c379a0000000000000000000000000000000000000000000000000000000008152600401611db590613f98565b60405180910390fd5b6000600a60008481526020019081526020016000208054611dde90613363565b80601f0160208091040260200160405190810160405280929190818152602001828054611e0a90613363565b8015611e575780601f10611e2c57610100808354040283529160200191611e57565b820191906000526020600020905b815481529060010190602001808311611e3a57829003601f168201915b505050505090506000611e68612196565b90506000815103611e7d578192505050611ec0565b600082511115611eb2578082604051602001611e9a929190613ff4565b60405160208183030381529060405292505050611ec0565b611ebb846121ad565b925050505b919050565b60007f80ac58cd000000000000000000000000000000000000000000000000000000007bffffffffffffffffffffffffffffffffffffffffffffffffffffffff1916827bffffffffffffffffffffffffffffffffffffffffffffffffffffffff19161480611f9057507f5b5e139f000000000000000000000000000000000000000000000000000000007bffffffffffffffffffffffffffffffffffffffffffffffffffffffff1916827bffffffffffffffffffffffffffffffffffffffffffffffffffffffff1916145b80611fa05750611f9f82612254565b5b9050919050565b611fb28383836122be565b505050565b505050565b611fc5816123d0565b6000600a60008381526020019081526020016000208054611fe590613363565b90501461200c57600a6000828152602001908152602001600020600061200b919061299e565b5b50565b60006120308473ffffffffffffffffffffffffffffffffffffffff166124ed565b15612189578373ffffffffffffffffffffffffffffffffffffffff1663150b7a02612059611464565b8786866040518563ffffffff1660e01b815260040161207b949392919061406d565b6020604051808303816000875af19250505080156120b757506040513d601f19601f820116820180604052508101906120b491906140ce565b60015b612139573d80600081146120e7576040519150601f19603f3d011682016040523d82523d6000602084013e6120ec565b606091505b506000815103612131576040517f08c379a000000000000000000000000000000000000000000000000000000000815260040161212890613f06565b60405180910390fd5b805181602001fd5b63150b7a0260e01b7bffffffffffffffffffffffffffffffffffffffffffffffffffffffff1916817bffffffffffffffffffffffffffffffffffffffffffffffffffffffff19161491505061218e565b600190505b949350505050565b606060405180602001604052806000815250905090565b60606121b8826113f8565b6121f7576040517f08c379a00000000000000000000000000000000000000000000000000000000081526004016121ee9061416d565b60405180910390fd5b6000612201612196565b90506000815111612221576040518060200160405280600081525061224c565b8061222b84612510565b60405160200161223c929190613ff4565b6040516020818303038152906040525b915050919050565b60007f01ffc9a7000000000000000000000000000000000000000000000000000000007bffffffffffffffffffffffffffffffffffffffffffffffffffffffff1916827bffffffffffffffffffffffffffffffffffffffffffffffffffffffff1916149050919050565b6122c9838383612670565b600073ffffffffffffffffffffffffffffffffffffffff168373ffffffffffffffffffffffffffffffffffffffff160361230b5761230681612675565b61234a565b8173ffffffffffffffffffffffffffffffffffffffff168373ffffffffffffffffffffffffffffffffffffffff16146123495761234883826126be565b5b5b600073ffffffffffffffffffffffffffffffffffffffff168273ffffffffffffffffffffffffffffffffffffffff160361238c576123878161282b565b6123cb565b8273ffffffffffffffffffffffffffffffffffffffff168273ffffffffffffffffffffffffffffffffffffffff16146123ca576123c982826128fc565b5b5b505050565b60006123db82610ddf565b90506123e981600084611fa7565b6123f460008361146c565b6001600360008373ffffffffffffffffffffffffffffffffffffffff1673ffffffffffffffffffffffffffffffffffffffff16815260200190815260200160002060008282546124449190613c34565b925050819055506002600083815260200190815260200160002060006101000a81549073ffffffffffffffffffffffffffffffffffffffff021916905581600073ffffffffffffffffffffffffffffffffffffffff168273ffffffffffffffffffffffffffffffffffffffff167fddf252ad1be2c89b69c2b068fc378daa952ba7f163c4a11628f55a4df523b3ef60405160405180910390a46124e981600084611fb7565b5050565b6000808273ffffffffffffffffffffffffffffffffffffffff163b119050919050565b606060008203612557576040518060400160405280600181526020017f3000000000000000000000000000000000000000000000000000000000000000815250905061266b565b600082905060005b600082146125895780806125729061418d565b915050600a826125829190614204565b915061255f565b60008167ffffffffffffffff8111156125a5576125a4612f2e565b5b6040519080825280601f01601f1916602001820160405280156125d75781602001600182028036833780820191505090505b5090505b60008514612664576001826125f09190613c34565b9150600a856125ff9190614235565b603061260b9190613c68565b60f81b81838151811061262157612620613426565b5b60200101907effffffffffffffffffffffffffffffffffffffffffffffffffffffffffffff1916908160001a905350600a8561265d9190614204565b94506125db565b8093505050505b919050565b505050565b6008805490506009600083815260200190815260200160002081905550600881908060018154018082558091505060019003906000526020600020016000909190919091505550565b600060016126cb84610e90565b6126d59190613c34565b90506000600760008481526020019081526020016000205490508181146127ba576000600660008673ffffffffffffffffffffffffffffffffffffffff1673ffffffffffffffffffffffffffffffffffffffff168152602001908152602001600020600084815260200190815260200160002054905080600660008773ffffffffffffffffffffffffffffffffffffffff1673ffffffffffffffffffffffffffffffffffffffff168152602001908152602001600020600084815260200190815260200160002081905550816007600083815260200190815260200160002081905550505b6007600084815260200190815260200160002060009055600660008573ffffffffffffffffffffffffffffffffffffffff1673ffffffffffffffffffffffffffffffffffffffff16815260200190815260200160002060008381526020019081526020016000206000905550505050565b6000600160088054905061283f9190613c34565b905060006009600084815260200190815260200160002054905060006008838154811061286f5761286e613426565b5b90600052602060002001549050806008838154811061289157612890613426565b5b9060005260206000200181905550816009600083815260200190815260200160002081905550600960008581526020019081526020016000206000905560088054806128e0576128df614266565b5b6001900381819060005260206000200160009055905550505050565b600061290783610e90565b905081600660008573ffffffffffffffffffffffffffffffffffffffff1673ffffffffffffffffffffffffffffffffffffffff168152602001908152602001600020600083815260200190815260200160002081905550806007600084815260200190815260200160002081905550505050565b604051806060016040528060001515815260200160008152602001606081525090565b5080546129aa90613363565b6000825580601f106129bc57506129db565b601f0160209004906000526020600020908101906129da9190612a64565b5b50565b8280546129ea90613363565b90600052602060002090601f016020900481019282612a0c5760008555612a53565b82601f10612a2557805160ff1916838001178555612a53565b82800160010185558215612a53579182015b82811115612a52578251825591602001919060010190612a37565b5b509050612a609190612a64565b5090565b5b80821115612a7d576000816000905550600101612a65565b5090565b6000604051905090565b600080fd5b600080fd5b60007fffffffff0000000000000000000000000000000000000000000000000000000082169050919050565b612aca81612a95565b8114612ad557600080fd5b50565b600081359050612ae781612ac1565b92915050565b600060208284031215612b0357612b02612a8b565b5b6000612b1184828501612ad8565b91505092915050565b60008115159050919050565b612b2f81612b1a565b82525050565b6000602082019050612b4a6000830184612b26565b92915050565b600081519050919050565b600082825260208201905092915050565b60005b83811015612b8a578082015181840152602081019050612b6f565b83811115612b99576000848401525b50505050565b6000601f19601f8301169050919050565b6000612bbb82612b50565b612bc58185612b5b565b9350612bd5818560208601612b6c565b612bde81612b9f565b840191505092915050565b60006020820190508181036000830152612c038184612bb0565b905092915050565b6000819050919050565b612c1e81612c0b565b8114612c2957600080fd5b50565b600081359050612c3b81612c15565b92915050565b600060208284031215612c5757612c56612a8b565b5b6000612c6584828501612c2c565b91505092915050565b600073ffffffffffffffffffffffffffffffffffffffff82169050919050565b6000612c9982612c6e565b9050919050565b612ca981612c8e565b82525050565b6000602082019050612cc46000830184612ca0565b92915050565b612cd381612b1a565b82525050565b612ce281612c0b565b82525050565b600082825260208201905092915050565b6000612d0482612b50565b612d0e8185612ce8565b9350612d1e818560208601612b6c565b612d2781612b9f565b840191505092915050565b6000606083016000830151612d4a6000860182612cca565b506020830151612d5d6020860182612cd9565b5060408301518482036040860152612d758282612cf9565b9150508091505092915050565b60006020820190508181036000830152612d9c8184612d32565b905092915050565b612dad81612c8e565b8114612db857600080fd5b50565b600081359050612dca81612da4565b92915050565b60008060408385031215612de757612de6612a8b565b5b6000612df585828601612dbb565b9250506020612e0685828601612c2c565b9150509250929050565b612e1981612c0b565b82525050565b6000602082019050612e346000830184612e10565b92915050565b600080600060608486031215612e5357612e52612a8b565b5b6000612e6186828701612dbb565b9350506020612e7286828701612dbb565b9250506040612e8386828701612c2c565b9150509250925092565b6000612e9882612c6e565b9050919050565b612ea881612e8d565b8114612eb357600080fd5b50565b600081359050612ec581612e9f565b92915050565b600060208284031215612ee157612ee0612a8b565b5b6000612eef84828501612eb6565b91505092915050565b612f0181612b1a565b8114612f0c57600080fd5b50565b600081359050612f1e81612ef8565b92915050565b600080fd5b600080fd5b7f4e487b7100000000000000000000000000000000000000000000000000000000600052604160045260246000fd5b612f6682612b9f565b810181811067ffffffffffffffff82111715612f8557612f84612f2e565b5b80604052505050565b6000612f98612a81565b9050612fa48282612f5d565b919050565b600067ffffffffffffffff821115612fc457612fc3612f2e565b5b612fcd82612b9f565b9050602081019050919050565b82818337600083830152505050565b6000612ffc612ff784612fa9565b612f8e565b90508281526020810184848401111561301857613017612f29565b5b613023848285612fda565b509392505050565b600082601f8301126130405761303f612f24565b5b8135613050848260208601612fe9565b91505092915050565b6000806000806080858703121561307357613072612a8b565b5b600061308187828801612c2c565b945050602061309287828801612f0f565b93505060406130a387828801612c2c565b925050606085013567ffffffffffffffff8111156130c4576130c3612a90565b5b6130d08782880161302b565b91505092959194509250565b6000602082840312156130f2576130f1612a8b565b5b600082013567ffffffffffffffff8111156131105761310f612a90565b5b61311c8482850161302b565b91505092915050565b60006020828403121561313b5761313a612a8b565b5b600061314984828501612dbb565b91505092915050565b60006060820190506131676000830186612b26565b6131746020830185612e10565b81810360408301526131868184612bb0565b9050949350505050565b600080604083850312156131a7576131a6612a8b565b5b60006131b585828601612dbb565b92505060206131c685828601612f0f565b9150509250929050565b600067ffffffffffffffff8211156131eb576131ea612f2e565b5b6131f482612b9f565b9050602081019050919050565b600061321461320f846131d0565b612f8e565b9050828152602081018484840111156132305761322f612f29565b5b61323b848285612fda565b509392505050565b600082601f83011261325857613257612f24565b5b8135613268848260208601613201565b91505092915050565b6000806000806080858703121561328b5761328a612a8b565b5b600061329987828801612dbb565b94505060206132aa87828801612dbb565b93505060406132bb87828801612c2c565b925050606085013567ffffffffffffffff8111156132dc576132db612a90565b5b6132e887828801613243565b91505092959194509250565b6000806040838503121561330b5761330a612a8b565b5b600061331985828601612dbb565b925050602061332a85828601612dbb565b9150509250929050565b7f4e487b7100000000000000000000000000000000000000000000000000000000600052602260045260246000fd5b6000600282049050600182168061337b57607f821691505b60208210810361338e5761338d613334565b5b50919050565b7f4552433732313a20617070726f76656420717565727920666f72206e6f6e657860008201527f697374656e7420746f6b656e0000000000000000000000000000000000000000602082015250565b60006133f0602c83612b5b565b91506133fb82613394565b604082019050919050565b6000602082019050818103600083015261341f816133e3565b9050919050565b7f4e487b7100000000000000000000000000000000000000000000000000000000600052603260045260246000fd5b7f4552433732313a20617070726f76616c20746f2063757272656e74206f776e6560008201527f7200000000000000000000000000000000000000000000000000000000000000602082015250565b60006134b1602183612b5b565b91506134bc82613455565b604082019050919050565b600060208201905081810360008301526134e0816134a4565b9050919050565b7f4552433732313a20617070726f76652063616c6c6572206973206e6f74206f7760008201527f6e6572206e6f7220617070726f76656420666f7220616c6c0000000000000000602082015250565b6000613543603883612b5b565b915061354e826134e7565b604082019050919050565b6000602082019050818103600083015261357281613536565b9050919050565b7f4552433732313a207472616e736665722063616c6c6572206973206e6f74206f60008201527f776e6572206e6f7220617070726f766564000000000000000000000000000000602082015250565b60006135d5603183612b5b565b91506135e082613579565b604082019050919050565b60006020820190508181036000830152613604816135c8565b9050919050565b7f455243373231456e756d657261626c653a206f776e657220696e646578206f7560008201527f74206f6620626f756e6473000000000000000000000000000000000000000000602082015250565b6000613667602b83612b5b565b91506136728261360b565b604082019050919050565b600060208201905081810360008301526136968161365a565b9050919050565b7f4f776e61626c653a2063616c6c6572206973206e6f7420746865206f776e6572600082015250565b60006136d3602083612b5b565b91506136de8261369d565b602082019050919050565b60006020820190508181036000830152613702816136c6565b9050919050565b7f636f6c6c656374696f6e206e6565647320746f20626520656d6270747920626560008201527f666f72652064656c6574696f6e00000000000000000000000000000000000000602082015250565b6000613765602d83612b5b565b915061377082613709565b604082019050919050565b6000602082019050818103600083015261379481613758565b9050919050565b7f696e646578206f7574206f6620626f756e647300000000000000000000000000600082015250565b60006137d1601383612b5b565b91506137dc8261379b565b602082019050919050565b60006020820190508181036000830152613800816137c4565b9050919050565b7f455243373231456e756d657261626c653a20676c6f62616c20696e646578206f60008201527f7574206f6620626f756e64730000000000000000000000000000000000000000602082015250565b6000613863602c83612b5b565b915061386e82613807565b604082019050919050565b6000602082019050818103600083015261389281613856565b9050919050565b7f4552433732313a206f776e657220717565727920666f72206e6f6e657869737460008201527f656e7420746f6b656e0000000000000000000000000000000000000000000000602082015250565b60006138f5602983612b5b565b915061390082613899565b604082019050919050565b60006020820190508181036000830152613924816138e8565b9050919050565b7f4552433732313a2062616c616e636520717565727920666f7220746865207a6560008201527f726f206164647265737300000000000000000000000000000000000000000000602082015250565b6000613987602a83612b5b565b91506139928261392b565b604082019050919050565b600060208201905081810360008301526139b68161397a565b9050919050565b7f4f776e61626c653a206e6577206f776e657220697320746865207a65726f206160008201527f6464726573730000000000000000000000000000000000000000000000000000602082015250565b6000613a19602683612b5b565b9150613a24826139bd565b604082019050919050565b60006020820190508181036000830152613a4881613a0c565b9050919050565b7f4552433732313a206f70657261746f7220717565727920666f72206e6f6e657860008201527f697374656e7420746f6b656e0000000000000000000000000000000000000000602082015250565b6000613aab602c83612b5b565b9150613ab682613a4f565b604082019050919050565b60006020820190508181036000830152613ada81613a9e565b9050919050565b7f4552433732313a207472616e736665722066726f6d20696e636f72726563742060008201527f6f776e6572000000000000000000000000000000000000000000000000000000602082015250565b6000613b3d602583612b5b565b9150613b4882613ae1565b604082019050919050565b60006020820190508181036000830152613b6c81613b30565b9050919050565b7f4552433732313a207472616e7366657220746f20746865207a65726f2061646460008201527f7265737300000000000000000000000000000000000000000000000000000000602082015250565b6000613bcf602483612b5b565b9150613bda82613b73565b604082019050919050565b60006020820190508181036000830152613bfe81613bc2565b9050919050565b7f4e487b7100000000000000000000000000000000000000000000000000000000600052601160045260246000fd5b6000613c3f82612c0b565b9150613c4a83612c0b565b925082821015613c5d57613c5c613c05565b5b828203905092915050565b6000613c7382612c0b565b9150613c7e83612c0b565b9250827fffffffffffffffffffffffffffffffffffffffffffffffffffffffffffffffff03821115613cb357613cb2613c05565b5b828201905092915050565b7f4552433732313a206d696e7420746f20746865207a65726f2061646472657373600082015250565b6000613cf4602083612b5b565b9150613cff82613cbe565b602082019050919050565b60006020820190508181036000830152613d2381613ce7565b9050919050565b7f4552433732313a20746f6b656e20616c7265616479206d696e74656400000000600082015250565b6000613d60601c83612b5b565b9150613d6b82613d2a565b602082019050919050565b60006020820190508181036000830152613d8f81613d53565b9050919050565b7f45524337323155524953746f726167653a2055524920736574206f66206e6f6e60008201527f6578697374656e7420746f6b656e000000000000000000000000000000000000602082015250565b6000613df2602e83612b5b565b9150613dfd82613d96565b604082019050919050565b60006020820190508181036000830152613e2181613de5565b9050919050565b7f4552433732313a20617070726f766520746f2063616c6c657200000000000000600082015250565b6000613e5e601983612b5b565b9150613e6982613e28565b602082019050919050565b60006020820190508181036000830152613e8d81613e51565b9050919050565b7f4552433732313a207472616e7366657220746f206e6f6e20455243373231526560008201527f63656976657220696d706c656d656e7465720000000000000000000000000000602082015250565b6000613ef0603283612b5b565b9150613efb82613e94565b604082019050919050565b60006020820190508181036000830152613f1f81613ee3565b9050919050565b7f45524337323155524953746f726167653a2055524920717565727920666f722060008201527f6e6f6e6578697374656e7420746f6b656e000000000000000000000000000000602082015250565b6000613f82603183612b5b565b9150613f8d82613f26565b604082019050919050565b60006020820190508181036000830152613fb181613f75565b9050919050565b600081905092915050565b6000613fce82612b50565b613fd88185613fb8565b9350613fe8818560208601612b6c565b80840191505092915050565b60006140008285613fc3565b915061400c8284613fc3565b91508190509392505050565b600081519050919050565b600082825260208201905092915050565b600061403f82614018565b6140498185614023565b9350614059818560208601612b6c565b61406281612b9f565b840191505092915050565b60006080820190506140826000830187612ca0565b61408f6020830186612ca0565b61409c6040830185612e10565b81810360608301526140ae8184614034565b905095945050505050565b6000815190506140c881612ac1565b92915050565b6000602082840312156140e4576140e3612a8b565b5b60006140f2848285016140b9565b91505092915050565b7f4552433732314d657461646174613a2055524920717565727920666f72206e6f60008201527f6e6578697374656e7420746f6b656e0000000000000000000000000000000000602082015250565b6000614157602f83612b5b565b9150614162826140fb565b604082019050919050565b600060208201905081810360008301526141868161414a565b9050919050565b600061419882612c0b565b91507fffffffffffffffffffffffffffffffffffffffffffffffffffffffffffffffff82036141ca576141c9613c05565b5b600182019050919050565b7f4e487b7100000000000000000000000000000000000000000000000000000000600052601260045260246000fd5b600061420f82612c0b565b915061421a83612c0b565b92508261422a576142296141d5565b5b828204905092915050565b600061424082612c0b565b915061424b83612c0b565b92508261425b5761425a6141d5565b5b828206905092915050565b7f4e487b7100000000000000000000000000000000000000000000000000000000600052603160045260246000fdfea2646970667358221220a98f93dcb4ab225023161dc6c24d56514076d279e6f1271865cfd003999950a164736f6c634300080d0033a264697066735822122025bb53bc78c3330d8d09dbfd1f72775e4a45da5666a08a958388af856702e30464736f6c634300080d0033",
  "immutableReferences": {},
  "source": "// SPDX-License-Identifier: MIT\npragma solidity 0.8.13;\n\n// importing the ERC-721 contract to deploy for a collection\nimport \"./NftCollection.sol\";\n\n/** \n  * @notice Give the ability to deploy a contract to manage ERC-721 tokens for a collection.\n  * @dev    If the contract is already deployed for an _collectionName, it will revert.\n  */\ncontract NftCollectionFactory{\n\n    event NftCollectionCreated(bytes32 indexed _collectionName, address indexed _collectionAddress, uint _timestamp, address indexed _creator, string _tokenURI);\n\n    address[] public collections;\n\n    /**\n      * @notice Deploy the ERC-721 Collection contract of the artist caller to be able to create NFTs later\n      *\n      * @return collectionAddress the address of the created collection contract\n      */\n    function createNFTCollection(string memory _collectionName, string memory _collectionSymbol, string memory _tokenURI) external returns (address collectionAddress) {\n        // Import the bytecode of the contract to deploy\n        bytes memory collectionBytecode = getCreationBytecode(_collectionName, _collectionSymbol);\n\t\t\t\t// Make a random salt based on the _collectionName\n        bytes32 salt = keccak256(abi.encodePacked(_collectionName));\n\n        assembly {\n            collectionAddress := create2(0, add(collectionBytecode, 0x20), mload(collectionBytecode), salt)\n            if iszero(extcodesize(collectionAddress)) {\n                // revert if something gone wrong (collectionAddress doesn't contain an address)\n                revert(0, 0)\n            }\n        }\n\n        collections.push(collectionAddress);\n\n        // Initialize the collection contract with the collection ist settings\n        //NftCollection(collectionAddress).mintCollection(msg.sender, _tokenURI);\n        NftCollection(collectionAddress).transferOwnership(msg.sender);\n        bytes32 _collectionNameInBytes32 = bytes32(bytes(_collectionName));\n\n        emit NftCollectionCreated(_collectionNameInBytes32, collectionAddress, block.timestamp, msg.sender, _tokenURI);\n    }\n\n    function getCreationBytecode(string memory _collectionName, string memory _collectionSymbol) public pure returns (bytes memory) {\n      bytes memory collectionBytecode = type(NftCollection).creationCode;\n\n      return abi.encodePacked(collectionBytecode, abi.encode(_collectionName, _collectionSymbol));\n    }\n\n    function deleteCollection(uint _index ) external {\n      require(_index < collections.length, \"Il n y a pas de collection pour cet index\");\n      NftCollection _collectionAddress = NftCollection(collections[_index]);\n      _collectionAddress.destroySmartContract(payable(msg.sender));\n      delete collections[_index];\n    }\n}\n",
  "sourcePath": "/home/pierre/Projets/Alyra/Projet_5/contracts/NftCollectionFactory.sol",
  "compiler": {
    "name": "solc",
    "version": "0.8.13+commit.abaa5c0e.Emscripten.clang"
  },
  "schemaVersion": "3.4.6",
  "updatedAt": "2022-05-15T18:59:21.596Z",
  "networkType": "ethereum",
  "devdoc": {
    "details": "If the contract is already deployed for an _collectionName, it will revert.",
    "kind": "dev",
    "methods": {
      "createNFTCollection(string,string,string)": {
        "returns": {
          "collectionAddress": "the address of the created collection contract"
        }
      }
    },
    "version": 1
  },
  "userdoc": {
    "kind": "user",
    "methods": {
      "createNFTCollection(string,string,string)": {
        "notice": "Deploy the ERC-721 Collection contract of the artist caller to be able to create NFTs later"
      }
    },
    "notice": "Give the ability to deploy a contract to manage ERC-721 tokens for a collection.",
    "version": 1
  }
}