{
  "contractName": "NftCollectionFactory",
  "abi": [
    {
      "anonymous": false,
      "inputs": [
        {
          "indexed": true,
          "internalType": "bytes32",
          "name": "_collectionName",
          "type": "bytes32"
        },
        {
          "indexed": true,
          "internalType": "address",
          "name": "_collectionAddress",
          "type": "address"
        },
        {
          "indexed": false,
          "internalType": "uint256",
          "name": "_timestamp",
          "type": "uint256"
        },
        {
          "indexed": true,
          "internalType": "address",
          "name": "_creator",
          "type": "address"
        },
        {
          "indexed": false,
          "internalType": "string",
          "name": "_tokenURI",
          "type": "string"
        }
      ],
      "name": "NftCollectionCreated",
      "type": "event"
    },
    {
      "inputs": [
        {
          "internalType": "uint256",
          "name": "",
          "type": "uint256"
        }
      ],
      "name": "collections",
      "outputs": [
        {
          "internalType": "address",
          "name": "",
          "type": "address"
        }
      ],
      "stateMutability": "view",
      "type": "function",
      "constant": true
    },
    {
      "inputs": [
        {
          "internalType": "string",
          "name": "_collectionName",
          "type": "string"
        },
        {
          "internalType": "string",
          "name": "_collectionSymbol",
          "type": "string"
        },
        {
          "internalType": "string",
          "name": "_tokenURI",
          "type": "string"
        }
      ],
      "name": "createNFTCollection",
      "outputs": [
        {
          "internalType": "address",
          "name": "collectionAddress",
          "type": "address"
        }
      ],
      "stateMutability": "nonpayable",
      "type": "function"
    },
    {
      "inputs": [
        {
          "internalType": "string",
          "name": "_collectionName",
          "type": "string"
        },
        {
          "internalType": "string",
          "name": "_collectionSymbol",
          "type": "string"
        }
      ],
      "name": "getCreationBytecode",
      "outputs": [
        {
          "internalType": "bytes",
          "name": "",
          "type": "bytes"
        }
      ],
      "stateMutability": "pure",
      "type": "function",
      "constant": true
    },
    {
      "inputs": [
        {
          "internalType": "uint256",
          "name": "_index",
          "type": "uint256"
        }
      ],
      "name": "deleteCollection",
      "outputs": [],
      "stateMutability": "nonpayable",
      "type": "function"
    }
  ],
  "bytecode": "0x608060405234801561001057600080fd5b50614d84806100206000396000f3fe60806040523480156200001157600080fd5b5060043610620000525760003560e01c8063844af6581462000057578063930c59e6146200008d578063a42c587a14620000c3578063fdbda0ec14620000e3575b600080fd5b6200007560048036038101906200006f9190620005dc565b62000119565b604051620000849190620006da565b60405180910390f35b620000ab6004803603810190620000a59190620006f7565b62000256565b604051620000ba91906200080f565b60405180910390f35b620000e16004803603810190620000db91906200086e565b620002d2565b005b620001016004803603810190620000fb91906200086e565b62000418565b604051620001109190620006da565b60405180910390f35b60008062000128858562000256565b90506000856040516020016200013f9190620008ed565b604051602081830303815290604052805190602001209050808251602084016000f59250823b6200016f57600080fd5b6000839080600181540180825580915050600190039060005260206000200160009091909190916101000a81548173ffffffffffffffffffffffffffffffffffffffff021916908373ffffffffffffffffffffffffffffffffffffffff160217905550600086620001e09062000944565b90503373ffffffffffffffffffffffffffffffffffffffff168473ffffffffffffffffffffffffffffffffffffffff16827f4479e9d1841d3aae014ddf87448cc7d6561582665f7e521f936810b8362b3a5042896040516200024492919062000a17565b60405180910390a45050509392505050565b60606000604051806020016200026c9062000458565b6020820181038252601f19601f8201166040525090508084846040516020016200029892919062000a4b565b604051602081830303815290604052604051602001620002ba92919062000ac8565b60405160208183030381529060405291505092915050565b60008054905081106200031c576040517f08c379a0000000000000000000000000000000000000000000000000000000008152600401620003139062000b66565b60405180910390fd5b600080828154811062000334576200033362000b88565b5b9060005260206000200160009054906101000a900473ffffffffffffffffffffffffffffffffffffffff1690508073ffffffffffffffffffffffffffffffffffffffff166339df43ff336040518263ffffffff1660e01b81526004016200039c919062000bdc565b600060405180830381600087803b158015620003b757600080fd5b505af1158015620003cc573d6000803e3d6000fd5b5050505060008281548110620003e757620003e662000b88565b5b9060005260206000200160006101000a81549073ffffffffffffffffffffffffffffffffffffffff02191690555050565b600081815481106200042957600080fd5b906000526020600020016000915054906101000a900473ffffffffffffffffffffffffffffffffffffffff1681565b6141558062000bfa83390190565b6000604051905090565b600080fd5b600080fd5b600080fd5b600080fd5b6000601f19601f8301169050919050565b7f4e487b7100000000000000000000000000000000000000000000000000000000600052604160045260246000fd5b620004cf8262000484565b810181811067ffffffffffffffff82111715620004f157620004f062000495565b5b80604052505050565b60006200050662000466565b9050620005148282620004c4565b919050565b600067ffffffffffffffff82111562000537576200053662000495565b5b620005428262000484565b9050602081019050919050565b82818337600083830152505050565b6000620005756200056f8462000519565b620004fa565b9050828152602081018484840111156200059457620005936200047f565b5b620005a18482856200054f565b509392505050565b600082601f830112620005c157620005c06200047a565b5b8135620005d38482602086016200055e565b91505092915050565b600080600060608486031215620005f857620005f762000470565b5b600084013567ffffffffffffffff81111562000619576200061862000475565b5b6200062786828701620005a9565b935050602084013567ffffffffffffffff8111156200064b576200064a62000475565b5b6200065986828701620005a9565b925050604084013567ffffffffffffffff8111156200067d576200067c62000475565b5b6200068b86828701620005a9565b9150509250925092565b600073ffffffffffffffffffffffffffffffffffffffff82169050919050565b6000620006c28262000695565b9050919050565b620006d481620006b5565b82525050565b6000602082019050620006f16000830184620006c9565b92915050565b6000806040838503121562000711576200071062000470565b5b600083013567ffffffffffffffff81111562000732576200073162000475565b5b6200074085828601620005a9565b925050602083013567ffffffffffffffff81111562000764576200076362000475565b5b6200077285828601620005a9565b9150509250929050565b600081519050919050565b600082825260208201905092915050565b60005b83811015620007b85780820151818401526020810190506200079b565b83811115620007c8576000848401525b50505050565b6000620007db826200077c565b620007e7818562000787565b9350620007f981856020860162000798565b620008048162000484565b840191505092915050565b600060208201905081810360008301526200082b8184620007ce565b905092915050565b6000819050919050565b620008488162000833565b81146200085457600080fd5b50565b60008135905062000868816200083d565b92915050565b60006020828403121562000887576200088662000470565b5b6000620008978482850162000857565b91505092915050565b600081519050919050565b600081905092915050565b6000620008c382620008a0565b620008cf8185620008ab565b9350620008e181856020860162000798565b80840191505092915050565b6000620008fb8284620008b6565b915081905092915050565b6000819050602082019050919050565b6000819050919050565b60006200092e825162000916565b80915050919050565b600082821b905092915050565b600062000951826200077c565b826200095d8462000906565b90506200096a8162000920565b92506020821015620009ad57620009a87fffffffffffffffffffffffffffffffffffffffffffffffffffffffffffffffff8360200360080262000937565b831692505b5050919050565b620009bf8162000833565b82525050565b600082825260208201905092915050565b6000620009e382620008a0565b620009ef8185620009c5565b935062000a0181856020860162000798565b62000a0c8162000484565b840191505092915050565b600060408201905062000a2e6000830185620009b4565b818103602083015262000a428184620009d6565b90509392505050565b6000604082019050818103600083015262000a678185620009d6565b9050818103602083015262000a7d8184620009d6565b90509392505050565b600081905092915050565b600062000a9e826200077c565b62000aaa818562000a86565b935062000abc81856020860162000798565b80840191505092915050565b600062000ad6828562000a91565b915062000ae4828462000a91565b91508190509392505050565b7f496c206e207920612070617320646520636f6c6c656374696f6e20706f75722060008201527f63657420696e6465780000000000000000000000000000000000000000000000602082015250565b600062000b4e602983620009c5565b915062000b5b8262000af0565b604082019050919050565b6000602082019050818103600083015262000b818162000b3f565b9050919050565b7f4e487b7100000000000000000000000000000000000000000000000000000000600052603260045260246000fd5b600062000bc48262000695565b9050919050565b62000bd68162000bb7565b82525050565b600060208201905062000bf3600083018462000bcb565b9291505056fe60806040523480156200001157600080fd5b5060405162004155380380620041558339818101604052810190620000379190620003b0565b818181600090805190602001906200005192919062000163565b5080600190805190602001906200006a92919062000163565b5050506200008d620000816200009560201b60201c565b6200009d60201b60201c565b505062000499565b600033905090565b6000600b60009054906101000a900473ffffffffffffffffffffffffffffffffffffffff16905081600b60006101000a81548173ffffffffffffffffffffffffffffffffffffffff021916908373ffffffffffffffffffffffffffffffffffffffff1602179055508173ffffffffffffffffffffffffffffffffffffffff168173ffffffffffffffffffffffffffffffffffffffff167f8be0079c531659141344cd1fd0a4f28419497f9722a3daafe3b4186f6b6457e060405160405180910390a35050565b828054620001719062000464565b90600052602060002090601f016020900481019282620001955760008555620001e1565b82601f10620001b057805160ff1916838001178555620001e1565b82800160010185558215620001e1579182015b82811115620001e0578251825591602001919060010190620001c3565b5b509050620001f09190620001f4565b5090565b5b808211156200020f576000816000905550600101620001f5565b5090565b6000604051905090565b600080fd5b600080fd5b600080fd5b600080fd5b6000601f19601f8301169050919050565b7f4e487b7100000000000000000000000000000000000000000000000000000000600052604160045260246000fd5b6200027c8262000231565b810181811067ffffffffffffffff821117156200029e576200029d62000242565b5b80604052505050565b6000620002b362000213565b9050620002c1828262000271565b919050565b600067ffffffffffffffff821115620002e457620002e362000242565b5b620002ef8262000231565b9050602081019050919050565b60005b838110156200031c578082015181840152602081019050620002ff565b838111156200032c576000848401525b50505050565b6000620003496200034384620002c6565b620002a7565b9050828152602081018484840111156200036857620003676200022c565b5b62000375848285620002fc565b509392505050565b600082601f83011262000395576200039462000227565b5b8151620003a784826020860162000332565b91505092915050565b60008060408385031215620003ca57620003c96200021d565b5b600083015167ffffffffffffffff811115620003eb57620003ea62000222565b5b620003f9858286016200037d565b925050602083015167ffffffffffffffff8111156200041d576200041c62000222565b5b6200042b858286016200037d565b9150509250929050565b7f4e487b7100000000000000000000000000000000000000000000000000000000600052602260045260246000fd5b600060028204905060018216806200047d57607f821691505b60208210810362000493576200049262000435565b5b50919050565b613cac80620004a96000396000f3fe608060405234801561001057600080fd5b506004361061018e5760003560e01c806354d95d5d116100de5780638fba3f7c11610097578063b88d4fde11610071578063b88d4fde146104a7578063c87b56dd146104c3578063e985e9c5146104f3578063f2fde38b146105235761018e565b80638fba3f7c1461045157806395d89b411461046d578063a22cb4651461048b5761018e565b806354d95d5d146103675780636352211e1461039757806370a08231146103c7578063715018a6146103f75780637d4cd847146104015780638da5cb5b146104335761018e565b806323b872dd1161014b57806339df43ff1161012557806339df43ff146102e35780633e159aef146102ff57806342842e0e1461031b5780634f6ccce7146103375761018e565b806323b872dd1461027b5780632f745c59146102975780633580bf27146102c75761018e565b806301ffc9a71461019357806306fdde03146101c3578063081812fc146101e157806308e4c25f14610211578063095ea7b31461024157806318160ddd1461025d575b600080fd5b6101ad60048036038101906101a891906126ff565b61053f565b6040516101ba9190612747565b60405180910390f35b6101cb610551565b6040516101d891906127fb565b60405180910390f35b6101fb60048036038101906101f69190612853565b6105e3565b60405161020891906128c1565b60405180910390f35b61022b60048036038101906102269190612853565b610668565b6040516102389190612994565b60405180910390f35b61025b600480360381019061025691906129e2565b61075b565b005b610265610872565b6040516102729190612a31565b60405180910390f35b61029560048036038101906102909190612a4c565b61087f565b005b6102b160048036038101906102ac91906129e2565b6108df565b6040516102be9190612a31565b60405180910390f35b6102e160048036038101906102dc9190612853565b610984565b005b6102fd60048036038101906102f89190612add565b6109e1565b005b61031960048036038101906103149190612c6b565b610ac0565b005b61033560048036038101906103309190612a4c565b610b5f565b005b610351600480360381019061034c9190612853565b610b7f565b60405161035e9190612a31565b60405180910390f35b610381600480360381019061037c9190612cee565b610bf0565b60405161038e9190612a31565b60405180910390f35b6103b160048036038101906103ac9190612853565b610d29565b6040516103be91906128c1565b60405180910390f35b6103e160048036038101906103dc9190612d4a565b610dda565b6040516103ee9190612a31565b60405180910390f35b6103ff610e91565b005b61041b60048036038101906104169190612853565b610f19565b60405161042a93929190612d77565b60405180910390f35b61043b610fe8565b60405161044891906128c1565b60405180910390f35b61046b600480360381019061046691906129e2565b611012565b005b610475611021565b60405161048291906127fb565b60405180910390f35b6104a560048036038101906104a09190612db5565b6110b3565b005b6104c160048036038101906104bc9190612e96565b6110c9565b005b6104dd60048036038101906104d89190612853565b61112b565b6040516104ea91906127fb565b60405180910390f35b61050d60048036038101906105089190612f19565b61115d565b60405161051a9190612747565b60405180910390f35b61053d60048036038101906105389190612d4a565b6111f1565b005b600061054a826112e8565b9050919050565b60606000805461056090612f88565b80601f016020809104026020016040519081016040528092919081815260200182805461058c90612f88565b80156105d95780601f106105ae576101008083540402835291602001916105d9565b820191906000526020600020905b8154815290600101906020018083116105bc57829003601f168201915b5050505050905090565b60006105ee82611362565b61062d576040517f08c379a00000000000000000000000000000000000000000000000000000000081526004016106249061302b565b60405180910390fd5b6004600083815260200190815260200160002060009054906101000a900473ffffffffffffffffffffffffffffffffffffffff169050919050565b61067061258d565b600d82815481106106845761068361304b565b5b90600052602060002090600302016040518060600160405290816000820160009054906101000a900460ff16151515158152602001600182015481526020016002820180546106d290612f88565b80601f01602080910402602001604051908101604052809291908181526020018280546106fe90612f88565b801561074b5780601f106107205761010080835404028352916020019161074b565b820191906000526020600020905b81548152906001019060200180831161072e57829003601f168201915b5050505050815250509050919050565b600061076682610d29565b90508073ffffffffffffffffffffffffffffffffffffffff168373ffffffffffffffffffffffffffffffffffffffff16036107d6576040517f08c379a00000000000000000000000000000000000000000000000000000000081526004016107cd906130ec565b60405180910390fd5b8073ffffffffffffffffffffffffffffffffffffffff166107f56113ce565b73ffffffffffffffffffffffffffffffffffffffff16148061082457506108238161081e6113ce565b61115d565b5b610863576040517f08c379a000000000000000000000000000000000000000000000000000000000815260040161085a9061317e565b60405180910390fd5b61086d83836113d6565b505050565b6000600880549050905090565b61089061088a6113ce565b8261148f565b6108cf576040517f08c379a00000000000000000000000000000000000000000000000000000000081526004016108c690613210565b60405180910390fd5b6108da83838361156d565b505050565b60006108ea83610dda565b821061092b576040517f08c379a0000000000000000000000000000000000000000000000000000000008152600401610922906132a2565b60405180910390fd5b600660008473ffffffffffffffffffffffffffffffffffffffff1673ffffffffffffffffffffffffffffffffffffffff168152602001908152602001600020600083815260200190815260200160002054905092915050565b61098d816117d3565b600d81815481106109a1576109a061304b565b5b9060005260206000209060030201600080820160006101000a81549060ff021916905560018201600090556002820160006109dc91906125b0565b505050565b6109e96113ce565b73ffffffffffffffffffffffffffffffffffffffff16610a07610fe8565b73ffffffffffffffffffffffffffffffffffffffff1614610a5d576040517f08c379a0000000000000000000000000000000000000000000000000000000008152600401610a549061330e565b60405180910390fd5b6000610a67610872565b14610aa7576040517f08c379a0000000000000000000000000000000000000000000000000000000008152600401610a9e906133a0565b60405180910390fd5b8073ffffffffffffffffffffffffffffffffffffffff16ff5b610ac861258d565b838160000190151590811515815250508281602001818152505081816040018190525080600d8681548110610b0057610aff61304b565b5b906000526020600020906003020160008201518160000160006101000a81548160ff021916908315150217905550602082015181600101556040820151816002019080519060200190610b549291906125f0565b509050505050505050565b610b7a838383604051806020016040528060008152506110c9565b505050565b6000610b89610872565b8210610bca576040517f08c379a0000000000000000000000000000000000000000000000000000000008152600401610bc190613432565b60405180910390fd5b60088281548110610bde57610bdd61304b565b5b90600052602060002001549050919050565b6000610bfc600c6117df565b6000610c08600c6117f5565b9050610c148482611803565b610c1e81846119dc565b610c2a60003383611a50565b3373ffffffffffffffffffffffffffffffffffffffff16813073ffffffffffffffffffffffffffffffffffffffff167f2bb92fc08be1e3ce7d1860ee6655fd34ef217471bf9e7931440919f2f28fd8b860405160405180910390a4610c8d61258d565b60018160000190151590811515815250506000816020018181525050600d81908060018154018082558091505060019003906000526020600020906003020160009091909190915060008201518160000160006101000a81548160ff021916908315150217905550602082015181600101556040820151816002019080519060200190610d1b9291906125f0565b505050819250505092915050565b6000806002600084815260200190815260200160002060009054906101000a900473ffffffffffffffffffffffffffffffffffffffff169050600073ffffffffffffffffffffffffffffffffffffffff168173ffffffffffffffffffffffffffffffffffffffff1603610dd1576040517f08c379a0000000000000000000000000000000000000000000000000000000008152600401610dc8906134c4565b60405180910390fd5b80915050919050565b60008073ffffffffffffffffffffffffffffffffffffffff168273ffffffffffffffffffffffffffffffffffffffff1603610e4a576040517f08c379a0000000000000000000000000000000000000000000000000000000008152600401610e4190613556565b60405180910390fd5b600360008373ffffffffffffffffffffffffffffffffffffffff1673ffffffffffffffffffffffffffffffffffffffff168152602001908152602001600020549050919050565b610e996113ce565b73ffffffffffffffffffffffffffffffffffffffff16610eb7610fe8565b73ffffffffffffffffffffffffffffffffffffffff1614610f0d576040517f08c379a0000000000000000000000000000000000000000000000000000000008152600401610f049061330e565b60405180910390fd5b610f176000611a60565b565b600d8181548110610f2957600080fd5b90600052602060002090600302016000915090508060000160009054906101000a900460ff1690806001015490806002018054610f6590612f88565b80601f0160208091040260200160405190810160405280929190818152602001828054610f9190612f88565b8015610fde5780601f10610fb357610100808354040283529160200191610fde565b820191906000526020600020905b815481529060010190602001808311610fc157829003601f168201915b5050505050905083565b6000600b60009054906101000a900473ffffffffffffffffffffffffffffffffffffffff16905090565b61101d338383611a50565b5050565b60606001805461103090612f88565b80601f016020809104026020016040519081016040528092919081815260200182805461105c90612f88565b80156110a95780601f1061107e576101008083540402835291602001916110a9565b820191906000526020600020905b81548152906001019060200180831161108c57829003601f168201915b5050505050905090565b6110c56110be6113ce565b8383611b26565b5050565b6110da6110d46113ce565b8361148f565b611119576040517f08c379a000000000000000000000000000000000000000000000000000000000815260040161111090613210565b60405180910390fd5b61112584848484611c92565b50505050565b6060611135611cee565b826040516020016111479291906135d3565b6040516020818303038152906040529050919050565b6000600560008473ffffffffffffffffffffffffffffffffffffffff1673ffffffffffffffffffffffffffffffffffffffff16815260200190815260200160002060008373ffffffffffffffffffffffffffffffffffffffff1673ffffffffffffffffffffffffffffffffffffffff16815260200190815260200160002060009054906101000a900460ff16905092915050565b6111f96113ce565b73ffffffffffffffffffffffffffffffffffffffff16611217610fe8565b73ffffffffffffffffffffffffffffffffffffffff161461126d576040517f08c379a00000000000000000000000000000000000000000000000000000000081526004016112649061330e565b60405180910390fd5b600073ffffffffffffffffffffffffffffffffffffffff168173ffffffffffffffffffffffffffffffffffffffff16036112dc576040517f08c379a00000000000000000000000000000000000000000000000000000000081526004016112d39061366d565b60405180910390fd5b6112e581611a60565b50565b60007f780e9d63000000000000000000000000000000000000000000000000000000007bffffffffffffffffffffffffffffffffffffffffffffffffffffffff1916827bffffffffffffffffffffffffffffffffffffffffffffffffffffffff1916148061135b575061135a82611d05565b5b9050919050565b60008073ffffffffffffffffffffffffffffffffffffffff166002600084815260200190815260200160002060009054906101000a900473ffffffffffffffffffffffffffffffffffffffff1673ffffffffffffffffffffffffffffffffffffffff1614159050919050565b600033905090565b816004600083815260200190815260200160002060006101000a81548173ffffffffffffffffffffffffffffffffffffffff021916908373ffffffffffffffffffffffffffffffffffffffff160217905550808273ffffffffffffffffffffffffffffffffffffffff1661144983610d29565b73ffffffffffffffffffffffffffffffffffffffff167f8c5be1e5ebec7d5bd14f71427d1e84f3dd0314c0f7b2291e5b200ac8c7c3b92560405160405180910390a45050565b600061149a82611362565b6114d9576040517f08c379a00000000000000000000000000000000000000000000000000000000081526004016114d0906136ff565b60405180910390fd5b60006114e483610d29565b90508073ffffffffffffffffffffffffffffffffffffffff168473ffffffffffffffffffffffffffffffffffffffff1614806115265750611525818561115d565b5b8061156457508373ffffffffffffffffffffffffffffffffffffffff1661154c846105e3565b73ffffffffffffffffffffffffffffffffffffffff16145b91505092915050565b8273ffffffffffffffffffffffffffffffffffffffff1661158d82610d29565b73ffffffffffffffffffffffffffffffffffffffff16146115e3576040517f08c379a00000000000000000000000000000000000000000000000000000000081526004016115da90613791565b60405180910390fd5b600073ffffffffffffffffffffffffffffffffffffffff168273ffffffffffffffffffffffffffffffffffffffff1603611652576040517f08c379a000000000000000000000000000000000000000000000000000000000815260040161164990613823565b60405180910390fd5b61165d838383611a50565b6116686000826113d6565b6001600360008573ffffffffffffffffffffffffffffffffffffffff1673ffffffffffffffffffffffffffffffffffffffff16815260200190815260200160002060008282546116b89190613872565b925050819055506001600360008473ffffffffffffffffffffffffffffffffffffffff1673ffffffffffffffffffffffffffffffffffffffff168152602001908152602001600020600082825461170f91906138a6565b92505081905550816002600083815260200190815260200160002060006101000a81548173ffffffffffffffffffffffffffffffffffffffff021916908373ffffffffffffffffffffffffffffffffffffffff160217905550808273ffffffffffffffffffffffffffffffffffffffff168473ffffffffffffffffffffffffffffffffffffffff167fddf252ad1be2c89b69c2b068fc378daa952ba7f163c4a11628f55a4df523b3ef60405160405180910390a46117ce838383611de7565b505050565b6117dc81611dec565b50565b6001816000016000828254019250508190555050565b600081600001549050919050565b600073ffffffffffffffffffffffffffffffffffffffff168273ffffffffffffffffffffffffffffffffffffffff1603611872576040517f08c379a000000000000000000000000000000000000000000000000000000000815260040161186990613948565b60405180910390fd5b61187b81611362565b156118bb576040517f08c379a00000000000000000000000000000000000000000000000000000000081526004016118b2906139b4565b60405180910390fd5b6118c760008383611a50565b6001600360008473ffffffffffffffffffffffffffffffffffffffff1673ffffffffffffffffffffffffffffffffffffffff168152602001908152602001600020600082825461191791906138a6565b92505081905550816002600083815260200190815260200160002060006101000a81548173ffffffffffffffffffffffffffffffffffffffff021916908373ffffffffffffffffffffffffffffffffffffffff160217905550808273ffffffffffffffffffffffffffffffffffffffff16600073ffffffffffffffffffffffffffffffffffffffff167fddf252ad1be2c89b69c2b068fc378daa952ba7f163c4a11628f55a4df523b3ef60405160405180910390a46119d860008383611de7565b5050565b6119e582611362565b611a24576040517f08c379a0000000000000000000000000000000000000000000000000000000008152600401611a1b90613a46565b60405180910390fd5b80600a60008481526020019081526020016000209080519060200190611a4b9291906125f0565b505050565b611a5b838383611e3f565b505050565b6000600b60009054906101000a900473ffffffffffffffffffffffffffffffffffffffff16905081600b60006101000a81548173ffffffffffffffffffffffffffffffffffffffff021916908373ffffffffffffffffffffffffffffffffffffffff1602179055508173ffffffffffffffffffffffffffffffffffffffff168173ffffffffffffffffffffffffffffffffffffffff167f8be0079c531659141344cd1fd0a4f28419497f9722a3daafe3b4186f6b6457e060405160405180910390a35050565b8173ffffffffffffffffffffffffffffffffffffffff168373ffffffffffffffffffffffffffffffffffffffff1603611b94576040517f08c379a0000000000000000000000000000000000000000000000000000000008152600401611b8b90613ab2565b60405180910390fd5b80600560008573ffffffffffffffffffffffffffffffffffffffff1673ffffffffffffffffffffffffffffffffffffffff16815260200190815260200160002060008473ffffffffffffffffffffffffffffffffffffffff1673ffffffffffffffffffffffffffffffffffffffff16815260200190815260200160002060006101000a81548160ff0219169083151502179055508173ffffffffffffffffffffffffffffffffffffffff168373ffffffffffffffffffffffffffffffffffffffff167f17307eab39ab6107e8899845ad3d59bd9653f200f220920489ca2b5937696c3183604051611c859190612747565b60405180910390a3505050565b611c9d84848461156d565b611ca984848484611f51565b611ce8576040517f08c379a0000000000000000000000000000000000000000000000000000000008152600401611cdf90613b44565b60405180910390fd5b50505050565b606060405180602001604052806000815250905090565b60007f80ac58cd000000000000000000000000000000000000000000000000000000007bffffffffffffffffffffffffffffffffffffffffffffffffffffffff1916827bffffffffffffffffffffffffffffffffffffffffffffffffffffffff19161480611dd057507f5b5e139f000000000000000000000000000000000000000000000000000000007bffffffffffffffffffffffffffffffffffffffffffffffffffffffff1916827bffffffffffffffffffffffffffffffffffffffffffffffffffffffff1916145b80611de05750611ddf826120d8565b5b9050919050565b505050565b611df581612142565b6000600a60008381526020019081526020016000208054611e1590612f88565b905014611e3c57600a60008281526020019081526020016000206000611e3b91906125b0565b5b50565b611e4a83838361225f565b600073ffffffffffffffffffffffffffffffffffffffff168373ffffffffffffffffffffffffffffffffffffffff1603611e8c57611e8781612264565b611ecb565b8173ffffffffffffffffffffffffffffffffffffffff168373ffffffffffffffffffffffffffffffffffffffff1614611eca57611ec983826122ad565b5b5b600073ffffffffffffffffffffffffffffffffffffffff168273ffffffffffffffffffffffffffffffffffffffff1603611f0d57611f088161241a565b611f4c565b8273ffffffffffffffffffffffffffffffffffffffff168273ffffffffffffffffffffffffffffffffffffffff1614611f4b57611f4a82826124eb565b5b5b505050565b6000611f728473ffffffffffffffffffffffffffffffffffffffff1661256a565b156120cb578373ffffffffffffffffffffffffffffffffffffffff1663150b7a02611f9b6113ce565b8786866040518563ffffffff1660e01b8152600401611fbd9493929190613bb9565b6020604051808303816000875af1925050508015611ff957506040513d601f19601f82011682018060405250810190611ff69190613c1a565b60015b61207b573d8060008114612029576040519150601f19603f3d011682016040523d82523d6000602084013e61202e565b606091505b506000815103612073576040517f08c379a000000000000000000000000000000000000000000000000000000000815260040161206a90613b44565b60405180910390fd5b805181602001fd5b63150b7a0260e01b7bffffffffffffffffffffffffffffffffffffffffffffffffffffffff1916817bffffffffffffffffffffffffffffffffffffffffffffffffffffffff1916149150506120d0565b600190505b949350505050565b60007f01ffc9a7000000000000000000000000000000000000000000000000000000007bffffffffffffffffffffffffffffffffffffffffffffffffffffffff1916827bffffffffffffffffffffffffffffffffffffffffffffffffffffffff1916149050919050565b600061214d82610d29565b905061215b81600084611a50565b6121666000836113d6565b6001600360008373ffffffffffffffffffffffffffffffffffffffff1673ffffffffffffffffffffffffffffffffffffffff16815260200190815260200160002060008282546121b69190613872565b925050819055506002600083815260200190815260200160002060006101000a81549073ffffffffffffffffffffffffffffffffffffffff021916905581600073ffffffffffffffffffffffffffffffffffffffff168273ffffffffffffffffffffffffffffffffffffffff167fddf252ad1be2c89b69c2b068fc378daa952ba7f163c4a11628f55a4df523b3ef60405160405180910390a461225b81600084611de7565b5050565b505050565b6008805490506009600083815260200190815260200160002081905550600881908060018154018082558091505060019003906000526020600020016000909190919091505550565b600060016122ba84610dda565b6122c49190613872565b90506000600760008481526020019081526020016000205490508181146123a9576000600660008673ffffffffffffffffffffffffffffffffffffffff1673ffffffffffffffffffffffffffffffffffffffff168152602001908152602001600020600084815260200190815260200160002054905080600660008773ffffffffffffffffffffffffffffffffffffffff1673ffffffffffffffffffffffffffffffffffffffff168152602001908152602001600020600084815260200190815260200160002081905550816007600083815260200190815260200160002081905550505b6007600084815260200190815260200160002060009055600660008573ffffffffffffffffffffffffffffffffffffffff1673ffffffffffffffffffffffffffffffffffffffff16815260200190815260200160002060008381526020019081526020016000206000905550505050565b6000600160088054905061242e9190613872565b905060006009600084815260200190815260200160002054905060006008838154811061245e5761245d61304b565b5b9060005260206000200154905080600883815481106124805761247f61304b565b5b9060005260206000200181905550816009600083815260200190815260200160002081905550600960008581526020019081526020016000206000905560088054806124cf576124ce613c47565b5b6001900381819060005260206000200160009055905550505050565b60006124f683610dda565b905081600660008573ffffffffffffffffffffffffffffffffffffffff1673ffffffffffffffffffffffffffffffffffffffff168152602001908152602001600020600083815260200190815260200160002081905550806007600084815260200190815260200160002081905550505050565b6000808273ffffffffffffffffffffffffffffffffffffffff163b119050919050565b604051806060016040528060001515815260200160008152602001606081525090565b5080546125bc90612f88565b6000825580601f106125ce57506125ed565b601f0160209004906000526020600020908101906125ec9190612676565b5b50565b8280546125fc90612f88565b90600052602060002090601f01602090048101928261261e5760008555612665565b82601f1061263757805160ff1916838001178555612665565b82800160010185558215612665579182015b82811115612664578251825591602001919060010190612649565b5b5090506126729190612676565b5090565b5b8082111561268f576000816000905550600101612677565b5090565b6000604051905090565b600080fd5b600080fd5b60007fffffffff0000000000000000000000000000000000000000000000000000000082169050919050565b6126dc816126a7565b81146126e757600080fd5b50565b6000813590506126f9816126d3565b92915050565b6000602082840312156127155761271461269d565b5b6000612723848285016126ea565b91505092915050565b60008115159050919050565b6127418161272c565b82525050565b600060208201905061275c6000830184612738565b92915050565b600081519050919050565b600082825260208201905092915050565b60005b8381101561279c578082015181840152602081019050612781565b838111156127ab576000848401525b50505050565b6000601f19601f8301169050919050565b60006127cd82612762565b6127d7818561276d565b93506127e781856020860161277e565b6127f0816127b1565b840191505092915050565b6000602082019050818103600083015261281581846127c2565b905092915050565b6000819050919050565b6128308161281d565b811461283b57600080fd5b50565b60008135905061284d81612827565b92915050565b6000602082840312156128695761286861269d565b5b60006128778482850161283e565b91505092915050565b600073ffffffffffffffffffffffffffffffffffffffff82169050919050565b60006128ab82612880565b9050919050565b6128bb816128a0565b82525050565b60006020820190506128d660008301846128b2565b92915050565b6128e58161272c565b82525050565b6128f48161281d565b82525050565b600082825260208201905092915050565b600061291682612762565b61292081856128fa565b935061293081856020860161277e565b612939816127b1565b840191505092915050565b600060608301600083015161295c60008601826128dc565b50602083015161296f60208601826128eb565b5060408301518482036040860152612987828261290b565b9150508091505092915050565b600060208201905081810360008301526129ae8184612944565b905092915050565b6129bf816128a0565b81146129ca57600080fd5b50565b6000813590506129dc816129b6565b92915050565b600080604083850312156129f9576129f861269d565b5b6000612a07858286016129cd565b9250506020612a188582860161283e565b9150509250929050565b612a2b8161281d565b82525050565b6000602082019050612a466000830184612a22565b92915050565b600080600060608486031215612a6557612a6461269d565b5b6000612a73868287016129cd565b9350506020612a84868287016129cd565b9250506040612a958682870161283e565b9150509250925092565b6000612aaa82612880565b9050919050565b612aba81612a9f565b8114612ac557600080fd5b50565b600081359050612ad781612ab1565b92915050565b600060208284031215612af357612af261269d565b5b6000612b0184828501612ac8565b91505092915050565b612b138161272c565b8114612b1e57600080fd5b50565b600081359050612b3081612b0a565b92915050565b600080fd5b600080fd5b7f4e487b7100000000000000000000000000000000000000000000000000000000600052604160045260246000fd5b612b78826127b1565b810181811067ffffffffffffffff82111715612b9757612b96612b40565b5b80604052505050565b6000612baa612693565b9050612bb68282612b6f565b919050565b600067ffffffffffffffff821115612bd657612bd5612b40565b5b612bdf826127b1565b9050602081019050919050565b82818337600083830152505050565b6000612c0e612c0984612bbb565b612ba0565b905082815260208101848484011115612c2a57612c29612b3b565b5b612c35848285612bec565b509392505050565b600082601f830112612c5257612c51612b36565b5b8135612c62848260208601612bfb565b91505092915050565b60008060008060808587031215612c8557612c8461269d565b5b6000612c938782880161283e565b9450506020612ca487828801612b21565b9350506040612cb58782880161283e565b925050606085013567ffffffffffffffff811115612cd657612cd56126a2565b5b612ce287828801612c3d565b91505092959194509250565b60008060408385031215612d0557612d0461269d565b5b6000612d13858286016129cd565b925050602083013567ffffffffffffffff811115612d3457612d336126a2565b5b612d4085828601612c3d565b9150509250929050565b600060208284031215612d6057612d5f61269d565b5b6000612d6e848285016129cd565b91505092915050565b6000606082019050612d8c6000830186612738565b612d996020830185612a22565b8181036040830152612dab81846127c2565b9050949350505050565b60008060408385031215612dcc57612dcb61269d565b5b6000612dda858286016129cd565b9250506020612deb85828601612b21565b9150509250929050565b600067ffffffffffffffff821115612e1057612e0f612b40565b5b612e19826127b1565b9050602081019050919050565b6000612e39612e3484612df5565b612ba0565b905082815260208101848484011115612e5557612e54612b3b565b5b612e60848285612bec565b509392505050565b600082601f830112612e7d57612e7c612b36565b5b8135612e8d848260208601612e26565b91505092915050565b60008060008060808587031215612eb057612eaf61269d565b5b6000612ebe878288016129cd565b9450506020612ecf878288016129cd565b9350506040612ee08782880161283e565b925050606085013567ffffffffffffffff811115612f0157612f006126a2565b5b612f0d87828801612e68565b91505092959194509250565b60008060408385031215612f3057612f2f61269d565b5b6000612f3e858286016129cd565b9250506020612f4f858286016129cd565b9150509250929050565b7f4e487b7100000000000000000000000000000000000000000000000000000000600052602260045260246000fd5b60006002820490506001821680612fa057607f821691505b602082108103612fb357612fb2612f59565b5b50919050565b7f4552433732313a20617070726f76656420717565727920666f72206e6f6e657860008201527f697374656e7420746f6b656e0000000000000000000000000000000000000000602082015250565b6000613015602c8361276d565b915061302082612fb9565b604082019050919050565b6000602082019050818103600083015261304481613008565b9050919050565b7f4e487b7100000000000000000000000000000000000000000000000000000000600052603260045260246000fd5b7f4552433732313a20617070726f76616c20746f2063757272656e74206f776e6560008201527f7200000000000000000000000000000000000000000000000000000000000000602082015250565b60006130d660218361276d565b91506130e18261307a565b604082019050919050565b60006020820190508181036000830152613105816130c9565b9050919050565b7f4552433732313a20617070726f76652063616c6c6572206973206e6f74206f7760008201527f6e6572206e6f7220617070726f76656420666f7220616c6c0000000000000000602082015250565b600061316860388361276d565b91506131738261310c565b604082019050919050565b600060208201905081810360008301526131978161315b565b9050919050565b7f4552433732313a207472616e736665722063616c6c6572206973206e6f74206f60008201527f776e6572206e6f7220617070726f766564000000000000000000000000000000602082015250565b60006131fa60318361276d565b91506132058261319e565b604082019050919050565b60006020820190508181036000830152613229816131ed565b9050919050565b7f455243373231456e756d657261626c653a206f776e657220696e646578206f7560008201527f74206f6620626f756e6473000000000000000000000000000000000000000000602082015250565b600061328c602b8361276d565b915061329782613230565b604082019050919050565b600060208201905081810360008301526132bb8161327f565b9050919050565b7f4f776e61626c653a2063616c6c6572206973206e6f7420746865206f776e6572600082015250565b60006132f860208361276d565b9150613303826132c2565b602082019050919050565b60006020820190508181036000830152613327816132eb565b9050919050565b7f636f6c6c656374696f6e206e6565647320746f20626520656d6270747920626560008201527f666f72652064656c6574696f6e00000000000000000000000000000000000000602082015250565b600061338a602d8361276d565b91506133958261332e565b604082019050919050565b600060208201905081810360008301526133b98161337d565b9050919050565b7f455243373231456e756d657261626c653a20676c6f62616c20696e646578206f60008201527f7574206f6620626f756e64730000000000000000000000000000000000000000602082015250565b600061341c602c8361276d565b9150613427826133c0565b604082019050919050565b6000602082019050818103600083015261344b8161340f565b9050919050565b7f4552433732313a206f776e657220717565727920666f72206e6f6e657869737460008201527f656e7420746f6b656e0000000000000000000000000000000000000000000000602082015250565b60006134ae60298361276d565b91506134b982613452565b604082019050919050565b600060208201905081810360008301526134dd816134a1565b9050919050565b7f4552433732313a2062616c616e636520717565727920666f7220746865207a6560008201527f726f206164647265737300000000000000000000000000000000000000000000602082015250565b6000613540602a8361276d565b915061354b826134e4565b604082019050919050565b6000602082019050818103600083015261356f81613533565b9050919050565b600081905092915050565b600061358c82612762565b6135968185613576565b93506135a681856020860161277e565b80840191505092915050565b6000819050919050565b6135cd6135c88261281d565b6135b2565b82525050565b60006135df8285613581565b91506135eb82846135bc565b6020820191508190509392505050565b7f4f776e61626c653a206e6577206f776e657220697320746865207a65726f206160008201527f6464726573730000000000000000000000000000000000000000000000000000602082015250565b600061365760268361276d565b9150613662826135fb565b604082019050919050565b600060208201905081810360008301526136868161364a565b9050919050565b7f4552433732313a206f70657261746f7220717565727920666f72206e6f6e657860008201527f697374656e7420746f6b656e0000000000000000000000000000000000000000602082015250565b60006136e9602c8361276d565b91506136f48261368d565b604082019050919050565b60006020820190508181036000830152613718816136dc565b9050919050565b7f4552433732313a207472616e736665722066726f6d20696e636f72726563742060008201527f6f776e6572000000000000000000000000000000000000000000000000000000602082015250565b600061377b60258361276d565b91506137868261371f565b604082019050919050565b600060208201905081810360008301526137aa8161376e565b9050919050565b7f4552433732313a207472616e7366657220746f20746865207a65726f2061646460008201527f7265737300000000000000000000000000000000000000000000000000000000602082015250565b600061380d60248361276d565b9150613818826137b1565b604082019050919050565b6000602082019050818103600083015261383c81613800565b9050919050565b7f4e487b7100000000000000000000000000000000000000000000000000000000600052601160045260246000fd5b600061387d8261281d565b91506138888361281d565b92508282101561389b5761389a613843565b5b828203905092915050565b60006138b18261281d565b91506138bc8361281d565b9250827fffffffffffffffffffffffffffffffffffffffffffffffffffffffffffffffff038211156138f1576138f0613843565b5b828201905092915050565b7f4552433732313a206d696e7420746f20746865207a65726f2061646472657373600082015250565b600061393260208361276d565b915061393d826138fc565b602082019050919050565b6000602082019050818103600083015261396181613925565b9050919050565b7f4552433732313a20746f6b656e20616c7265616479206d696e74656400000000600082015250565b600061399e601c8361276d565b91506139a982613968565b602082019050919050565b600060208201905081810360008301526139cd81613991565b9050919050565b7f45524337323155524953746f726167653a2055524920736574206f66206e6f6e60008201527f6578697374656e7420746f6b656e000000000000000000000000000000000000602082015250565b6000613a30602e8361276d565b9150613a3b826139d4565b604082019050919050565b60006020820190508181036000830152613a5f81613a23565b9050919050565b7f4552433732313a20617070726f766520746f2063616c6c657200000000000000600082015250565b6000613a9c60198361276d565b9150613aa782613a66565b602082019050919050565b60006020820190508181036000830152613acb81613a8f565b9050919050565b7f4552433732313a207472616e7366657220746f206e6f6e20455243373231526560008201527f63656976657220696d706c656d656e7465720000000000000000000000000000602082015250565b6000613b2e60328361276d565b9150613b3982613ad2565b604082019050919050565b60006020820190508181036000830152613b5d81613b21565b9050919050565b600081519050919050565b600082825260208201905092915050565b6000613b8b82613b64565b613b958185613b6f565b9350613ba581856020860161277e565b613bae816127b1565b840191505092915050565b6000608082019050613bce60008301876128b2565b613bdb60208301866128b2565b613be86040830185612a22565b8181036060830152613bfa8184613b80565b905095945050505050565b600081519050613c14816126d3565b92915050565b600060208284031215613c3057613c2f61269d565b5b6000613c3e84828501613c05565b91505092915050565b7f4e487b7100000000000000000000000000000000000000000000000000000000600052603160045260246000fdfea26469706673582212207297917cf9684a72762aaa1e62668438c8f8331d13ced82459f87d687710dc3864736f6c634300080d0033a264697066735822122096aaa5bf6d62aeb5213e4cc0b6a9beb887c57deadd312714027f529d54bc938064736f6c634300080d0033",
  "immutableReferences": {},
  "source": "// SPDX-License-Identifier: MIT\npragma solidity 0.8.13;\n\n// importing the ERC-721 contract to deploy for a collection\nimport \"./NftCollection.sol\";\n\n/** \n  * @notice Give the ability to deploy a contract to manage ERC-721 tokens for a collection.\n  * @dev    If the contract is already deployed for an _collectionName, it will revert.\n  */\ncontract NftCollectionFactory{\n\n    event NftCollectionCreated(bytes32 indexed _collectionName, address indexed _collectionAddress, uint _timestamp, address indexed _creator, string _tokenURI);\n\n    address[] public collections;\n\n    /**\n      * @notice Deploy the ERC-721 Collection contract of the artist caller to be able to create NFTs later\n      *\n      * @return collectionAddress the address of the created collection contract\n      */\n    function createNFTCollection(string memory _collectionName, string memory _collectionSymbol, string memory _tokenURI) external returns (address collectionAddress) {\n        // Import the bytecode of the contract to deploy\n        bytes memory collectionBytecode = getCreationBytecode(_collectionName, _collectionSymbol);\n\t\t\t\t// Make a random salt based on the _collectionName\n        bytes32 salt = keccak256(abi.encodePacked(_collectionName));\n\n        assembly {\n            collectionAddress := create2(0, add(collectionBytecode, 0x20), mload(collectionBytecode), salt)\n            if iszero(extcodesize(collectionAddress)) {\n                // revert if something gone wrong (collectionAddress doesn't contain an address)\n                revert(0, 0)\n            }\n        }\n\n        collections.push(collectionAddress);\n\n        // Initialize the collection contract with the collection ist settings\n        //NftCollection(collectionAddress).mintCollection(msg.sender, _tokenURI);\n        bytes32 _collectionNameInBytes32 = bytes32(bytes(_collectionName));\n\n        emit NftCollectionCreated(_collectionNameInBytes32, collectionAddress, block.timestamp, msg.sender, _tokenURI);\n    }\n\n    function getCreationBytecode(string memory _collectionName, string memory _collectionSymbol) public pure returns (bytes memory) {\n      bytes memory collectionBytecode = type(NftCollection).creationCode;\n\n      return abi.encodePacked(collectionBytecode, abi.encode(_collectionName, _collectionSymbol));\n    }\n\n    function deleteCollection(uint _index ) external {\n      require(_index < collections.length, \"Il n y a pas de collection pour cet index\");\n      NftCollection _collectionAddress = NftCollection(collections[_index]);\n      _collectionAddress.destroySmartContract(payable(msg.sender));\n      delete collections[_index];\n    }\n}\n",
  "sourcePath": "/home/pierre/Projets/Alyra/Projet_5/contracts/NftCollectionFactory.sol",
  "compiler": {
    "name": "solc",
    "version": "0.8.13+commit.abaa5c0e.Emscripten.clang"
  },
  "schemaVersion": "3.4.6",
  "updatedAt": "2022-05-15T00:12:49.713Z",
  "networkType": "ethereum",
  "devdoc": {
    "details": "If the contract is already deployed for an _collectionName, it will revert.",
    "kind": "dev",
    "methods": {
      "createNFTCollection(string,string,string)": {
        "returns": {
          "collectionAddress": "the address of the created collection contract"
        }
      }
    },
    "version": 1
  },
  "userdoc": {
    "kind": "user",
    "methods": {
      "createNFTCollection(string,string,string)": {
        "notice": "Deploy the ERC-721 Collection contract of the artist caller to be able to create NFTs later"
      }
    },
    "notice": "Give the ability to deploy a contract to manage ERC-721 tokens for a collection.",
    "version": 1
  }
}