{
  "contractName": "NftCollection",
  "abi": [
    {
      "inputs": [],
      "stateMutability": "nonpayable",
      "type": "constructor"
    },
    {
      "anonymous": false,
      "inputs": [
        {
          "indexed": true,
          "internalType": "address",
          "name": "owner",
          "type": "address"
        },
        {
          "indexed": true,
          "internalType": "address",
          "name": "approved",
          "type": "address"
        },
        {
          "indexed": true,
          "internalType": "uint256",
          "name": "tokenId",
          "type": "uint256"
        }
      ],
      "name": "Approval",
      "type": "event"
    },
    {
      "anonymous": false,
      "inputs": [
        {
          "indexed": true,
          "internalType": "address",
          "name": "owner",
          "type": "address"
        },
        {
          "indexed": true,
          "internalType": "address",
          "name": "operator",
          "type": "address"
        },
        {
          "indexed": false,
          "internalType": "bool",
          "name": "approved",
          "type": "bool"
        }
      ],
      "name": "ApprovalForAll",
      "type": "event"
    },
    {
      "anonymous": false,
      "inputs": [
        {
          "indexed": true,
          "internalType": "address",
          "name": "previousOwner",
          "type": "address"
        },
        {
          "indexed": true,
          "internalType": "address",
          "name": "newOwner",
          "type": "address"
        }
      ],
      "name": "OwnershipTransferred",
      "type": "event"
    },
    {
      "anonymous": false,
      "inputs": [
        {
          "indexed": true,
          "internalType": "address",
          "name": "from",
          "type": "address"
        },
        {
          "indexed": true,
          "internalType": "address",
          "name": "to",
          "type": "address"
        },
        {
          "indexed": true,
          "internalType": "uint256",
          "name": "tokenId",
          "type": "uint256"
        }
      ],
      "name": "Transfer",
      "type": "event"
    },
    {
      "inputs": [
        {
          "internalType": "address",
          "name": "to",
          "type": "address"
        },
        {
          "internalType": "uint256",
          "name": "tokenId",
          "type": "uint256"
        }
      ],
      "name": "approve",
      "outputs": [],
      "stateMutability": "nonpayable",
      "type": "function"
    },
    {
      "inputs": [
        {
          "internalType": "address",
          "name": "owner",
          "type": "address"
        }
      ],
      "name": "balanceOf",
      "outputs": [
        {
          "internalType": "uint256",
          "name": "",
          "type": "uint256"
        }
      ],
      "stateMutability": "view",
      "type": "function"
    },
    {
      "inputs": [],
      "name": "baseURI",
      "outputs": [
        {
          "internalType": "string",
          "name": "",
          "type": "string"
        }
      ],
      "stateMutability": "view",
      "type": "function"
    },
    {
      "inputs": [
        {
          "internalType": "uint256",
          "name": "tokenId",
          "type": "uint256"
        }
      ],
      "name": "getApproved",
      "outputs": [
        {
          "internalType": "address",
          "name": "",
          "type": "address"
        }
      ],
      "stateMutability": "view",
      "type": "function"
    },
    {
      "inputs": [
        {
          "internalType": "address",
          "name": "owner",
          "type": "address"
        },
        {
          "internalType": "address",
          "name": "operator",
          "type": "address"
        }
      ],
      "name": "isApprovedForAll",
      "outputs": [
        {
          "internalType": "bool",
          "name": "",
          "type": "bool"
        }
      ],
      "stateMutability": "view",
      "type": "function"
    },
    {
      "inputs": [],
      "name": "name",
      "outputs": [
        {
          "internalType": "string",
          "name": "",
          "type": "string"
        }
      ],
      "stateMutability": "view",
      "type": "function"
    },
    {
      "inputs": [],
      "name": "owner",
      "outputs": [
        {
          "internalType": "address",
          "name": "",
          "type": "address"
        }
      ],
      "stateMutability": "view",
      "type": "function"
    },
    {
      "inputs": [
        {
          "internalType": "uint256",
          "name": "tokenId",
          "type": "uint256"
        }
      ],
      "name": "ownerOf",
      "outputs": [
        {
          "internalType": "address",
          "name": "",
          "type": "address"
        }
      ],
      "stateMutability": "view",
      "type": "function"
    },
    {
      "inputs": [],
      "name": "renounceOwnership",
      "outputs": [],
      "stateMutability": "nonpayable",
      "type": "function"
    },
    {
      "inputs": [
        {
          "internalType": "address",
          "name": "from",
          "type": "address"
        },
        {
          "internalType": "address",
          "name": "to",
          "type": "address"
        },
        {
          "internalType": "uint256",
          "name": "tokenId",
          "type": "uint256"
        }
      ],
      "name": "safeTransferFrom",
      "outputs": [],
      "stateMutability": "nonpayable",
      "type": "function"
    },
    {
      "inputs": [
        {
          "internalType": "address",
          "name": "from",
          "type": "address"
        },
        {
          "internalType": "address",
          "name": "to",
          "type": "address"
        },
        {
          "internalType": "uint256",
          "name": "tokenId",
          "type": "uint256"
        },
        {
          "internalType": "bytes",
          "name": "_data",
          "type": "bytes"
        }
      ],
      "name": "safeTransferFrom",
      "outputs": [],
      "stateMutability": "nonpayable",
      "type": "function"
    },
    {
      "inputs": [
        {
          "internalType": "address",
          "name": "operator",
          "type": "address"
        },
        {
          "internalType": "bool",
          "name": "approved",
          "type": "bool"
        }
      ],
      "name": "setApprovalForAll",
      "outputs": [],
      "stateMutability": "nonpayable",
      "type": "function"
    },
    {
      "inputs": [],
      "name": "symbol",
      "outputs": [
        {
          "internalType": "string",
          "name": "",
          "type": "string"
        }
      ],
      "stateMutability": "view",
      "type": "function"
    },
    {
      "inputs": [
        {
          "internalType": "uint256",
          "name": "index",
          "type": "uint256"
        }
      ],
      "name": "tokenByIndex",
      "outputs": [
        {
          "internalType": "uint256",
          "name": "",
          "type": "uint256"
        }
      ],
      "stateMutability": "view",
      "type": "function"
    },
    {
      "inputs": [
        {
          "internalType": "address",
          "name": "owner",
          "type": "address"
        },
        {
          "internalType": "uint256",
          "name": "index",
          "type": "uint256"
        }
      ],
      "name": "tokenOfOwnerByIndex",
      "outputs": [
        {
          "internalType": "uint256",
          "name": "",
          "type": "uint256"
        }
      ],
      "stateMutability": "view",
      "type": "function"
    },
    {
      "inputs": [],
      "name": "totalSupply",
      "outputs": [
        {
          "internalType": "uint256",
          "name": "",
          "type": "uint256"
        }
      ],
      "stateMutability": "view",
      "type": "function"
    },
    {
      "inputs": [
        {
          "internalType": "address",
          "name": "from",
          "type": "address"
        },
        {
          "internalType": "address",
          "name": "to",
          "type": "address"
        },
        {
          "internalType": "uint256",
          "name": "tokenId",
          "type": "uint256"
        }
      ],
      "name": "transferFrom",
      "outputs": [],
      "stateMutability": "nonpayable",
      "type": "function"
    },
    {
      "inputs": [
        {
          "internalType": "address",
          "name": "newOwner",
          "type": "address"
        }
      ],
      "name": "transferOwnership",
      "outputs": [],
      "stateMutability": "nonpayable",
      "type": "function"
    },
    {
      "inputs": [
        {
          "internalType": "address",
          "name": "_owner",
          "type": "address"
        },
        {
          "internalType": "string",
          "name": "_tokenURI",
          "type": "string"
        }
      ],
      "name": "mintCollection",
      "outputs": [
        {
          "internalType": "uint256",
          "name": "",
          "type": "uint256"
        }
      ],
      "stateMutability": "nonpayable",
      "type": "function"
    },
    {
      "inputs": [
        {
          "internalType": "uint256",
          "name": "_tokenURI",
          "type": "uint256"
        }
      ],
      "name": "tokenURI",
      "outputs": [
        {
          "internalType": "string",
          "name": "",
          "type": "string"
        }
      ],
      "stateMutability": "pure",
      "type": "function"
    },
    {
      "inputs": [
        {
          "internalType": "bytes4",
          "name": "interfaceId",
          "type": "bytes4"
        }
      ],
      "name": "supportsInterface",
      "outputs": [
        {
          "internalType": "bool",
          "name": "",
          "type": "bool"
        }
      ],
      "stateMutability": "view",
      "type": "function"
    },
    {
      "inputs": [
        {
          "internalType": "contract Nft",
          "name": "nft",
          "type": "address"
        }
      ],
      "name": "addNft",
      "outputs": [],
      "stateMutability": "nonpayable",
      "type": "function"
    },
    {
      "inputs": [
        {
          "internalType": "contract Nft",
          "name": "nft",
          "type": "address"
        }
      ],
      "name": "removeNft",
      "outputs": [],
      "stateMutability": "nonpayable",
      "type": "function"
    }
  ],
  "bytecode": "0x60806040523480156200001157600080fd5b506040518060400160405280600381526020017f4e467400000000000000000000000000000000000000000000000000000000008152506040518060400160405280600781526020017f4e46545f46504d00000000000000000000000000000000000000000000000000815250816000908051906020019062000096929190620001a6565b508060019080519060200190620000af929190620001a6565b505050620000d2620000c6620000d860201b60201c565b620000e060201b60201c565b620002ba565b600033905090565b6000600b60009054906101000a900473ffffffffffffffffffffffffffffffffffffffff16905081600b60006101000a81548173ffffffffffffffffffffffffffffffffffffffff021916908373ffffffffffffffffffffffffffffffffffffffff1602179055508173ffffffffffffffffffffffffffffffffffffffff168173ffffffffffffffffffffffffffffffffffffffff167f8be0079c531659141344cd1fd0a4f28419497f9722a3daafe3b4186f6b6457e060405160405180910390a35050565b828054620001b49062000285565b90600052602060002090601f016020900481019282620001d8576000855562000224565b82601f10620001f357805160ff191683800117855562000224565b8280016001018555821562000224579182015b828111156200022357825182559160200191906001019062000206565b5b50905062000233919062000237565b5090565b5b808211156200025257600081600090555060010162000238565b5090565b7f4e487b7100000000000000000000000000000000000000000000000000000000600052602260045260246000fd5b600060028204905060018216806200029e57607f821691505b602082108103620002b457620002b362000256565b5b50919050565b6136d680620002ca6000396000f3fe608060405234801561001057600080fd5b506004361061014d5760003560e01c806354d95d5d116100c357806395d89b411161007c57806395d89b41146103b0578063a22cb465146103ce578063b88d4fde146103ea578063c87b56dd14610406578063e985e9c514610436578063f2fde38b146104665761014d565b806354d95d5d146102da5780636352211e1461030a5780636c0360eb1461033a57806370a0823114610358578063715018a6146103885780638da5cb5b146103925761014d565b806318160ddd1161011557806318160ddd1461020857806323b872dd146102265780632f745c591461024257806342842e0e14610272578063447a91fd1461028e5780634f6ccce7146102aa5761014d565b806301ffc9a71461015257806306fdde0314610182578063081812fc146101a0578063095ea7b3146101d057806312d98f24146101ec575b600080fd5b61016c60048036038101906101679190612273565b610482565b60405161017991906122bb565b60405180910390f35b61018a610494565b604051610197919061236f565b60405180910390f35b6101ba60048036038101906101b591906123c7565b610526565b6040516101c79190612435565b60405180910390f35b6101ea60048036038101906101e5919061247c565b6105ab565b005b610206600480360381019061020191906124fa565b6106c2565b005b61021061081c565b60405161021d9190612536565b60405180910390f35b610240600480360381019061023b9190612551565b610829565b005b61025c6004803603810190610257919061247c565b610889565b6040516102699190612536565b60405180910390f35b61028c60048036038101906102879190612551565b61092e565b005b6102a860048036038101906102a391906124fa565b61094e565b005b6102c460048036038101906102bf91906123c7565b610a9b565b6040516102d19190612536565b60405180910390f35b6102f460048036038101906102ef91906126d9565b610b0c565b6040516103019190612536565b60405180910390f35b610324600480360381019061031f91906123c7565b610b44565b6040516103319190612435565b60405180910390f35b610342610bf5565b60405161034f919061236f565b60405180910390f35b610372600480360381019061036d9190612735565b610c11565b60405161037f9190612536565b60405180910390f35b610390610cc8565b005b61039a610d50565b6040516103a79190612435565b60405180910390f35b6103b8610d7a565b6040516103c5919061236f565b60405180910390f35b6103e860048036038101906103e3919061278e565b610e0c565b005b61040460048036038101906103ff919061286f565b610e22565b005b610420600480360381019061041b91906123c7565b610e84565b60405161042d919061236f565b60405180910390f35b610450600480360381019061044b91906128f2565b610ec7565b60405161045d91906122bb565b60405180910390f35b610480600480360381019061047b9190612735565b610f5b565b005b600061048d82611052565b9050919050565b6060600080546104a390612961565b80601f01602080910402602001604051908101604052809291908181526020018280546104cf90612961565b801561051c5780601f106104f15761010080835404028352916020019161051c565b820191906000526020600020905b8154815290600101906020018083116104ff57829003601f168201915b5050505050905090565b6000610531826110cc565b610570576040517f08c379a000000000000000000000000000000000000000000000000000000000815260040161056790612a04565b60405180910390fd5b6004600083815260200190815260200160002060009054906101000a900473ffffffffffffffffffffffffffffffffffffffff169050919050565b60006105b682610b44565b90508073ffffffffffffffffffffffffffffffffffffffff168373ffffffffffffffffffffffffffffffffffffffff1603610626576040517f08c379a000000000000000000000000000000000000000000000000000000000815260040161061d90612a96565b60405180910390fd5b8073ffffffffffffffffffffffffffffffffffffffff16610645611138565b73ffffffffffffffffffffffffffffffffffffffff16148061067457506106738161066e611138565b610ec7565b5b6106b3576040517f08c379a00000000000000000000000000000000000000000000000000000000081526004016106aa90612b28565b60405180910390fd5b6106bd8383611140565b505050565b6106ca611138565b73ffffffffffffffffffffffffffffffffffffffff166106e8610d50565b73ffffffffffffffffffffffffffffffffffffffff161461073e576040517f08c379a000000000000000000000000000000000000000000000000000000000815260040161073590612b94565b60405180910390fd5b60005b600d80549050811015610818578173ffffffffffffffffffffffffffffffffffffffff16600d828154811061077957610778612bb4565b5b9060005260206000200160009054906101000a900473ffffffffffffffffffffffffffffffffffffffff1673ffffffffffffffffffffffffffffffffffffffff160361080557600d81815481106107d3576107d2612bb4565b5b9060005260206000200160006101000a81549073ffffffffffffffffffffffffffffffffffffffff0219169055610818565b808061081090612c12565b915050610741565b5050565b6000600880549050905090565b61083a610834611138565b826111f9565b610879576040517f08c379a000000000000000000000000000000000000000000000000000000000815260040161087090612ccc565b60405180910390fd5b6108848383836112d7565b505050565b600061089483610c11565b82106108d5576040517f08c379a00000000000000000000000000000000000000000000000000000000081526004016108cc90612d5e565b60405180910390fd5b600660008473ffffffffffffffffffffffffffffffffffffffff1673ffffffffffffffffffffffffffffffffffffffff168152602001908152602001600020600083815260200190815260200160002054905092915050565b61094983838360405180602001604052806000815250610e22565b505050565b610956611138565b73ffffffffffffffffffffffffffffffffffffffff16610974610d50565b73ffffffffffffffffffffffffffffffffffffffff16146109ca576040517f08c379a00000000000000000000000000000000000000000000000000000000081526004016109c190612b94565b60405180910390fd5b8073ffffffffffffffffffffffffffffffffffffffff1663768b5fd5306040518263ffffffff1660e01b8152600401610a039190612ddd565b600060405180830381600087803b158015610a1d57600080fd5b505af1158015610a31573d6000803e3d6000fd5b50505050600d819080600181540180825580915050600190039060005260206000200160009091909190916101000a81548173ffffffffffffffffffffffffffffffffffffffff021916908373ffffffffffffffffffffffffffffffffffffffff16021790555050565b6000610aa561081c565b8210610ae6576040517f08c379a0000000000000000000000000000000000000000000000000000000008152600401610add90612e6a565b60405180910390fd5b60088281548110610afa57610af9612bb4565b5b90600052602060002001549050919050565b6000610b18600c61153d565b6000610b24600c611553565b9050610b308482611561565b610b3a818461173a565b8091505092915050565b6000806002600084815260200190815260200160002060009054906101000a900473ffffffffffffffffffffffffffffffffffffffff169050600073ffffffffffffffffffffffffffffffffffffffff168173ffffffffffffffffffffffffffffffffffffffff1603610bec576040517f08c379a0000000000000000000000000000000000000000000000000000000008152600401610be390612efc565b60405180910390fd5b80915050919050565b6040518060600160405280602181526020016136806021913981565b60008073ffffffffffffffffffffffffffffffffffffffff168273ffffffffffffffffffffffffffffffffffffffff1603610c81576040517f08c379a0000000000000000000000000000000000000000000000000000000008152600401610c7890612f8e565b60405180910390fd5b600360008373ffffffffffffffffffffffffffffffffffffffff1673ffffffffffffffffffffffffffffffffffffffff168152602001908152602001600020549050919050565b610cd0611138565b73ffffffffffffffffffffffffffffffffffffffff16610cee610d50565b73ffffffffffffffffffffffffffffffffffffffff1614610d44576040517f08c379a0000000000000000000000000000000000000000000000000000000008152600401610d3b90612b94565b60405180910390fd5b610d4e60006117ae565b565b6000600b60009054906101000a900473ffffffffffffffffffffffffffffffffffffffff16905090565b606060018054610d8990612961565b80601f0160208091040260200160405190810160405280929190818152602001828054610db590612961565b8015610e025780601f10610dd757610100808354040283529160200191610e02565b820191906000526020600020905b815481529060010190602001808311610de557829003601f168201915b5050505050905090565b610e1e610e17611138565b8383611874565b5050565b610e33610e2d611138565b836111f9565b610e72576040517f08c379a0000000000000000000000000000000000000000000000000000000008152600401610e6990612ccc565b60405180910390fd5b610e7e848484846119e0565b50505050565b60606040518060600160405280602181526020016136806021913982604051602001610eb192919061300b565b6040516020818303038152906040529050919050565b6000600560008473ffffffffffffffffffffffffffffffffffffffff1673ffffffffffffffffffffffffffffffffffffffff16815260200190815260200160002060008373ffffffffffffffffffffffffffffffffffffffff1673ffffffffffffffffffffffffffffffffffffffff16815260200190815260200160002060009054906101000a900460ff16905092915050565b610f63611138565b73ffffffffffffffffffffffffffffffffffffffff16610f81610d50565b73ffffffffffffffffffffffffffffffffffffffff1614610fd7576040517f08c379a0000000000000000000000000000000000000000000000000000000008152600401610fce90612b94565b60405180910390fd5b600073ffffffffffffffffffffffffffffffffffffffff168173ffffffffffffffffffffffffffffffffffffffff1603611046576040517f08c379a000000000000000000000000000000000000000000000000000000000815260040161103d906130a5565b60405180910390fd5b61104f816117ae565b50565b60007f780e9d63000000000000000000000000000000000000000000000000000000007bffffffffffffffffffffffffffffffffffffffffffffffffffffffff1916827bffffffffffffffffffffffffffffffffffffffffffffffffffffffff191614806110c557506110c482611a3c565b5b9050919050565b60008073ffffffffffffffffffffffffffffffffffffffff166002600084815260200190815260200160002060009054906101000a900473ffffffffffffffffffffffffffffffffffffffff1673ffffffffffffffffffffffffffffffffffffffff1614159050919050565b600033905090565b816004600083815260200190815260200160002060006101000a81548173ffffffffffffffffffffffffffffffffffffffff021916908373ffffffffffffffffffffffffffffffffffffffff160217905550808273ffffffffffffffffffffffffffffffffffffffff166111b383610b44565b73ffffffffffffffffffffffffffffffffffffffff167f8c5be1e5ebec7d5bd14f71427d1e84f3dd0314c0f7b2291e5b200ac8c7c3b92560405160405180910390a45050565b6000611204826110cc565b611243576040517f08c379a000000000000000000000000000000000000000000000000000000000815260040161123a90613137565b60405180910390fd5b600061124e83610b44565b90508073ffffffffffffffffffffffffffffffffffffffff168473ffffffffffffffffffffffffffffffffffffffff161480611290575061128f8185610ec7565b5b806112ce57508373ffffffffffffffffffffffffffffffffffffffff166112b684610526565b73ffffffffffffffffffffffffffffffffffffffff16145b91505092915050565b8273ffffffffffffffffffffffffffffffffffffffff166112f782610b44565b73ffffffffffffffffffffffffffffffffffffffff161461134d576040517f08c379a0000000000000000000000000000000000000000000000000000000008152600401611344906131c9565b60405180910390fd5b600073ffffffffffffffffffffffffffffffffffffffff168273ffffffffffffffffffffffffffffffffffffffff16036113bc576040517f08c379a00000000000000000000000000000000000000000000000000000000081526004016113b39061325b565b60405180910390fd5b6113c7838383611b1e565b6113d2600082611140565b6001600360008573ffffffffffffffffffffffffffffffffffffffff1673ffffffffffffffffffffffffffffffffffffffff1681526020019081526020016000206000828254611422919061327b565b925050819055506001600360008473ffffffffffffffffffffffffffffffffffffffff1673ffffffffffffffffffffffffffffffffffffffff168152602001908152602001600020600082825461147991906132af565b92505081905550816002600083815260200190815260200160002060006101000a81548173ffffffffffffffffffffffffffffffffffffffff021916908373ffffffffffffffffffffffffffffffffffffffff160217905550808273ffffffffffffffffffffffffffffffffffffffff168473ffffffffffffffffffffffffffffffffffffffff167fddf252ad1be2c89b69c2b068fc378daa952ba7f163c4a11628f55a4df523b3ef60405160405180910390a4611538838383611b2e565b505050565b6001816000016000828254019250508190555050565b600081600001549050919050565b600073ffffffffffffffffffffffffffffffffffffffff168273ffffffffffffffffffffffffffffffffffffffff16036115d0576040517f08c379a00000000000000000000000000000000000000000000000000000000081526004016115c790613351565b60405180910390fd5b6115d9816110cc565b15611619576040517f08c379a0000000000000000000000000000000000000000000000000000000008152600401611610906133bd565b60405180910390fd5b61162560008383611b1e565b6001600360008473ffffffffffffffffffffffffffffffffffffffff1673ffffffffffffffffffffffffffffffffffffffff168152602001908152602001600020600082825461167591906132af565b92505081905550816002600083815260200190815260200160002060006101000a81548173ffffffffffffffffffffffffffffffffffffffff021916908373ffffffffffffffffffffffffffffffffffffffff160217905550808273ffffffffffffffffffffffffffffffffffffffff16600073ffffffffffffffffffffffffffffffffffffffff167fddf252ad1be2c89b69c2b068fc378daa952ba7f163c4a11628f55a4df523b3ef60405160405180910390a461173660008383611b2e565b5050565b611743826110cc565b611782576040517f08c379a00000000000000000000000000000000000000000000000000000000081526004016117799061344f565b60405180910390fd5b80600a600084815260200190815260200160002090805190602001906117a9929190612164565b505050565b6000600b60009054906101000a900473ffffffffffffffffffffffffffffffffffffffff16905081600b60006101000a81548173ffffffffffffffffffffffffffffffffffffffff021916908373ffffffffffffffffffffffffffffffffffffffff1602179055508173ffffffffffffffffffffffffffffffffffffffff168173ffffffffffffffffffffffffffffffffffffffff167f8be0079c531659141344cd1fd0a4f28419497f9722a3daafe3b4186f6b6457e060405160405180910390a35050565b8173ffffffffffffffffffffffffffffffffffffffff168373ffffffffffffffffffffffffffffffffffffffff16036118e2576040517f08c379a00000000000000000000000000000000000000000000000000000000081526004016118d9906134bb565b60405180910390fd5b80600560008573ffffffffffffffffffffffffffffffffffffffff1673ffffffffffffffffffffffffffffffffffffffff16815260200190815260200160002060008473ffffffffffffffffffffffffffffffffffffffff1673ffffffffffffffffffffffffffffffffffffffff16815260200190815260200160002060006101000a81548160ff0219169083151502179055508173ffffffffffffffffffffffffffffffffffffffff168373ffffffffffffffffffffffffffffffffffffffff167f17307eab39ab6107e8899845ad3d59bd9653f200f220920489ca2b5937696c31836040516119d391906122bb565b60405180910390a3505050565b6119eb8484846112d7565b6119f784848484611b33565b611a36576040517f08c379a0000000000000000000000000000000000000000000000000000000008152600401611a2d9061354d565b60405180910390fd5b50505050565b60007f80ac58cd000000000000000000000000000000000000000000000000000000007bffffffffffffffffffffffffffffffffffffffffffffffffffffffff1916827bffffffffffffffffffffffffffffffffffffffffffffffffffffffff19161480611b0757507f5b5e139f000000000000000000000000000000000000000000000000000000007bffffffffffffffffffffffffffffffffffffffffffffffffffffffff1916827bffffffffffffffffffffffffffffffffffffffffffffffffffffffff1916145b80611b175750611b1682611cba565b5b9050919050565b611b29838383611d24565b505050565b505050565b6000611b548473ffffffffffffffffffffffffffffffffffffffff16611e36565b15611cad578373ffffffffffffffffffffffffffffffffffffffff1663150b7a02611b7d611138565b8786866040518563ffffffff1660e01b8152600401611b9f94939291906135c2565b6020604051808303816000875af1925050508015611bdb57506040513d601f19601f82011682018060405250810190611bd89190613623565b60015b611c5d573d8060008114611c0b576040519150601f19603f3d011682016040523d82523d6000602084013e611c10565b606091505b506000815103611c55576040517f08c379a0000000000000000000000000000000000000000000000000000000008152600401611c4c9061354d565b60405180910390fd5b805181602001fd5b63150b7a0260e01b7bffffffffffffffffffffffffffffffffffffffffffffffffffffffff1916817bffffffffffffffffffffffffffffffffffffffffffffffffffffffff191614915050611cb2565b600190505b949350505050565b60007f01ffc9a7000000000000000000000000000000000000000000000000000000007bffffffffffffffffffffffffffffffffffffffffffffffffffffffff1916827bffffffffffffffffffffffffffffffffffffffffffffffffffffffff1916149050919050565b611d2f838383611e59565b600073ffffffffffffffffffffffffffffffffffffffff168373ffffffffffffffffffffffffffffffffffffffff1603611d7157611d6c81611e5e565b611db0565b8173ffffffffffffffffffffffffffffffffffffffff168373ffffffffffffffffffffffffffffffffffffffff1614611daf57611dae8382611ea7565b5b5b600073ffffffffffffffffffffffffffffffffffffffff168273ffffffffffffffffffffffffffffffffffffffff1603611df257611ded81612014565b611e31565b8273ffffffffffffffffffffffffffffffffffffffff168273ffffffffffffffffffffffffffffffffffffffff1614611e3057611e2f82826120e5565b5b5b505050565b6000808273ffffffffffffffffffffffffffffffffffffffff163b119050919050565b505050565b6008805490506009600083815260200190815260200160002081905550600881908060018154018082558091505060019003906000526020600020016000909190919091505550565b60006001611eb484610c11565b611ebe919061327b565b9050600060076000848152602001908152602001600020549050818114611fa3576000600660008673ffffffffffffffffffffffffffffffffffffffff1673ffffffffffffffffffffffffffffffffffffffff168152602001908152602001600020600084815260200190815260200160002054905080600660008773ffffffffffffffffffffffffffffffffffffffff1673ffffffffffffffffffffffffffffffffffffffff168152602001908152602001600020600084815260200190815260200160002081905550816007600083815260200190815260200160002081905550505b6007600084815260200190815260200160002060009055600660008573ffffffffffffffffffffffffffffffffffffffff1673ffffffffffffffffffffffffffffffffffffffff16815260200190815260200160002060008381526020019081526020016000206000905550505050565b60006001600880549050612028919061327b565b905060006009600084815260200190815260200160002054905060006008838154811061205857612057612bb4565b5b90600052602060002001549050806008838154811061207a57612079612bb4565b5b9060005260206000200181905550816009600083815260200190815260200160002081905550600960008581526020019081526020016000206000905560088054806120c9576120c8613650565b5b6001900381819060005260206000200160009055905550505050565b60006120f083610c11565b905081600660008573ffffffffffffffffffffffffffffffffffffffff1673ffffffffffffffffffffffffffffffffffffffff168152602001908152602001600020600083815260200190815260200160002081905550806007600084815260200190815260200160002081905550505050565b82805461217090612961565b90600052602060002090601f01602090048101928261219257600085556121d9565b82601f106121ab57805160ff19168380011785556121d9565b828001600101855582156121d9579182015b828111156121d85782518255916020019190600101906121bd565b5b5090506121e691906121ea565b5090565b5b808211156122035760008160009055506001016121eb565b5090565b6000604051905090565b600080fd5b600080fd5b60007fffffffff0000000000000000000000000000000000000000000000000000000082169050919050565b6122508161221b565b811461225b57600080fd5b50565b60008135905061226d81612247565b92915050565b60006020828403121561228957612288612211565b5b60006122978482850161225e565b91505092915050565b60008115159050919050565b6122b5816122a0565b82525050565b60006020820190506122d060008301846122ac565b92915050565b600081519050919050565b600082825260208201905092915050565b60005b838110156123105780820151818401526020810190506122f5565b8381111561231f576000848401525b50505050565b6000601f19601f8301169050919050565b6000612341826122d6565b61234b81856122e1565b935061235b8185602086016122f2565b61236481612325565b840191505092915050565b600060208201905081810360008301526123898184612336565b905092915050565b6000819050919050565b6123a481612391565b81146123af57600080fd5b50565b6000813590506123c18161239b565b92915050565b6000602082840312156123dd576123dc612211565b5b60006123eb848285016123b2565b91505092915050565b600073ffffffffffffffffffffffffffffffffffffffff82169050919050565b600061241f826123f4565b9050919050565b61242f81612414565b82525050565b600060208201905061244a6000830184612426565b92915050565b61245981612414565b811461246457600080fd5b50565b60008135905061247681612450565b92915050565b6000806040838503121561249357612492612211565b5b60006124a185828601612467565b92505060206124b2858286016123b2565b9150509250929050565b60006124c782612414565b9050919050565b6124d7816124bc565b81146124e257600080fd5b50565b6000813590506124f4816124ce565b92915050565b6000602082840312156125105761250f612211565b5b600061251e848285016124e5565b91505092915050565b61253081612391565b82525050565b600060208201905061254b6000830184612527565b92915050565b60008060006060848603121561256a57612569612211565b5b600061257886828701612467565b935050602061258986828701612467565b925050604061259a868287016123b2565b9150509250925092565b600080fd5b600080fd5b7f4e487b7100000000000000000000000000000000000000000000000000000000600052604160045260246000fd5b6125e682612325565b810181811067ffffffffffffffff82111715612605576126046125ae565b5b80604052505050565b6000612618612207565b905061262482826125dd565b919050565b600067ffffffffffffffff821115612644576126436125ae565b5b61264d82612325565b9050602081019050919050565b82818337600083830152505050565b600061267c61267784612629565b61260e565b905082815260208101848484011115612698576126976125a9565b5b6126a384828561265a565b509392505050565b600082601f8301126126c0576126bf6125a4565b5b81356126d0848260208601612669565b91505092915050565b600080604083850312156126f0576126ef612211565b5b60006126fe85828601612467565b925050602083013567ffffffffffffffff81111561271f5761271e612216565b5b61272b858286016126ab565b9150509250929050565b60006020828403121561274b5761274a612211565b5b600061275984828501612467565b91505092915050565b61276b816122a0565b811461277657600080fd5b50565b60008135905061278881612762565b92915050565b600080604083850312156127a5576127a4612211565b5b60006127b385828601612467565b92505060206127c485828601612779565b9150509250929050565b600067ffffffffffffffff8211156127e9576127e86125ae565b5b6127f282612325565b9050602081019050919050565b600061281261280d846127ce565b61260e565b90508281526020810184848401111561282e5761282d6125a9565b5b61283984828561265a565b509392505050565b600082601f830112612856576128556125a4565b5b81356128668482602086016127ff565b91505092915050565b6000806000806080858703121561288957612888612211565b5b600061289787828801612467565b94505060206128a887828801612467565b93505060406128b9878288016123b2565b925050606085013567ffffffffffffffff8111156128da576128d9612216565b5b6128e687828801612841565b91505092959194509250565b6000806040838503121561290957612908612211565b5b600061291785828601612467565b925050602061292885828601612467565b9150509250929050565b7f4e487b7100000000000000000000000000000000000000000000000000000000600052602260045260246000fd5b6000600282049050600182168061297957607f821691505b60208210810361298c5761298b612932565b5b50919050565b7f4552433732313a20617070726f76656420717565727920666f72206e6f6e657860008201527f697374656e7420746f6b656e0000000000000000000000000000000000000000602082015250565b60006129ee602c836122e1565b91506129f982612992565b604082019050919050565b60006020820190508181036000830152612a1d816129e1565b9050919050565b7f4552433732313a20617070726f76616c20746f2063757272656e74206f776e6560008201527f7200000000000000000000000000000000000000000000000000000000000000602082015250565b6000612a806021836122e1565b9150612a8b82612a24565b604082019050919050565b60006020820190508181036000830152612aaf81612a73565b9050919050565b7f4552433732313a20617070726f76652063616c6c6572206973206e6f74206f7760008201527f6e6572206e6f7220617070726f76656420666f7220616c6c0000000000000000602082015250565b6000612b126038836122e1565b9150612b1d82612ab6565b604082019050919050565b60006020820190508181036000830152612b4181612b05565b9050919050565b7f4f776e61626c653a2063616c6c6572206973206e6f7420746865206f776e6572600082015250565b6000612b7e6020836122e1565b9150612b8982612b48565b602082019050919050565b60006020820190508181036000830152612bad81612b71565b9050919050565b7f4e487b7100000000000000000000000000000000000000000000000000000000600052603260045260246000fd5b7f4e487b7100000000000000000000000000000000000000000000000000000000600052601160045260246000fd5b6000612c1d82612391565b91507fffffffffffffffffffffffffffffffffffffffffffffffffffffffffffffffff8203612c4f57612c4e612be3565b5b600182019050919050565b7f4552433732313a207472616e736665722063616c6c6572206973206e6f74206f60008201527f776e6572206e6f7220617070726f766564000000000000000000000000000000602082015250565b6000612cb66031836122e1565b9150612cc182612c5a565b604082019050919050565b60006020820190508181036000830152612ce581612ca9565b9050919050565b7f455243373231456e756d657261626c653a206f776e657220696e646578206f7560008201527f74206f6620626f756e6473000000000000000000000000000000000000000000602082015250565b6000612d48602b836122e1565b9150612d5382612cec565b604082019050919050565b60006020820190508181036000830152612d7781612d3b565b9050919050565b6000819050919050565b6000612da3612d9e612d99846123f4565b612d7e565b6123f4565b9050919050565b6000612db582612d88565b9050919050565b6000612dc782612daa565b9050919050565b612dd781612dbc565b82525050565b6000602082019050612df26000830184612dce565b92915050565b7f455243373231456e756d657261626c653a20676c6f62616c20696e646578206f60008201527f7574206f6620626f756e64730000000000000000000000000000000000000000602082015250565b6000612e54602c836122e1565b9150612e5f82612df8565b604082019050919050565b60006020820190508181036000830152612e8381612e47565b9050919050565b7f4552433732313a206f776e657220717565727920666f72206e6f6e657869737460008201527f656e7420746f6b656e0000000000000000000000000000000000000000000000602082015250565b6000612ee66029836122e1565b9150612ef182612e8a565b604082019050919050565b60006020820190508181036000830152612f1581612ed9565b9050919050565b7f4552433732313a2062616c616e636520717565727920666f7220746865207a6560008201527f726f206164647265737300000000000000000000000000000000000000000000602082015250565b6000612f78602a836122e1565b9150612f8382612f1c565b604082019050919050565b60006020820190508181036000830152612fa781612f6b565b9050919050565b600081905092915050565b6000612fc4826122d6565b612fce8185612fae565b9350612fde8185602086016122f2565b80840191505092915050565b6000819050919050565b61300561300082612391565b612fea565b82525050565b60006130178285612fb9565b91506130238284612ff4565b6020820191508190509392505050565b7f4f776e61626c653a206e6577206f776e657220697320746865207a65726f206160008201527f6464726573730000000000000000000000000000000000000000000000000000602082015250565b600061308f6026836122e1565b915061309a82613033565b604082019050919050565b600060208201905081810360008301526130be81613082565b9050919050565b7f4552433732313a206f70657261746f7220717565727920666f72206e6f6e657860008201527f697374656e7420746f6b656e0000000000000000000000000000000000000000602082015250565b6000613121602c836122e1565b915061312c826130c5565b604082019050919050565b6000602082019050818103600083015261315081613114565b9050919050565b7f4552433732313a207472616e736665722066726f6d20696e636f72726563742060008201527f6f776e6572000000000000000000000000000000000000000000000000000000602082015250565b60006131b36025836122e1565b91506131be82613157565b604082019050919050565b600060208201905081810360008301526131e2816131a6565b9050919050565b7f4552433732313a207472616e7366657220746f20746865207a65726f2061646460008201527f7265737300000000000000000000000000000000000000000000000000000000602082015250565b60006132456024836122e1565b9150613250826131e9565b604082019050919050565b6000602082019050818103600083015261327481613238565b9050919050565b600061328682612391565b915061329183612391565b9250828210156132a4576132a3612be3565b5b828203905092915050565b60006132ba82612391565b91506132c583612391565b9250827fffffffffffffffffffffffffffffffffffffffffffffffffffffffffffffffff038211156132fa576132f9612be3565b5b828201905092915050565b7f4552433732313a206d696e7420746f20746865207a65726f2061646472657373600082015250565b600061333b6020836122e1565b915061334682613305565b602082019050919050565b6000602082019050818103600083015261336a8161332e565b9050919050565b7f4552433732313a20746f6b656e20616c7265616479206d696e74656400000000600082015250565b60006133a7601c836122e1565b91506133b282613371565b602082019050919050565b600060208201905081810360008301526133d68161339a565b9050919050565b7f45524337323155524953746f726167653a2055524920736574206f66206e6f6e60008201527f6578697374656e7420746f6b656e000000000000000000000000000000000000602082015250565b6000613439602e836122e1565b9150613444826133dd565b604082019050919050565b600060208201905081810360008301526134688161342c565b9050919050565b7f4552433732313a20617070726f766520746f2063616c6c657200000000000000600082015250565b60006134a56019836122e1565b91506134b08261346f565b602082019050919050565b600060208201905081810360008301526134d481613498565b9050919050565b7f4552433732313a207472616e7366657220746f206e6f6e20455243373231526560008201527f63656976657220696d706c656d656e7465720000000000000000000000000000602082015250565b60006135376032836122e1565b9150613542826134db565b604082019050919050565b600060208201905081810360008301526135668161352a565b9050919050565b600081519050919050565b600082825260208201905092915050565b60006135948261356d565b61359e8185613578565b93506135ae8185602086016122f2565b6135b781612325565b840191505092915050565b60006080820190506135d76000830187612426565b6135e46020830186612426565b6135f16040830185612527565b81810360608301526136038184613589565b905095945050505050565b60008151905061361d81612247565b92915050565b60006020828403121561363957613638612211565b5b60006136478482850161360e565b91505092915050565b7f4e487b7100000000000000000000000000000000000000000000000000000000600052603160045260246000fdfe68747470733a2f2f676174657761792e70696e6174612e636c6f75642f69706673a2646970667358221220d3006b941ed1807a2f0a3ab07008bc3dab17ea54f71d53eeb38c1ab0d8b08c9364736f6c634300080d0033",
  "immutableReferences": {},
  "source": "// SPDX-License-Identifier: MIT\npragma solidity 0.8.13;\n\nimport \"@openzeppelin/contracts/token/ERC721/ERC721.sol\";\nimport \"@openzeppelin/contracts/token/ERC721/extensions/ERC721URIStorage.sol\";\nimport \"@openzeppelin/contracts/token/ERC721/extensions/ERC721Enumerable.sol\";\nimport \"@openzeppelin/contracts/utils/Counters.sol\";\nimport \"./Nft.sol\";\nimport \"@openzeppelin/contracts/access/Ownable.sol\";\n\ncontract NftCollection is ERC721Enumerable, ERC721URIStorage, Ownable {\n    string public constant baseURI = \"https://gateway.pinata.cloud/ipfs\";\n    using Counters for Counters.Counter;\n    Counters.Counter private _tokenIds;\n\n    constructor() ERC721 (\"NFt\", \"NFT_FPM\") {}\n\n    Nft[] nftsInCollections;\n\n    function mintCollection(address _owner, string memory _tokenURI) public returns (uint256)\n    {\n        _tokenIds.increment();\n        uint256 newItemId = _tokenIds.current();\n        _mint(_owner, newItemId);\n        _setTokenURI(newItemId, _tokenURI);\n \n        return newItemId;\n    }\n\n    function tokenURI( uint256 _tokenURI) public pure override(ERC721URIStorage, ERC721) returns (string memory) {\n        return string(abi.encodePacked(baseURI, _tokenURI));\n    }\n    \n    function _beforeTokenTransfer(\n        address from,\n        address to,\n        uint256 tokenId\n    ) internal virtual override(ERC721Enumerable, ERC721) {\n\n        super._beforeTokenTransfer(from, to, tokenId);\n    }\n    \n\n    function _burn(uint256 tokenId) internal virtual override(ERC721URIStorage, ERC721) {\n      super._burn(tokenId);\n    }\n\n    /**\n     * @dev See {IERC165-supportsInterface}.\n     */\n    function supportsInterface(bytes4 interfaceId) public view virtual override(ERC721Enumerable, ERC721) returns (bool) {\n        return super.supportsInterface(interfaceId);\n\n    }\n\n\n    function addNft(Nft nft) external onlyOwner{\n        nft.setCollection(this);\n        nftsInCollections.push(nft);\n    }\n\n    function removeNft(Nft nft) external onlyOwner{\n        for (uint i = 0 ; i < nftsInCollections.length; i++) {\n            if(nftsInCollections[i] == nft) {\n                delete nftsInCollections[i];\n                break;\n            }\n        }\n    }\n}\n",
  "sourcePath": "/Users/fabien/alyra/formation/Projects/alyra-projet4-nft/contracts/NftCollection.sol",
  "compiler": {
    "name": "solc",
    "version": "0.8.13+commit.abaa5c0e.Emscripten.clang"
  },
  "schemaVersion": "3.4.6",
  "updatedAt": "2022-05-11T21:12:57.568Z",
  "devdoc": {
    "kind": "dev",
    "methods": {
      "approve(address,uint256)": {
        "details": "See {IERC721-approve}."
      },
      "balanceOf(address)": {
        "details": "See {IERC721-balanceOf}."
      },
      "getApproved(uint256)": {
        "details": "See {IERC721-getApproved}."
      },
      "isApprovedForAll(address,address)": {
        "details": "See {IERC721-isApprovedForAll}."
      },
      "name()": {
        "details": "See {IERC721Metadata-name}."
      },
      "owner()": {
        "details": "Returns the address of the current owner."
      },
      "ownerOf(uint256)": {
        "details": "See {IERC721-ownerOf}."
      },
      "renounceOwnership()": {
        "details": "Leaves the contract without owner. It will not be possible to call `onlyOwner` functions anymore. Can only be called by the current owner. NOTE: Renouncing ownership will leave the contract without an owner, thereby removing any functionality that is only available to the owner."
      },
      "safeTransferFrom(address,address,uint256)": {
        "details": "See {IERC721-safeTransferFrom}."
      },
      "safeTransferFrom(address,address,uint256,bytes)": {
        "details": "See {IERC721-safeTransferFrom}."
      },
      "setApprovalForAll(address,bool)": {
        "details": "See {IERC721-setApprovalForAll}."
      },
      "supportsInterface(bytes4)": {
        "details": "See {IERC165-supportsInterface}."
      },
      "symbol()": {
        "details": "See {IERC721Metadata-symbol}."
      },
      "tokenByIndex(uint256)": {
        "details": "See {IERC721Enumerable-tokenByIndex}."
      },
      "tokenOfOwnerByIndex(address,uint256)": {
        "details": "See {IERC721Enumerable-tokenOfOwnerByIndex}."
      },
      "totalSupply()": {
        "details": "See {IERC721Enumerable-totalSupply}."
      },
      "transferFrom(address,address,uint256)": {
        "details": "See {IERC721-transferFrom}."
      },
      "transferOwnership(address)": {
        "details": "Transfers ownership of the contract to a new account (`newOwner`). Can only be called by the current owner."
      }
    },
    "version": 1
  },
  "userdoc": {
    "kind": "user",
    "methods": {},
    "version": 1
  }
}