{
  "contractName": "NFTCollectionFactory",
  "abi": [
    {
      "anonymous": false,
      "inputs": [
        {
          "indexed": false,
          "internalType": "string",
          "name": "_collectionName",
          "type": "string"
        },
        {
          "indexed": false,
          "internalType": "address",
          "name": "_collectionAddress",
          "type": "address"
        },
        {
          "indexed": false,
          "internalType": "uint256",
          "name": "_timestamp",
          "type": "uint256"
        },
        {
          "indexed": false,
          "internalType": "address",
          "name": "_creator",
          "type": "address"
        }
      ],
      "name": "NftCollectionCreated",
      "type": "event"
    },
    {
      "inputs": [
        {
          "internalType": "string",
          "name": "_collectionName",
          "type": "string"
        },
        {
          "internalType": "string",
          "name": "_tokenURI",
          "type": "string"
        }
      ],
      "name": "createNFTCollection",
      "outputs": [
        {
          "internalType": "address",
          "name": "collectionAddress",
          "type": "address"
        }
      ],
      "stateMutability": "nonpayable",
      "type": "function"
    }
  ],
  "bytecode": "0x608060405234801561001057600080fd5b50613fee806100206000396000f3fe60806040523480156200001157600080fd5b50600436106200002e5760003560e01c806366223a181462000033575b600080fd5b6200005160048036038101906200004b919062000328565b62000069565b604051620000609190620003f2565b60405180910390f35b600080604051806020016200007e90620001a4565b6020820181038252601f19601f820116604052509050600084604051602001620000a9919062000492565b604051602081830303815290604052805190602001209050808251602084016000f59250823b620000d957600080fd5b8273ffffffffffffffffffffffffffffffffffffffff166354d95d5d33866040518363ffffffff1660e01b815260040162000116929190620004fd565b6020604051808303816000875af115801562000136573d6000803e3d6000fd5b505050506040513d601f19601f820116820180604052508101906200015c91906200056c565b507f91d26b525242dfaa61478f3200b814d79281f111d881df8def7d4b60a65a291185844233604051620001949493929190620005af565b60405180910390a1505092915050565b6139b5806200060483390190565b6000604051905090565b600080fd5b600080fd5b600080fd5b600080fd5b6000601f19601f8301169050919050565b7f4e487b7100000000000000000000000000000000000000000000000000000000600052604160045260246000fd5b6200021b82620001d0565b810181811067ffffffffffffffff821117156200023d576200023c620001e1565b5b80604052505050565b600062000252620001b2565b905062000260828262000210565b919050565b600067ffffffffffffffff821115620002835762000282620001e1565b5b6200028e82620001d0565b9050602081019050919050565b82818337600083830152505050565b6000620002c1620002bb8462000265565b62000246565b905082815260208101848484011115620002e057620002df620001cb565b5b620002ed8482856200029b565b509392505050565b600082601f8301126200030d576200030c620001c6565b5b81356200031f848260208601620002aa565b91505092915050565b60008060408385031215620003425762000341620001bc565b5b600083013567ffffffffffffffff811115620003635762000362620001c1565b5b6200037185828601620002f5565b925050602083013567ffffffffffffffff811115620003955762000394620001c1565b5b620003a385828601620002f5565b9150509250929050565b600073ffffffffffffffffffffffffffffffffffffffff82169050919050565b6000620003da82620003ad565b9050919050565b620003ec81620003cd565b82525050565b6000602082019050620004096000830184620003e1565b92915050565b600081519050919050565b600081905092915050565b60005b838110156200044557808201518184015260208101905062000428565b8381111562000455576000848401525b50505050565b600062000468826200040f565b6200047481856200041a565b93506200048681856020860162000425565b80840191505092915050565b6000620004a082846200045b565b915081905092915050565b600082825260208201905092915050565b6000620004c9826200040f565b620004d58185620004ab565b9350620004e781856020860162000425565b620004f281620001d0565b840191505092915050565b6000604082019050620005146000830185620003e1565b8181036020830152620005288184620004bc565b90509392505050565b6000819050919050565b620005468162000531565b81146200055257600080fd5b50565b60008151905062000566816200053b565b92915050565b600060208284031215620005855762000584620001bc565b5b6000620005958482850162000555565b91505092915050565b620005a98162000531565b82525050565b60006080820190508181036000830152620005cb8187620004bc565b9050620005dc6020830186620003e1565b620005eb60408301856200059e565b620005fa6060830184620003e1565b9594505050505056fe60806040523480156200001157600080fd5b506040518060400160405280600381526020017f4e467400000000000000000000000000000000000000000000000000000000008152506040518060400160405280600781526020017f4e46545f46504d00000000000000000000000000000000000000000000000000815250816000908051906020019062000096929190620001a6565b508060019080519060200190620000af929190620001a6565b505050620000d2620000c6620000d860201b60201c565b620000e060201b60201c565b620002ba565b600033905090565b6000600b60009054906101000a900473ffffffffffffffffffffffffffffffffffffffff16905081600b60006101000a81548173ffffffffffffffffffffffffffffffffffffffff021916908373ffffffffffffffffffffffffffffffffffffffff1602179055508173ffffffffffffffffffffffffffffffffffffffff168173ffffffffffffffffffffffffffffffffffffffff167f8be0079c531659141344cd1fd0a4f28419497f9722a3daafe3b4186f6b6457e060405160405180910390a35050565b828054620001b49062000285565b90600052602060002090601f016020900481019282620001d8576000855562000224565b82601f10620001f357805160ff191683800117855562000224565b8280016001018555821562000224579182015b828111156200022357825182559160200191906001019062000206565b5b50905062000233919062000237565b5090565b5b808211156200025257600081600090555060010162000238565b5090565b7f4e487b7100000000000000000000000000000000000000000000000000000000600052602260045260246000fd5b600060028204905060018216806200029e57607f821691505b602082108103620002b457620002b362000256565b5b50919050565b6136eb80620002ca6000396000f3fe608060405234801561001057600080fd5b506004361061014d5760003560e01c806354d95d5d116100c357806395d89b411161007c57806395d89b41146103b0578063a22cb465146103ce578063b88d4fde146103ea578063c87b56dd14610406578063e985e9c514610436578063f2fde38b146104665761014d565b806354d95d5d146102da5780636352211e1461030a5780636c0360eb1461033a57806370a0823114610358578063715018a6146103885780638da5cb5b146103925761014d565b806318160ddd1161011557806318160ddd1461020857806323b872dd146102265780632f745c591461024257806342842e0e14610272578063447a91fd1461028e5780634f6ccce7146102aa5761014d565b806301ffc9a71461015257806306fdde0314610182578063081812fc146101a0578063095ea7b3146101d057806312d98f24146101ec575b600080fd5b61016c60048036038101906101679190612288565b610482565b60405161017991906122d0565b60405180910390f35b61018a610494565b6040516101979190612384565b60405180910390f35b6101ba60048036038101906101b591906123dc565b610526565b6040516101c7919061244a565b60405180910390f35b6101ea60048036038101906101e59190612491565b6105ab565b005b6102066004803603810190610201919061250f565b6106c2565b005b61021061081c565b60405161021d919061254b565b60405180910390f35b610240600480360381019061023b9190612566565b610829565b005b61025c60048036038101906102579190612491565b610889565b604051610269919061254b565b60405180910390f35b61028c60048036038101906102879190612566565b61092e565b005b6102a860048036038101906102a3919061250f565b61094e565b005b6102c460048036038101906102bf91906123dc565b610ab0565b6040516102d1919061254b565b60405180910390f35b6102f460048036038101906102ef91906126ee565b610b21565b604051610301919061254b565b60405180910390f35b610324600480360381019061031f91906123dc565b610b59565b604051610331919061244a565b60405180910390f35b610342610c0a565b60405161034f9190612384565b60405180910390f35b610372600480360381019061036d919061274a565b610c26565b60405161037f919061254b565b60405180910390f35b610390610cdd565b005b61039a610d65565b6040516103a7919061244a565b60405180910390f35b6103b8610d8f565b6040516103c59190612384565b60405180910390f35b6103e860048036038101906103e391906127a3565b610e21565b005b61040460048036038101906103ff9190612884565b610e37565b005b610420600480360381019061041b91906123dc565b610e99565b60405161042d9190612384565b60405180910390f35b610450600480360381019061044b9190612907565b610edc565b60405161045d91906122d0565b60405180910390f35b610480600480360381019061047b919061274a565b610f70565b005b600061048d82611067565b9050919050565b6060600080546104a390612976565b80601f01602080910402602001604051908101604052809291908181526020018280546104cf90612976565b801561051c5780601f106104f15761010080835404028352916020019161051c565b820191906000526020600020905b8154815290600101906020018083116104ff57829003601f168201915b5050505050905090565b6000610531826110e1565b610570576040517f08c379a000000000000000000000000000000000000000000000000000000000815260040161056790612a19565b60405180910390fd5b6004600083815260200190815260200160002060009054906101000a900473ffffffffffffffffffffffffffffffffffffffff169050919050565b60006105b682610b59565b90508073ffffffffffffffffffffffffffffffffffffffff168373ffffffffffffffffffffffffffffffffffffffff1603610626576040517f08c379a000000000000000000000000000000000000000000000000000000000815260040161061d90612aab565b60405180910390fd5b8073ffffffffffffffffffffffffffffffffffffffff1661064561114d565b73ffffffffffffffffffffffffffffffffffffffff16148061067457506106738161066e61114d565b610edc565b5b6106b3576040517f08c379a00000000000000000000000000000000000000000000000000000000081526004016106aa90612b3d565b60405180910390fd5b6106bd8383611155565b505050565b6106ca61114d565b73ffffffffffffffffffffffffffffffffffffffff166106e8610d65565b73ffffffffffffffffffffffffffffffffffffffff161461073e576040517f08c379a000000000000000000000000000000000000000000000000000000000815260040161073590612ba9565b60405180910390fd5b60005b600d80549050811015610818578173ffffffffffffffffffffffffffffffffffffffff16600d828154811061077957610778612bc9565b5b9060005260206000200160009054906101000a900473ffffffffffffffffffffffffffffffffffffffff1673ffffffffffffffffffffffffffffffffffffffff160361080557600d81815481106107d3576107d2612bc9565b5b9060005260206000200160006101000a81549073ffffffffffffffffffffffffffffffffffffffff0219169055610818565b808061081090612c27565b915050610741565b5050565b6000600880549050905090565b61083a61083461114d565b8261120e565b610879576040517f08c379a000000000000000000000000000000000000000000000000000000000815260040161087090612ce1565b60405180910390fd5b6108848383836112ec565b505050565b600061089483610c26565b82106108d5576040517f08c379a00000000000000000000000000000000000000000000000000000000081526004016108cc90612d73565b60405180910390fd5b600660008473ffffffffffffffffffffffffffffffffffffffff1673ffffffffffffffffffffffffffffffffffffffff168152602001908152602001600020600083815260200190815260200160002054905092915050565b61094983838360405180602001604052806000815250610e37565b505050565b61095661114d565b73ffffffffffffffffffffffffffffffffffffffff16610974610d65565b73ffffffffffffffffffffffffffffffffffffffff16146109ca576040517f08c379a00000000000000000000000000000000000000000000000000000000081526004016109c190612ba9565b60405180910390fd5b8073ffffffffffffffffffffffffffffffffffffffff1663768b5fd5306040518263ffffffff1660e01b8152600401610a039190612df2565b600060405180830381600087803b158015610a1d57600080fd5b505af1158015610a31573d6000803e3d6000fd5b50505050600d819080600181540180825580915050600190039060005260206000200160009091909190916101000a81548173ffffffffffffffffffffffffffffffffffffffff021916908373ffffffffffffffffffffffffffffffffffffffff160217905550610aad600030610aa8600c611552565b611560565b50565b6000610aba61081c565b8210610afb576040517f08c379a0000000000000000000000000000000000000000000000000000000008152600401610af290612e7f565b60405180910390fd5b60088281548110610b0f57610b0e612bc9565b5b90600052602060002001549050919050565b6000610b2d600c611672565b6000610b39600c611552565b9050610b458482611688565b610b4f8184611861565b8091505092915050565b6000806002600084815260200190815260200160002060009054906101000a900473ffffffffffffffffffffffffffffffffffffffff169050600073ffffffffffffffffffffffffffffffffffffffff168173ffffffffffffffffffffffffffffffffffffffff1603610c01576040517f08c379a0000000000000000000000000000000000000000000000000000000008152600401610bf890612f11565b60405180910390fd5b80915050919050565b6040518060600160405280602181526020016136956021913981565b60008073ffffffffffffffffffffffffffffffffffffffff168273ffffffffffffffffffffffffffffffffffffffff1603610c96576040517f08c379a0000000000000000000000000000000000000000000000000000000008152600401610c8d90612fa3565b60405180910390fd5b600360008373ffffffffffffffffffffffffffffffffffffffff1673ffffffffffffffffffffffffffffffffffffffff168152602001908152602001600020549050919050565b610ce561114d565b73ffffffffffffffffffffffffffffffffffffffff16610d03610d65565b73ffffffffffffffffffffffffffffffffffffffff1614610d59576040517f08c379a0000000000000000000000000000000000000000000000000000000008152600401610d5090612ba9565b60405180910390fd5b610d6360006118d5565b565b6000600b60009054906101000a900473ffffffffffffffffffffffffffffffffffffffff16905090565b606060018054610d9e90612976565b80601f0160208091040260200160405190810160405280929190818152602001828054610dca90612976565b8015610e175780601f10610dec57610100808354040283529160200191610e17565b820191906000526020600020905b815481529060010190602001808311610dfa57829003601f168201915b5050505050905090565b610e33610e2c61114d565b838361199b565b5050565b610e48610e4261114d565b8361120e565b610e87576040517f08c379a0000000000000000000000000000000000000000000000000000000008152600401610e7e90612ce1565b60405180910390fd5b610e9384848484611b07565b50505050565b60606040518060600160405280602181526020016136956021913982604051602001610ec6929190613020565b6040516020818303038152906040529050919050565b6000600560008473ffffffffffffffffffffffffffffffffffffffff1673ffffffffffffffffffffffffffffffffffffffff16815260200190815260200160002060008373ffffffffffffffffffffffffffffffffffffffff1673ffffffffffffffffffffffffffffffffffffffff16815260200190815260200160002060009054906101000a900460ff16905092915050565b610f7861114d565b73ffffffffffffffffffffffffffffffffffffffff16610f96610d65565b73ffffffffffffffffffffffffffffffffffffffff1614610fec576040517f08c379a0000000000000000000000000000000000000000000000000000000008152600401610fe390612ba9565b60405180910390fd5b600073ffffffffffffffffffffffffffffffffffffffff168173ffffffffffffffffffffffffffffffffffffffff160361105b576040517f08c379a0000000000000000000000000000000000000000000000000000000008152600401611052906130ba565b60405180910390fd5b611064816118d5565b50565b60007f780e9d63000000000000000000000000000000000000000000000000000000007bffffffffffffffffffffffffffffffffffffffffffffffffffffffff1916827bffffffffffffffffffffffffffffffffffffffffffffffffffffffff191614806110da57506110d982611b63565b5b9050919050565b60008073ffffffffffffffffffffffffffffffffffffffff166002600084815260200190815260200160002060009054906101000a900473ffffffffffffffffffffffffffffffffffffffff1673ffffffffffffffffffffffffffffffffffffffff1614159050919050565b600033905090565b816004600083815260200190815260200160002060006101000a81548173ffffffffffffffffffffffffffffffffffffffff021916908373ffffffffffffffffffffffffffffffffffffffff160217905550808273ffffffffffffffffffffffffffffffffffffffff166111c883610b59565b73ffffffffffffffffffffffffffffffffffffffff167f8c5be1e5ebec7d5bd14f71427d1e84f3dd0314c0f7b2291e5b200ac8c7c3b92560405160405180910390a45050565b6000611219826110e1565b611258576040517f08c379a000000000000000000000000000000000000000000000000000000000815260040161124f9061314c565b60405180910390fd5b600061126383610b59565b90508073ffffffffffffffffffffffffffffffffffffffff168473ffffffffffffffffffffffffffffffffffffffff1614806112a557506112a48185610edc565b5b806112e357508373ffffffffffffffffffffffffffffffffffffffff166112cb84610526565b73ffffffffffffffffffffffffffffffffffffffff16145b91505092915050565b8273ffffffffffffffffffffffffffffffffffffffff1661130c82610b59565b73ffffffffffffffffffffffffffffffffffffffff1614611362576040517f08c379a0000000000000000000000000000000000000000000000000000000008152600401611359906131de565b60405180910390fd5b600073ffffffffffffffffffffffffffffffffffffffff168273ffffffffffffffffffffffffffffffffffffffff16036113d1576040517f08c379a00000000000000000000000000000000000000000000000000000000081526004016113c890613270565b60405180910390fd5b6113dc838383611c45565b6113e7600082611155565b6001600360008573ffffffffffffffffffffffffffffffffffffffff1673ffffffffffffffffffffffffffffffffffffffff16815260200190815260200160002060008282546114379190613290565b925050819055506001600360008473ffffffffffffffffffffffffffffffffffffffff1673ffffffffffffffffffffffffffffffffffffffff168152602001908152602001600020600082825461148e91906132c4565b92505081905550816002600083815260200190815260200160002060006101000a81548173ffffffffffffffffffffffffffffffffffffffff021916908373ffffffffffffffffffffffffffffffffffffffff160217905550808273ffffffffffffffffffffffffffffffffffffffff168473ffffffffffffffffffffffffffffffffffffffff167fddf252ad1be2c89b69c2b068fc378daa952ba7f163c4a11628f55a4df523b3ef60405160405180910390a461154d838383611c55565b505050565b600081600001549050919050565b61156b838383611c5a565b600073ffffffffffffffffffffffffffffffffffffffff168373ffffffffffffffffffffffffffffffffffffffff16036115ad576115a881611c5f565b6115ec565b8173ffffffffffffffffffffffffffffffffffffffff168373ffffffffffffffffffffffffffffffffffffffff16146115eb576115ea8382611ca8565b5b5b600073ffffffffffffffffffffffffffffffffffffffff168273ffffffffffffffffffffffffffffffffffffffff160361162e5761162981611e15565b61166d565b8273ffffffffffffffffffffffffffffffffffffffff168273ffffffffffffffffffffffffffffffffffffffff161461166c5761166b8282611ee6565b5b5b505050565b6001816000016000828254019250508190555050565b600073ffffffffffffffffffffffffffffffffffffffff168273ffffffffffffffffffffffffffffffffffffffff16036116f7576040517f08c379a00000000000000000000000000000000000000000000000000000000081526004016116ee90613366565b60405180910390fd5b611700816110e1565b15611740576040517f08c379a0000000000000000000000000000000000000000000000000000000008152600401611737906133d2565b60405180910390fd5b61174c60008383611c45565b6001600360008473ffffffffffffffffffffffffffffffffffffffff1673ffffffffffffffffffffffffffffffffffffffff168152602001908152602001600020600082825461179c91906132c4565b92505081905550816002600083815260200190815260200160002060006101000a81548173ffffffffffffffffffffffffffffffffffffffff021916908373ffffffffffffffffffffffffffffffffffffffff160217905550808273ffffffffffffffffffffffffffffffffffffffff16600073ffffffffffffffffffffffffffffffffffffffff167fddf252ad1be2c89b69c2b068fc378daa952ba7f163c4a11628f55a4df523b3ef60405160405180910390a461185d60008383611c55565b5050565b61186a826110e1565b6118a9576040517f08c379a00000000000000000000000000000000000000000000000000000000081526004016118a090613464565b60405180910390fd5b80600a600084815260200190815260200160002090805190602001906118d0929190612179565b505050565b6000600b60009054906101000a900473ffffffffffffffffffffffffffffffffffffffff16905081600b60006101000a81548173ffffffffffffffffffffffffffffffffffffffff021916908373ffffffffffffffffffffffffffffffffffffffff1602179055508173ffffffffffffffffffffffffffffffffffffffff168173ffffffffffffffffffffffffffffffffffffffff167f8be0079c531659141344cd1fd0a4f28419497f9722a3daafe3b4186f6b6457e060405160405180910390a35050565b8173ffffffffffffffffffffffffffffffffffffffff168373ffffffffffffffffffffffffffffffffffffffff1603611a09576040517f08c379a0000000000000000000000000000000000000000000000000000000008152600401611a00906134d0565b60405180910390fd5b80600560008573ffffffffffffffffffffffffffffffffffffffff1673ffffffffffffffffffffffffffffffffffffffff16815260200190815260200160002060008473ffffffffffffffffffffffffffffffffffffffff1673ffffffffffffffffffffffffffffffffffffffff16815260200190815260200160002060006101000a81548160ff0219169083151502179055508173ffffffffffffffffffffffffffffffffffffffff168373ffffffffffffffffffffffffffffffffffffffff167f17307eab39ab6107e8899845ad3d59bd9653f200f220920489ca2b5937696c3183604051611afa91906122d0565b60405180910390a3505050565b611b128484846112ec565b611b1e84848484611f65565b611b5d576040517f08c379a0000000000000000000000000000000000000000000000000000000008152600401611b5490613562565b60405180910390fd5b50505050565b60007f80ac58cd000000000000000000000000000000000000000000000000000000007bffffffffffffffffffffffffffffffffffffffffffffffffffffffff1916827bffffffffffffffffffffffffffffffffffffffffffffffffffffffff19161480611c2e57507f5b5e139f000000000000000000000000000000000000000000000000000000007bffffffffffffffffffffffffffffffffffffffffffffffffffffffff1916827bffffffffffffffffffffffffffffffffffffffffffffffffffffffff1916145b80611c3e5750611c3d826120ec565b5b9050919050565b611c50838383611560565b505050565b505050565b505050565b6008805490506009600083815260200190815260200160002081905550600881908060018154018082558091505060019003906000526020600020016000909190919091505550565b60006001611cb584610c26565b611cbf9190613290565b9050600060076000848152602001908152602001600020549050818114611da4576000600660008673ffffffffffffffffffffffffffffffffffffffff1673ffffffffffffffffffffffffffffffffffffffff168152602001908152602001600020600084815260200190815260200160002054905080600660008773ffffffffffffffffffffffffffffffffffffffff1673ffffffffffffffffffffffffffffffffffffffff168152602001908152602001600020600084815260200190815260200160002081905550816007600083815260200190815260200160002081905550505b6007600084815260200190815260200160002060009055600660008573ffffffffffffffffffffffffffffffffffffffff1673ffffffffffffffffffffffffffffffffffffffff16815260200190815260200160002060008381526020019081526020016000206000905550505050565b60006001600880549050611e299190613290565b9050600060096000848152602001908152602001600020549050600060088381548110611e5957611e58612bc9565b5b906000526020600020015490508060088381548110611e7b57611e7a612bc9565b5b906000526020600020018190555081600960008381526020019081526020016000208190555060096000858152602001908152602001600020600090556008805480611eca57611ec9613582565b5b6001900381819060005260206000200160009055905550505050565b6000611ef183610c26565b905081600660008573ffffffffffffffffffffffffffffffffffffffff1673ffffffffffffffffffffffffffffffffffffffff168152602001908152602001600020600083815260200190815260200160002081905550806007600084815260200190815260200160002081905550505050565b6000611f868473ffffffffffffffffffffffffffffffffffffffff16612156565b156120df578373ffffffffffffffffffffffffffffffffffffffff1663150b7a02611faf61114d565b8786866040518563ffffffff1660e01b8152600401611fd19493929190613606565b6020604051808303816000875af192505050801561200d57506040513d601f19601f8201168201806040525081019061200a9190613667565b60015b61208f573d806000811461203d576040519150601f19603f3d011682016040523d82523d6000602084013e612042565b606091505b506000815103612087576040517f08c379a000000000000000000000000000000000000000000000000000000000815260040161207e90613562565b60405180910390fd5b805181602001fd5b63150b7a0260e01b7bffffffffffffffffffffffffffffffffffffffffffffffffffffffff1916817bffffffffffffffffffffffffffffffffffffffffffffffffffffffff1916149150506120e4565b600190505b949350505050565b60007f01ffc9a7000000000000000000000000000000000000000000000000000000007bffffffffffffffffffffffffffffffffffffffffffffffffffffffff1916827bffffffffffffffffffffffffffffffffffffffffffffffffffffffff1916149050919050565b6000808273ffffffffffffffffffffffffffffffffffffffff163b119050919050565b82805461218590612976565b90600052602060002090601f0160209004810192826121a757600085556121ee565b82601f106121c057805160ff19168380011785556121ee565b828001600101855582156121ee579182015b828111156121ed5782518255916020019190600101906121d2565b5b5090506121fb91906121ff565b5090565b5b80821115612218576000816000905550600101612200565b5090565b6000604051905090565b600080fd5b600080fd5b60007fffffffff0000000000000000000000000000000000000000000000000000000082169050919050565b61226581612230565b811461227057600080fd5b50565b6000813590506122828161225c565b92915050565b60006020828403121561229e5761229d612226565b5b60006122ac84828501612273565b91505092915050565b60008115159050919050565b6122ca816122b5565b82525050565b60006020820190506122e560008301846122c1565b92915050565b600081519050919050565b600082825260208201905092915050565b60005b8381101561232557808201518184015260208101905061230a565b83811115612334576000848401525b50505050565b6000601f19601f8301169050919050565b6000612356826122eb565b61236081856122f6565b9350612370818560208601612307565b6123798161233a565b840191505092915050565b6000602082019050818103600083015261239e818461234b565b905092915050565b6000819050919050565b6123b9816123a6565b81146123c457600080fd5b50565b6000813590506123d6816123b0565b92915050565b6000602082840312156123f2576123f1612226565b5b6000612400848285016123c7565b91505092915050565b600073ffffffffffffffffffffffffffffffffffffffff82169050919050565b600061243482612409565b9050919050565b61244481612429565b82525050565b600060208201905061245f600083018461243b565b92915050565b61246e81612429565b811461247957600080fd5b50565b60008135905061248b81612465565b92915050565b600080604083850312156124a8576124a7612226565b5b60006124b68582860161247c565b92505060206124c7858286016123c7565b9150509250929050565b60006124dc82612429565b9050919050565b6124ec816124d1565b81146124f757600080fd5b50565b600081359050612509816124e3565b92915050565b60006020828403121561252557612524612226565b5b6000612533848285016124fa565b91505092915050565b612545816123a6565b82525050565b6000602082019050612560600083018461253c565b92915050565b60008060006060848603121561257f5761257e612226565b5b600061258d8682870161247c565b935050602061259e8682870161247c565b92505060406125af868287016123c7565b9150509250925092565b600080fd5b600080fd5b7f4e487b7100000000000000000000000000000000000000000000000000000000600052604160045260246000fd5b6125fb8261233a565b810181811067ffffffffffffffff8211171561261a576126196125c3565b5b80604052505050565b600061262d61221c565b905061263982826125f2565b919050565b600067ffffffffffffffff821115612659576126586125c3565b5b6126628261233a565b9050602081019050919050565b82818337600083830152505050565b600061269161268c8461263e565b612623565b9050828152602081018484840111156126ad576126ac6125be565b5b6126b884828561266f565b509392505050565b600082601f8301126126d5576126d46125b9565b5b81356126e584826020860161267e565b91505092915050565b6000806040838503121561270557612704612226565b5b60006127138582860161247c565b925050602083013567ffffffffffffffff8111156127345761273361222b565b5b612740858286016126c0565b9150509250929050565b6000602082840312156127605761275f612226565b5b600061276e8482850161247c565b91505092915050565b612780816122b5565b811461278b57600080fd5b50565b60008135905061279d81612777565b92915050565b600080604083850312156127ba576127b9612226565b5b60006127c88582860161247c565b92505060206127d98582860161278e565b9150509250929050565b600067ffffffffffffffff8211156127fe576127fd6125c3565b5b6128078261233a565b9050602081019050919050565b6000612827612822846127e3565b612623565b905082815260208101848484011115612843576128426125be565b5b61284e84828561266f565b509392505050565b600082601f83011261286b5761286a6125b9565b5b813561287b848260208601612814565b91505092915050565b6000806000806080858703121561289e5761289d612226565b5b60006128ac8782880161247c565b94505060206128bd8782880161247c565b93505060406128ce878288016123c7565b925050606085013567ffffffffffffffff8111156128ef576128ee61222b565b5b6128fb87828801612856565b91505092959194509250565b6000806040838503121561291e5761291d612226565b5b600061292c8582860161247c565b925050602061293d8582860161247c565b9150509250929050565b7f4e487b7100000000000000000000000000000000000000000000000000000000600052602260045260246000fd5b6000600282049050600182168061298e57607f821691505b6020821081036129a1576129a0612947565b5b50919050565b7f4552433732313a20617070726f76656420717565727920666f72206e6f6e657860008201527f697374656e7420746f6b656e0000000000000000000000000000000000000000602082015250565b6000612a03602c836122f6565b9150612a0e826129a7565b604082019050919050565b60006020820190508181036000830152612a32816129f6565b9050919050565b7f4552433732313a20617070726f76616c20746f2063757272656e74206f776e6560008201527f7200000000000000000000000000000000000000000000000000000000000000602082015250565b6000612a956021836122f6565b9150612aa082612a39565b604082019050919050565b60006020820190508181036000830152612ac481612a88565b9050919050565b7f4552433732313a20617070726f76652063616c6c6572206973206e6f74206f7760008201527f6e6572206e6f7220617070726f76656420666f7220616c6c0000000000000000602082015250565b6000612b276038836122f6565b9150612b3282612acb565b604082019050919050565b60006020820190508181036000830152612b5681612b1a565b9050919050565b7f4f776e61626c653a2063616c6c6572206973206e6f7420746865206f776e6572600082015250565b6000612b936020836122f6565b9150612b9e82612b5d565b602082019050919050565b60006020820190508181036000830152612bc281612b86565b9050919050565b7f4e487b7100000000000000000000000000000000000000000000000000000000600052603260045260246000fd5b7f4e487b7100000000000000000000000000000000000000000000000000000000600052601160045260246000fd5b6000612c32826123a6565b91507fffffffffffffffffffffffffffffffffffffffffffffffffffffffffffffffff8203612c6457612c63612bf8565b5b600182019050919050565b7f4552433732313a207472616e736665722063616c6c6572206973206e6f74206f60008201527f776e6572206e6f7220617070726f766564000000000000000000000000000000602082015250565b6000612ccb6031836122f6565b9150612cd682612c6f565b604082019050919050565b60006020820190508181036000830152612cfa81612cbe565b9050919050565b7f455243373231456e756d657261626c653a206f776e657220696e646578206f7560008201527f74206f6620626f756e6473000000000000000000000000000000000000000000602082015250565b6000612d5d602b836122f6565b9150612d6882612d01565b604082019050919050565b60006020820190508181036000830152612d8c81612d50565b9050919050565b6000819050919050565b6000612db8612db3612dae84612409565b612d93565b612409565b9050919050565b6000612dca82612d9d565b9050919050565b6000612ddc82612dbf565b9050919050565b612dec81612dd1565b82525050565b6000602082019050612e076000830184612de3565b92915050565b7f455243373231456e756d657261626c653a20676c6f62616c20696e646578206f60008201527f7574206f6620626f756e64730000000000000000000000000000000000000000602082015250565b6000612e69602c836122f6565b9150612e7482612e0d565b604082019050919050565b60006020820190508181036000830152612e9881612e5c565b9050919050565b7f4552433732313a206f776e657220717565727920666f72206e6f6e657869737460008201527f656e7420746f6b656e0000000000000000000000000000000000000000000000602082015250565b6000612efb6029836122f6565b9150612f0682612e9f565b604082019050919050565b60006020820190508181036000830152612f2a81612eee565b9050919050565b7f4552433732313a2062616c616e636520717565727920666f7220746865207a6560008201527f726f206164647265737300000000000000000000000000000000000000000000602082015250565b6000612f8d602a836122f6565b9150612f9882612f31565b604082019050919050565b60006020820190508181036000830152612fbc81612f80565b9050919050565b600081905092915050565b6000612fd9826122eb565b612fe38185612fc3565b9350612ff3818560208601612307565b80840191505092915050565b6000819050919050565b61301a613015826123a6565b612fff565b82525050565b600061302c8285612fce565b91506130388284613009565b6020820191508190509392505050565b7f4f776e61626c653a206e6577206f776e657220697320746865207a65726f206160008201527f6464726573730000000000000000000000000000000000000000000000000000602082015250565b60006130a46026836122f6565b91506130af82613048565b604082019050919050565b600060208201905081810360008301526130d381613097565b9050919050565b7f4552433732313a206f70657261746f7220717565727920666f72206e6f6e657860008201527f697374656e7420746f6b656e0000000000000000000000000000000000000000602082015250565b6000613136602c836122f6565b9150613141826130da565b604082019050919050565b6000602082019050818103600083015261316581613129565b9050919050565b7f4552433732313a207472616e736665722066726f6d20696e636f72726563742060008201527f6f776e6572000000000000000000000000000000000000000000000000000000602082015250565b60006131c86025836122f6565b91506131d38261316c565b604082019050919050565b600060208201905081810360008301526131f7816131bb565b9050919050565b7f4552433732313a207472616e7366657220746f20746865207a65726f2061646460008201527f7265737300000000000000000000000000000000000000000000000000000000602082015250565b600061325a6024836122f6565b9150613265826131fe565b604082019050919050565b600060208201905081810360008301526132898161324d565b9050919050565b600061329b826123a6565b91506132a6836123a6565b9250828210156132b9576132b8612bf8565b5b828203905092915050565b60006132cf826123a6565b91506132da836123a6565b9250827fffffffffffffffffffffffffffffffffffffffffffffffffffffffffffffffff0382111561330f5761330e612bf8565b5b828201905092915050565b7f4552433732313a206d696e7420746f20746865207a65726f2061646472657373600082015250565b60006133506020836122f6565b915061335b8261331a565b602082019050919050565b6000602082019050818103600083015261337f81613343565b9050919050565b7f4552433732313a20746f6b656e20616c7265616479206d696e74656400000000600082015250565b60006133bc601c836122f6565b91506133c782613386565b602082019050919050565b600060208201905081810360008301526133eb816133af565b9050919050565b7f45524337323155524953746f726167653a2055524920736574206f66206e6f6e60008201527f6578697374656e7420746f6b656e000000000000000000000000000000000000602082015250565b600061344e602e836122f6565b9150613459826133f2565b604082019050919050565b6000602082019050818103600083015261347d81613441565b9050919050565b7f4552433732313a20617070726f766520746f2063616c6c657200000000000000600082015250565b60006134ba6019836122f6565b91506134c582613484565b602082019050919050565b600060208201905081810360008301526134e9816134ad565b9050919050565b7f4552433732313a207472616e7366657220746f206e6f6e20455243373231526560008201527f63656976657220696d706c656d656e7465720000000000000000000000000000602082015250565b600061354c6032836122f6565b9150613557826134f0565b604082019050919050565b6000602082019050818103600083015261357b8161353f565b9050919050565b7f4e487b7100000000000000000000000000000000000000000000000000000000600052603160045260246000fd5b600081519050919050565b600082825260208201905092915050565b60006135d8826135b1565b6135e281856135bc565b93506135f2818560208601612307565b6135fb8161233a565b840191505092915050565b600060808201905061361b600083018761243b565b613628602083018661243b565b613635604083018561253c565b818103606083015261364781846135cd565b905095945050505050565b6000815190506136618161225c565b92915050565b60006020828403121561367d5761367c612226565b5b600061368b84828501613652565b9150509291505056fe68747470733a2f2f676174657761792e70696e6174612e636c6f75642f69706673a26469706673582212202ff4a00d830e2cf3f912cd99926b8686f221341f77478f9ade43d95da94cbff964736f6c634300080d0033a2646970667358221220e108a3cca52a627f2fb8b44d0c706a30459adca730cb36e2af4c22c5ef29479b64736f6c634300080d0033",
  "immutableReferences": {},
  "source": "// SPDX-License-Identifier: MIT\npragma solidity 0.8.13;\n\n// importing the ERC-721 contract to deploy for an artist\nimport \"./NftCollection.sol\";\n\n/** \n  * @notice Give the ability to deploy a contract to manage ERC-721 tokens for an Artist. S/O @Snow\n  * @dev    If the contract is already deployed for an _artistName, it will revert.\n  */\ncontract NFTCollectionFactory{\n\n    event NftCollectionCreated(string _collectionName, address _collectionAddress, uint _timestamp, address _creator);\n\n    /**\n      * @notice Deploy the ERC-721 Collection contract of the artist caller to be able to create NFTs later\n      *\n      * @return collectionAddress the address of the created collection contract\n      */\n    function createNFTCollection(string memory _collectionName, string memory _tokenURI) external returns (address collectionAddress) {\n        // Import the bytecode of the contract to deploy\n        bytes memory collectionBytecode = type(NftCollection).creationCode;\n\t\t\t\t// Make a random salt based on the artist name\n        bytes32 salt = keccak256(abi.encodePacked(_collectionName));\n\n        assembly {\n            collectionAddress := create2(0, add(collectionBytecode, 0x20), mload(collectionBytecode), salt)\n            if iszero(extcodesize(collectionAddress)) {\n                // revert if something gone wrong (collectionAddress doesn't contain an address)\n                revert(0, 0)\n            }\n        }\n        // Initialize the collection contract with the artist settings\n        NftCollection(collectionAddress).mintCollection(msg.sender, _tokenURI);\n\n        emit NftCollectionCreated(_collectionName, collectionAddress, block.timestamp, msg.sender);\n    }\n}\n",
  "sourcePath": "/home/pierre/Projets/Alyra/Projet_5/contracts/NfTCollectionFactory.sol",
  "compiler": {
    "name": "solc",
    "version": "0.8.13+commit.abaa5c0e.Emscripten.clang"
  },
  "schemaVersion": "3.4.6",
  "updatedAt": "2022-05-12T09:00:51.871Z",
  "networkType": "ethereum",
  "devdoc": {
    "details": "If the contract is already deployed for an _artistName, it will revert.",
    "kind": "dev",
    "methods": {
      "createNFTCollection(string,string)": {
        "returns": {
          "collectionAddress": "the address of the created collection contract"
        }
      }
    },
    "version": 1
  },
  "userdoc": {
    "kind": "user",
    "methods": {
      "createNFTCollection(string,string)": {
        "notice": "Deploy the ERC-721 Collection contract of the artist caller to be able to create NFTs later"
      }
    },
    "notice": "Give the ability to deploy a contract to manage ERC-721 tokens for an Artist. S/O @Snow",
    "version": 1
  }
}