{
  "contractName": "NftFactory",
  "abi": [
    {
      "anonymous": false,
      "inputs": [
        {
          "indexed": false,
          "internalType": "string",
          "name": "_nftName",
          "type": "string"
        },
        {
          "indexed": false,
          "internalType": "address",
          "name": "_nftAddress",
          "type": "address"
        },
        {
          "indexed": false,
          "internalType": "uint256",
          "name": "_timestamp",
          "type": "uint256"
        },
        {
          "indexed": false,
          "internalType": "address",
          "name": "_creator",
          "type": "address"
        }
      ],
      "name": "NftCreated",
      "type": "event"
    },
    {
      "inputs": [
        {
          "internalType": "string",
          "name": "_nfName",
          "type": "string"
        },
        {
          "internalType": "string",
          "name": "_tokenURI",
          "type": "string"
        }
      ],
      "name": "createNft",
      "outputs": [
        {
          "internalType": "address",
          "name": "nftAddress",
          "type": "address"
        }
      ],
      "stateMutability": "nonpayable",
      "type": "function"
    }
  ],
  "bytecode": "0x608060405234801561001057600080fd5b5061322f806100206000396000f3fe608060405234801561001057600080fd5b506004361061002b5760003560e01c80634f138e8c14610030575b600080fd5b61004a600480360381019061004591906102f6565b610060565b60405161005791906103af565b60405180910390f35b600080604051806020016100739061018f565b6020820181038252601f19601f82011660405250905060008460405160200161009c9190610444565b604051602081830303815290604052805190602001209050808251602084016000f59250823b6100cb57600080fd5b8273ffffffffffffffffffffffffffffffffffffffff166311f87b1933866040518363ffffffff1660e01b81526004016101069291906104a5565b6020604051808303816000875af1158015610125573d6000803e3d6000fd5b505050506040513d601f19601f82011682018060405250810190610149919061050b565b507f124b4b94e6883ea93d51b8f03391c07e1f7c698b5de59a6c7c65ac35b43b19dd8584423360405161017f9493929190610547565b60405180910390a1505092915050565b612c668061059483390190565b6000604051905090565b600080fd5b600080fd5b600080fd5b600080fd5b6000601f19601f8301169050919050565b7f4e487b7100000000000000000000000000000000000000000000000000000000600052604160045260246000fd5b610203826101ba565b810181811067ffffffffffffffff82111715610222576102216101cb565b5b80604052505050565b600061023561019c565b905061024182826101fa565b919050565b600067ffffffffffffffff821115610261576102606101cb565b5b61026a826101ba565b9050602081019050919050565b82818337600083830152505050565b600061029961029484610246565b61022b565b9050828152602081018484840111156102b5576102b46101b5565b5b6102c0848285610277565b509392505050565b600082601f8301126102dd576102dc6101b0565b5b81356102ed848260208601610286565b91505092915050565b6000806040838503121561030d5761030c6101a6565b5b600083013567ffffffffffffffff81111561032b5761032a6101ab565b5b610337858286016102c8565b925050602083013567ffffffffffffffff811115610358576103576101ab565b5b610364858286016102c8565b9150509250929050565b600073ffffffffffffffffffffffffffffffffffffffff82169050919050565b60006103998261036e565b9050919050565b6103a98161038e565b82525050565b60006020820190506103c460008301846103a0565b92915050565b600081519050919050565b600081905092915050565b60005b838110156103fe5780820151818401526020810190506103e3565b8381111561040d576000848401525b50505050565b600061041e826103ca565b61042881856103d5565b93506104388185602086016103e0565b80840191505092915050565b60006104508284610413565b915081905092915050565b600082825260208201905092915050565b6000610477826103ca565b610481818561045b565b93506104918185602086016103e0565b61049a816101ba565b840191505092915050565b60006040820190506104ba60008301856103a0565b81810360208301526104cc818461046c565b90509392505050565b6000819050919050565b6104e8816104d5565b81146104f357600080fd5b50565b600081519050610505816104df565b92915050565b600060208284031215610521576105206101a6565b5b600061052f848285016104f6565b91505092915050565b610541816104d5565b82525050565b60006080820190508181036000830152610561818761046c565b905061057060208301866103a0565b61057d6040830185610538565b61058a60608301846103a0565b9594505050505056fe60806040523480156200001157600080fd5b506040518060400160405280600381526020017f4e467400000000000000000000000000000000000000000000000000000000008152506040518060400160405280600781526020017f4e46545f46504d00000000000000000000000000000000000000000000000000815250816000908051906020019062000096929190620000b8565b508060019080519060200190620000af929190620000b8565b505050620001cc565b828054620000c69062000197565b90600052602060002090601f016020900481019282620000ea576000855562000136565b82601f106200010557805160ff191683800117855562000136565b8280016001018555821562000136579182015b828111156200013557825182559160200191906001019062000118565b5b50905062000145919062000149565b5090565b5b80821115620001645760008160009055506001016200014a565b5090565b7f4e487b7100000000000000000000000000000000000000000000000000000000600052602260045260246000fd5b60006002820490506001821680620001b057607f821691505b602082108103620001c657620001c562000168565b5b50919050565b612a8a80620001dc6000396000f3fe608060405234801561001057600080fd5b50600436106101165760003560e01c80636c0360eb116100a257806395d89b411161007157806395d89b41146102f1578063a22cb4651461030f578063b88d4fde1461032b578063c87b56dd14610347578063e985e9c51461037757610116565b80636c0360eb1461026b57806370a082311461028957806374992677146102b9578063768b5fd5146102d557610116565b806311f87b19116100e957806311f87b19146101b557806323b872dd146101e557806342842e0e146102015780635b2a4cff1461021d5780636352211e1461023b57610116565b806301ffc9a71461011b57806306fdde031461014b578063081812fc14610169578063095ea7b314610199575b600080fd5b6101356004803603810190610130919061183c565b6103a7565b6040516101429190611884565b60405180910390f35b610153610489565b6040516101609190611938565b60405180910390f35b610183600480360381019061017e9190611990565b61051b565b60405161019091906119fe565b60405180910390f35b6101b360048036038101906101ae9190611a45565b6105a0565b005b6101cf60048036038101906101ca9190611bba565b6106b7565b6040516101dc9190611c25565b60405180910390f35b6101ff60048036038101906101fa9190611c40565b6106fb565b005b61021b60048036038101906102169190611c40565b61075b565b005b61022561077b565b6040516102329190611d52565b60405180910390f35b61025560048036038101906102509190611990565b610810565b60405161026291906119fe565b60405180910390f35b6102736108c1565b6040516102809190611938565b60405180910390f35b6102a3600480360381019061029e9190611d6d565b6108dd565b6040516102b09190611c25565b60405180910390f35b6102d360048036038101906102ce9190611dc6565b610994565b005b6102ef60048036038101906102ea9190611e57565b610a04565b005b6102f9610a4b565b6040516103069190611938565b60405180910390f35b61032960048036038101906103249190611e84565b610add565b005b61034560048036038101906103409190611f65565b610af3565b005b610361600480360381019061035c9190611990565b610b55565b60405161036e9190611938565b60405180910390f35b610391600480360381019061038c9190611fe8565b610b98565b60405161039e9190611884565b60405180910390f35b60007f80ac58cd000000000000000000000000000000000000000000000000000000007bffffffffffffffffffffffffffffffffffffffffffffffffffffffff1916827bffffffffffffffffffffffffffffffffffffffffffffffffffffffff1916148061047257507f5b5e139f000000000000000000000000000000000000000000000000000000007bffffffffffffffffffffffffffffffffffffffffffffffffffffffff1916827bffffffffffffffffffffffffffffffffffffffffffffffffffffffff1916145b80610482575061048182610c2c565b5b9050919050565b60606000805461049890612057565b80601f01602080910402602001604051908101604052809291908181526020018280546104c490612057565b80156105115780601f106104e657610100808354040283529160200191610511565b820191906000526020600020905b8154815290600101906020018083116104f457829003601f168201915b5050505050905090565b600061052682610c96565b610565576040517f08c379a000000000000000000000000000000000000000000000000000000000815260040161055c906120fa565b60405180910390fd5b6004600083815260200190815260200160002060009054906101000a900473ffffffffffffffffffffffffffffffffffffffff169050919050565b60006105ab82610810565b90508073ffffffffffffffffffffffffffffffffffffffff168373ffffffffffffffffffffffffffffffffffffffff160361061b576040517f08c379a00000000000000000000000000000000000000000000000000000000081526004016106129061218c565b60405180910390fd5b8073ffffffffffffffffffffffffffffffffffffffff1661063a610d02565b73ffffffffffffffffffffffffffffffffffffffff161480610669575061066881610663610d02565b610b98565b5b6106a8576040517f08c379a000000000000000000000000000000000000000000000000000000000815260040161069f9061221e565b60405180910390fd5b6106b28383610d0a565b505050565b60006106c3600a610dc3565b60006106cf600a610dd9565b90506106db8482610de7565b6106e58184610fc0565b6106f160008583611034565b8091505092915050565b61070c610706610d02565b82611039565b61074b576040517f08c379a0000000000000000000000000000000000000000000000000000000008152600401610742906122b0565b60405180910390fd5b610756838383611117565b505050565b61077683838360405180602001604052806000815250610af3565b505050565b6107836116f4565b60076040518060600160405290816000820160009054906101000a900460ff16151515158152602001600182015481526020016002820160009054906101000a900473ffffffffffffffffffffffffffffffffffffffff1673ffffffffffffffffffffffffffffffffffffffff1673ffffffffffffffffffffffffffffffffffffffff1681525050905090565b6000806002600084815260200190815260200160002060009054906101000a900473ffffffffffffffffffffffffffffffffffffffff169050600073ffffffffffffffffffffffffffffffffffffffff168173ffffffffffffffffffffffffffffffffffffffff16036108b8576040517f08c379a00000000000000000000000000000000000000000000000000000000081526004016108af90612342565b60405180910390fd5b80915050919050565b604051806060016040528060218152602001612a346021913981565b60008073ffffffffffffffffffffffffffffffffffffffff168273ffffffffffffffffffffffffffffffffffffffff160361094d576040517f08c379a0000000000000000000000000000000000000000000000000000000008152600401610944906123d4565b60405180910390fd5b600360008373ffffffffffffffffffffffffffffffffffffffff1673ffffffffffffffffffffffffffffffffffffffff168152602001908152602001600020549050919050565b82600760000160006101000a81548160ff0219169083151502179055508160076001018190555080600760020160006101000a81548173ffffffffffffffffffffffffffffffffffffffff021916908373ffffffffffffffffffffffffffffffffffffffff160217905550505050565b80600760020160006101000a81548173ffffffffffffffffffffffffffffffffffffffff021916908373ffffffffffffffffffffffffffffffffffffffff16021790555050565b606060018054610a5a90612057565b80601f0160208091040260200160405190810160405280929190818152602001828054610a8690612057565b8015610ad35780601f10610aa857610100808354040283529160200191610ad3565b820191906000526020600020905b815481529060010190602001808311610ab657829003601f168201915b5050505050905090565b610aef610ae8610d02565b838361137d565b5050565b610b04610afe610d02565b83611039565b610b43576040517f08c379a0000000000000000000000000000000000000000000000000000000008152600401610b3a906122b0565b60405180910390fd5b610b4f848484846114e9565b50505050565b6060604051806060016040528060218152602001612a346021913982604051602001610b82929190612451565b6040516020818303038152906040529050919050565b6000600560008473ffffffffffffffffffffffffffffffffffffffff1673ffffffffffffffffffffffffffffffffffffffff16815260200190815260200160002060008373ffffffffffffffffffffffffffffffffffffffff1673ffffffffffffffffffffffffffffffffffffffff16815260200190815260200160002060009054906101000a900460ff16905092915050565b60007f01ffc9a7000000000000000000000000000000000000000000000000000000007bffffffffffffffffffffffffffffffffffffffffffffffffffffffff1916827bffffffffffffffffffffffffffffffffffffffffffffffffffffffff1916149050919050565b60008073ffffffffffffffffffffffffffffffffffffffff166002600084815260200190815260200160002060009054906101000a900473ffffffffffffffffffffffffffffffffffffffff1673ffffffffffffffffffffffffffffffffffffffff1614159050919050565b600033905090565b816004600083815260200190815260200160002060006101000a81548173ffffffffffffffffffffffffffffffffffffffff021916908373ffffffffffffffffffffffffffffffffffffffff160217905550808273ffffffffffffffffffffffffffffffffffffffff16610d7d83610810565b73ffffffffffffffffffffffffffffffffffffffff167f8c5be1e5ebec7d5bd14f71427d1e84f3dd0314c0f7b2291e5b200ac8c7c3b92560405160405180910390a45050565b6001816000016000828254019250508190555050565b600081600001549050919050565b600073ffffffffffffffffffffffffffffffffffffffff168273ffffffffffffffffffffffffffffffffffffffff1603610e56576040517f08c379a0000000000000000000000000000000000000000000000000000000008152600401610e4d906124c5565b60405180910390fd5b610e5f81610c96565b15610e9f576040517f08c379a0000000000000000000000000000000000000000000000000000000008152600401610e9690612531565b60405180910390fd5b610eab60008383611034565b6001600360008473ffffffffffffffffffffffffffffffffffffffff1673ffffffffffffffffffffffffffffffffffffffff1681526020019081526020016000206000828254610efb9190612580565b92505081905550816002600083815260200190815260200160002060006101000a81548173ffffffffffffffffffffffffffffffffffffffff021916908373ffffffffffffffffffffffffffffffffffffffff160217905550808273ffffffffffffffffffffffffffffffffffffffff16600073ffffffffffffffffffffffffffffffffffffffff167fddf252ad1be2c89b69c2b068fc378daa952ba7f163c4a11628f55a4df523b3ef60405160405180910390a4610fbc60008383611545565b5050565b610fc982610c96565b611008576040517f08c379a0000000000000000000000000000000000000000000000000000000008152600401610fff90612648565b60405180910390fd5b8060066000848152602001908152602001600020908051906020019061102f92919061172d565b505050565b505050565b600061104482610c96565b611083576040517f08c379a000000000000000000000000000000000000000000000000000000000815260040161107a906126da565b60405180910390fd5b600061108e83610810565b90508073ffffffffffffffffffffffffffffffffffffffff168473ffffffffffffffffffffffffffffffffffffffff1614806110d057506110cf8185610b98565b5b8061110e57508373ffffffffffffffffffffffffffffffffffffffff166110f68461051b565b73ffffffffffffffffffffffffffffffffffffffff16145b91505092915050565b8273ffffffffffffffffffffffffffffffffffffffff1661113782610810565b73ffffffffffffffffffffffffffffffffffffffff161461118d576040517f08c379a00000000000000000000000000000000000000000000000000000000081526004016111849061276c565b60405180910390fd5b600073ffffffffffffffffffffffffffffffffffffffff168273ffffffffffffffffffffffffffffffffffffffff16036111fc576040517f08c379a00000000000000000000000000000000000000000000000000000000081526004016111f3906127fe565b60405180910390fd5b611207838383611034565b611212600082610d0a565b6001600360008573ffffffffffffffffffffffffffffffffffffffff1673ffffffffffffffffffffffffffffffffffffffff1681526020019081526020016000206000828254611262919061281e565b925050819055506001600360008473ffffffffffffffffffffffffffffffffffffffff1673ffffffffffffffffffffffffffffffffffffffff16815260200190815260200160002060008282546112b99190612580565b92505081905550816002600083815260200190815260200160002060006101000a81548173ffffffffffffffffffffffffffffffffffffffff021916908373ffffffffffffffffffffffffffffffffffffffff160217905550808273ffffffffffffffffffffffffffffffffffffffff168473ffffffffffffffffffffffffffffffffffffffff167fddf252ad1be2c89b69c2b068fc378daa952ba7f163c4a11628f55a4df523b3ef60405160405180910390a4611378838383611545565b505050565b8173ffffffffffffffffffffffffffffffffffffffff168373ffffffffffffffffffffffffffffffffffffffff16036113eb576040517f08c379a00000000000000000000000000000000000000000000000000000000081526004016113e29061289e565b60405180910390fd5b80600560008573ffffffffffffffffffffffffffffffffffffffff1673ffffffffffffffffffffffffffffffffffffffff16815260200190815260200160002060008473ffffffffffffffffffffffffffffffffffffffff1673ffffffffffffffffffffffffffffffffffffffff16815260200190815260200160002060006101000a81548160ff0219169083151502179055508173ffffffffffffffffffffffffffffffffffffffff168373ffffffffffffffffffffffffffffffffffffffff167f17307eab39ab6107e8899845ad3d59bd9653f200f220920489ca2b5937696c31836040516114dc9190611884565b60405180910390a3505050565b6114f4848484611117565b6115008484848461154a565b61153f576040517f08c379a000000000000000000000000000000000000000000000000000000000815260040161153690612930565b60405180910390fd5b50505050565b505050565b600061156b8473ffffffffffffffffffffffffffffffffffffffff166116d1565b156116c4578373ffffffffffffffffffffffffffffffffffffffff1663150b7a02611594610d02565b8786866040518563ffffffff1660e01b81526004016115b694939291906129a5565b6020604051808303816000875af19250505080156115f257506040513d601f19601f820116820180604052508101906115ef9190612a06565b60015b611674573d8060008114611622576040519150601f19603f3d011682016040523d82523d6000602084013e611627565b606091505b50600081510361166c576040517f08c379a000000000000000000000000000000000000000000000000000000000815260040161166390612930565b60405180910390fd5b805181602001fd5b63150b7a0260e01b7bffffffffffffffffffffffffffffffffffffffffffffffffffffffff1916817bffffffffffffffffffffffffffffffffffffffffffffffffffffffff1916149150506116c9565b600190505b949350505050565b6000808273ffffffffffffffffffffffffffffffffffffffff163b119050919050565b604051806060016040528060001515815260200160008152602001600073ffffffffffffffffffffffffffffffffffffffff1681525090565b82805461173990612057565b90600052602060002090601f01602090048101928261175b57600085556117a2565b82601f1061177457805160ff19168380011785556117a2565b828001600101855582156117a2579182015b828111156117a1578251825591602001919060010190611786565b5b5090506117af91906117b3565b5090565b5b808211156117cc5760008160009055506001016117b4565b5090565b6000604051905090565b600080fd5b600080fd5b60007fffffffff0000000000000000000000000000000000000000000000000000000082169050919050565b611819816117e4565b811461182457600080fd5b50565b60008135905061183681611810565b92915050565b600060208284031215611852576118516117da565b5b600061186084828501611827565b91505092915050565b60008115159050919050565b61187e81611869565b82525050565b60006020820190506118996000830184611875565b92915050565b600081519050919050565b600082825260208201905092915050565b60005b838110156118d95780820151818401526020810190506118be565b838111156118e8576000848401525b50505050565b6000601f19601f8301169050919050565b600061190a8261189f565b61191481856118aa565b93506119248185602086016118bb565b61192d816118ee565b840191505092915050565b6000602082019050818103600083015261195281846118ff565b905092915050565b6000819050919050565b61196d8161195a565b811461197857600080fd5b50565b60008135905061198a81611964565b92915050565b6000602082840312156119a6576119a56117da565b5b60006119b48482850161197b565b91505092915050565b600073ffffffffffffffffffffffffffffffffffffffff82169050919050565b60006119e8826119bd565b9050919050565b6119f8816119dd565b82525050565b6000602082019050611a1360008301846119ef565b92915050565b611a22816119dd565b8114611a2d57600080fd5b50565b600081359050611a3f81611a19565b92915050565b60008060408385031215611a5c57611a5b6117da565b5b6000611a6a85828601611a30565b9250506020611a7b8582860161197b565b9150509250929050565b600080fd5b600080fd5b7f4e487b7100000000000000000000000000000000000000000000000000000000600052604160045260246000fd5b611ac7826118ee565b810181811067ffffffffffffffff82111715611ae657611ae5611a8f565b5b80604052505050565b6000611af96117d0565b9050611b058282611abe565b919050565b600067ffffffffffffffff821115611b2557611b24611a8f565b5b611b2e826118ee565b9050602081019050919050565b82818337600083830152505050565b6000611b5d611b5884611b0a565b611aef565b905082815260208101848484011115611b7957611b78611a8a565b5b611b84848285611b3b565b509392505050565b600082601f830112611ba157611ba0611a85565b5b8135611bb1848260208601611b4a565b91505092915050565b60008060408385031215611bd157611bd06117da565b5b6000611bdf85828601611a30565b925050602083013567ffffffffffffffff811115611c0057611bff6117df565b5b611c0c85828601611b8c565b9150509250929050565b611c1f8161195a565b82525050565b6000602082019050611c3a6000830184611c16565b92915050565b600080600060608486031215611c5957611c586117da565b5b6000611c6786828701611a30565b9350506020611c7886828701611a30565b9250506040611c898682870161197b565b9150509250925092565b611c9c81611869565b82525050565b611cab8161195a565b82525050565b6000819050919050565b6000611cd6611cd1611ccc846119bd565b611cb1565b6119bd565b9050919050565b6000611ce882611cbb565b9050919050565b6000611cfa82611cdd565b9050919050565b611d0a81611cef565b82525050565b606082016000820151611d266000850182611c93565b506020820151611d396020850182611ca2565b506040820151611d4c6040850182611d01565b50505050565b6000606082019050611d676000830184611d10565b92915050565b600060208284031215611d8357611d826117da565b5b6000611d9184828501611a30565b91505092915050565b611da381611869565b8114611dae57600080fd5b50565b600081359050611dc081611d9a565b92915050565b600080600060608486031215611ddf57611dde6117da565b5b6000611ded86828701611db1565b9350506020611dfe8682870161197b565b9250506040611e0f86828701611a30565b9150509250925092565b6000611e24826119dd565b9050919050565b611e3481611e19565b8114611e3f57600080fd5b50565b600081359050611e5181611e2b565b92915050565b600060208284031215611e6d57611e6c6117da565b5b6000611e7b84828501611e42565b91505092915050565b60008060408385031215611e9b57611e9a6117da565b5b6000611ea985828601611a30565b9250506020611eba85828601611db1565b9150509250929050565b600067ffffffffffffffff821115611edf57611ede611a8f565b5b611ee8826118ee565b9050602081019050919050565b6000611f08611f0384611ec4565b611aef565b905082815260208101848484011115611f2457611f23611a8a565b5b611f2f848285611b3b565b509392505050565b600082601f830112611f4c57611f4b611a85565b5b8135611f5c848260208601611ef5565b91505092915050565b60008060008060808587031215611f7f57611f7e6117da565b5b6000611f8d87828801611a30565b9450506020611f9e87828801611a30565b9350506040611faf8782880161197b565b925050606085013567ffffffffffffffff811115611fd057611fcf6117df565b5b611fdc87828801611f37565b91505092959194509250565b60008060408385031215611fff57611ffe6117da565b5b600061200d85828601611a30565b925050602061201e85828601611a30565b9150509250929050565b7f4e487b7100000000000000000000000000000000000000000000000000000000600052602260045260246000fd5b6000600282049050600182168061206f57607f821691505b60208210810361208257612081612028565b5b50919050565b7f4552433732313a20617070726f76656420717565727920666f72206e6f6e657860008201527f697374656e7420746f6b656e0000000000000000000000000000000000000000602082015250565b60006120e4602c836118aa565b91506120ef82612088565b604082019050919050565b60006020820190508181036000830152612113816120d7565b9050919050565b7f4552433732313a20617070726f76616c20746f2063757272656e74206f776e6560008201527f7200000000000000000000000000000000000000000000000000000000000000602082015250565b60006121766021836118aa565b91506121818261211a565b604082019050919050565b600060208201905081810360008301526121a581612169565b9050919050565b7f4552433732313a20617070726f76652063616c6c6572206973206e6f74206f7760008201527f6e6572206e6f7220617070726f76656420666f7220616c6c0000000000000000602082015250565b60006122086038836118aa565b9150612213826121ac565b604082019050919050565b60006020820190508181036000830152612237816121fb565b9050919050565b7f4552433732313a207472616e736665722063616c6c6572206973206e6f74206f60008201527f776e6572206e6f7220617070726f766564000000000000000000000000000000602082015250565b600061229a6031836118aa565b91506122a58261223e565b604082019050919050565b600060208201905081810360008301526122c98161228d565b9050919050565b7f4552433732313a206f776e657220717565727920666f72206e6f6e657869737460008201527f656e7420746f6b656e0000000000000000000000000000000000000000000000602082015250565b600061232c6029836118aa565b9150612337826122d0565b604082019050919050565b6000602082019050818103600083015261235b8161231f565b9050919050565b7f4552433732313a2062616c616e636520717565727920666f7220746865207a6560008201527f726f206164647265737300000000000000000000000000000000000000000000602082015250565b60006123be602a836118aa565b91506123c982612362565b604082019050919050565b600060208201905081810360008301526123ed816123b1565b9050919050565b600081905092915050565b600061240a8261189f565b61241481856123f4565b93506124248185602086016118bb565b80840191505092915050565b6000819050919050565b61244b6124468261195a565b612430565b82525050565b600061245d82856123ff565b9150612469828461243a565b6020820191508190509392505050565b7f4552433732313a206d696e7420746f20746865207a65726f2061646472657373600082015250565b60006124af6020836118aa565b91506124ba82612479565b602082019050919050565b600060208201905081810360008301526124de816124a2565b9050919050565b7f4552433732313a20746f6b656e20616c7265616479206d696e74656400000000600082015250565b600061251b601c836118aa565b9150612526826124e5565b602082019050919050565b6000602082019050818103600083015261254a8161250e565b9050919050565b7f4e487b7100000000000000000000000000000000000000000000000000000000600052601160045260246000fd5b600061258b8261195a565b91506125968361195a565b9250827fffffffffffffffffffffffffffffffffffffffffffffffffffffffffffffffff038211156125cb576125ca612551565b5b828201905092915050565b7f45524337323155524953746f726167653a2055524920736574206f66206e6f6e60008201527f6578697374656e7420746f6b656e000000000000000000000000000000000000602082015250565b6000612632602e836118aa565b915061263d826125d6565b604082019050919050565b6000602082019050818103600083015261266181612625565b9050919050565b7f4552433732313a206f70657261746f7220717565727920666f72206e6f6e657860008201527f697374656e7420746f6b656e0000000000000000000000000000000000000000602082015250565b60006126c4602c836118aa565b91506126cf82612668565b604082019050919050565b600060208201905081810360008301526126f3816126b7565b9050919050565b7f4552433732313a207472616e736665722066726f6d20696e636f72726563742060008201527f6f776e6572000000000000000000000000000000000000000000000000000000602082015250565b60006127566025836118aa565b9150612761826126fa565b604082019050919050565b6000602082019050818103600083015261278581612749565b9050919050565b7f4552433732313a207472616e7366657220746f20746865207a65726f2061646460008201527f7265737300000000000000000000000000000000000000000000000000000000602082015250565b60006127e86024836118aa565b91506127f38261278c565b604082019050919050565b60006020820190508181036000830152612817816127db565b9050919050565b60006128298261195a565b91506128348361195a565b92508282101561284757612846612551565b5b828203905092915050565b7f4552433732313a20617070726f766520746f2063616c6c657200000000000000600082015250565b60006128886019836118aa565b915061289382612852565b602082019050919050565b600060208201905081810360008301526128b78161287b565b9050919050565b7f4552433732313a207472616e7366657220746f206e6f6e20455243373231526560008201527f63656976657220696d706c656d656e7465720000000000000000000000000000602082015250565b600061291a6032836118aa565b9150612925826128be565b604082019050919050565b600060208201905081810360008301526129498161290d565b9050919050565b600081519050919050565b600082825260208201905092915050565b600061297782612950565b612981818561295b565b93506129918185602086016118bb565b61299a816118ee565b840191505092915050565b60006080820190506129ba60008301876119ef565b6129c760208301866119ef565b6129d46040830185611c16565b81810360608301526129e6818461296c565b905095945050505050565b600081519050612a0081611810565b92915050565b600060208284031215612a1c57612a1b6117da565b5b6000612a2a848285016129f1565b9150509291505056fe68747470733a2f2f676174657761792e70696e6174612e636c6f75642f69706673a264697066735822122084581b2eeb20d8e8a288b8f0bacc49b7a11bf449d038d8fc3059dc988dafc77164736f6c634300080d0033a264697066735822122039d4b2cabae4bafb82939fbe0f9c502c57dd42de9df3d833fe56fe4155c1463d64736f6c634300080d0033",
  "immutableReferences": {},
  "source": "// SPDX-License-Identifier: MIT\npragma solidity 0.8.13;\n\n// importing the ERC-721 contract to deploy for an artist\nimport \"./Nft.sol\";\n\n/** \n  * @notice Give the ability to deploy a contract to manage ERC-721 tokens for an Artist. S/O @Snow\n  * @dev    If the contract is already deployed for an _artistName, it will revert.\n  */\ncontract NftFactory{\n\n    event NftCreated(string _nftName, address _nftAddress, uint _timestamp, address _creator);\n\n    /**\n      * @notice Deploy the ERC-721 Collection contract of the artist caller to be able to create NFTs later\n      *\n      * @return nftAddress the address of the created collection contract\n      */\n    function createNft(string memory _nfName, string memory _tokenURI) external returns (address nftAddress) {\n        // Import the bytecode of the contract to deploy\n        bytes memory collectionBytecode = type(Nft).creationCode;\n\t\t\t\t// Make a random salt based on the artist name\n        bytes32 salt = keccak256(abi.encodePacked(_nfName));\n\n        assembly {\n            nftAddress := create2(0, add(collectionBytecode, 0x20), mload(collectionBytecode), salt)\n            if iszero(extcodesize(nftAddress)) {\n                // revert if something gone wrong (collectionAddress doesn't contain an address)\n                revert(0, 0)\n            }\n        }\n        // Initialize the Nft contract with the artist settings\n        Nft(nftAddress).mintNft(msg.sender, _tokenURI);\n\n        emit NftCreated(_nfName, nftAddress, block.timestamp, msg.sender);\n    }\n}\n",
  "sourcePath": "/home/pierre/Projets/Alyra/Projet_5/contracts/NftFactory.sol",
  "compiler": {
    "name": "solc",
    "version": "0.8.13+commit.abaa5c0e.Emscripten.clang"
  },
  "schemaVersion": "3.4.6",
  "updatedAt": "2022-05-12T09:21:34.240Z",
  "networkType": "ethereum",
  "devdoc": {
    "details": "If the contract is already deployed for an _artistName, it will revert.",
    "kind": "dev",
    "methods": {
      "createNft(string,string)": {
        "returns": {
          "nftAddress": "the address of the created collection contract"
        }
      }
    },
    "version": 1
  },
  "userdoc": {
    "kind": "user",
    "methods": {
      "createNft(string,string)": {
        "notice": "Deploy the ERC-721 Collection contract of the artist caller to be able to create NFTs later"
      }
    },
    "notice": "Give the ability to deploy a contract to manage ERC-721 tokens for an Artist. S/O @Snow",
    "version": 1
  }
}