{
  "contractName": "NftMarketPlace",
  "abi": [
    {
      "anonymous": false,
      "inputs": [
        {
          "indexed": false,
          "internalType": "address",
          "name": "nftAddress",
          "type": "address"
        },
        {
          "indexed": false,
          "internalType": "uint256",
          "name": "tokenId",
          "type": "uint256"
        },
        {
          "indexed": false,
          "internalType": "uint256",
          "name": "count",
          "type": "uint256"
        },
        {
          "indexed": false,
          "internalType": "address",
          "name": "proposer",
          "type": "address"
        },
        {
          "indexed": false,
          "internalType": "uint256",
          "name": "price",
          "type": "uint256"
        }
      ],
      "name": "CreateProposalBuyOrder",
      "type": "event"
    },
    {
      "anonymous": false,
      "inputs": [
        {
          "indexed": true,
          "internalType": "address",
          "name": "previousOwner",
          "type": "address"
        },
        {
          "indexed": true,
          "internalType": "address",
          "name": "newOwner",
          "type": "address"
        }
      ],
      "name": "OwnershipTransferred",
      "type": "event"
    },
    {
      "anonymous": false,
      "inputs": [
        {
          "indexed": false,
          "internalType": "address",
          "name": "nftAddress",
          "type": "address"
        },
        {
          "indexed": false,
          "internalType": "uint256",
          "name": "tokenId",
          "type": "uint256"
        },
        {
          "indexed": false,
          "internalType": "uint256",
          "name": "index",
          "type": "uint256"
        }
      ],
      "name": "ProcessProposalBuyOrder",
      "type": "event"
    },
    {
      "inputs": [],
      "name": "owner",
      "outputs": [
        {
          "internalType": "address",
          "name": "",
          "type": "address"
        }
      ],
      "stateMutability": "view",
      "type": "function",
      "constant": true
    },
    {
      "inputs": [],
      "name": "renounceOwnership",
      "outputs": [],
      "stateMutability": "nonpayable",
      "type": "function"
    },
    {
      "inputs": [
        {
          "internalType": "address",
          "name": "newOwner",
          "type": "address"
        }
      ],
      "name": "transferOwnership",
      "outputs": [],
      "stateMutability": "nonpayable",
      "type": "function"
    },
    {
      "inputs": [
        {
          "internalType": "contract NftCollection",
          "name": "_nftCollection",
          "type": "address"
        },
        {
          "internalType": "uint256",
          "name": "_tokenId",
          "type": "uint256"
        }
      ],
      "name": "createOrder",
      "outputs": [],
      "stateMutability": "payable",
      "type": "function",
      "payable": true
    },
    {
      "inputs": [
        {
          "internalType": "contract NftCollection",
          "name": "_nftCollection",
          "type": "address"
        },
        {
          "internalType": "uint256",
          "name": "_tokenId",
          "type": "uint256"
        },
        {
          "internalType": "uint256",
          "name": "proposalIndex",
          "type": "uint256"
        }
      ],
      "name": "processOrder",
      "outputs": [],
      "stateMutability": "nonpayable",
      "type": "function"
    },
    {
      "inputs": [
        {
          "internalType": "contract NftCollection",
          "name": "_nftCollection",
          "type": "address"
        },
        {
          "internalType": "uint256",
          "name": "_tokenId",
          "type": "uint256"
        }
      ],
      "name": "cancelOrders",
      "outputs": [],
      "stateMutability": "nonpayable",
      "type": "function"
    },
    {
      "inputs": [
        {
          "internalType": "contract NftCollection",
          "name": "_nftCollection",
          "type": "address"
        },
        {
          "internalType": "uint256",
          "name": "_tokenId",
          "type": "uint256"
        },
        {
          "internalType": "uint256",
          "name": "_index",
          "type": "uint256"
        }
      ],
      "name": "getBuyProposals",
      "outputs": [
        {
          "components": [
            {
              "internalType": "address payable",
              "name": "proposalOwner",
              "type": "address"
            },
            {
              "internalType": "uint256",
              "name": "price",
              "type": "uint256"
            }
          ],
          "internalType": "struct NftMarketPlace.BuyProposal",
          "name": "",
          "type": "tuple"
        }
      ],
      "stateMutability": "view",
      "type": "function",
      "constant": true
    },
    {
      "inputs": [
        {
          "internalType": "contract NftCollection",
          "name": "_nftCollection",
          "type": "address"
        },
        {
          "internalType": "uint256",
          "name": "_tokenId",
          "type": "uint256"
        }
      ],
      "name": "isTradeOpen",
      "outputs": [
        {
          "internalType": "bool",
          "name": "",
          "type": "bool"
        }
      ],
      "stateMutability": "view",
      "type": "function",
      "constant": true
    }
  ],
  "bytecode": "0x608060405234801561001057600080fd5b5061002d61002261003260201b60201c565b61003a60201b60201c565b6100fe565b600033905090565b60008060009054906101000a900473ffffffffffffffffffffffffffffffffffffffff169050816000806101000a81548173ffffffffffffffffffffffffffffffffffffffff021916908373ffffffffffffffffffffffffffffffffffffffff1602179055508173ffffffffffffffffffffffffffffffffffffffff168173ffffffffffffffffffffffffffffffffffffffff167f8be0079c531659141344cd1fd0a4f28419497f9722a3daafe3b4186f6b6457e060405160405180910390a35050565b6117258061010d6000396000f3fe60806040526004361061007b5760003560e01c80637905b5961161004e5780637905b596146101195780638da5cb5b14610142578063c1e2ebc71461016d578063f2fde38b146101aa5761007b565b80634fc6224c146100805780636c16b545146100bd578063715018a6146100d957806378e8b723146100f0575b600080fd5b34801561008c57600080fd5b506100a760048036038101906100a291906110d4565b6101d3565b6040516100b4919061112f565b60405180910390f35b6100d760048036038101906100d291906110d4565b610265565b005b3480156100e557600080fd5b506100ee6105d2565b005b3480156100fc57600080fd5b50610117600480360381019061011291906110d4565b61065a565b005b34801561012557600080fd5b50610140600480360381019061013b919061114a565b61081d565b005b34801561014e57600080fd5b50610157610cf2565b60405161016491906111ac565b60405180910390f35b34801561017957600080fd5b50610194600480360381019061018f919061114a565b610d1b565b6040516101a19190611226565b60405180910390f35b3480156101b657600080fd5b506101d160048036038101906101cc919061126d565b610e0a565b005b6000600160038111156101e9576101e861129a565b5b600160008573ffffffffffffffffffffffffffffffffffffffff1673ffffffffffffffffffffffffffffffffffffffff168152602001908152602001600020600084815260200190815260200160002060000160009054906101000a900460ff16600381111561025c5761025b61129a565b5b14905092915050565b6000600160008473ffffffffffffffffffffffffffffffffffffffff1673ffffffffffffffffffffffffffffffffffffffff168152602001908152602001600020600083815260200190815260200160002060000160009054906101000a900460ff169050600160038111156102de576102dd61129a565b5b8160038111156102f1576102f061129a565b5b148061032157506000600381111561030c5761030b61129a565b5b81600381111561031f5761031e61129a565b5b145b610360576040517f08c379a000000000000000000000000000000000000000000000000000000000815260040161035790611326565b60405180910390fd5b60018060008573ffffffffffffffffffffffffffffffffffffffff1673ffffffffffffffffffffffffffffffffffffffff168152602001908152602001600020600084815260200190815260200160002060000160006101000a81548160ff021916908360038111156103d6576103d561129a565b5b02179055506103e3610fcd565b6001816000019060038111156103fc576103fb61129a565b5b908160038111156104105761040f61129a565b5b8152505061041c610ff9565b33816000019073ffffffffffffffffffffffffffffffffffffffff16908173ffffffffffffffffffffffffffffffffffffffff168152505034816020018181525050600160008673ffffffffffffffffffffffffffffffffffffffff1673ffffffffffffffffffffffffffffffffffffffff168152602001908152602001600020600085815260200190815260200160002060010181908060018154018082558091505060019003906000526020600020906002020160009091909190915060008201518160000160006101000a81548173ffffffffffffffffffffffffffffffffffffffff021916908373ffffffffffffffffffffffffffffffffffffffff1602179055506020820151816001015550507fdad14291d48d884900a1ce24376d5123882388e6c3a16c5eb55c90cea4aa08a48585600160008973ffffffffffffffffffffffffffffffffffffffff1673ffffffffffffffffffffffffffffffffffffffff168152602001908152602001600020600088815260200190815260200160002060010180549050846000015185602001516040516105c39594939291906113b4565b60405180910390a15050505050565b6105da610f01565b73ffffffffffffffffffffffffffffffffffffffff166105f8610cf2565b73ffffffffffffffffffffffffffffffffffffffff161461064e576040517f08c379a000000000000000000000000000000000000000000000000000000000815260040161064590611453565b60405180910390fd5b6106586000610f09565b565b610662610f01565b73ffffffffffffffffffffffffffffffffffffffff16610680610cf2565b73ffffffffffffffffffffffffffffffffffffffff16146106d6576040517f08c379a00000000000000000000000000000000000000000000000000000000081526004016106cd90611453565b60405180910390fd5b600160038111156106ea576106e961129a565b5b600160008473ffffffffffffffffffffffffffffffffffffffff1673ffffffffffffffffffffffffffffffffffffffff168152602001908152602001600020600083815260200190815260200160002060000160009054906101000a900460ff16600381111561075d5761075c61129a565b5b1461079d576040517f08c379a000000000000000000000000000000000000000000000000000000000815260040161079490611326565b60405180910390fd5b6003600160008473ffffffffffffffffffffffffffffffffffffffff1673ffffffffffffffffffffffffffffffffffffffff168152602001908152602001600020600083815260200190815260200160002060000160006101000a81548160ff021916908360038111156108145761081361129a565b5b02179055505050565b8273ffffffffffffffffffffffffffffffffffffffff16636352211e836040518263ffffffff1660e01b81526004016108569190611473565b602060405180830381865afa158015610873573d6000803e3d6000fd5b505050506040513d601f19601f8201168201806040525081019061089791906114a3565b73ffffffffffffffffffffffffffffffffffffffff163373ffffffffffffffffffffffffffffffffffffffff1614610904576040517f08c379a00000000000000000000000000000000000000000000000000000000081526004016108fb9061151c565b60405180910390fd5b600160008473ffffffffffffffffffffffffffffffffffffffff1673ffffffffffffffffffffffffffffffffffffffff168152602001908152602001600020600083815260200190815260200160002060010180549050811061099c576040517f08c379a0000000000000000000000000000000000000000000000000000000008152600401610993906115ae565b60405180910390fd5b600160038111156109b0576109af61129a565b5b600160008573ffffffffffffffffffffffffffffffffffffffff1673ffffffffffffffffffffffffffffffffffffffff168152602001908152602001600020600084815260200190815260200160002060000160009054906101000a900460ff166003811115610a2357610a2261129a565b5b14610a63576040517f08c379a0000000000000000000000000000000000000000000000000000000008152600401610a5a90611326565b60405180910390fd5b6002600160008573ffffffffffffffffffffffffffffffffffffffff1673ffffffffffffffffffffffffffffffffffffffff168152602001908152602001600020600084815260200190815260200160002060000160006101000a81548160ff02191690836003811115610ada57610ad961129a565b5b02179055506000600160008573ffffffffffffffffffffffffffffffffffffffff1673ffffffffffffffffffffffffffffffffffffffff16815260200190815260200160002060008481526020019081526020016000206001018281548110610b4657610b456115ce565b5b9060005260206000209060020201905060008490508473ffffffffffffffffffffffffffffffffffffffff16636352211e856040518263ffffffff1660e01b8152600401610b949190611473565b602060405180830381865afa158015610bb1573d6000803e3d6000fd5b505050506040513d601f19601f82011682018060405250810190610bd591906114a3565b73ffffffffffffffffffffffffffffffffffffffff166108fc83600101549081150290604051600060405180830381858888f19350505050158015610c1e573d6000803e3d6000fd5b508073ffffffffffffffffffffffffffffffffffffffff16638fba3f7c8360000160009054906101000a900473ffffffffffffffffffffffffffffffffffffffff16866040518363ffffffff1660e01b8152600401610c7e9291906115fd565b600060405180830381600087803b158015610c9857600080fd5b505af1158015610cac573d6000803e3d6000fd5b505050507fcdeb22aaa14b1bd1f488101b430616f16926dc9f8143372e15b2612656b7dd7d858585604051610ce393929190611626565b60405180910390a15050505050565b60008060009054906101000a900473ffffffffffffffffffffffffffffffffffffffff16905090565b610d23610ff9565b600160008573ffffffffffffffffffffffffffffffffffffffff1673ffffffffffffffffffffffffffffffffffffffff16815260200190815260200160002060008481526020019081526020016000206001018281548110610d8857610d876115ce565b5b90600052602060002090600202016040518060400160405290816000820160009054906101000a900473ffffffffffffffffffffffffffffffffffffffff1673ffffffffffffffffffffffffffffffffffffffff1673ffffffffffffffffffffffffffffffffffffffff16815260200160018201548152505090509392505050565b610e12610f01565b73ffffffffffffffffffffffffffffffffffffffff16610e30610cf2565b73ffffffffffffffffffffffffffffffffffffffff1614610e86576040517f08c379a0000000000000000000000000000000000000000000000000000000008152600401610e7d90611453565b60405180910390fd5b600073ffffffffffffffffffffffffffffffffffffffff168173ffffffffffffffffffffffffffffffffffffffff1603610ef5576040517f08c379a0000000000000000000000000000000000000000000000000000000008152600401610eec906116cf565b60405180910390fd5b610efe81610f09565b50565b600033905090565b60008060009054906101000a900473ffffffffffffffffffffffffffffffffffffffff169050816000806101000a81548173ffffffffffffffffffffffffffffffffffffffff021916908373ffffffffffffffffffffffffffffffffffffffff1602179055508173ffffffffffffffffffffffffffffffffffffffff168173ffffffffffffffffffffffffffffffffffffffff167f8be0079c531659141344cd1fd0a4f28419497f9722a3daafe3b4186f6b6457e060405160405180910390a35050565b604051806040016040528060006003811115610fec57610feb61129a565b5b8152602001606081525090565b6040518060400160405280600073ffffffffffffffffffffffffffffffffffffffff168152602001600081525090565b600080fd5b600073ffffffffffffffffffffffffffffffffffffffff82169050919050565b60006110598261102e565b9050919050565b600061106b8261104e565b9050919050565b61107b81611060565b811461108657600080fd5b50565b60008135905061109881611072565b92915050565b6000819050919050565b6110b18161109e565b81146110bc57600080fd5b50565b6000813590506110ce816110a8565b92915050565b600080604083850312156110eb576110ea611029565b5b60006110f985828601611089565b925050602061110a858286016110bf565b9150509250929050565b60008115159050919050565b61112981611114565b82525050565b60006020820190506111446000830184611120565b92915050565b60008060006060848603121561116357611162611029565b5b600061117186828701611089565b9350506020611182868287016110bf565b9250506040611193868287016110bf565b9150509250925092565b6111a68161104e565b82525050565b60006020820190506111c1600083018461119d565b92915050565b60006111d28261102e565b9050919050565b6111e2816111c7565b82525050565b6111f18161109e565b82525050565b60408201600082015161120d60008501826111d9565b50602082015161122060208501826111e8565b50505050565b600060408201905061123b60008301846111f7565b92915050565b61124a8161104e565b811461125557600080fd5b50565b60008135905061126781611241565b92915050565b60006020828403121561128357611282611029565b5b600061129184828501611258565b91505092915050565b7f4e487b7100000000000000000000000000000000000000000000000000000000600052602160045260246000fd5b600082825260208201905092915050565b7f6e6f2070726f706f73616c7320666f722074686973204e667400000000000000600082015250565b60006113106019836112c9565b915061131b826112da565b602082019050919050565b6000602082019050818103600083015261133f81611303565b9050919050565b61134f8161109e565b82525050565b6000819050919050565b600061137a6113756113708461102e565b611355565b61102e565b9050919050565b600061138c8261135f565b9050919050565b600061139e82611381565b9050919050565b6113ae81611393565b82525050565b600060a0820190506113c9600083018861119d565b6113d66020830187611346565b6113e36040830186611346565b6113f060608301856113a5565b6113fd6080830184611346565b9695505050505050565b7f4f776e61626c653a2063616c6c6572206973206e6f7420746865206f776e6572600082015250565b600061143d6020836112c9565b915061144882611407565b602082019050919050565b6000602082019050818103600083015261146c81611430565b9050919050565b60006020820190506114886000830184611346565b92915050565b60008151905061149d81611241565b92915050565b6000602082840312156114b9576114b8611029565b5b60006114c78482850161148e565b91505092915050565b7f596f7520617265206e6f742074686520746f6b656e4964206f776e6572000000600082015250565b6000611506601d836112c9565b9150611511826114d0565b602082019050919050565b60006020820190508181036000830152611535816114f9565b9050919050565b7f746869732070726f706f73616c20666f72207468697320696e64657820646f6560008201527f73206e6f74206578697374730000000000000000000000000000000000000000602082015250565b6000611598602c836112c9565b91506115a38261153c565b604082019050919050565b600060208201905081810360008301526115c78161158b565b9050919050565b7f4e487b7100000000000000000000000000000000000000000000000000000000600052603260045260246000fd5b600060408201905061161260008301856113a5565b61161f6020830184611346565b9392505050565b600060608201905061163b600083018661119d565b6116486020830185611346565b6116556040830184611346565b949350505050565b7f4f776e61626c653a206e6577206f776e657220697320746865207a65726f206160008201527f6464726573730000000000000000000000000000000000000000000000000000602082015250565b60006116b96026836112c9565b91506116c48261165d565b604082019050919050565b600060208201905081810360008301526116e8816116ac565b905091905056fea26469706673582212208548a3604706d09a5f461978a54faa4a74c47ababb5f7e7e6040a03a0d7da92c64736f6c634300080d0033",
  "immutableReferences": {},
  "source": "// SPDX-License-Identifier: MIT\npragma solidity 0.8.13;\n\n// importing the ERC-721 contract to deploy for a collection\nimport \"./NftCollection.sol\";\nimport \"@openzeppelin/contracts/access/Ownable.sol\";\n\n\n/** \n  * @notice Give the ability to create buy order for an nft and process them\n  */\ncontract NftMarketPlace is Ownable {\n\n    // Mapping from collection to buyProposal token IDs\n    mapping(NftCollection => mapping(uint256 => BuyProposals)) private nftTrades;\n    \n    event CreateProposalBuyOrder(address nftAddress, uint tokenId, uint count, address proposer, uint price);\n    event ProcessProposalBuyOrder(address nftAddress, uint tokenId, uint index);\n    enum  BuyProposalStatus {\n        NotCreated,\n        Open,\n        Executed,\n        Cancelled\n    }\n\n    struct BuyProposals {\n        BuyProposalStatus status; // Open, Executed, Cancelled\n        BuyProposal[] buyProposals;\n    }\n\n    struct BuyProposal {\n        address payable proposalOwner;\n        uint256 price;   \n    }\n\n\n    /** \n        createOrder method\n        @notice transfer price to contract\n        @param _nftCollection the addres of nftCollection\n        @dev Throws if _nft does not exists\n    */    \n    function createOrder(NftCollection _nftCollection, uint256 _tokenId) external payable {\n        BuyProposalStatus status = nftTrades[_nftCollection][_tokenId].status;\n        require( status == BuyProposalStatus.Open || status == BuyProposalStatus.NotCreated, \"no proposals for this Nft\");\n        //payable(address(this)).transfer(msg.value);\n        nftTrades[_nftCollection][_tokenId].status = BuyProposalStatus.Open ;\n        BuyProposals memory proposals;\n        proposals.status = BuyProposalStatus.Open;\n\n        BuyProposal memory buyProposal;\n        buyProposal.proposalOwner = payable(msg.sender);\n        buyProposal.price = msg.value;\n\n        nftTrades[_nftCollection][_tokenId].buyProposals.push(buyProposal);\n        \n        emit CreateProposalBuyOrder(address(_nftCollection), _tokenId, nftTrades[_nftCollection][_tokenId].buyProposals.length, buyProposal.proposalOwner, buyProposal.price);\n    }\n\n    function processOrder(NftCollection _nftCollection, uint256 _tokenId, uint proposalIndex ) external {\n        require(msg.sender == _nftCollection.ownerOf(_tokenId), \"You are not the tokenId owner\");\n\n        require(proposalIndex < nftTrades[_nftCollection][_tokenId].buyProposals.length, \"this proposal for this index does not exists\");\n        require(nftTrades[_nftCollection][_tokenId].status == BuyProposalStatus.Open, \"no proposals for this Nft\");\n        nftTrades[_nftCollection][_tokenId].status = BuyProposalStatus.Executed;\n\n        BuyProposal storage buyProposal = nftTrades[_nftCollection][_tokenId].buyProposals[proposalIndex];\n        NftCollection nftCollection = NftCollection(_nftCollection);\n        payable(address(_nftCollection.ownerOf(_tokenId))).transfer(buyProposal.price);\n\n        nftCollection.changeNftOwner(buyProposal.proposalOwner, _tokenId);\n        \n\n        /*for (uint index = 0; index < nftTrades[_nftCollection][_tokenId].buyProposals.length; index++ ) {\n            if(index != proposalIndex) {\n                BuyProposal storage notAcceptedProposal = nftTrades[_nftCollection][_tokenId].buyProposals[proposalIndex];\n                notAcceptedProposal.proposalOwner.transfer(notAcceptedProposal.price);\n            }\n        }*/\n \n        emit ProcessProposalBuyOrder(address(_nftCollection), _tokenId, proposalIndex);\n    }\n\n    function cancelOrders(NftCollection _nftCollection, uint256 _tokenId) external onlyOwner {\n        require(nftTrades[_nftCollection][_tokenId].status == BuyProposalStatus.Open, \"no proposals for this Nft\");\n        nftTrades[_nftCollection][_tokenId].status = BuyProposalStatus.Cancelled;\n    }\n\n\n    /*\n        getOneProposal\n    **/\n    function getBuyProposals(NftCollection _nftCollection, uint256 _tokenId, uint _index) external view returns (BuyProposal memory) {\n        return nftTrades[_nftCollection][_tokenId].buyProposals[_index];\n    }\n\n    /**\n        Return true if trade is opened\n     */\n    function isTradeOpen(NftCollection _nftCollection, uint256 _tokenId) external view returns (bool) {\n        return nftTrades[_nftCollection][_tokenId].status == BuyProposalStatus.Open;\n    }\n}",
  "sourcePath": "/home/pierre/Projets/Alyra/Projet_5/contracts/NftMarketPlace.sol",
  "compiler": {
    "name": "solc",
    "version": "0.8.13+commit.abaa5c0e.Emscripten.clang"
  },
  "schemaVersion": "3.4.6",
  "updatedAt": "2022-05-15T20:58:28.404Z",
  "networkType": "ethereum",
  "devdoc": {
    "kind": "dev",
    "methods": {
      "createOrder(address,uint256)": {
        "details": "Throws if _nft does not exists",
        "params": {
          "_nftCollection": "the addres of nftCollection"
        }
      },
      "owner()": {
        "details": "Returns the address of the current owner."
      },
      "renounceOwnership()": {
        "details": "Leaves the contract without owner. It will not be possible to call `onlyOwner` functions anymore. Can only be called by the current owner. NOTE: Renouncing ownership will leave the contract without an owner, thereby removing any functionality that is only available to the owner."
      },
      "transferOwnership(address)": {
        "details": "Transfers ownership of the contract to a new account (`newOwner`). Can only be called by the current owner."
      }
    },
    "version": 1
  },
  "userdoc": {
    "kind": "user",
    "methods": {
      "createOrder(address,uint256)": {
        "notice": "createOrder methodtransfer price to contract"
      },
      "isTradeOpen(address,uint256)": {
        "notice": "Return true if trade is opened"
      }
    },
    "notice": "Give the ability to create buy order for an nft and process them",
    "version": 1
  }
}