{
  "contractName": "NftTrade",
  "abi": [
    {
      "anonymous": false,
      "inputs": [
        {
          "indexed": false,
          "internalType": "address",
          "name": "_nftAddress",
          "type": "address"
        },
        {
          "indexed": false,
          "internalType": "uint256",
          "name": "_tokenId",
          "type": "uint256"
        },
        {
          "indexed": false,
          "internalType": "uint256",
          "name": "count",
          "type": "uint256"
        }
      ],
      "name": "CreateProposalBuyOrder",
      "type": "event"
    },
    {
      "anonymous": false,
      "inputs": [
        {
          "indexed": false,
          "internalType": "address",
          "name": "_nftAddress",
          "type": "address"
        },
        {
          "indexed": false,
          "internalType": "uint256",
          "name": "_tokenId",
          "type": "uint256"
        },
        {
          "indexed": false,
          "internalType": "uint256",
          "name": "index",
          "type": "uint256"
        }
      ],
      "name": "ProcessProposalBuyOrder",
      "type": "event"
    },
    {
      "inputs": [
        {
          "internalType": "contract NftCollection",
          "name": "_nftCollection",
          "type": "address"
        },
        {
          "internalType": "uint256",
          "name": "_tokenId",
          "type": "uint256"
        },
        {
          "internalType": "uint256",
          "name": "_price",
          "type": "uint256"
        }
      ],
      "name": "createOrder",
      "outputs": [],
      "stateMutability": "payable",
      "type": "function",
      "payable": true
    },
    {
      "inputs": [
        {
          "internalType": "contract NftCollection",
          "name": "_nftCollection",
          "type": "address"
        },
        {
          "internalType": "uint256",
          "name": "_tokenId",
          "type": "uint256"
        },
        {
          "internalType": "uint256",
          "name": "proposalIndex",
          "type": "uint256"
        }
      ],
      "name": "processOrder",
      "outputs": [],
      "stateMutability": "nonpayable",
      "type": "function"
    },
    {
      "inputs": [
        {
          "internalType": "contract NftCollection",
          "name": "_nftCollection",
          "type": "address"
        },
        {
          "internalType": "uint256",
          "name": "_tokenId",
          "type": "uint256"
        }
      ],
      "name": "cancelOrders",
      "outputs": [],
      "stateMutability": "nonpayable",
      "type": "function"
    }
  ],
  "bytecode": "0x608060405234801561001057600080fd5b50611021806100206000396000f3fe6080604052600436106100345760003560e01c806378e8b723146100395780637905b59614610062578063acfee8ed1461008b575b600080fd5b34801561004557600080fd5b50610060600480360381019061005b9190610c16565b6100a7565b005b34801561006e57600080fd5b5061008960048036038101906100849190610c56565b6101ec565b005b6100a560048036038101906100a09190610c56565b610819565b005b600060028111156100bb576100ba610ca9565b5b6000808473ffffffffffffffffffffffffffffffffffffffff1673ffffffffffffffffffffffffffffffffffffffff168152602001908152602001600020600083815260200190815260200160002060000160009054906101000a900460ff16600281111561012d5761012c610ca9565b5b1461016d576040517f08c379a000000000000000000000000000000000000000000000000000000000815260040161016490610d35565b60405180910390fd5b60026000808473ffffffffffffffffffffffffffffffffffffffff1673ffffffffffffffffffffffffffffffffffffffff168152602001908152602001600020600083815260200190815260200160002060000160006101000a81548160ff021916908360028111156101e3576101e2610ca9565b5b02179055505050565b8273ffffffffffffffffffffffffffffffffffffffff16636352211e836040518263ffffffff1660e01b81526004016102259190610d64565b602060405180830381865afa158015610242573d6000803e3d6000fd5b505050506040513d601f19601f820116820180604052508101906102669190610dab565b73ffffffffffffffffffffffffffffffffffffffff163373ffffffffffffffffffffffffffffffffffffffff16146102d3576040517f08c379a00000000000000000000000000000000000000000000000000000000081526004016102ca90610e24565b60405180910390fd5b6000808473ffffffffffffffffffffffffffffffffffffffff1673ffffffffffffffffffffffffffffffffffffffff168152602001908152602001600020600083815260200190815260200160002060010180549050811061036a576040517f08c379a000000000000000000000000000000000000000000000000000000000815260040161036190610eb6565b60405180910390fd5b6000600281111561037e5761037d610ca9565b5b6000808573ffffffffffffffffffffffffffffffffffffffff1673ffffffffffffffffffffffffffffffffffffffff168152602001908152602001600020600084815260200190815260200160002060000160009054906101000a900460ff1660028111156103f0576103ef610ca9565b5b14610430576040517f08c379a000000000000000000000000000000000000000000000000000000000815260040161042790610d35565b60405180910390fd5b60016000808573ffffffffffffffffffffffffffffffffffffffff1673ffffffffffffffffffffffffffffffffffffffff168152602001908152602001600020600084815260200190815260200160002060000160006101000a81548160ff021916908360028111156104a6576104a5610ca9565b5b021790555060008060008573ffffffffffffffffffffffffffffffffffffffff1673ffffffffffffffffffffffffffffffffffffffff1681526020019081526020016000206000848152602001908152602001600020600101828154811061051157610510610ed6565b5b906000526020600020906002020190508373ffffffffffffffffffffffffffffffffffffffff16638fba3f7c8260000160009054906101000a900473ffffffffffffffffffffffffffffffffffffffff16856040518363ffffffff1660e01b8152600401610580929190610f14565b600060405180830381600087803b15801561059a57600080fd5b505af11580156105ae573d6000803e3d6000fd5b505050508373ffffffffffffffffffffffffffffffffffffffff16636352211e846040518263ffffffff1660e01b81526004016105eb9190610d64565b602060405180830381865afa158015610608573d6000803e3d6000fd5b505050506040513d601f19601f8201168201806040525081019061062c9190610dab565b73ffffffffffffffffffffffffffffffffffffffff166108fc82600101549081150290604051600060405180830381858888f19350505050158015610675573d6000803e3d6000fd5b5060005b6000808673ffffffffffffffffffffffffffffffffffffffff1673ffffffffffffffffffffffffffffffffffffffff1681526020019081526020016000206000858152602001908152602001600020600101805490508110156107d7578281146107c45760008060008773ffffffffffffffffffffffffffffffffffffffff1673ffffffffffffffffffffffffffffffffffffffff1681526020019081526020016000206000868152602001908152602001600020600101848154811061074357610742610ed6565b5b906000526020600020906002020190508060000160009054906101000a900473ffffffffffffffffffffffffffffffffffffffff1673ffffffffffffffffffffffffffffffffffffffff166108fc82600101549081150290604051600060405180830381858888f193505050501580156107c1573d6000803e3d6000fd5b50505b80806107cf90610f6c565b915050610679565b507fcdeb22aaa14b1bd1f488101b430616f16926dc9f8143372e15b2612656b7dd7d84848460405161080b93929190610fb4565b60405180910390a150505050565b6000600281111561082d5761082c610ca9565b5b6000808573ffffffffffffffffffffffffffffffffffffffff1673ffffffffffffffffffffffffffffffffffffffff168152602001908152602001600020600084815260200190815260200160002060000160009054906101000a900460ff16600281111561089f5761089e610ca9565b5b146108df576040517f08c379a00000000000000000000000000000000000000000000000000000000081526004016108d690610d35565b60405180910390fd5b3073ffffffffffffffffffffffffffffffffffffffff166108fc829081150290604051600060405180830381858888f19350505050158015610925573d6000803e3d6000fd5b5061092e610b0f565b60008160000190600281111561094757610946610ca9565b5b9081600281111561095b5761095a610ca9565b5b81525050610967610b3b565b33816000019073ffffffffffffffffffffffffffffffffffffffff16908173ffffffffffffffffffffffffffffffffffffffff1681525050828160200181815250506000808673ffffffffffffffffffffffffffffffffffffffff1673ffffffffffffffffffffffffffffffffffffffff168152602001908152602001600020600085815260200190815260200160002060010181908060018154018082558091505060019003906000526020600020906002020160009091909190915060008201518160000160006101000a81548173ffffffffffffffffffffffffffffffffffffffff021916908373ffffffffffffffffffffffffffffffffffffffff1602179055506020820151816001015550507f5409c45c88064ec8073989c65260ef90d73959a91329b8894c573e0044268edf85856000808973ffffffffffffffffffffffffffffffffffffffff1673ffffffffffffffffffffffffffffffffffffffff168152602001908152602001600020600088815260200190815260200160002060010180549050604051610b0093929190610fb4565b60405180910390a15050505050565b604051806040016040528060006002811115610b2e57610b2d610ca9565b5b8152602001606081525090565b6040518060400160405280600073ffffffffffffffffffffffffffffffffffffffff168152602001600081525090565b600080fd5b600073ffffffffffffffffffffffffffffffffffffffff82169050919050565b6000610b9b82610b70565b9050919050565b6000610bad82610b90565b9050919050565b610bbd81610ba2565b8114610bc857600080fd5b50565b600081359050610bda81610bb4565b92915050565b6000819050919050565b610bf381610be0565b8114610bfe57600080fd5b50565b600081359050610c1081610bea565b92915050565b60008060408385031215610c2d57610c2c610b6b565b5b6000610c3b85828601610bcb565b9250506020610c4c85828601610c01565b9150509250929050565b600080600060608486031215610c6f57610c6e610b6b565b5b6000610c7d86828701610bcb565b9350506020610c8e86828701610c01565b9250506040610c9f86828701610c01565b9150509250925092565b7f4e487b7100000000000000000000000000000000000000000000000000000000600052602160045260246000fd5b600082825260208201905092915050565b7f6e6f2070726f706f73616c7320666f722074686973204e667400000000000000600082015250565b6000610d1f601983610cd8565b9150610d2a82610ce9565b602082019050919050565b60006020820190508181036000830152610d4e81610d12565b9050919050565b610d5e81610be0565b82525050565b6000602082019050610d796000830184610d55565b92915050565b610d8881610b90565b8114610d9357600080fd5b50565b600081519050610da581610d7f565b92915050565b600060208284031215610dc157610dc0610b6b565b5b6000610dcf84828501610d96565b91505092915050565b7f596f7520617265206e6f742074686520746f6b656e4964206f776e6572000000600082015250565b6000610e0e601d83610cd8565b9150610e1982610dd8565b602082019050919050565b60006020820190508181036000830152610e3d81610e01565b9050919050565b7f746869732070726f706f73616c20666f72207468697320696e64657820646f6560008201527f73206e6f74206578697374730000000000000000000000000000000000000000602082015250565b6000610ea0602c83610cd8565b9150610eab82610e44565b604082019050919050565b60006020820190508181036000830152610ecf81610e93565b9050919050565b7f4e487b7100000000000000000000000000000000000000000000000000000000600052603260045260246000fd5b610f0e81610b90565b82525050565b6000604082019050610f296000830185610f05565b610f366020830184610d55565b9392505050565b7f4e487b7100000000000000000000000000000000000000000000000000000000600052601160045260246000fd5b6000610f7782610be0565b91507fffffffffffffffffffffffffffffffffffffffffffffffffffffffffffffffff8203610fa957610fa8610f3d565b5b600182019050919050565b6000606082019050610fc96000830186610f05565b610fd66020830185610d55565b610fe36040830184610d55565b94935050505056fea2646970667358221220176aad61cd57e12bc8df6c18815a468b7810509acd091a4eb224db3bba427a3364736f6c634300080d0033",
  "immutableReferences": {},
  "source": "// SPDX-License-Identifier: MIT\npragma solidity 0.8.13;\n\n// importing the ERC-721 contract to deploy for a collection\nimport \"./NftCollection.sol\";\n\n\n/** \n  * @notice Give the ability to create buy order for an nft and process them\n  */\ncontract NftTrade {\n\n    // Mapping from collection to buyProposal token IDs\n    mapping(NftCollection => mapping(uint256 => BuyProposals)) private nftTrades;\n    \n    event CreateProposalBuyOrder(address _nftAddress, uint _tokenId, uint count);\n    event ProcessProposalBuyOrder(address _nftAddress, uint _tokenId, uint index);\n    enum  BuyProposalStatus {\n        Open,\n        Executed,\n        Cancelled\n    }\n\n    struct BuyProposals {\n        BuyProposalStatus status; // Open, Executed, Cancelled\n        BuyProposal[] buyProposals;\n    }\n\n    struct BuyProposal {\n        address proposalOwner;\n        uint256 price;   \n    }\n\n\n    /** \n        createOrder method\n        @notice transfer price to contract\n        @param _nftCollection the addres of nftCollection\n        @param _price the offered price\n        @dev Throws if _nft does not exists\n    */    \n    function createOrder(NftCollection _nftCollection, uint256 _tokenId, uint _price) external payable {\n        require(nftTrades[_nftCollection][_tokenId].status == BuyProposalStatus.Open, \"no proposals for this Nft\");\n        payable(address(this)).transfer(_price);\n        BuyProposals memory proposals;\n        proposals.status = BuyProposalStatus.Open;\n\n        BuyProposal memory buyProposal;\n        buyProposal.proposalOwner = msg.sender;\n        buyProposal.price = _price;\n\n        nftTrades[_nftCollection][_tokenId].buyProposals.push(buyProposal);\n        \n        emit CreateProposalBuyOrder(address(_nftCollection), _tokenId, nftTrades[_nftCollection][_tokenId].buyProposals.length);\n    }\n\n    function processOrder(NftCollection _nftCollection, uint256 _tokenId, uint proposalIndex ) external {\n        require(msg.sender == _nftCollection.ownerOf(_tokenId), \"You are not the tokenId owner\");\n\n        require(proposalIndex < nftTrades[_nftCollection][_tokenId].buyProposals.length, \"this proposal for this index does not exists\");\n        require(nftTrades[_nftCollection][_tokenId].status == BuyProposalStatus.Open, \"no proposals for this Nft\");\n        nftTrades[_nftCollection][_tokenId].status = BuyProposalStatus.Executed;\n\n        BuyProposal storage buyProposal = nftTrades[_nftCollection][_tokenId].buyProposals[proposalIndex];\n        _nftCollection.changeNftOwner(buyProposal.proposalOwner, _tokenId);\n        \n        payable(address(_nftCollection.ownerOf(_tokenId))).transfer(buyProposal.price);\n\n        for (uint index = 0; index < nftTrades[_nftCollection][_tokenId].buyProposals.length; index++ ) {\n            if(index != proposalIndex) {\n                BuyProposal storage notAcceptedProposal = nftTrades[_nftCollection][_tokenId].buyProposals[proposalIndex];\n                payable(address(notAcceptedProposal.proposalOwner)).transfer(notAcceptedProposal.price);\n            }\n        }\n \n        emit ProcessProposalBuyOrder(address(_nftCollection), _tokenId, proposalIndex);\n    }\n\n    function cancelOrders(NftCollection _nftCollection, uint256 _tokenId) external {\n        require(nftTrades[_nftCollection][_tokenId].status == BuyProposalStatus.Open, \"no proposals for this Nft\");\n        nftTrades[_nftCollection][_tokenId].status = BuyProposalStatus.Cancelled;\n    }\n}",
  "sourcePath": "/home/pierre/Projets/Alyra/Projet_5/contracts/NftMarketPlace.sol",
  "compiler": {
    "name": "solc",
    "version": "0.8.13+commit.abaa5c0e.Emscripten.clang"
  },
  "schemaVersion": "3.4.6",
  "updatedAt": "2022-05-15T00:12:49.673Z",
  "networkType": "ethereum",
  "devdoc": {
    "kind": "dev",
    "methods": {
      "createOrder(address,uint256,uint256)": {
        "details": "Throws if _nft does not exists",
        "params": {
          "_nftCollection": "the addres of nftCollection",
          "_price": "the offered price"
        }
      }
    },
    "version": 1
  },
  "userdoc": {
    "kind": "user",
    "methods": {
      "createOrder(address,uint256,uint256)": {
        "notice": "createOrder methodtransfer price to contract"
      }
    },
    "notice": "Give the ability to create buy order for an nft and process them",
    "version": 1
  }
}